:100000000C94BC020C94E4020C94E4020C94E40200
:100010000C94E4020C94E4020C94E4020C94E402C8
:100020000C94E4020C94E4020C94E4020C94E402B8
:100030000C94E4020C9472040C949E040C944604F8
:100040000C9496030C94C2030C94EE030C941A04C3
:100050000C946A030C9412030C943E030C94E60275
:100060000C94E4020C9496080C94E4020C946A0834
:100070000C94E4020C9413300C94E4020C94F604F7
:100080000C9422050C944E050C947A050C94CA0429
:100090000C94A4070C94E4020C9478070C94E402EA
:1000A0000C94E4020C94D2050C94FE050C942A06E0
:1000B0000C9456060C94A6050C94AE060C94DA0625
:1000C0000C9406070C9432070C9482060C94E402FC
:1000D0000C94E4020C94E4020C941D080C94E402C9
:1000E0000C94F107084AD73B3BCE016E84BCBFFDA0
:1000F000C12F3D6C74319ABD56833DDA3D00C77FF8
:1001000011BED9E4BB4C3E916BAAAABE0000008090
:100110003F05A84CCDB2D44EB93836A9020C50B91F
:10012000918688083CA6AAAA2ABE000000803F0744
:10013000634236B79BD8A71A39685618AEBAAB5582
:100140008C1D3CB7CC5763BD6DEDFD753EF6177247
:1001500031BF000000803F08000000BE9224491219
:100160003EABAAAA2ABECDCCCC4C3E00000080BE3D
:10017000ABAAAAAA3E00000000BF000000803F001A
:1001800000000000084178D3BB4387D1133D190E0E
:100190003CC3BD4282AD2B3E68EC8276BED98FE176
:1001A000A93E4C80EFFFBE01C4FF7F3F000000006E
:1001B000002500240023002800270026002B002A09
:1001C0000029002E002D002C0034003300320002E4
:1001D00001010100010501040103010B010A0109EC
:1001E00001B10110B10120B10140B10180B701019D
:1001F000B70102B70104B70108B70110B70120BD6C
:100200000104BD0108BD0120BD0140BD0180C30145
:1002100001C30102C30108C30110C30120C301804F
:10022000C90120CF0108CF0110CF0120CF0140D557
:100230000101D50102DB0101DB0102DB0108DB0169
:1002400010DB01200000000000000000E101E401DB
:10025000E701EA010E022F023202FB02006E0002E9
:100260004700350002440006EA01FF02006E000468
:10027000480035000444000420020E03016F000210
:100280008800360002800006E4011203016F0004BA
:100290008A00360004800004E7011603016F00089D
:1002A0008C00360008800002EA012503027000027B
:1002B000B300370002B00006E10129030270000418
:1002C000B400370004B000042C02380303710002AC
:1002D000980038000290000614023C0303710004E9
:1002E0009A003800049000041702400303710008CC
:1002F0009C003800089000021A024F0304720002AA
:10030000A800390002A0000623025303047200046F
:10031000AA00390004A00004260257030472000852
:10032000AC00390008A00002290266030573000230
:1003300028013A00022001063B026A03057300040B
:100340002A013A00042001043E026E0305730008EE
:100350002C013A00082001024102F002460045004B
:1003600000000233884400014400024500080000F8
:10037000015A026E0001350001000000000100007A
:10038000010000010000030384008100FF0003FF5F
:10039000DF8000018000028100088100107A026F76
:1003A000000136000186006F0020360020810040E9
:1003B00000001A03B200B10000FF023388B0000150
:1003C000B00002B10008000001AA0270000137006D
:1003D00001000000000100000100000100002D03E9
:1003E00094009100FF0003FFDF9000019000029154
:1003F0000008910010CA02710001380001960071D6
:1004000000203800209100401D024403A400A100F8
:10041000FF0003FFDFA00001A00002A10008A1006F
:1004200010FA02720001390001A6007200203900A2
:1004300020A1004035025B0324012101FF0003FFDE
:10044000DF2001012001022101082101102A03738C
:1004500000013A000126017300203A0020210140EA
:10046000380288137D024E554C4C00207C50524F70
:10047000424C454D20593A2025647C2000207C5078
:10048000524F424C454D20583A2025647C20000BA9
:10049000005F007C0A002E00230040004F006F0028
:1004A00052000A005F0025640A004C6F6F703D2502
:1004B000750A004142434445464748494A4B4C4D22
:1004C0004E4F505152535455565758595A0A0000DE
:1004D000007D1D000000000000A21D000000003093
:1004E000313233343536373839414243444546009A
:1004F000EE3E9C7A9E8EF62E0C78AE1CAA2A3ACE40
:10050000E60AB61E387CB86E76DAFC60DAF266B6B9
:100510003EE0FEE60000010008004000000100048B
:1005200000000100080020004000800000010004DD
:100530000001FFFF0203FFFFFFFFFF05FFFFFF07B3
:100540000001FFFF020355736572204572726F72DE
:100550003A25640A00576562626F744C69622045EF
:1005600072726F723A25640A00C22E782FB62F4D30
:100570002F7F2F632F00223011241FBECFEFD1E237
:10058000DEBFCDBF12E0A0E0B2E0E2E7F0E702C0DC
:1005900005900D92AA3EB107D9F71CE0AAEEB2E091
:1005A00001C01D92A432B107E1F715E0C8E7D5E01C
:1005B00004C02297FE010E943338C637D107C9F71D
:1005C0000E94DA200C9426330C9400001F920F92A4
:1005D0000FB60F9211242F933F934F935F936F9316
:1005E0007F938F939F93AF93BF93EF93FF93DF938B
:1005F000CF93CDB7DEB78AE593E00E94CC26CF91AA
:10060000DF91FF91EF91BF91AF919F918F917F917A
:100610006F915F914F913F912F910F900FBE0F906F
:100620001F9018951F920F920FB60F9211242F93BF
:100630003F934F935F936F937F938F939F93AF936A
:10064000BF93EF93FF93DF93CF93CDB7DEB78AE5E8
:1006500092E00E94EA26CF91DF91FF91EF91BF9146
:10066000AF919F918F917F916F915F914F913F914A
:100670002F910F900FBE0F901F9018951F920F9201
:100680000FB60F9211242F933F934F935F936F9365
:100690007F938F939F93AF93BF93EF93FF93DF93DA
:1006A000CF93CDB7DEB78AE692E00E94EA26CF91DB
:1006B000DF91FF91EF91BF91AF919F918F917F91CA
:1006C0006F915F914F913F912F910F900FBE0F90BF
:1006D0001F9018951F920F920FB60F9211242F930F
:1006E0003F934F935F936F937F938F939F93AF93BA
:1006F000BF93EF93FF93DF93CF93CDB7DEB786E839
:1007000093E00E94CC26CF91DF91FF91EF91BF91B2
:10071000AF919F918F917F916F915F914F913F9199
:100720002F910F900FBE0F901F9018951F920F9250
:100730000FB60F9211242F933F934F935F936F93B4
:100740007F938F939F93AF93BF93EF93FF93DF9329
:10075000CF93CDB7DEB786E893E00E94DB26CF913A
:10076000DF91FF91EF91BF91AF919F918F917F9119
:100770006F915F914F913F912F910F900FBE0F900E
:100780001F9018951F920F920FB60F9211242F935E
:100790003F934F935F936F937F938F939F93AF9309
:1007A000BF93EF93FF93DF93CF93CDB7DEB78AE785
:1007B00092E00E94EA26CF91DF91FF91EF91BF91E5
:1007C000AF919F918F917F916F915F914F913F91E9
:1007D0002F910F900FBE0F901F9018951F920F92A0
:1007E0000FB60F9211242F933F934F935F936F9304
:1007F0007F938F939F93AF93BF93EF93FF93DF9379
:10080000CF93CDB7DEB78AE892E00E94EA26CF9177
:10081000DF91FF91EF91BF91AF919F918F917F9168
:100820006F915F914F913F912F910F900FBE0F905D
:100830001F9018951F920F920FB60F9211242F93AD
:100840003F934F935F936F937F938F939F93AF9358
:10085000BF93EF93FF93DF93CF93CDB7DEB78AE9D2
:1008600092E00E94EA26CF91DF91FF91EF91BF9134
:10087000AF919F918F917F916F915F914F913F9138
:100880002F910F900FBE0F901F9018951F920F92EF
:100890000FB60F9211242F933F934F935F936F9353
:1008A0007F938F939F93AF93BF93EF93FF93DF93C8
:1008B000CF93CDB7DEB782EB93E00E94CC26CF91E9
:1008C000DF91FF91EF91BF91AF919F918F917F91B8
:1008D0006F915F914F913F912F910F900FBE0F90AD
:1008E0001F9018951F920F920FB60F9211242F93FD
:1008F0003F934F935F936F937F938F939F93AF93A8
:10090000BF93EF93FF93DF93CF93CDB7DEB78AEA20
:1009100092E00E94EA26CF91DF91FF91EF91BF9183
:10092000AF919F918F917F916F915F914F913F9187
:100930002F910F900FBE0F901F9018951F920F923E
:100940000FB60F9211242F933F934F935F936F93A2
:100950007F938F939F93AF93BF93EF93FF93DF9317
:10096000CF93CDB7DEB78AEB92E00E94EA26CF9113
:10097000DF91FF91EF91BF91AF919F918F917F9107
:100980006F915F914F913F912F910F900FBE0F90FC
:100990001F9018951F920F920FB60F9211242F934C
:1009A0003F934F935F936F937F938F939F93AF93F7
:1009B000BF93EF93FF93DF93CF93CDB7DEB78EED69
:1009C00093E00E94CC26CF91DF91FF91EF91BF91F0
:1009D000AF919F918F917F916F915F914F913F91D7
:1009E0002F910F900FBE0F901F9018951F920F928E
:1009F0000FB60F9211242F933F934F935F936F93F2
:100A00007F938F939F93AF93BF93EF93FF93DF9366
:100A1000CF93CDB7DEB78EED93E00E94DB26CF916A
:100A2000DF91FF91EF91BF91AF919F918F917F9156
:100A30006F915F914F913F912F910F900FBE0F904B
:100A40001F9018951F920F920FB60F9211242F939B
:100A50003F934F935F936F937F938F939F93AF9346
:100A6000BF93EF93FF93DF93CF93CDB7DEB78AECBD
:100A700092E00E94EA26CF91DF91FF91EF91BF9122
:100A8000AF919F918F917F916F915F914F913F9126
:100A90002F910F900FBE0F901F9018951F920F92DD
:100AA0000FB60F9211242F933F934F935F936F9341
:100AB0007F938F939F93AF93BF93EF93FF93DF93B6
:100AC000CF93CDB7DEB78AED92E00E94EA26CF91B0
:100AD000DF91FF91EF91BF91AF919F918F917F91A6
:100AE0006F915F914F913F912F910F900FBE0F909B
:100AF0001F9018951F920F920FB60F9211242F93EB
:100B00003F934F935F936F937F938F939F93AF9395
:100B1000BF93EF93FF93DF93CF93CDB7DEB78AEE0A
:100B200092E00E94EA26CF91DF91FF91EF91BF9171
:100B3000AF919F918F917F916F915F914F913F9175
:100B40002F910F900FBE0F901F9018951F920F922C
:100B50000FB60F9211242F933F934F935F936F9390
:100B60007F938F939F93AF93BF93EF93FF93DF9305
:100B7000CF93CDB7DEB78AE094E00E94CC26CF9128
:100B8000DF91FF91EF91BF91AF919F918F917F91F5
:100B90006F915F914F913F912F910F900FBE0F90EA
:100BA0001F9018951F920F920FB60F9211242F933A
:100BB0003F934F935F936F937F938F939F93AF93E5
:100BC000BF93EF93FF93DF93CF93CDB7DEB78AE068
:100BD00094E00E94DB26CF91DF91FF91EF91BF91CE
:100BE000AF919F918F917F916F915F914F913F91C5
:100BF0002F910F900FBE0F901F9018951F920F927C
:100C00000FB60F9211242F933F934F935F936F93DF
:100C10007F938F939F93AF93BF93EF93FF93DF9354
:100C2000CF93CDB7DEB78AEF92E00E94EA26CF914C
:100C3000DF91FF91EF91BF91AF919F918F917F9144
:100C40006F915F914F913F912F910F900FBE0F9039
:100C50001F9018951F920F920FB60F9211242F9389
:100C60003F934F935F936F937F938F939F93AF9334
:100C7000BF93EF93FF93DF93CF93CDB7DEB78AE0B7
:100C800093E00E94EA26CF91DF91FF91EF91BF910F
:100C9000AF919F918F917F916F915F914F913F9114
:100CA0002F910F900FBE0F901F9018951F920F92CB
:100CB0000FB60F9211242F933F934F935F936F932F
:100CC0007F938F939F93AF93BF93EF93FF93DF93A4
:100CD000CF93CDB7DEB78AE193E00E94EA26CF91A9
:100CE000DF91FF91EF91BF91AF919F918F917F9194
:100CF0006F915F914F913F912F910F900FBE0F9089
:100D00001F9018951F920F920FB60F9211242F93D8
:100D10003F934F935F936F937F938F939F93AF9383
:100D2000BF93EF93FF93DF93CF93CDB7DEB786E307
:100D300094E00E94CC26CF91DF91FF91EF91BF917B
:100D4000AF919F918F917F916F915F914F913F9163
:100D50002F910F900FBE0F901F9018951F920F921A
:100D60000FB60F9211242F933F934F935F936F937E
:100D70007F938F939F93AF93BF93EF93FF93DF93F3
:100D8000CF93CDB7DEB786E394E00E94DB26CF9108
:100D9000DF91FF91EF91BF91AF919F918F917F91E3
:100DA0006F915F914F913F912F910F900FBE0F90D8
:100DB0001F9018951F920F920FB60F9211242F9328
:100DC0003F934F935F936F937F938F939F93AF93D3
:100DD000BF93EF93FF93DF93CF93CDB7DEB78AE254
:100DE00093E00E94EA26CF91DF91FF91EF91BF91AE
:100DF000AF919F918F917F916F915F914F913F91B3
:100E00002F910F900FBE0F901F9018951F920F9269
:100E10000FB60F9211242F933F934F935F936F93CD
:100E20007F938F939F93AF93BF93EF93FF93DF9342
:100E3000CF93CDB7DEB78AE393E00E94EA26CF9145
:100E4000DF91FF91EF91BF91AF919F918F917F9132
:100E50006F915F914F913F912F910F900FBE0F9027
:100E60001F9018951F920F920FB60F9211242F9377
:100E70003F934F935F936F937F938F939F93AF9322
:100E8000BF93EF93FF93DF93CF93CDB7DEB78AE4A1
:100E900093E00E94EA26CF91DF91FF91EF91BF91FD
:100EA000AF919F918F917F916F915F914F913F9102
:100EB0002F910F900FBE0F901F901895DF93CF9337
:100EC0000F92CDB7DEB789838BE092E069810E94F3
:100ED000351F0F90CF91DF910895DF93CF93CDB75A
:100EE000DEB78BE092E00E94861FCF91DF910895DC
:100EF0001F920F920FB60F9211242F933F934F938F
:100F00005F936F937F938F939F93AF93BF93EF9371
:100F1000FF93DF93CF93CDB7DEB78BE092E00E94D3
:100F2000AC1FCF91DF91FF91EF91BF91AF919F9156
:100F30008F917F916F915F914F913F912F910F9082
:100F40000FBE0F901F9018951F920F920FB60F9221
:100F500011242F933F934F935F936F937F938F93BE
:100F60009F93AF93BF93EF93FF93DF93CF93CDB74F
:100F7000DEB780912B0290912C02FC0120818BE046
:100F800092E0622F0E94DF1FCF91DF91FF91EF91DE
:100F9000BF91AF919F918F917F916F915F914F9191
:100FA0003F912F910F900FBE0F901F901895DF93D8
:100FB000CF930F92CDB7DEB7898380E392E069814A
:100FC0000E94351F0F90CF91DF910895DF93CF934B
:100FD000CDB7DEB780E392E00E94861FCF91DF910C
:100FE00008951F920F920FB60F9211242F933F93E3
:100FF0004F935F936F937F938F939F93AF93BF9321
:10100000EF93FF93DF93CF93CDB7DEB780E392E00A
:101010000E94AC1FCF91DF91FF91EF91BF91AF91F3
:101020009F918F917F916F915F914F913F912F9100
:101030000F900FBE0F901F9018951F920F920FB632
:101040000F9211242F933F934F935F936F937F934E
:101050008F939F93AF93BF93EF93FF93DF93CF93C0
:10106000CDB7DEB78091500290915102FC012081F2
:1010700080E392E0622F0E94DF1FCF91DF91FF910A
:10108000EF91BF91AF919F918F917F916F915F9100
:101090004F913F912F910F900FBE0F901F90189579
:1010A000DF93CF930F92CDB7DEB7898385E592E0CA
:1010B00069810E94351F0F90CF91DF910895DF93D2
:1010C000CF93CDB7DEB785E592E00E94861FCF9122
:1010D000DF9108951F920F920FB60F9211242F9354
:1010E0003F934F935F936F937F938F939F93AF93B0
:1010F000BF93EF93FF93DF93CF93CDB7DEB785E533
:1011000092E00E94AC1FCF91DF91FF91EF91BF91D0
:10111000AF919F918F917F916F915F914F913F918F
:101120002F910F900FBE0F901F9018951F920F9246
:101130000FB60F9211242F933F934F935F936F93AA
:101140007F938F939F93AF93BF93EF93FF93DF931F
:10115000CF93CDB7DEB78091750290917602FC01F6
:10116000208185E592E0622F0E94DF1FCF91DF9101
:10117000FF91EF91BF91AF919F918F917F916F916F
:101180005F914F913F912F910F900FBE0F901F9045
:101190001895DF93CF930F92CDB7DEB789838EE892
:1011A00092E069810E9470240F90CF91DF910895A1
:1011B000DF93CF93CDB7DEB78BE792E00E94EF08C5
:1011C0008BE092E040E052EC61E070E00E94FC1E97
:1011D0008DE792E00E940209CF91DF910895DF939D
:1011E000CF9300D0CDB7DEB79A838983E981FA81A6
:1011F000808191816FEF0E9477210F900F90CF91A6
:10120000DF910895DF93CF9300D0CDB7DEB79A83F7
:10121000898389819A8160E20E9484230F900F90D4
:10122000CF91DF910895DF93CF93CDB7DEB785EAF5
:1012300092E00E941D1E8FEA92E00E941D1E89EB23
:1012400092E00E941D1E83EC92E00E941D1E80E32E
:1012500092E040E056E960E070E00E94FC1E8DECF8
:1012600092E00E941D1E80E598E00E94FB2680E52A
:1012700098E00E94722285E592E040E056E960E045
:1012800070E00E94FC1ECF91DF910895DF93CF9311
:10129000CDB7DEB780EF91E060E00E945209CF91B8
:1012A000DF910895DF93CF9300D00F92CDB7DEB7D3
:1012B0009A8389836B8389819A819093120C80939E
:1012C000110C8B818170982F91708091130C8E7FFF
:1012D000892B8093130C8091130C8D7F8093130CBA
:1012E00081E19CE00E947A090F900F900F90CF91BE
:1012F000DF910895DF93CF9300D0CDB7DEB79A8307
:10130000898389819A816FEF0E944F220F900F90FD
:10131000CF91DF910895DF93CF93CDB7DEB7CF9113
:10132000DF910895DF93CF9300D0CDB7DEB79A83D6
:10133000898389819A81AA2797FDA095BA2FBC013C
:10134000CD010E949234DC01CB01BC01CD012BED1B
:101350003FE049E450E40E94B435DC01CB01BC011C
:10136000CD0120E030E044E353E40E94F733DC0198
:10137000CB01BC01CD010F900F90CF91DF9108956B
:10138000DF93CF9300D0CDB7DEB79A8389832981CD
:101390003A8184EB90E0AC01249FC001259F900D21
:1013A000349F900D1124AA2797FDA095BA2FBC0158
:1013B000CD010E949234DC01CB01BC01CD012BEDAB
:1013C0003FE049E450E40E94F733DC01CB01BC016B
:1013D000CD010F900F90CF91DF910895DF93CF93C0
:1013E00000D0CDB7DEB781E090E00E941F329A8333
:1013F0008983E981FA8185E0808389819A810F90D0
:101400000F90CF91DF910895DF93CF9300D0CDB7A8
:10141000DEB783E090E00E941F329A838983E981DE
:10142000FA818FEF8083E981FA81128211828981AA
:101430009A810F900F90CF91DF9108950F931F9392
:10144000DF93CF93CDB7DEB72A970FB6F894DEBF00
:101450000FBECDBF8B836C835E834D8338872F8314
:101460001A8709878EE090E00E941F329A83898351
:1014700089819A81009781F486E694E000D00F92EA
:10148000EDB7FEB7319621E02083928381830E94DD
:10149000CC220F900F900F908B81882F90E0A0E0CE
:1014A000B0E0BC01CD010E949034DC01CB01E981A8
:1014B000FA8180839183A283B3838C81882F90E00B
:1014C000A0E0B0E0BC01CD010E949034DC01CB0172
:1014D000E981FA8184839583A683B783E981FA81C0
:1014E0008F81988593878287E981FA8189859A859A
:1014F00095878487E981FA818D819E819187808794
:1015000089819A812A960FB6F894DEBF0FBECDBFAF
:10151000CF91DF911F910F910895DF93CF9300D06A
:10152000CDB7DEB79A838983E981FA81A485B58531
:10153000E981FA81828593851B969C938E931A97F5
:10154000E981FA81A285B385E981FA81848595854F
:101550001D969C938E931C9789819A810E94C93213
:101560000F900F90CF91DF910895DF93CF9300D02C
:10157000CDB7DEB79A83898389819A810E94C93267
:101580000F900F90CF91DF910895DF93CF9300D00C
:10159000CDB7DEB79A83898389819A810E94C93247
:1015A0000F900F90CF91DF910895DF93CF9300D0EC
:1015B0000F92CDB7DEB79A8389836B838B818823A3
:1015C00059F00E94EE09E981FA8192838183E981D1
:1015D000FA8181E0808309C00E94040AE981FA81CE
:1015E00092838183E981FA8110820F900F900F908E
:1015F000CF91DF910895DF93CF9300D00F92CDB7B5
:10160000DEB789836A834B8389818B31C0F04DE7D4
:1016100054E08981282F30E000D000D00F92EDB740
:10162000FEB7319681E080835283418334832383E4
:101630000E94CC220F900F900F900F900F908981F5
:101640008B3110F00E9421338A818B31C0F04BE640
:1016500054E08A81282F30E000D000D00F92EDB7FF
:10166000FEB7319681E080835283418334832383A4
:101670000E94CC220F900F900F900F900F908A81B4
:101680008B3110F00E9421338981482F50E08A81EC
:10169000282F30E0C901880F991F820F931F2EE475
:1016A00030E0B901469F9001479F300D569F300DA5
:1016B0001124820F931FFC01EF5DFB4F8081882373
:1016C00009F482C08B81882309F47EC08981482F68
:1016D00050E08A81282F30E0C901880F991F820FBE
:1016E000931F2EE430E0B901469F9001479F300DD3
:1016F000569F300D1124820F931FFC01EE5DFB4FAE
:1017000080819181DC018981482F50E08A81282FD6
:1017100030E0C901880F991F820F931F2EE430E03B
:10172000B901469F9001479F300D569F300D1124FF
:10173000820F931FFC01EE5DFB4F80819181FC01C4
:1017400080818B5F8C938981482F50E08A81282F7C
:1017500030E0C901880F991F820F931F2EE430E0FB
:10176000B901469F9001479F300D569F300D1124BF
:10177000820F931FFC01EE5DFB4F80819181FC0184
:10178000808185360CF497C08981482F50E08A818A
:10179000282F30E0C901880F991F820F931F2EE474
:1017A00030E0B901469F9001479F300D569F300DA4
:1017B0001124820F931FFC01EE5DFB4F808191810C
:1017C000FC0184E6808377C08981482F50E08A81BC
:1017D000282F30E0C901880F991F820F931F2EE434
:1017E00030E0B901469F9001479F300D569F300D64
:1017F0001124820F931FFC01EF5DFB4F8081882332
:10180000F9F08981482F50E08A81282F30E0C90102
:10181000880F991F820F931F2EE430E0B901469F75
:101820009001479F300D569F300D1124820F931F5A
:10183000FC01EE5DFB4F808191810E94B50A1EC0C4
:101840008981482F50E08A81282F30E0C901880F14
:10185000991F820F931F2EE430E0B901469F90013B
:10186000479F300D569F300D1124820F931FFC01AE
:10187000EE5DFB4F808191810E94C50A61E274E0B8
:101880008981282F30E08EE490E0289FA001299FD5
:10189000500D389F500D11248A81282F30E0C90146
:1018A000880F991F820F931F840F951F860F971F14
:1018B0006B810E94D50A0F900F900F90CF91DF910E
:1018C0000895DF93CF9300D00F92CDB7DEB71B8280
:1018D0001A8228C0198220C061E274E08A81282F10
:1018E00030E08EE490E0289FA001299F500D389FA2
:1018F000500D11248981282F30E0C901880F991FCC
:10190000820F931F840F951F860F971F6B810E9474
:10191000D50A89818F5F898389818A31E8F28A813A
:101920008F5F8A838A818A31A8F20F900F900F907F
:10193000CF91DF910895DF93CF930F92CDB7DEB7AC
:10194000198230C08981282F30E0C901880F991F82
:10195000820F931F9C01220F331F220F331F820F10
:10196000931FFC01E554FC4F80E090E0A0E0B0E064
:1019700080839183A283B3838981282F30E0C901BA
:10198000880F991F820F931F9C01220F331F220F74
:10199000331F820F931FFC01E753FC4F1082898194
:1019A0008F5F89838981853068F20F90CF91DF91B5
:1019B0000895DF93CF93CDB7DEB710920C04109249
:1019C0000B0410920E0410920D0410921004109249
:1019D0000F0480E090E0A0E0B0E0809311049093C9
:1019E0001204A0931304B093140480E090E0A0E5E7
:1019F000B1E48093150490931604A0931704B09358
:101A0000180480E090E0A0E5B1E48093190490937D
:101A10001A04A0931B04B0931C04CF91DF91089586
:101A20000F931F93DF93CF93CDB7DEB780E060E0D5
:101A300040E050E020E030E000E010E00E941E0AAC
:101A40009093070480930604E0910604F091070444
:101A500080E060E040E050E020E030E08F010E9454
:101A60001E0A9093090480930804E0910604F09103
:101A7000070480910804909109049387828710924B
:101A80000A04CF91DF911F910F9108950F931F9337
:101A9000DF93CF93CDB7DEB728970FB6F894DEBFAC
:101AA0000FBECDBF9C838B836D834E8338872F837E
:101AB000EB81FC81828593859A8389832F81388588
:101AC000E981FA81AB81BC818D816E81A9019F0181
:101AD0008D010E941E0AEB81FC8193878287EB8136
:101AE000FC8182859385E981FA819587848780913D
:101AF0000A048F5F80930A0428960FB6F894DEBF1D
:101B00000FBECDBFCF91DF911F910F910895DF934D
:101B1000CF9300D000D0CDB7DEB789836A835C83D2
:101B20004B83E0910804F0910904848595852B810D
:101B30003C8169814A810E94460D0F900F900F9061
:101B40000F90CF91DF910895DF93CF93CDB7DEB79C
:101B500065970FB6F894DEBF0FBECDBF988B8F8709
:101B600080E090E0A0E8BFE489839A83AB83BC83E4
:101B700080E090E0A0E8BFE48D839E83AF83B887C8
:101B80001C861B861E861D861A8619868F85988957
:101B90009A8B898BFE013196FC8BEB8BFEE0FD8BE3
:101BA000EB89FC8900808B899C8901969C8B8B8BAF
:101BB000E989FA89008289899A8901969A8B898BA9
:101BC0009D8991509D8BED89EE2351F78F859889E2
:101BD00065960FB6F894DEBF0FBECDBFCF91DF91F3
:101BE0000895DF93CF93CDB7DEB76A970FB6F89419
:101BF000DEBF0FBECDBF988B8F8780910A048823EC
:101C000029F48F8598890E94A40D57C0E09108049B
:101C1000F0910904848595859E012F5F3F4F3A8B93
:101C2000298B9C8B8B8B3EE03D8BEB89FC89008064
:101C30002B893C892F5F3F4F3C8B2B8BE989FA899D
:101C4000008229893A892F5F3F4F3A8B298B3D8942
:101C500031503D8B8D89882341F7E0910804F09144
:101C60000904848595850E948D0A80910A0481501B
:101C700080930A04EF85F889FF8BEE8B9E012F5F1E
:101C80003F4F398F288F3EE03A8FE88DF98D0080E5
:101C9000288D398D2F5F3F4F398F288FEE89FF892F
:101CA00000822E893F892F5F3F4F3F8B2E8B3A8DCD
:101CB00031503A8F8A8D882341F78F8598896A96AB
:101CC0000FB6F894DEBF0FBECDBFCF91DF91089560
:101CD000DF93CF93CDB7DEB72E970FB6F894DEBF64
:101CE0000FBECDBF04C0CE0101960E94F10D8091C0
:101CF0000A048823C1F72E960FB6F894DEBF0FBEF4
:101D0000CDBFCF91DF910895AF92BF92CF92DF9276
:101D1000EF92FF920F931F93DF93CF9300D000D0E9
:101D200000D0CDB7DEB71E821D825BC11C821B8234
:101D30004DC14D815E812B813C81C901880F991F66
:101D4000820F931F2EE430E0B901469F9001479F18
:101D5000300D569F300D1124820F931FFC01EF5D53
:101D6000FB4F8081882309F42CC14D815E812B813A
:101D70003C81C901880F991F820F931F2EE430E028
:101D8000B901469F9001479F300D569F300D112499
:101D9000820F931FFC01EE5DFB4F80819181FC015E
:101DA0008081815080834D815E812B813C81C9017E
:101DB000880F991F820F931F2EE430E0B901469FD0
:101DC0009001479F300D569F300D1124820F931FB5
:101DD000FC01EE5DFB4F80819181FC0180818823B5
:101DE00034F48D819B81692F40E00E94FB0A4D8174
:101DF0005E812B813C81C901880F991F820F931F3F
:101E00002EE430E0B901469F9001479F300D569F68
:101E1000300D1124820F931FFC01EF5DFB4F808179
:101E2000882309F4CEC08091110490911204A091EE
:101E30001304B0911404BC01CD0120E030E040E275
:101E400051E40E94A93518160CF0BBC08D819E810B
:101E5000AA2797FDA095BA2FBC01CD010E9492340C
:101E60005B016C01E0901104F090120400911304E6
:101E70001091140480910B0490910C040E9492091B
:101E8000DC01CB01BC01CD010E94F4339B01AC010C
:101E9000C801B7010E94B435DC01CB019C01AD0142
:101EA000C601B5010E942933DC01CB01BC01CD0183
:101EB0000E946434DC01CB018A838B819C81AA2738
:101EC00097FDA095BA2FBC01CD010E9492345B0111
:101ED0006C01E0901104F090120400911304109131
:101EE000140480910B0490910C040E949209DC016F
:101EF000CB01BC01CD010E9463369B01AC01C8013E
:101F0000B7010E94B435DC01CB019C01AD01C601D3
:101F1000B5010E942933DC01CB01BC01CD010E9437
:101F20006434DC01CB0189838A818B3108F043C0A2
:101F300089818B3108F03FC08A81698141E00E942C
:101F4000FB0A8A81482F50E08981282F30E0C9019F
:101F5000880F991F820F931F2EE430E0B901469F2E
:101F60009001479F300D569F300D1124820F931F13
:101F7000FC01EE5DFB4F80819181DC014D815E8132
:101F80002B813C81C901880F991F820F931F2EE47A
:101F900030E0B901469F9001479F300D569F300DAC
:101FA0001124820F931FFC01EE5DFB4F8081918114
:101FB000FC0180818C938D819B81692F40E00E9480
:101FC000FB0A8B819C8101969C838B838B819C81F6
:101FD0008A3191050CF4ADCE8D819E8101969E8350
:101FE0008D838D819E818A3191050CF49FCE26963A
:101FF0000FB6F894DEBF0FBECDBFCF91DF911F911A
:102000000F91FF90EF90DF90CF90BF90AF90089529
:10201000DF93CF93CDB7DEB72A970FB6F894DEBF24
:102020000FBECDBF18861F8215C024EA34E000D051
:102030000F92EDB7FEB7319681E080833283218322
:102040000E94CC220F900F900F908F81988501965F
:1020500098878F838F8198858A31910534F382EA3E
:1020600094E000D00F92EDB7FEB7319621E02083C7
:10207000928381830E94CC220F900F900F901E823A
:102080001D8242C11C821B8224C18D819E81AA2790
:1020900097FDA095BA2FBC01CD010E949234DC01BE
:1020A000CB012091150430911604409117045091F2
:1020B00018041A86BC01CD010E94F033882311F464
:1020C00061E06A8781E07A858727882399F58B818B
:1020D0009C81AA2797FDA095BA2FBC01CD010E9433
:1020E0009234DC01CB012091190430911A04409103
:1020F0001B0450911C041986BC01CD010E94F033D1
:10210000882311F481E0898781E0998589278823D4
:1021100089F480EA94E000D00F92EDB7FEB73196D3
:1021200021E02083928381830E94CC220F900F9024
:102130000F90CAC04D815E812B813C81C901880FFF
:10214000991F820F931F2EE430E0B901469F900142
:10215000479F300D569F300D1124820F931FFC01B5
:10216000EF5DFB4F8081882309F49EC04D815E8125
:102170002B813C81C901880F991F820F931F2EE488
:1021800030E0B901469F9001479F300D569F300DBA
:102190001124820F931FFC01EE5DFB4F8081918122
:1021A000FC01808189318CF48EE994E000D00F929B
:1021B000EDB7FEB7319621E02083928381830E94A0
:1021C000CC220F900F900F907FC04D815E812B81AC
:1021D0003C81C901880F991F820F931F2EE430E0C4
:1021E000B901469F9001479F300D569F300D112435
:1021F000820F931FFC01EE5DFB4F80819181FC01FA
:10220000808182338CF48CE994E000D00F92EDB79A
:10221000FEB7319621E02083928381830E94CC22F5
:102220000F900F900F9050C04D815E812B813C81AB
:10223000C901880F991F820F931F2EE430E0B90166
:10224000469F9001479F300D569F300D1124820FFD
:10225000931FFC01EE5DFB4F80819181FC01808129
:102260008B348CF48AE994E000D00F92EDB7FEB77E
:10227000319621E02083928381830E94CC220F90AB
:102280000F900F9021C088E994E000D00F92EDB735
:10229000FEB7319621E02083928381830E94CC2275
:1022A0000F900F900F9010C086E994E000D00F922D
:1022B000EDB7FEB7319621E02083928381830E949F
:1022C000CC220F900F900F908B819C8101969C8364
:1022D0008B838B819C818A3191050CF4D6CE23E9C6
:1022E00034E000D00F92EDB7FEB7319681E08083E5
:1022F000328321830E94CC220F900F900F908D810A
:102300009E8101969E838D838D819E818A31910568
:102310000CF4B8CE1A82198215C021E934E000D03D
:102320000F92EDB7FEB7319681E08083328321832F
:102330000E94CC220F900F900F9089819A81019674
:102340009A83898389819A818A31910534F38FE850
:1023500094E000D00F92EDB7FEB7319621E02083D4
:10236000928381830E94CC220F900F900F902A9627
:102370000FB6F894DEBF0FBECDBFCF91DF910895A9
:10238000DF93CF930F92CDB7DEB7898389818A30EF
:1023900020F48981805D898309C089818A3030F089
:1023A0008981813118F48981895C898389810F90C1
:1023B000CF91DF910895DF93CF930F92CDB7DEB722
:1023C00089838981803338F089818A3320F4898137
:1023D0008053898309C08981813430F089818734B1
:1023E00018F489818753898389810F90CF91DF9178
:1023F0000895EF92FF920F931F93DF93CF930F9265
:10240000CDB7DEB7898389818A3021F481E080935A
:102410007E0389C080917E03882359F089818834A6
:1024200041F481E080937A0310927D0310927E0341
:10243000E0C080917E03882359F08981863541F47C
:1024400081E08093790310927C0310927E03D1C0C7
:1024500080917E03882359F08981833541F481E09E
:102460008093780310927B0310927E03C2C0809108
:102470007A038823D9F089810E94DB11282F30E06C
:10248000809176039091770382959295907F98271B
:10249000807F9827822B932B9093770380937603EA
:1024A00080917D038F5F80937D033DC08091790390
:1024B0008823D9F089810E94DB11282F30E0809198
:1024C00074039091750382959295907F9827807FF1
:1024D0009827822B932B909375038093740380919C
:1024E0007C038F5F80937C031EC0809178038823D8
:1024F000D1F089810E94DB11282F30E08091720396
:102500009091730382959295907F9827807F98276A
:10251000822B932B909373038093720380917B03A0
:102520008F5F80937B0380917D03843089F4809159
:1025300076039091770390930E0480930D0410928C
:102540007A0310927D03109277031092760351C0A4
:1025500080917C03843089F4809174039091750399
:102560009093100480930F041092790310927C03CF
:1025700010927503109274033CC080917B038430E9
:10258000C1F5E0901104F090120400911304109131
:1025900014048091720390917303AA2797FDA0956C
:1025A000BA2FBC01CD010E949234DC01CB01BC01E9
:1025B000CD0120E030E040E251E40E94F733DC013D
:1025C000CB019C01AD01C801B7010E942A33DC0197
:1025D000CB018093110490931204A0931304B09341
:1025E00014041092780310927B03109273031092DC
:1025F00072030F90CF91DF911F910F91FF90EF9099
:102600000895DF93CF93CDB7DEB70E941309CF9122
:10261000DF910895DF93CF9300D000D0CDB7DEB720
:1026200069837A838B839C830E94D90C0E94100D4E
:102630000E94610C0E949B0C80E392E029EF31E143
:10264000B9010E94301380E090E0A0E0B0E0BC014E
:10265000CD010F900F900F900F90CF91DF910895C3
:10266000DF93CF9300D000D00F92CDB7DEB79B831E
:102670008A837D836C83EFE5F0E080818983F89421
:10268000EA81FB818C819D8195838483EFE5F0E075
:10269000898180830F900F900F900F900F90CF91B2
:1026A000DF910895DF93CF9300D000D000D0CDB755
:1026B000DEB79E838D831C821B821A82198280E37F
:1026C00092E062E50E94351F8D818F700E94C011DB
:1026D0008C838D819E819595879595958795959508
:1026E0008795959587958F700E94C0118B838D81FA
:1026F0009E81892F990F990B8F700E94C0118A8338
:102700008D819E8180E19802812D990B11248F701B
:102710000E94C011898380E392E069810E94351F85
:1027200080E392E06A810E94351F80E392E06B8132
:102730000E94351F80E392E06C810E94351F80E388
:1027400092E06AE00E94351F26960FB6F894DEBF2D
:102750000FBECDBFCF91DF910895DF93CF9300D00F
:102760000F92CDB7DEB79B838A83198203C089811C
:102770008F5F898389818430D0F30F900F900F9001
:10278000CF91DF910895DF93CF9300D0CDB7DEB71F
:1027900080910D0C482F50E080910E0C282F30E0D6
:1027A000C901880F991F820F931F2EE430E0B901F1
:1027B000469F9001479F300D569F300D1124820F88
:1027C000931FFC01EE5DFB4F8081918190931E046D
:1027D00080931D0480911D0490911E040E94AD13EE
:1027E0000F900F90CF91DF910895CF92DF92EF92EB
:1027F000FF920F931F93DF93CF9300D0CDB7DEB737
:1028000080910B0490910C048A5590409093C003E2
:102810008093BF0380910B0490910C049093CF039D
:102820008093CE0380910B0490910C04865A9F4FA5
:102830009093DE038093DD0380910B0490910C0450
:102840008D969093ED038093EC0380910B0490910F
:102850000C048D979093FC038093FB031A8263C052
:102860008A81C82EDD248A81282F30E0C901880F93
:10287000991F820F931F9C01220F331F220F331FBA
:10288000820F931FFC01E554FC4FE080F180028130
:1028900013818A81282F30E0C901880F991F820F88
:1028A000931F9C01220F331F220F331F820F931F90
:1028B000FC01E154FC4F808191810E949209DC016E
:1028C000CB01BC01CD010E94F4339B01AC01C801D6
:1028D000B7010E94B435DC01CB0120911504309181
:1028E00016044091170450911804BC01CD010E94B8
:1028F0002A33DC01CB01AC01BD01C601880F991F51
:102900008C0D9D1D9C01220F331F220F331F820F40
:10291000931FFC01EF53FC4F408351836283738309
:102920008A818F5F8A838A81853008F499CF1982E2
:1029300063C08981C82EDD248981282F30E0C90138
:10294000880F991F820F931F9C01220F331F220FA4
:10295000331F820F931FFC01E554FC4FE080F18090
:10296000028113818981282F30E0C901880F991FC6
:10297000820F931F9C01220F331F220F331F820FE0
:10298000931FFC01E154FC4F808191810E949209C8
:10299000DC01CB01BC01CD010E9463369B01AC017F
:1029A000C801B7010E94B435DC01CB0120911904A4
:1029B00030911A0440911B0450911C04BC01CD01BC
:1029C0000E942A33DC01CB01AC01BD01C601880F96
:1029D000991F8C0D9D1D9C01220F331F220F331F49
:1029E000820F931FFC01EB53FC4F408351836283A2
:1029F000738389818F5F89838981853008F499CFBA
:102A00000F900F90CF91DF911F910F91FF90EF905A
:102A1000DF90CF900895EF92FF920F931F93DF9373
:102A2000CF93CDB7DEB762970FB6F894DEBF0FBE77
:102A3000CDBF80E090E0A8E4B2E48F87988BA98BAB
:102A4000BA8B80E090E0A8E4B2E48F839887A987EE
:102A5000BA870E949B0C85EA92E00E94C71D8FEA0C
:102A600092E00E94C71D89EB92E00E94C71D83EC93
:102A700092E00E94C71D8DEC92E00E94C71D8091DC
:102A8000AC029091AD02CC01A0E0B0E0BC01CD0160
:102A90000E949034DC01CB018093BB039093BC0374
:102AA000A093BD03B093BE038091B6029091B7028C
:102AB000CC01A0E0B0E0BC01CD010E949034DC016B
:102AC000CB018093CA039093CB03A093CC03B09324
:102AD000CD038091C0029091C102CC01A0E0B0E092
:102AE000BC01CD010E949034DC01CB018093D9035D
:102AF0009093DA03A093DB03B093DC038091CA02C6
:102B00009091CB02CC01A0E0B0E0BC01CD010E94CD
:102B10009034DC01CB018093E8039093E903A09308
:102B2000EA03B093EB038091D4029091D502CC01DB
:102B3000A0E0B0E0BC01CD010E949034DC01CB01EB
:102B40008093F7039093F803A093F903B093FA03EB
:102B500080E090E0A0E0B0E08B839C83AD83BE83F7
:102B600095C185EA92E00E94C71D8FEA92E00E941B
:102B7000C71D89EB92E00E94C71D83EC92E00E9482
:102B8000C71D8DEC92E00E94C71D6F8178858985F5
:102B90009A852F85388949895A890E942A33DC0110
:102BA000CB019C01AD016F81788589859A850E9452
:102BB000F733DC01CB018B879C87AD87BE87E09024
:102BC000BB03F090BC030091BD031091BE03809144
:102BD000AC029091AD02CC01A0E0B0E0BC01CD010F
:102BE0000E949034DC01CB012091BB033091BC03E7
:102BF0004091BD035091BE03BC01CD010E94293319
:102C0000DC01CB01BC01CD012B853C854D855E856A
:102C10000E94B435DC01CB019C01AD01C801B701B4
:102C20000E942A33DC01CB018093BB039093BC0349
:102C3000A093BD03B093BE03E090CA03F090CB0312
:102C40000091CC031091CD038091B6029091B70210
:102C5000CC01A0E0B0E0BC01CD010E949034DC01C9
:102C6000CB012091CA033091CB034091CC0350910A
:102C7000CD03BC01CD010E942933DC01CB01BC0195
:102C8000CD012B853C854D855E850E94B435DC01E8
:102C9000CB019C01AD01C801B7010E942A33DC01C0
:102CA000CB018093CA039093CB03A093CC03B09342
:102CB000CD03E090D903F090DA030091DB0310918B
:102CC000DC038091C0029091C102CC01A0E0B0E091
:102CD000BC01CD010E949034DC01CB012091D903CD
:102CE0003091DA034091DB035091DC03BC01CD014C
:102CF0000E942933DC01CB01BC01CD012B853C8531
:102D00004D855E850E94B435DC01CB019C01AD018F
:102D1000C801B7010E942A33DC01CB018093D9039B
:102D20009093DA03A093DB03B093DC03E090E80315
:102D3000F090E9030091EA031091EB038091CA023D
:102D40009091CB02CC01A0E0B0E0BC01CD010E948B
:102D50009034DC01CB012091E8033091E9034091EC
:102D6000EA035091EB03BC01CD010E942933DC0141
:102D7000CB01BC01CD012B853C854D855E850E9434
:102D8000B435DC01CB019C01AD01C801B7010E9443
:102D90002A33DC01CB018093E8039093E903A093ED
:102DA000EA03B093EB03E090F703F090F80300918F
:102DB000F9031091FA038091D4029091D502CC01CD
:102DC000A0E0B0E0BC01CD010E949034DC01CB0159
:102DD0002091F7033091F8034091F9035091FA03E1
:102DE000BC01CD010E942933DC01CB01BC01CD0126
:102DF0002B853C854D855E850E94B435DC01CB0179
:102E00009C01AD01C801B7010E942A33DC01CB014E
:102E10008093F7039093F803A093F903B093FA0318
:102E200060E070E080E89FE32B853C854D855E8502
:102E30000E942933DC01CB017C018D016F817885F3
:102E400089859A8527E137EB41ED58E30E942A33C3
:102E5000DC01CB019C01AD01C801B7010E94B43572
:102E6000DC01CB018F839887A987BA876B817C812E
:102E70008D819E8120E030E040E85FE30E942A33AC
:102E8000DC01CB018B839C83AD83BE836B817C8112
:102E90008D819E8120E030E040EA50E40E94F033D2
:102EA00088230CF45ECE1A823BC08A81082F10E082
:102EB0008A81282F30E0C901880F991F820F931F44
:102EC0009C01220F331F220F331F820F931FFC011F
:102ED000E554FC4F80819181A281B381BC01CD0179
:102EE00020E030E040E251E40E94F733DC01CB0106
:102EF000AC01BD01C801880F991F800F911F9C0173
:102F0000220F331F220F331F820F931FFC01E55442
:102F1000FC4F40835183628373838A818F5F8A83EE
:102F20008A81853010F219824BC08981282F30E0C8
:102F3000C901880F991F820F931F9C01220F331F15
:102F4000220F331F820F931FFC01E554FC4F808139
:102F50009181A281B381BC01CD0120E030E040E548
:102F600051E40E94F0338823ACF48981282F30E0AB
:102F7000C901880F991F820F931F9C01220F331FD5
:102F8000220F331F820F931FFC01E753FC4F81E098
:102F9000808313C08981282F30E0C901880F991FD1
:102FA000820F931F9C01220F331F220F331F820FAA
:102FB000931FFC01E753FC4F108289818F5F898347
:102FC0008981853008F4B1CF0E94F51362960FB65F
:102FD000F894DEBF0FBECDBFCF91DF911F910F914F
:102FE000FF90EF900895AF92BF92CF92DF92EF9251
:102FF000FF920F931F93DF93CF93CDB7DEB7A090CF
:103000001504B0901604C0901704D0901804E090F6
:103010001104F09012040091130410911404809193
:103020000B0490910C040E949209DC01CB01BC01BD
:10303000CD010E94F4339B01AC01C801B7010E948D
:10304000B435DC01CB019C01AD01C601B5010E9484
:103050002A33DC01CB018093150490931604A093CE
:103060001704B0931804A0901904B0901A04C090EB
:103070001B04D0901C04E0901104F0901204009105
:1030800013041091140480910B0490910C040E947D
:103090009209DC01CB01BC01CD010E9463369B018A
:1030A000AC01C801B7010E94B435DC01CB019C0121
:1030B000AD01C601B5010E942A33DC01CB0180932A
:1030C000190490931A04A0931B04B0931C04CF918D
:1030D000DF911F910F91FF90EF90DF90CF90BF9005
:1030E000AF900895DF93CF93CDB7DEB780910D04F5
:1030F00090910E0490930C0480930B04CF91DF9178
:103100000895DF92EF92FF920F931F93DF93CF9377
:1031100000D00F92CDB7DEB78B838B81282F30E0A4
:10312000C901880F991F820F931F9C01220F331F23
:10313000220F331F820F931FFC01EF53FC4F80813E
:103140009181A281B381BC01CD0120E030E040E853
:103150005FE30E942933DC01CB01BC01CD010E9459
:103160006434DC01CB018A8301C18B81282F30E0DC
:10317000C901880F991F820F931F9C01220F331FD3
:10318000220F331F820F931FFC01EB53FC4F8081F2
:103190009181A281B381BC01CD0120E030E040E803
:1031A0005FE30E942933DC01CB01BC01CD010E9409
:1031B0006434DC01CB018983A0C08A818B3108F0A3
:1031C00099C089818B3108F095C08A81482F50E0E1
:1031D0008981282F30E0C901880F991F820F931F22
:1031E0002EE430E0B901469F9001479F300D569F75
:1031F000300D1124820F931FFC01EF5DFB4F808186
:10320000813009F077C08B81282F30E0C901880F09
:10321000991F820F931F9C01220F331F220F331F10
:10322000820F931FFC01EF53FC4FE080F18002817D
:1032300013818A81882F90E0AA2797FDA095BA2F45
:10324000BC01CD010E9492349B01AC01C801B701C1
:103250000E942933DC01CB01BC01CD010E94643402
:10326000DC01CB01D82E8B81282F30E0C901880FDB
:10327000991F820F931F9C01220F331F220F331FB0
:10328000820F931FFC01EB53FC4FE080F180028121
:1032900013818981882F90E0AA2797FDA095BA2FE6
:1032A000BC01CD010E9492349B01AC01C801B70161
:1032B0000E942933DC01CB01BC01CD010E946434A2
:1032C000DC01CB01482F8B81282F30E0C901880F0A
:1032D000991F820F931F9C01220F331F220F331F50
:1032E000820F931F9C0125543C4F8D2D642FA90103
:1032F0000E94870D89818F5F89838981882F90E063
:10330000AA2797FDA095BA2FBC01CD010E94923447
:103310007B018C018B81282F30E0C901880F991F18
:10332000820F931F9C01220F331F220F331F820F26
:10333000931FFC01EB53FC4F80819181A281B381EB
:10334000BC01CD0120E030E040E050E40E942A338F
:10335000DC01CB019C01AD01C801B7010E94F03333
:1033600088230CF42ACF8A818F5F8A838A81882FF1
:1033700090E0AA2797FDA095BA2FBC01CD010E942D
:1033800092347B018C018B81282F30E0C901880F9A
:10339000991F820F931F9C01220F331F220F331F8F
:1033A000820F931FFC01EF53FC4F80819181A2811A
:1033B000B381BC01CD0120E030E040E050E40E9448
:1033C0002A33DC01CB019C01AD01C801B7010E9489
:1033D000F03388230CF4C9CE0F900F900F90CF914B
:1033E000DF911F910F91FF90EF90DF900895EF9282
:1033F000FF920F931F93DF93CF93CDB7DEB7AA97BA
:103400000FB6F894DEBF0FBECDBF80E090E0A0E025
:10341000B0E08FA398A7A9A7BAA780E090E0A0E0AA
:10342000B0E08BA39CA3ADA3BEA3E0910604F091F2
:103430000704828593859A838983F1C0E981FA81A3
:103440000084F185E02D86819781A085B185E98191
:10345000FA812081318142815381BC01CD010E94DA
:103460002A33DC01CB018F8F98A3A9A3BAA3E981EA
:10347000FA810084F185E02D82859385A485B58548
:10348000E981FA812481358146815781BC01CD01D2
:103490000E942A33DC01CB018B8F9C8FAD8FBE8FB6
:1034A0008F8D98A1A9A1BAA1BC01CD010E94B73608
:1034B0007B018C018B8D9C8DAD8DBE8DBC01CD01B2
:1034C0000E94B7369B01AC01C801B7010E942A33A4
:1034D000DC01CB01BC01CD010E946D36DC01CB01CA
:1034E0008F8B988FA98FBA8F8F8D98A1A9A1BAA120
:1034F0002B8D3C8D4D8D5E8DBC01CD010E949D3389
:10350000DC01CB01BC01CD010E945F34DC01CB01A9
:103510000E94C009DC01CB018B8B9C8BAD8BBE8BD9
:10352000E981FA810084F185E02D80819181A28179
:10353000B381BC01CD012F89388D498D5A8D0E94F0
:103540002933DC01CB018F87988BA98BBA8BE9815A
:10355000FA810084F185E02D84819581AA2797FD69
:10356000A095BA2FBC01CD010E949234DC01CB01A1
:10357000BC01CD012B893C894D895E890E9429338C
:10358000DC01CB018B879C87AD87BE878F859889AF
:10359000A989BA899C01AD015F7760E070E080E89D
:1035A0009FE30E94F733DC01CB018F839887A987C3
:1035B000BA876B857C858D859E852F813885498569
:1035C0005A850E94B435DC01CB018B839C83AD838B
:1035D000BE836FA178A589A59AA52F8138854985D5
:1035E0005A850E942A33DC01CB018FA398A7A9A793
:1035F000BAA76BA17CA18DA19EA12B813C814D819D
:103600005E810E942A33DC01CB018BA39CA3ADA376
:10361000BEA3E981FA81828593859A83898320916B
:1036200008043091090489819A812817390709F023
:1036300005CF6BA17CA18DA19EA12FA138A549A585
:103640005AA50E94F733DC01CB01BC01CD01AA963B
:103650000FB6F894DEBF0FBECDBFCF91DF911F91A3
:103660000F91FF90EF9008951F93DF93CF930F92E8
:10367000CDB7DEB7198258C08981282F30E0C90143
:10368000880F991F820F931F9C01220F331F220F57
:10369000331F820F931FFC01E753FC4F8081882367
:1036A00009F43FC08981282F30E0C901880F991F94
:1036B000820F931F9C01220F331F220F331F820F93
:1036C000931FFC01EF53FC4F80819181A281B38154
:1036D000BC01CD010E946434DC01CB01182F89812B
:1036E000282F30E0C901880F991F820F931F9C017A
:1036F000220F331F220F331F820F931FFC01EB5346
:10370000FC4F80819181A281B381BC01CD010E94D7
:103710006434DC01CB01982F812F692F41E00E9496
:10372000FB0A89818F5F89838981853008F4A4CF62
:103730000F90CF91DF911F910895EF92FF920F9319
:103740001F93DF93CF93CDB7DEB760970FB6F89492
:10375000DEBF0FBECDBF188A1F8680E090E0A0E9D3
:10376000B1E48B879C87AD87BE8780E090E0A0E2C4
:10377000B1E48F839887A987BA870E940B1580913F
:103780000D0490910E0490930C0480930B041A8204
:10379000B3C06F81788589859A852FE632E143E849
:1037A0005AE30E942A33DC01CB018F839887A987D3
:1037B000BA8719821BC08981282F30E0C901880F80
:1037C000991F820F931F9C01220F331F220F331F5B
:1037D000820F931FFC01E753FC4F8081882319F06F
:1037E00089810E94811889818F5F898389818530D1
:1037F00010F30E94F719DC01CB01BC01CD010E943E
:103800005F34DC01CB01988B8F876F817885898548
:103810009A852B853C854D855E850E942A33DC0187
:10382000CB019C01AD016F81788589859A850E94C5
:10383000F733DC01CB018B839C83AD83BE83809106
:103840000B0490910C04AA2797FDA095BA2FBC01F8
:10385000CD010E9492347B018C0120910B043091A8
:103860000C048F859889821B930BAA2797FDA0953E
:10387000BA2FBC01CD010E949234DC01CB01BC0106
:10388000CD012B813C814D815E810E94B435DC01EC
:10389000CB019C01AD01C801B7010E942A33DC01B4
:1038A000CB01BC01CD010E945F34DC01CB019093C0
:1038B0000C0480930B0460E070E080E89FE32B81B0
:1038C0003C814D815E810E942933DC01CB019C014A
:1038D000AD016F81788589859A850E94B435DC01B8
:1038E000CB018F839887A987BA870E94680E0E94B0
:1038F000F5138A818F5F8A838A818A3008F449CFE1
:103900000E94341B0E94840E26EA34E040910B048E
:1039100050910C0400D000D00F92EDB7FEB7319655
:1039200081E0808332832183548343830E94CC22AD
:103930000F900F900F900F900F9080E090E0A0E01C
:10394000B0E08093110490931204A0931304B093F9
:10395000140460960FB6F894DEBF0FBECDBFCF91B2
:10396000DF911F910F91FF90EF900895DF93CF9318
:10397000CDB7DEB72A970FB6F894DEBF0FBECDBF26
:103980006B837C838D839E832F83388749875A87F7
:103990008BE792E00E94411D8BE792E00E945B1D45
:1039A0008EE892E00E946D1D0E9472229A838983A4
:1039B0008EE892E040E050E060E070E00E94672412
:1039C0008EE892E00E945624882389F58B819C81A1
:1039D000AD81BE8181309105A105B10589F483EBEC
:1039E00094E000D00F92EDB7FEB7319621E020832E
:1039F000928381830E94CC220F900F900F9017C06A
:103A00002AEA34E04B815C8100D000D00F92EDB700
:103A1000FEB7319681E080833283218354834383D0
:103A20000E94CC220F900F900F900F900F908981E1
:103A30009A810E94722285E090E00E945213809148
:103A4000EA029091EB02A091EC02B091ED02019696
:103A5000A11DB11D8093EA029093EB02A093EC02AA
:103A6000B093ED0280E090E0A0E0B0E0BC01CD01B9
:103A70002A960FB6F894DEBF0FBECDBFCF91DF916F
:103A80000895DF93CF9300D00F92CDB7DEB79A831E
:103A90008983E981FA81808191810E9462211B8260
:103AA000882311F481E08B838B810F900F900F900E
:103AB000CF91DF910895DF93CF9300D0CDB7DEB7DC
:103AC0009A838983E981FA81808191810E946221B0
:103AD0000F900F90CF91DF910895DF93CF9300D097
:103AE000CDB7DEB79A838983E981FA818589968982
:103AF0000F900F90CF91DF9108950F931F938C013A
:103B0000FC0181850E940720A0E0B0E0BC01CD014E
:103B10000E9490342BE531EB4FE75FEB0E941736A4
:103B20009B01AC01CA01B90120E030E543ED56E448
:103B30000E94B4350E946434F801708767831F9136
:103B40000F9108950F931F938C01FC0181850E94B2
:103B50000720A0E0B0E0BC01CD010E9490342EEE21
:103B60003CE74FE45FEB0E9417369B01AC01CA01B2
:103B7000B90126E632EE40E056E40E94B4350E94D8
:103B80006434F801708767831F910F910895CF9275
:103B9000DF92EF92FF920F931F93CF93DF93EC018D
:103BA000088119818E81882351F4F80185919491BF
:103BB000892B29F084EE0E94762880E035C00E948F
:103BC0006F286B017C01F80136966591749161153F
:103BD0007105E9F080E090E028EE33E040E050E04D
:103BE0000E94C1379B01AC018091190C90911A0C75
:103BF000892B29F4CA01B9010E94FA2D08C06A81F3
:103C00007B818C819D810E94152E882369F0C801DB
:103C10000296FC0125913491CE01F9010995CA82E1
:103C2000DB82EC82FD828FEFDF91CF911F910F91AC
:103C3000FF90EF90DF90CF900895CF92DF92EF92B8
:103C4000FF920F931F93CF93DF93EC018E81882314
:103C5000B1F588819981FC01C590D490C114D1043B
:103C600061F1FC013496659174916115710511F152
:103C70008091190C90911A0C9B0140E050E0892B27
:103C800029F4CA01B9010E94E42D14C0CA01B90186
:103C900028EE33E040E050E00E94C1377B018C0108
:103CA00060E070E080E090E0A80197010E94152E8E
:103CB0008823B1F3CE01F60109958FEF8E83DF9152
:103CC000CF911F910F91FF90EF90DF90CF900895CB
:103CD000DC0117968D919C9118970296FC01259115
:103CE0003491CD01F90109950895CF93DF93EC014B
:103CF0008E818E7F8E83EC89FD89309721F08E89AD
:103D00009F896FEF0995EF81F88538962591349159
:103D10002115310519F0CE01F9010995DF91CF91F7
:103D20000895CF93DF93EC018E8181608E83EF81C4
:103D3000F8853A96259134912115310519F0CE0177
:103D4000F9010995EC89FD89309721F08E899F89C9
:103D500060E00995DF91CF910895DC0117968D9170
:103D60009C911897FC0125913491CD01F901099599
:103D70000895DC011796ED91FC91189736962591E0
:103D800034919FB7789416968C91169780FFFBCF4D
:103D90009FBFCD01F90109950895DC01ED91FC91DA
:103DA0001197309759F02FB7F89484819581892B1A
:103DB00011F080E001C08FEF2FBF08952FB7F89466
:103DC00019968D919C911A978F5F9F4F11F080E00B
:103DD00001C08FEF2FBF0895FC0180819181009772
:103DE00019F00E94A02008952FB7F8948FEF9FEF4D
:103DF000928781872FBF0895EF92FF920F931F93B1
:103E0000CF93DF93EC017A018B01F8948B8988239F
:103E100081F02B853C858D859E852817390721F0FB
:103E2000C90160E00E9477218D859E856FEF0E9419
:103E300077218E8181608E838E818B7F8E838E81B0
:103E40008D7F8E838F8198850496FC012591349116
:103E5000CE01B801A701F90109957894DF91CF91BE
:103E60001F910F91FF90EF9008950F931F93CF93A1
:103E7000DF93EC01062F8A819B81892B19F419C0ED
:103E80000E94A9208A819B810E9498208823C1F7E3
:103E90001FB7F8948E8181FD04C08E8182608E836D
:103EA0000DC08A819B81602F0E9454200EC00E9409
:103EB000A9208E8180FFFBCF1FB7F894CE010E940E
:103EC000751ECE01602F0E94681E1FBF802FDF91DC
:103ED000CF911F910F910895EF92FF920F931F932F
:103EE000CF93DF937C018B01EA0107C0F801619158
:103EF0008F01C7010E94351F21972097B9F7DF91E5
:103F0000CF911F910F91FF90EF900895DF93CF9382
:103F10000F92CDB7DEB7FC0180819181009771F0DF
:103F2000BE016F5F7F4F0E942720882319F44FEF57
:103F30005FEF0DC08981482F50E009C02FB7F8947A
:103F4000418552858FEF9FEF928781872FBFCA01EE
:103F50000F90CF91DF910895EF92FF921F93DF931F
:103F6000CF930F92CDB7DEB77C01FC01868181FF34
:103F700019C01FB7F894F70182819381BE016F5F6A
:103F80007F4F0E942720882329F0C70169810E9462
:103F9000681E0DC0C7010E94911EF70186818D7FAA
:103FA000868305C01FB7F894C7010E94911E1FBFEA
:103FB0000F90CF91DF911F91FF90EF900895CF93D5
:103FC000DF93EC018C819D81892B29F0EC81FD81AF
:103FD000862F099519C088819981009729F00E9440
:103FE0005420882389F40AC089859A858F5F9F4F62
:103FF00029F4862F90E09A87898706C08E81846095
:104000008E8385EF0E947628DF91CF9108950F93DC
:104010001F930E94E32FE2E6F4E00591149160E023
:1040200070E04FEF53E020E030E00E9421211F912B
:104030000F910895FC018FB7F894718360835383C7
:10404000428315821482178216828FBF0895CF9300
:10405000DF93EC01DB012FB7F894009701F18A811F
:104060009B81892BE1F08C819D81892BC1F0E881B6
:10407000F9818E819F81E80FF91F80818C938E8159
:104080009F816A817B8101960E94E0379F838E83A6
:104090008C819D8101979D838C838FEF01C080E08F
:1040A0002FBFDF91CF9108951F93CF93DF93EC0142
:1040B000462F1FB7F8942C813D816A817B8126179A
:1040C000370710F080E011C08E819F81820F931F0F
:1040D0000E94E037E881F981E80FF91F40838C8165
:1040E0009D8101969D838C838FEF1FBFDF91CF91C0
:1040F0001F910895FC014FB7F894009719F420E040
:1041000030E006C02281338184819581281B390BE0
:104110004FBFC9010895FC018FB7F894309719F487
:1041200020E030E002C0248135818FBFC9010895AD
:104130000E947A20892B11F080E008958FEF089576
:10414000FC01009729F08FB7F894158214828FBF75
:1041500008958FB778940000000000000000000070
:10416000000000008FBF08959C01FC01A591B4914F
:104170002E5F3F4FF90194918C91892B8C93089578
:104180009C01FC01A591B4912E5F3F4FF9019491E0
:104190008C91892309F08FEF08959C01FC01A59172
:1041A000B4912E5F3F4FF90194918C9190958923A2
:1041B0008C9308956F927F928F929F92AF92BF924D
:1041C000CF92DF92EF92FF920F931F930E948B0981
:1041D0000E9446090E94B22B0E94D8080E94011337
:1041E0000E94492C0E946F285B016C010E940A13F7
:1041F0007B018C016624772443010E94A920E114ED
:10420000F1040105110519F40AC00E94A920C60194
:10421000B501A80197010E94152E8823B1F30E94D1
:104220006F285B016C010894611C711C811C911C3E
:10423000C401B301A60195010E94B61C7B018C014B
:10424000DCCF4F925F926F927F928F929F92AF924C
:10425000BF92CF92DF92EF92FF920F931F932B01A9
:104260005A0139017801E21AF30A00E010E09C01DA
:10427000261B370B442737FD4095542FC801B70143
:104280000E94C137A418B508CC24B7FCC094DC2C1C
:10429000A60195010E94163888249924260D371D01
:1042A000481D591DC9011F910F91FF90EF90DF909C
:1042B000CF90BF90AF909F908F907F906F905F90C6
:1042C0004F9008959C01009781F0FC018591949195
:1042D0000496FC01A591B4912E5F3F4FF901949192
:1042E0008C91892311F08FEF089580E00895CF938A
:1042F000DF939C010097F9F0FC0145915491CA01AC
:104300000296FC01A591B491FA01C591D4912E5F5A
:104310003F4FF90194913FB7F8948C91292F209544
:1043200082238C93662319F08881892B02C08881AF
:10433000822388833FBFDF91CF910895CF93DF938E
:104340009C010097F9F0FC0145915491CA01029635
:10435000FC01C591D491FA01A591B4912E5F3F4F14
:10436000F90124913FB7F894662319F08C91822BC0
:1043700004C08C91922F909589238C938881822BF5
:1043800088833FBFDF91CF9108959C01009781F012
:10439000FC01859194910296FC01A591B4912E5F48
:1043A0003F4FF90194918C91892311F08FEF08957B
:1043B00080E00895CF93DF939C010097E1F0FC012A
:1043C00085919491FC01A591B4910296FC01C5914F
:1043D000D4912E5F3F4FF90124918881822341F0CF
:1043E0009FB7F8948C9182278C939FBF000003C0E5
:1043F00087EF0E947628DF91CF910895CF93DF93C6
:104400009C010097E9F0FC0185919491FC01A59134
:10441000B4910296FC01C591D4912E5F3F4FF901F2
:1044200024918881822349F09FB7F8948C9120953C
:1044300082238C939FBF000003C087EF0E947628E1
:10444000DF91CF910895CF93DF939C010097E1F026
:10445000FC0185919491FC01A591B4910296FC0117
:10446000C591D4912E5F3F4FF90124918881822319
:1044700041F09FB7F8948C91822B8C939FBF0000E2
:1044800003C087EF0E947628DF91CF9108956623BD
:1044900019F00E94232208950E94FE2108951F937F
:1044A000CF93DF93EC01162F888199810097A9F0B3
:1044B0003A8130FD05C020E0662309F421E0122F87
:1044C00031FD06C0612F0E949E218A8182608A830D
:1044D00088819981612F0E944722DF91CF911F919E
:1044E000089508952091E1023091E2029093E20252
:1044F0008093E102C90108951F93182F8A3031F487
:10450000E091E102F091E2028DE00995E091E10293
:10451000F091E202812F09951F9108951F93CF9387
:10452000DF93182FEB0104C0812F0E947C2221977A
:104530002097D1F7DF91CF911F910895CF93DF930B
:10454000EC01009721F406C021960E947C2288810C
:104550008823D1F7DF91CF910895CF93DF93EC01BA
:10456000009719F407C00E947C22FE0121968491D5
:104570008823C9F7DF91CF9108958AE00E947C22B9
:104580000895E82FF0E0EF70F070E152FB4FE491F6
:104590008E2F0E947C2208957F928F929F92AF92DD
:1045A000BF92CF92DF92EF92FF920F931F93DF9310
:1045B000CF930F92CDB7DEB77988CA88DB8864E1E4
:1045C000E62EF12CEC0EFD1E17C0882389F480E046
:1045D00090E00F90CF91DF911F910F91FF90EF909E
:1045E000DF90CF90BF90AF909F908F907F90089575
:1045F0000E947C225701750196012F5F3F4F772063
:1046000021F0F6016901849103C0F60180816901FE
:104610008532D9F62F5F3F4F772021F0F6016901EF
:10462000949103C0F601908169019337A1F094370A
:1046300038F49336D9F0943641F0953209F525C017
:10464000953719F09837E1F422C000E117E25AE0FB
:10465000852E912C21C042E0A42EB12CAE0CBF1CA3
:10466000F701808191810E949E22C5CF32E0A32E66
:10467000B12CAE0CBF1CF70180810E947C22BBCF05
:1046800085E299830E947C229981892FB1CF00E035
:1046900010E120E1822E912C82E0A82EB12CAE0CEC
:1046A000BF1CF701E080F180943651F4F7FE14C08E
:1046B000F094E194F108F3948DE20E947C220CC006
:1046C000953769F409C0C8016AE070E00E94E037DC
:1046D0008B016230710518F0E016F106A0F3C701F6
:1046E000B8010E94E037862F0E94C122C701B8019D
:1046F0000E94E0377C01C801B4010E94E0378B01C1
:104700006115710561F777CFEF92FF920F931F93B9
:10471000CF93DF937C01062FFC01808981FD12C0BD
:10472000C0E0D0E0F701EC0FFD1F8081918160E0D7
:104730000E949E212296C031D105A1F7F701808900
:104740008260808B802F81548A3130F4E02FF0E03A
:10475000E155FB4F14913CC0802F81568A3130F4D3
:10476000E02FF0E0E157FB4F149132C0802F8053CF
:104770008A3030F4E02FF0E0E652FB4F149128C06D
:104780000A3030F4E02FF0E0E65FFA4F149120C0D9
:104790000D3211F412E01CC00B35B9F00B37A9F043
:1047A000083299F00D3599F00D3789F0093279F01A
:1047B0000E3211F010E00CC0F70186859785892B29
:1047C00011F410E105C011E003C01CE901C010EFB5
:1047D000F701808980FF1095C0E0D0E0F701EC0F71
:1047E000FD1F8081918117FF03C00E94232202C018
:1047F0000E94FE212296C031D10511F0110FEECF9B
:10480000802FDF91CF911F910F91FF90EF9008952E
:10481000EF92FF920F931F93CF93DF938C01E62EBD
:10482000F42EFC01808981FD12C0C0E0D0E0F801C7
:10483000EC0FFD1F8081918160E00E949E212296F5
:10484000C031D105A1F7F80180898260808BF80121
:10485000808980FD06C0FF2019F4FF24FA9401C06E
:10486000FF24EE2DF0E0EE0FFF1FE00FF11F80811F
:1048700091816F2D0E944722DF91CF911F910F915F
:10488000FF90EF900895FC01009779F08481958165
:10489000892B59F08FB7F8941186108617821682EB
:1048A0000480F581E02D10828FBF0895FC0184897A
:1048B00080FD02C080E008958FEF0895FC018FB75E
:1048C000F89444875587668777878FBF0895FC01E2
:1048D0008FB7F894408B518B628B738B8FBF089589
:1048E000CF92DF92EF92FF920F931F93CF93DF93BC
:1048F000EC01D62E8C819D81892BA9F58A859B851B
:1049000001960E941F329D838C83009761F120E005
:1049100030E007C0EC81FD81E20FF31F10822F5FB2
:104920003F4F8A859B8582179307A0F719861886C3
:104930001F821E828C898E7F8C8B00E010E00EC05F
:10494000C801880F991FE881F981E80FF91F859147
:10495000949160E20E9484230F5F1F4F8A819B81A4
:104960000817190768F3EC81FD81309709F43EC000
:104970008AE0D81619F588859985E80FF91F108205
:1049800019861886CFB6F8948C8980FD15C08C895D
:1049900081608C8B8C898D7F8C8B1F821E820E9404
:1049A0006F289B01AC01EC84FD840E851F8580E09F
:1049B00095E2BE010E947B31CFBE18C08DE0D816B3
:1049C000A9F0288539858A859B852817390770F4D1
:1049D000E20FF31F2FB7F894D08211828885998552
:1049E0000196998788871F821E822FBF8D2DDF91A8
:1049F000CF911F910F91FF90EF90DF90CF9008958E
:104A00002F923F924F925F926F927F928F929F92DE
:104A1000AF92BF92CF92DF92EF92FF920F931F93CC
:104A2000CF93DF93382E292E2A013B01C82FD92F8F
:104A30000C811D818E819F81080F191FF8018080D4
:104A40008C8986958170882029F4A888B988CA88BD
:104A5000DB8804C0AC84BD84CE84DF848823D1F499
:104A60008820C1F0F80132918F010F5F1F4F4A81FA
:104A70005B81F80180E090E007C02081222351F0A3
:104A8000231741F43196019684179507B0F39924C2
:104A90009A9401C099248C8986958170292D332799
:104AA00027FD309590E028173907C1F0A601950140
:104AB00062E056954795379527956A95D1F7992DD8
:104AC00092708C898D7F892B8C8B992019F05901DC
:104AD0006A0104C0A21AB30AC40AD50AEE24FF244C
:104AE00018C0C701880F991FE881F981E80FF91FE5
:104AF00085919491992039F4F8016081662319F029
:104B00000F5F1F4F01C060E20E9484230894E11CE4
:104B1000F11C8A819B81E816F90618F38820B1F40C
:104B20001F821E8288899989AA89BB890097A1055D
:104B3000B10529F0EC81FD818081882319F48C89ED
:104B40008E7F02C08C898D7F8C8B07C0992029F4C1
:104B50008E819F8101969F838E838C8980FF0AC0FE
:104B600080E095E2632D722DA3019201860175010B
:104B70000E947B31DF91CF911F910F91FF90EF90B9
:104B8000DF90CF90BF90AF909F908F907F906F906D
:104B90005F904F903F902F900895EF92FF920F9368
:104BA0001F937A01209104023091050240E050E009
:104BB0000E94C13700E010E0A80197010E94F4377D
:104BC000CA01B9011F910F91FF90EF9008956130D4
:104BD00023E0720720E0820720E0920748F423E0F8
:104BE00030E040E050E00E94F4372A95F1F7089554
:104BF0009B01AC0182E056954795379527958A959C
:104C0000D1F7DA01C901203060E0360761E04607DC
:104C100060E0560720F08FEF9FEFA0E0B0E0FC01CE
:104C20003197F1F7A0E0B0E0281B390B4A0B5B0B82
:104C300041F7089508958091830390918403A09192
:104C40008503B09186030196A11DB11D8093830356
:104C500090938403A0938503B09386030895FC0189
:104C60003796E491EE2321F426E084E195E003C039
:104C700028E080E295E0422F4150242F332727FD82
:104C80003095220F331F280F391F0EC0F90185916F
:104C90009491225030408617970729F4242F332708
:104CA00027FD309505C0415047FFF0CF2FEF3FEF74
:104CB000C90108950F931F93CF93DF938C0124E0D4
:104CC0006130720710F060E074E0EB01611571056E
:104CD00021F4C1E0D0E001C02196C801BE010E94CC
:104CE0002F268F5F9F4FC1F3CE01DF91CF911F9190
:104CF0000F9108959C010296FC01A591B4912A5F41
:104D00003F4FF9018491882319F02D913C9103C004
:104D10008C91282F30E0C90108959C010B96FC016D
:104D2000A591B491235F3F4FF901249170E0022EC9
:104D300002C0660F771F0A94E2F781E090E002C09C
:104D4000880F991F2A95E2F7282F220F282B9C9174
:104D5000822F862320952923822B8C9308959C01F2
:104D60000B96FC01A591B491235F3F4FF90144914B
:104D700021E030E0042E02C0220F331F0A94E2F734
:104D8000822F880F822B2C91822390E002C0959570
:104D900087954A95E2F70895FC01A591B491129682
:104DA000ED91FC911397309729F014966D917C91B9
:104DB000159709950895FC01A591B4911696ED916A
:104DC000FC911797309729F018966D917C9119975F
:104DD00009950895FC01A591B491ED91FC9111976D
:104DE000309729F012966D917C911397099508954B
:104DF0008091140C08959093180C8093170C0895CB
:104E00008F929F92AF92BF92CF92DF92EF92FF92DA
:104E10000F931F93CF93DF93982E892E5A016B0126
:104E2000C82FD92F8981882341F48881181614F45A
:104E3000888102C0888181958983888187FD08C027
:104E4000E0E2EE2EE1EAFE2EE7E00E2F112D07C084
:104E500070E9E72E70EDF72E73E0072F112D8A8190
:104E600080FF1DC08091110C9091120C0E94C521F1
:104E7000882329F081E19CE060E00E944F22898133
:104E8000815089838981882339F460E8E62E64E8BB
:104E9000F62E6EE1062F112D8A818E7F0FC0809134
:104EA000110C9091120C0E94C521882329F081E1F8
:104EB0009CE06FEF0E944F228A8181608A8380E0AC
:104EC00097E2692D782DA60195010E947B31DF9133
:104ED000CF911F910F91FF90EF90DF90CF90BF90F7
:104EE000AF909F908F900895DF92EF92FF920F9373
:104EF0001F93CF93DF939C01EB01FC01A591B4912B
:104F00001A968C91398328832115310539F41A8238
:104F10001B821C821D821F821E82B1C0843039F028
:104F2000893029F08B3019F08F3009F048C0F90131
:104F3000779665917491DFB6F894A2E0EA2EF12C91
:104F4000E20EF31EF701A591B49189010A5F1F4F8C
:104F5000F8018491882319F04D915C9103C08C91E4
:104F6000482F50E08091190C90911A0C281739079E
:104F700029F080E090E0A0E0B0E008C080918303D9
:104F800090918403A0918503B09186038A839B83CB
:104F9000AC83BD83F701A591B491F8018491882376
:104FA00019F08D919C9102C08C9190E09F838E832B
:104FB0008417950708F449C0CB01089642C0DFB6B4
:104FC000F894F2E0EF2EF12CE20EF31EF701A5911A
:104FD000B49189010A5F1F4FF8018491882319F069
:104FE0004D915C9103C08C91482F50E08091190C39
:104FF00090911A0C2817390729F080E090E0A0E082
:10500000B0E008C08091830390918403A091850350
:10501000B09186038A839B83AC83BD83F701A591FE
:10502000B491F8018491882319F08D919C9102C06C
:105030008C9190E09F838E838417950730F0C9018F
:105040004C960E94C0208823C9F08A819B81AC8144
:10505000BD810196A11DB11D8A839B83AC83BD8355
:10506000F701A591B491F8018491882319F08D91ED
:105070009C9102C08C9190E09F838E83DFBEDF9174
:10508000CF911F910F91FF90EF90DF900895BC0199
:105090008091190C90911A0C0E94742708950F9317
:1050A0001F93DF93CF93CDB7DEB728970FB6F89451
:1050B000DEBF0FBECDBF8E010F5F1F4FB8010E9434
:1050C0007427C8010E94C32928960FB6F894DEBF42
:1050D0000FBECDBFCF91DF911F910F9108958091A9
:1050E000190C90911A0C0E944F280895DF92EF92AC
:1050F000FF920F931F93D82E8091140C882309F0F0
:105100005BC0D092140C8091110C9091120C892BE1
:1051100099F08091190C90911A0C892B69F00E94DA
:105120006F289B01AC0180E097E264E17CE0EE2413
:10513000FF2487010E947B318091170C9091180CFD
:105140000097D1F10E9472228C012D2D332727FD6B
:105150003095D7FE16C000D000D00F92EDB7FEB745
:10516000319681E0ADB7BEB711968C9385E595E099
:105170009283818388279927821B930B948383834F
:1051800011C000D000D00F92EDB7FEB7319681E08C
:10519000ADB7BEB711968C9386E495E09283818378
:1051A000348323830E94CC220F900F900F900F9096
:1051B0000F90C8010E9472221F910F91FF90EF90F3
:1051C000DF900895CF93DF93EC012296FE01949136
:1051D00022978CE2989FF0011124EE59FC4FE49144
:1051E000EE2371F0CE0103960E94CD20CE0160E047
:1051F0000E948D26FE01A591B4911D921C9203C0C0
:105200008DEF0E947628DF91CF910895CF93DF93A1
:105210009C012E5F3F4FF9018491225030409CE267
:10522000899FA0011124465A5C4F485F5F4FFA01E5
:105230008491485050408823C1F0C9010696FC0172
:10524000C591D491FA013696E491EE2319F0798351
:1052500068830EC06F3F710531F028F08EEF0E9419
:1052600076286FEF70E0688303C08DEF0E94762888
:10527000DF91CF9108959C012E5F3F4FF9018491FA
:10528000225030409CE2899FA0011124465A5C4F75
:10529000485F5F4FFA01849148505040882389F05D
:1052A000C9010696FC01A591B491FA013696E491E4
:1052B000EE2319F02D913C9109C08C91282F30E0FC
:1052C00005C08DEF0E9476282FEF30E0C9010895C8
:1052D000CF93DF93EC010496FC01A591B4918C91DE
:1052E00090E087709070892B09F441C0FE01A59170
:1052F000B4911A968C91873039F1883070F48330EC
:1053000019F1843028F48130C9F08230D0F413C010
:105310008530A1F08630A8F41AC08B30C1F08C30F3
:1053200018F48930E1F413C08E30C9F08F3079F071
:105330008C30E9F414C02FEF3FEF1BC02FEF30E0AB
:1053400018C02FEF31E015C02FEF33E012C0FE017F
:105350007796859194910E943B299C010AC0CE01C9
:105360004F96FC01A591B4912D913C9102C020E093
:1053700030E02696FE018491882309F43070C9013B
:10538000DF91CF9108956F927F928F929F92AF920B
:10539000BF92CF92DF92EF92FF920F931F93CF9322
:1053A000DF938C01FC01808191810E9468293C017E
:1053B00088249924F801208131818091190C9091E1
:1053C0001A0CA280B380C480D580C681D7812817EB
:1053D000390701F5E0907F03F0908003009181038D
:1053E00010918203C801B701A60195010E94C1373F
:1053F0005B016C01BE0180E090E0A80197010E9472
:10540000C137A40193010E94F4372A0D3B1D4C1DA6
:105410005D1D14C00894611C711C811C911CC40189
:10542000B301A60195010E94C1379B01AC01CE01D9
:10543000A0E0B0E0280F391F4A1F5B1FB901CA0165
:10544000DF91CF911F910F91FF90EF90DF90CF9060
:10545000BF90AF909F908F907F906F9008954F92E4
:105460005F926F927F928F929F92AF92BF92CF92F4
:10547000DF92EF92FF920F931F93CF93DF938C01F4
:105480000A5F1F4FF801849106501040882331F4C1
:105490002FEFA22EB12CC12CD12C06C09FEFA92E2C
:1054A0009FEFB92EC12CD12CC1E0D0E081E0482E75
:1054B000512CEE24FF243B0188249924C801BE010D
:1054C0000E942F268F5F9F4F59F0C401B301AE0198
:1054D0000E94CD25A616B706C806D90670F42E017F
:1054E000CC0FDD1F0894E11CF11C2BE0E216F10447
:1054F00029F788EF0E947628E201CE01DF91CF9153
:105500001F910F91FF90EF90DF90CF90BF90AF90E1
:105510009F908F907F906F905F904F900895DF9253
:10552000EF92FF920F931F93CF93DF93EC017B01D8
:10553000FC01349605911491DFB6F8940E942F2651
:10554000AC018FEF4F3F580769F0FE01A591B49170
:10555000ED92FC92F8018081887F80838081842B8A
:10556000808303C08AEF0E947628DFBEDF91CF914F
:105570001F910F91FF90EF90DF9008957F928F928F
:105580009F92AF92BF92CF92DF92EF92FF920F93D2
:105590001F93CF93DF93EC01FC0132960591149198
:1055A000FC01859094907FB6F8940496FC01A59137
:1055B000B4918C91887F8C9339E1A32EB12CAC0EE1
:1055C000BD1EC5010E94CD20F8011082F40160814A
:1055D0007181CE010E948F2A2896FE01E4902F96B9
:1055E000FF2400E010E0FE01C590D490679709C049
:1055F000C601800F911F08960E94B420F394005FAB
:105600001F4FFE14A8F3CE014C960E94B420F40163
:1056100082819381892B19F0C5010E94B4207FBE3D
:10562000DF91CF911F910F91FF90EF90DF90CF907E
:10563000BF90AF909F908F907F900895DF92EF92F0
:10564000FF920F931F93CF93DF938C01662341F05A
:10565000FC01A591B4911A968C91861709F47AC031
:10566000F80139962591349181E090E0062E02C030
:10567000880F991F0A94E2F782239323892B09F458
:1056800066C0F801A591B4911A966C93FFED2F3F77
:105690003F0711F4D62E13C088E82333380731F4BE
:1056A000E62FF0E0E05DFA4FD49009C023333105D6
:1056B00009F04DC0E62FF0E0E05CFA4FD490EFEF38
:1056C000DE1609F444C0C8010496FC01A591B4910A
:1056D0008C91887F8C93E8012B96EE24FF24E8813F
:1056E000F98185919491892B99F0D0FE04C0CE0167
:1056F0000E94B42003C0CE010E94CD200894E11C7A
:10570000F11CF4E0EF16F10419F0D6942396E7CFDC
:10571000085F1F4FF801F490FA94015F1F4FF801E2
:10572000C591D491075110400CC08F2D90E044E0FA
:10573000880F991F4A95E1F78C0F9D1F0E94E22860
:10574000FA94F7FEF2CFC8010E94BE2A03C086EF8A
:105750000E947628DF91CF911F910F91FF90EF90DB
:10576000DF900895DF92EF92FF920F931F93F894CA
:10577000FF24E0900A025CE2D52E1CC0FD9C800153
:105780001124065A1C4FC80160E070E040E050E070
:105790000E948A2EC8010E94382EC80160E00E9433
:1057A0001E2BC8010496FC01A591B4918C91887FB1
:1057B0008C93F394FE1410F378941F910F91FF9043
:1057C000EF90DF9008958F929F92AF92BF92CF9209
:1057D000DF92EF92FF920F931F93CF93DF938C0191
:1057E0006B015A0149010E5F1F4FF801849102506D
:1057F00010409CE2899FE0011124C65ADC4F289694
:10580000FE01849128978823A1F1F801E590F49096
:105810006115710541F0F70180819181892B19F0A3
:105820008BEF0E947628CE01FE01A591B4916D9177
:105830007C910E948F2AE8012396CE010E94CD2000
:10584000C801B5010E940629F701D182C082938266
:105850008282C80108960E94B420C114D10461F06C
:10586000FAE1CF16F6E2DF0639F0CE010E94B4204D
:1058700003C08DEF0E947628DF91CF911F910F9189
:10588000FF90EF90DF90CF90BF90AF909F908F9060
:1058900008952F923F924F925F926F927F928F92D4
:1058A0009F92AF92BF92CF92DF92EF92FF920F93AF
:1058B0001F93DF93CF9300D000D0CDB7DEB7109207
:1058C0001A0C1092190C00910A0201508CE2080285
:1058D000600111242AE533E0C20ED31EAA24BB24A2
:1058E000222433241A82198252C0C6010496FC0174
:1058F000A591B4918C9190E087709070892B09F0FC
:1059000041C0DBC028E030E0C20ED31EF601849116
:1059100028EF3FEFC20ED31E8230A0F13FEF2316D7
:10592000310469F060F086E090E0C80ED91EF601FF
:1059300084912AEF3FEFC20ED31E882319F1C601CE
:105940006CE070E00E942F2AF82EE92E6CE070E0E7
:1059500080E090E04F2D5E2D0E94CD259B01AC0193
:10596000A114B10441F0C101A0E0B0E08217930797
:10597000A407B50738F4190156018F2D9E2D9C01FF
:105980003A832983015084ED9FEFC80ED91E07FF8B
:10599000ACCFA114B10409F487C0E6E0F0E0AE0E8C
:1059A000BF1EF50184912AEF3FEFA20EB31E88239C
:1059B00031F4EFEFCE2ED12CE12CF12C06C07FEF8D
:1059C000C72E7FEFD72EE12CF12C6CE0862E912C88
:1059D00021016624772461E070E080E090E0498155
:1059E0005A810E94CD256F5F7F4F8F4F9F4F640D6F
:1059F000751D861D971D6C157D058E059F0528F567
:105A0000C40101969C838B83C5016B817C810E94BC
:105A10002F2A8C01EB81FC81BF0180E090E0A8017E
:105A20000E94CD2529813A810217130771F4C61609
:105A3000D706E806F90648F04616570668067906BE
:105A400020F41B018B809C80C3CFB0921A0CA092D3
:105A5000190CB40180E090E028EE33E040E050E023
:105A60000E94C13760937F0370938003809381030A
:105A700090938203C50169817A810E948F2A809167
:105A8000190C90911A0C64E00E941E2BE091190CE5
:105A9000F0911A0C7796859194916BE176E2A101D1
:105AA00020E030E00E94E32B8091140C882361F009
:105AB0001092140C0E94762807C0F6013996859141
:105AC000949184FD1FCF5ECF0F900F900F900F9099
:105AD000CF91DF911F910F91FF90EF90DF90CF90CA
