:100000000C9472000C948F000C948F000C948F0051
:100010000C948F000C948F000C948F000C948F0024
:100020000C948F000C948F000C948F000C948F0014
:100030000C948F000C948F000C948F000C948F0004
:100040000C948F000C948F000C948F000C948F00F4
:100050000C948F000C948F000C948F000C948F00E4
:100060000C948F000C9424050C948F000C94810642
:100070000C948F000C948F000C948F000C948F00C4
:100080000C948F000C948F000C948F000C948F00B4
:100090000C94FF040C948F000C945C060C948F005D
:1000A0000C948F000C948F000C948F000C948F0094
:1000B0000C948F000C948F000C948F000C948F0084
:1000C0000C948F000C948F000C948F000C94DA0425
:1000D0000C948F000C9437060C94B5040C948F008C
:1000E0000C94120611241FBECFEFD1E2DEBFCDBFAC
:1000F00012E0A0E0B2E0E0E5F2E102C005900D926E
:10010000A239B107D9F715E0A2E9B2E001C01D920A
:10011000AA32B107E1F70E94CC030C94BF080C94FB
:100120000000893049F480918000826080938000D3
:10013000809180008E7F0EC08A3021F480918000F3
:10014000826003C0809180008D7F809380008091C9
:10015000800081608093800010928B0010928A0052
:100160000895893049F48091B00082608093B00096
:100170008091B0008E7F0EC08A3021F48091B00053
:10018000826003C08091B0008D7F8093B000809129
:10019000B00081608093B0001092B400089589305F
:1001A00049F480919000826080939000809190004B
:1001B0008E7F0EC08A3021F480919000826003C04F
:1001C000809190008D7F809390008091900081605D
:1001D00080939000109299001092980008958930B1
:1001E00049F4809191008260809391008091910008
:1001F0008E7F0EC08A3021F480919100826003C00E
:10020000809191008D7F8093910080919100816019
:100210008093910010929B0010929A00089589306B
:1002200049F48091920082608093920080919200C4
:100230008E7F0EC08A3021F480919200826003C0CC
:10024000809192008D7F80939200809192008160D6
:100250008093920010929D0010929C000895893026
:1002600049F48091A00082608093A0008091A0005A
:100270008E7F0EC08A3021F48091A000826003C07E
:100280008091A0008D7F8093A0008091A00081606C
:100290008093A0001092A9001092A80008958930C0
:1002A00049F48091A10082608093A1008091A10017
:1002B0008E7F0EC08A3021F48091A100826003C03D
:1002C0008091A1008D7F8093A1008091A100816029
:1002D0008093A1001092AB001092AA00089589307B
:1002E00049F48091A00082608093A0008091A000DA
:1002F0008E7F0EC08A3021F48091A000826003C0FE
:100300008091A0008D7F8093A0008091A0008160EB
:100310008093A0001092AD001092AC000895E0E828
:10032000F0E020812E7F2083208122602083E1E87D
:10033000F0E0208128602083208120612083909339
:100340008700809386001092890010928800109296
:100350008B0010928A0010928D0010928C000895EC
:10036000E0E9F0E020812E7F20832081226020833D
:10037000E1E9F0E020812860208320812061208352
:100380009093970080939600109299001092980095
:1003900010929B0010929A0010929D0010929C0067
:1003A0000895E0EAF0E020812E7F20832081226002
:1003B0002083E1EAF0E02081286020832081206111
:1003C00020839093A7008093A6001092A90010921A
:1003D000A8001092AB001092AA001092AD001092EB
:1003E000AC000895E0E8F0E0808180628083808145
:1003F0008F7E80830895E0EBF0E0808180628083CF
:1004000080818F7E80830895E0E9F0E080818068BC
:10041000808380818F7B80830895E0E9F0E0808194
:100420008062808380818F7E80830895E0E9F0E0A0
:1004300080818860808380818B7F80830895E0EA5B
:10044000F0E080818068808380818F7B8083089545
:10045000E0EAF0E080818062808380818F7E80830B
:100460000895E0EAF0E080818860808380818B7F5E
:1004700080830895E0E8F0E080818F7D8083808133
:100480008F7E80830895E0EBF0E080818F7D808314
:1004900080818F7E80830895E0E9F0E080818F770E
:1004A000808380818F7B80830895E0E9F0E0808104
:1004B0008F7D808380818F7E80830895E0E9F0E0E6
:1004C0008081877F808380818B7F80830895E0EAAD
:1004D000F0E080818F77808380818F7B8083089597
:1004E000E0EAF0E080818F7D808380818F7E808351
:1004F0000895E0EAF0E08081877F808380818B7FB0
:1005000080830895E0E8F0E080818D7F80838081A2
:100510008E7F808380818F7D808380818F7E8083AA
:100520000895E0EBF0E080818D7F808380818E7F75
:10053000808380818F7D808380818F7E80830895FA
:10054000E0E9F0E080818D7F808380818E7F8083F1
:1005500080818F77808380818F7B808380818F7D76
:10056000808380818F7E80838081877F808380816C
:100570008B7F80830895E0EAF0E080818D7F808327
:1005800080818E7F808380818F77808380818F7B45
:10059000808380818F7D808380818F7E8083808136
:1005A000877F808380818B7F8083089590938B00E9
:1005B00080938A0008958093B400089590939900E1
:1005C00080939800089590939B0080939A000895DB
:1005D00090939D0080939C0008959093A900809330
:1005E000A80008959093AB008093AA00089590937B
:1005F000AD008093AC00089510BA11BA10920701B3
:10060000109208019FEF91B980E484B997B9589A84
:10061000599A83EF8AB98EEF8DB9A59A9D988093E8
:10062000010180930401089508952E9A08952E984B
:10063000089522B330E085E0369527958A95E1F755
:100640002095309521703070C901089597FD10C034
:1006500025E030E040E050E00E940B09DA01C901DA
:10066000880F991F80509E4FFC012081318117C057
:1006700025E030E040E050E00E940B09DA01C901BA
:10068000885B9F4FAF4FBF4F880F991F80509E4F81
:10069000FC018081918122273327281B390BC90156
:1006A00008956A5570408040904097FD10C025E045
:1006B00030E040E050E00E940B09DA01C901880FE8
:1006C000991F80509E4FFC012081318117C025E089
:1006D00030E040E050E00E940B09DA01C901885B7C
:1006E0009F4FAF4FBF4F880F991F80509E4FFC0107
:1006F0008081918122273327281B390BC901089556
:10070000CF92DF92EF92FF920F931F936B017C01C8
:100710008AE5C816D104E104F104A1F186EAC816FD
:100720008FEFD8068FEFE8068FEFF80659F18EE0CD
:10073000C81681E0D80680E0E80680E0F80611F1EE
:1007400082EFC8168EEFD8068FEFE8068FEFF80617
:10075000C9F0C701B6010E9451038C01C701B6015F
:100760000E942603BC01C8010E94D608CB019B0150
:1007700073E0220F331F7A95E1F7880F991F280F36
:10078000391F02C020E030E0C9011F910F91FF9096
:10079000EF90DF90CF9008951F930E94060810E01D
:1007A000812F0E9459041F5FFBCF843040F4E82F53
:1007B000F0E0EE0FFF1FEE52FB4F71836083089550
:1007C0001F93182F9A01AB01CA01B90160587B47EA
:1007D000814E9F4FF3E0660F771F881F991FFA9590
:1007E000D1F7E4E0220F331F441F551FEA95D1F7DC
:1007F0000E94E90821503040133029F4209334013D
:100800003093350112C0123029F42093D400309374
:10081000D5000BC0113029F42093CC003093CD00CB
:1008200004C02093C4003093C5001F910895282F61
:1008300030E0A3E0220F331FAA95E1F722523B4F8D
:10084000C9010895282F30E0B3E0220F331FBA9575
:10085000E1F72E5F3A4FC9010895E82F833039F44C
:100860008091300185FFFCCF6093360118C0823043
:1008700039F48091D00085FFFCCF6093D6000FC083
:10088000813039F48091C80085FFFCCF6093CE00A1
:1008900006C08091C00085FFFCCF6093C600F0E0E9
:1008A000E652FB4F10820895682F80E00E942D04CD
:1008B0000895682F81E00E942D040895682F82E03A
:1008C0000E942D040895682F83E00E942D0408954E
:1008D00020E0E82FF0E083E0EE0FFF1F8A95E1F7BC
:1008E000EE51FB4F80819181892B09F421E0822F09
:1008F0000895CF93DF93833019F4609136010CC0D3
:10090000823019F46091D60007C0813019F46091EB
:10091000CE0002C06091C600282F30E0E901CC0F64
:10092000DD1FFE01EE52FB4F80819181892B31F05A
:100930000190F081E02D862F099514C093E0220FDD
:10094000331F9A95E1F7C90182529B4F0E94850897
:10095000882341F4FE01EE5DFA4F8081918101967A
:1009600091838083DF91CF9108951F920F920FB6EC
:100970000F9211242F933F934F935F936F937F9325
:100980008F939F93AF93BF93EF93FF9383E00E9466
:100990007904FF91EF91BF91AF919F918F917F91DA
:1009A0006F915F914F913F912F910F900FBE0F90DC
:1009B0001F9018951F920F920FB60F9211242F932C
:1009C0003F934F935F936F937F938F939F93AF93D7
:1009D000BF93EF93FF9382E00E947904FF91EF9120
:1009E000BF91AF919F918F917F916F915F914F9147
:1009F0003F912F910F900FBE0F901F9018951F924F
:100A00000F920FB60F9211242F933F934F935F9342
:100A10006F937F938F939F93AF93BF93EF93FF93C6
:100A200081E00E947904FF91EF91BF91AF919F9176
:100A30008F917F916F915F914F913F912F910F9087
:100A40000FBE0F901F9018951F920F920FB60F9226
:100A500011242F933F934F935F936F937F938F93C3
:100A60009F93AF93BF93EF93FF9380E00E9479042D
:100A7000FF91EF91BF91AF919F918F917F916F9176
:100A80005F914F913F912F910F900FBE0F901F904C
:100A900018958F929F92AF92BF92CF92DF92EF9272
:100AA000FF920F931F93CF93DF93882EDB01C82E05
:100AB000DD24F60113E0EE0FFF1F1A95E1F7EA5F60
:100AC000FA4F20813181240F351FF60173E0EE0FBC
:100AD000FF1F7A95E1F7EC5FFA4F8081918128172B
:100AE000390770F54115510559F19C90760163E085
:100AF000EE0CFF1C6A95E1F782E095E0E80EF91E26
:100B00008D01C0E0D0E05A010894A108B10806C0E8
:100B1000C701F80160810E94850821960F5F1F4F71
:100B2000CA15DB05A8F38EEF94E0C80ED91E8FEF2F
:100B3000F6018083882D692D0E942D048FEF01C05E
:100B400080E0DF91CF911F910F91FF90EF90DF90A8
:100B5000CF90BF90AF909F908F90089590E023E04A
:100B6000880F991F2A95E1F78E5F9A4F0E9485089A
:100B70000895682F8AE195E00E9485080895682FFE
:100B800082E195E00E9485080895682F8AE095E04B
:100B90000E9485080895682F82E095E00E948508EC
:100BA0000895CF93DF93282FA82FB0E0ED01C25016
:100BB000DB4F8881882379F1FD0133E0EE0FFF1FC1
:100BC0003A95E1F7EA5FFA4F80819181892B11F123
:100BD000233039F48AE195E00E941C0880933601A5
:100BE0001EC0223039F482E195E00E941C088093F7
:100BF000D60015C0213039F48AE095E00E941C0827
:100C00008093CE000CC082E095E00E941C08809387
:100C1000C60005C01882A652BB4F8FEF8C93DF91A0
:100C2000CF9108951F920F920FB60F9211242F9318
:100C30003F934F935F936F937F938F939F93AF9364
:100C4000BF93EF93FF9383E00E94D105FF91EF9153
:100C5000BF91AF919F918F917F916F915F914F91D4
:100C60003F912F910F900FBE0F901F9018951F92DC
:100C70000F920FB60F9211242F933F934F935F93D0
:100C80006F937F938F939F93AF93BF93EF93FF9354
:100C900082E00E94D105FF91EF91BF91AF919F91AA
:100CA0008F917F916F915F914F913F912F910F9015
:100CB0000FBE0F901F9018951F920F920FB60F92B4
:100CC00011242F933F934F935F936F937F938F9351
:100CD0009F93AF93BF93EF93FF9381E00E94D10561
:100CE000FF91EF91BF91AF919F918F917F916F9104
:100CF0005F914F913F912F910F900FBE0F901F90DA
:100D000018951F920F920FB60F9211242F933F93B5
:100D10004F935F936F937F938F939F93AF93BF9303
:100D2000EF93FF9380E00E94D105FF91EF91BF9177
:100D3000AF919F918F917F916F915F914F913F9173
:100D40002F910F900FBE0F901F9018951F93182F83
:100D500090E0FC01E250FB4F2FEF208343E0880F2F
:100D6000991F4A95E1F78E5F9A4F0E941C08682FE1
:100D7000812F0E942D041F910895CF93DF93EB01E3
:100D8000282F30E0F90173E0EE0FFF1F7A95E1F7AD
:100D9000E052FB4F80819181892BC9F0F90163E01A
:100DA000EE0FFF1F6A95E1F7EE51FB4F80819181B5
:100DB000892B69F053E0220F331F5A95E1F7C901DF
:100DC00082529B4F0E941C0888838FEF01C080E0F5
:100DD000DF91CF910895DF93CF930F92CDB7DEB718
:100DE00083E0BE016F5F7F4F0E94BD06882319F428
:100DF0002FEF3FEF03C08981282F30E0C9010F900A
:100E0000CF91DF910895DF93CF930F92CDB7DEB7E7
:100E100082E0BE016F5F7F4F0E94BD06882319F4F8
:100E20002FEF3FEF03C08981282F30E0C9010F90D9
:100E3000CF91DF910895DF93CF930F92CDB7DEB7B7
:100E400081E0BE016F5F7F4F0E94BD06882319F4C9
:100E50002FEF3FEF03C08981282F30E0C9010F90A9
:100E6000CF91DF910895DF93CF930F92CDB7DEB787
:100E700080E0BE016F5F7F4F0E94BD06882319F49A
:100E80002FEF3FEF03C08981282F30E0C9010F9079
:100E9000CF91DF91089590E0E3E0880F991FEA95E4
:100EA000E1F782529B4F0E94B808089586EF94E0C4
:100EB00062E474E040E850E00E940F088AE195E0A7
:100EC00062EC74E040E150E00E940F0808950E9437
:100ED00056071092D9041092D80488ED80933101FE
:100EE00083E040E855E260E070E00E94E0038FEFAD
:100EF0008093DD04109201051092290510922805B7
:100F0000789408958EEE94E062EB73E040E850E050
:100F10000E940F0882E195E062E374E040E150E056
:100F20000E940F0808950E9482071092D704109221
:100F3000D60488ED8093D10082E040E855E260E07D
:100F400070E00E94E0038FEF8093DC0410920005B4
:100F500010922705109226057894089586EE94E065
:100F600062E273E040E850E00E940F088AE095E0FA
:100F700062EA73E040E150E00E940F0808950E9489
:100F8000AE071092D5041092D40488ED8093C90066
:100F900081E040E855E260E070E00E94E0038FEFFE
:100FA0008093DB041092FF04109225051092240513
:100FB000789408958EED94E062E972E040E850E0A4
:100FC0000E940F0882E095E062E173E040E150E0AA
:100FD0000E940F0808950E94DA071092D30410921D
:100FE000D20488ED8093C10080E040E855E260E0E3
:100FF00070E00E94E0038FEF8093DA041092FE0409
:101000001092230510922205789408950E94EB0710
:101010000E94BF070E9493070E9467070895FC0182
:101020008FB7F8947183608353834283178216824B
:10103000158214828FBF0895DC014FB7F89414967F
:101040008D919C911597892B11F4E0E025C016969F
:101050008D919C911797ED91FC911197E80FF91FD5
:10106000E081019617969C938E93169712962D9178
:101070003C9113978217930730F0821B930B1796BE
:101080009C938E93169714968D919C91159701972A
:1010900015969C938E9314974FBF8E2F0895FC0145
:1010A0004FB7F8948481958168177907B0F48681E9
:1010B0009781860F971F97838683228133818217BA
:1010C000930720F0821B930B9783868384819581FD
:1010D000861B970B9583848302C0158214824FBFB1
:1010E0000895FC01CB012FB7F8942FBF26813781DB
:1010F00062817381820F931F0E94C2080190F08168
:10110000E02DE80FF91F808108951F93CF93DF939F
:10111000EC01162F4FB7F8942C813D816A817B81B9
:101120002617370798F48E819F81820F931F0E94A4
:10113000C208E881F981E80FF91F10838C819D8135
:1011400001969D838C834FBF8FEF02C04FBF80E01D
:10115000DF91CF911F910895FC018FB7F8948FBF55
:101160002281338184819581281B390BC90108951F
:10117000FC018FB7F894158214828FBF0895F894FC
:101180000C942609AA1BBB1B51E107C0AA1FBB1F59
:10119000A617B70710F0A61BB70B881F991F5A9503
:1011A000A9F780959095BC01CD01089597FB092E74
:1011B00007260AD077FD04D0E5DF06D000201AF418
:1011C000709561957F4F0895F6F7909581959F4FA3
:1011D0000895A1E21A2EAA1BBB1BFD010DC0AA1F78
:1011E000BB1FEE1FFF1FA217B307E407F50720F090
:1011F000A21BB30BE40BF50B661F771F881F991F0B
:101200001A9469F760957095809590959B01AC0153
:10121000BD01CF01089597FB092E05260ED057FD7D
:1012200004D0D7DF0AD0001C38F450954095309593
:1012300021953F4F4F4F5F4F0895F6F7909580955A
:10124000709561957F4F8F4F9F4F0895F894FFCF12
:1012500064006400620061005E005B0057005200A1
:101260004D0047004000390032002A0022001A00D9
:10127000110009000000F7FFEFFFE6FFDEFFD6FFD9
:10128000CEFFC7FFC0FFB9FFB3FFAEFFA9FFA5FFA9
:10129000A2FF9FFF9EFF9CFF9CFF9CFF9EFF9FFF66
:1012A000A2FFA5FFA9FFAEFFB3FFB9FFC0FFC7FFB5
:1012B000CEFFD6FFDEFFE6FFEFFFF7FF00000900DD
:1012C00011001A0022002A003200390040004700B5
:1012D0004D00520057005B005E0061006200640038
:0212E0006400A8
:00000001FF
