:100000000C9427010C9444010C9444010C94440179
:100010000C9444010C9444010C9444010C9444014C
:100020000C9444010C9444010C9444010C9444013C
:100030000C9444010C9447200C9474200C94661E7C
:100040000C94C01F0C9494190C94ED1F0C941A205E
:100050000C94261E0C94661F0C94931F0C94D31DB5
:100060000C9444010C9418240C9444010C947525B0
:100070000C9444010C942F280C9444010C94A1205E
:100080000C94CE200C94FB200C9428210C94A61EDA
:100090000C94F3230C9444010C9450250C944D2C97
:1000A0000C9444010C9455210C9482210C94AF21A2
:1000B0000C94DC210C94E61E0C9409220C9436223C
:1000C0000C9463220C9490220C94261F0C94CA2D3D
:1000D0000C9444010C942B250C94CE230C944401D5
:1000E0000C940625036EDB363D9A9999993DABAA8F
:1000F000AA2A3E000000803F084AD73B3BCE016E53
:1001000084BCBFFDC12F3D6C74319ABD56833DDA6E
:100110003D00C77F11BED9E4BB4C3E916BAAAABE7D
:10012000000000803F072C7AA5BA6CC590DA3B939B
:1001300065FC8BBC53F810FD3C5692834DBD879DEA
:100140003AB63DCBC9BF5BBE73DA0FC93F05A84CB9
:10015000CDB2D44EB93836A9020C50B99186880870
:100160003CA6AAAA2ABE000000803F0664EC1B3C05
:1001700004BC163E3BE5B93CC93C37C29E5A3D66BD
:100180000498083EEA69AAAA3E000000803F07637F
:100190004236B79BD8A71A39685618AEBAAB558CF9
:1001A0001D3CB7CC5763BD6DEDFD753EF617723142
:1001B000BF000000803F08000000BE922449123EAC
:1001C000ABAAAA2ABECDCCCC4C3E00000080BEAB70
:1001D000AAAAAA3E00000000BF000000803F000065
:1001E000000000084178D3BB4387D1133D190E3C72
:1001F000C3BD4282AD2B3E68EC8276BED98FE1A9A9
:100200003E4C80EFFFBE01C4FF7F3F0000000000B6
:10021000000001000800400000010004000001008F
:100220000800200040008000000100044241445FBB
:10023000766563742063616C6C65642100303132D3
:10024000333435363738394142434445460011246A
:100250001FBECFEFD1E2DEBFCDBF12E0A0E0B2E023
:10026000ECE3FEE602C005900D92A839B107D9F77C
:1002700012E1A8E9B2E001C01D92A338B107E1F78D
:100280000E944A0C0C9465310C94BD22893049F4CB
:1002900080918000826080938000809180008E7FBA
:1002A0000EC08A3021F480918000826003C080916A
:1002B00080008D7F8093800080918000816080939A
:1002C000800010928B0010928A000895893049F4C2
:1002D0008091B00082608093B0008091B0008E7FEA
:1002E0000EC08A3021F48091B000826003C08091FA
:1002F000B0008D7F8093B0008091B00081608093CA
:10030000B0001092B4000895893049F480919000B3
:10031000826080939000809190008E7F0EC08A3022
:1003200021F480919000826003C0809190008D7FC5
:100330008093900080919000816080939000109253
:100340009900109298000895893049F480919100A5
:10035000826080939100809191008E7F0EC08A30E0
:1003600021F480919100826003C0809191008D7F83
:100370008093910080919100816080939100109210
:100380009B0010929A000895893049F48091920060
:10039000826080939200809192008E7F0EC08A309E
:1003A00021F480919200826003C0809192008D7F41
:1003B00080939200809192008160809392001092CD
:1003C0009D0010929C000895893049F48091A0000E
:1003D00082608093A0008091A0008E7F0EC08A3042
:1003E00021F48091A000826003C08091A0008D7FE5
:1003F0008093A0008091A00081608093A000109263
:10040000A9001092A8000895893049F48091A100B4
:1004100082608093A1008091A1008E7F0EC08A30FF
:1004200021F48091A100826003C08091A1008D7FA2
:100430008093A1008091A10081608093A10010921F
:10044000AB001092AA000895893049F48091A00071
:1004500082608093A0008091A0008E7F0EC08A30C1
:1004600021F48091A000826003C08091A0008D7F64
:100470008093A0008091A00081608093A0001092E2
:10048000AD001092AC000895E0E8F0E020812E7FEE
:100490002083208122602083E1E8F0E02081286031
:1004A00020832081206120839093870080938600A1
:1004B000109289001092880010928B0010928A008E
:1004C00010928D0010928C000895E0E9F0E02081F8
:1004D0002E7F2083208122602083E1E9F0E02081CB
:1004E000286020832081206120839093970080934F
:1004F0009600109299001092980010929B00109212
:100500009A0010929D0010929C000895E0EAF0E09D
:1005100020812E7F2083208122602083E1EAF0E089
:100520002081286020832081206120839093A70070
:100530008093A6001092A9001092A8001092AB0020
:100540001092AA001092AD001092AC000895E0E85D
:10055000F0E080818062808380818F7E8083089537
:10056000E0EBF0E080818062808380818F7E8083F9
:100570000895E0E9F0E080818068808380818F7B4E
:1005800080830895E0E9F0E080818062808380814B
:100590008F7E80830895E0E9F0E080818860808329
:1005A00080818B7F80830895E0EAF0E0808180681D
:1005B000808380818F7B80830895E0EAF0E08081F2
:1005C0008062808380818F7E80830895E0EAF0E0FE
:1005D00080818860808380818B7F80830895E0E8BC
:1005E000F0E080818F7D808380818F7E808308957D
:1005F000E0EBF0E080818F7D808380818F7E80833F
:100600000895E0E9F0E080818F77808380818F7B9F
:1006100080830895E0E9F0E080818F7D8083808190
:100620008F7E80830895E0E9F0E08081877F80837A
:1006300080818B7F80830895E0EAF0E080818F776E
:10064000808380818F7B80830895E0EAF0E0808161
:100650008F7D808380818F7E80830895E0EAF0E043
:100660008081877F808380818B7F80830895E0E80D
:10067000F0E080818D7F808380818E7F8083808188
:100680008F7D808380818F7E80830895E0EBF0E012
:1006900080818D7F808380818E7F808380818F7D2C
:1006A000808380818F7E80830895E0E9F0E08081FF
:1006B0008D7F808380818E7F808380818F77808310
:1006C00080818F7B808380818F7D808380818F7EFE
:1006D00080838081877F808380818B7F8083089562
:1006E000E0EAF0E080818D7F808380818E7F80834F
:1006F00080818F77808380818F7B808380818F7DD5
:10070000808380818F7E80838081877F80838081CA
:100710008B7F8083089590938B0080938A00089547
:100720008093B40008959093990080939800089561
:1007300090939B0080939A00089590939D008093DE
:100740009C0008959093A9008093A8000895909329
:10075000AB008093AA0008959093AD008093AC0005
:10076000089510BA11BA10920701109208019FEF74
:1007700091B980E484B997B9589A599A83EF8AB9A4
:100780008EEF8DB9A59A9D98809301018093040105
:10079000089508952E9A08952E98089522B330E072
:1007A00085E0369527958A95E1F72095309521705B
:1007B0003070C901089597FD10C025E030E040E099
:1007C00050E00E940137DA01C901880F991F80505B
:1007D0009E4FFC012081318117C025E030E040E0D0
:1007E00050E00E940137DA01C901885B9F4FAF4F8B
:1007F000BF4F880F991F80509E4FFC0180819181CF
:1008000022273327281B390BC90108956A557040E8
:100810008040904097FD10C025E030E040E050E07F
:100820000E940137DA01C901880F991F80509E4F3D
:10083000FC012081318117C025E030E040E050E02C
:100840000E940137DA01C901885B9F4FAF4FBF4F4C
:10085000880F991F80509E4FFC0180819181222733
:100860003327281B390BC9010895CF92DF92EF92ED
:10087000FF920F931F936B017C018AE5C816D10488
:10088000E104F104A1F186EAC8168FEFD8068FEFD4
:10089000E8068FEFF80659F18EE0C81681E0D80619
:1008A00080E0E80680E0F80611F182EFC8168EEFCE
:1008B000D8068FEFE8068FEFF806C9F0C701B6013A
:1008C0000E9406048C01C701B6010E94DB03BC0133
:1008D000C8010E94CC36CB019B0173E0220F331F6D
:1008E0007A95E1F7880F991F280F391F02C020E081
:1008F00030E0C9011F910F91FF90EF90DF90CF90F2
:10090000089520E030E044E353E40E94633420E1A2
:1009100038E549E450E40E947A32089520E138E550
:1009200049E450E40E94633420E030E044E353E4BF
:100930000E947A320895EF92FF920F931F93CF9304
:10094000DF937C018B01EA0160E070E040E050E061
:1009500013C09801240F351FF701E40FF51F8081A4
:100960009181A281B381F90180839183A283B383B2
:100970006F5F7F4F4C5F5F4F6C177D0754F3DF91C4
:10098000CF911F910F91FF90EF900895CF93DF9338
:10099000FB01B9019A01220F331F220F331FEC0113
:1009A000C20FD31FE20FF31F0AC089919991A99139
:1009B000B99181939193A193B1934F5F5F4F641766
:1009C00075079CF7DF91CF9108956F927F928F9278
:1009D0009F92AF92BF92CF92DF92EF92FF920F93CE
:1009E0001F93CF93DF933C014B015A016901EE2421
:1009F000FF24C0E0D0E01CC085010C0F1D1FF301D7
:100A0000EC0FFD1FD401AC0FBD1F6081718182818D
:100A100093812D913D914D915C910E949631F80109
:100A200060837183828393830894E11CF11C249674
:100A3000EC14FD040CF3DF91CF911F910F91FF9007
:100A4000EF90DF90CF90BF90AF909F908F907F906E
:100A50006F9008956F927F928F929F92AF92BF9204
:100A6000CF92DF92EF92FF920F931F93CF93DF937A
:100A70003C014B015A016901EE24FF24C0E0D0E0A3
:100A80001CC085010C0F1D1FF301EC0FFD1FD401CD
:100A9000AC0FBD1F60817181828193812D913D9149
:100AA0004D915C910E949531F8016083718382833E
:100AB00093830894E11CF11C2496EC14FD040CF3C0
:100AC000DF91CF911F910F91FF90EF90DF90CF902A
:100AD000BF90AF909F908F907F906F9008958F926E
:100AE0009F92AF92BF92CF92DF92EF92FF920F93BD
:100AF0001F93CF93DF936C014A015901EE24FF2429
:100B0000C0E0D0E01AC084010C0F1D1FF601EC0FED
:100B1000FD1F6081718182819381F601208531857D
:100B2000428553850E946334F80160837183828318
:100B300093830894E11CF11C2496EA14FB041CF333
:100B4000DF91CF911F910F91FF90EF90DF90CF90A9
:100B5000BF90AF909F908F9008956F927F928F92E9
:100B60009F92AF92BF92CF92DF92EF92FF920F933C
:100B70001F93CF93DF933C014B015A016901EE248F
:100B8000FF24C0E0D0E01CC085010C0F1D1FF30145
:100B9000EC0FFD1FD401AC0FBD1F608171818281FC
:100BA00093812D913D914D915C910E947A32F80193
:100BB00060837183828393830894E11CF11C2496E3
:100BC000EC14FD040CF3DF91CF911F910F91FF9076
:100BD000EF90DF90CF90BF90AF909F908F907F90DD
:100BE0006F900895EF92FF920F931F93CF93DF932F
:100BF0007C018B01EA0160E070E040E050E014C04D
:100C00009801240F351FF701E40FF51F80819181B2
:100C1000A281B381BF77F90180839183A283B383DB
:100C20006F5F7F4F4C5F5F4F6C177D074CF3DF9119
:100C3000CF911F910F91FF90EF900895D901FC0182
:100C400080E090E005C041935193619371930196C8
:100C50008A179B07C4F30895FC0180E090E020E030
:100C600030E040E050E005C021933193419351932F
:100C7000019686179707C4F30895FC0180E090E081
:100C800020E030E040E85FE305C0219331934193D9
:100C90005193019686179707C4F30895EF92FF9238
:100CA0000F931F93CF93DF937A018B01000F111FD6
:100CB000000F111F080F191FEB0160E070E080E0CA
:100CC00090E009C0F80121913191419151918F013A
:100CD0000E9496312196EC16FD06A4F7DF91CF9184
:100CE0001F910F91FF90EF900895EF92FF920F9355
:100CF0001F93CF93DF937A018B01000F111F000F19
:100D0000111F080F191FEB0160E070E080E090E018
:100D100009C0F80121913191419151918F010E94B7
:100D200063342196EC16FD06A4F7DF91CF911F9155
:100D30000F91FF90EF9008952F923F924F925F9204
:100D40006F927F928F929F92AF92BF92CF92DF92DB
:100D5000EF92FF920F931F93DF93CF93CDB7DEB740
:100D6000EE970FB6F894DEBF0FBECDBF9EAF8DAF2E
:100D700067968CAD9DADAEADBFAD679789AF9AAFAD
:100D8000ABAFBCAF6B968CAD9DADAEADBFAD6B9751
:100D90008DAB9EABAFABB8AF6F968CAD9DADAEAD2E
:100DA000BFAD6F9789AB9AABABABBCABA3968CAD29
:100DB0009DADAEADBFADA3978DA79EA7AFA7B8ABB6
:100DC000A7968CAD9DADAEADBFADA79789A79AA7ED
:100DD000ABA7BCA7AB968CAD9DADAEADBFADAB9791
:100DE0008DA39EA3AFA3B8A7AF96ACACBDACCEAC61
:100DF000DFACAF97E3966CAC7DAC8EAC9FACE39769
:100E0000E7962CAC3DAC4EAC5FACE797EB968CAD67
:100E10009DADAEADBFADEB9789A39AA3ABA3BCA329
:100E2000CD57DF4F88819981AA81BB81C358D040BB
:100E30008D8F9E8FAF8FB8A3C157DF4F8881998167
:100E4000AA81BB81CF58D040898F9A8FAB8FBC8F3E
:100E5000EF968CAD9DADAEADBFADEF978D8B9E8BFC
:100E6000AF8BB88FC957DF4F88819981AA81BB8129
:100E7000C758D040898B9A8BAB8BBC8BFE01ED564B
:100E8000FF4F80819181A281B3818D879E87AF873B
:100E9000B88BC158DF4F88819981AA81BB81CF5718
:100EA000D04089879A87AB87BC87C557DF4F888139
:100EB0009981AA81BB81CB58D0408D839E83AF831B
:100EC000B887FE01E956FF4F80819181A281B381ED
:100ED00089839A83AB83BC83C601B50129853A8592
:100EE0004B855C850E9463347B018C01C401B30196
:100EF0002D813E814F8158850E9463349B01AC0156
:100F0000C801B7010E9496317B018C01C201B10179
:100F100029813A814B815C810E9463349B01AC0141
:100F2000C801B7010E949631ADADBEAD90966D93EC
:100F30007D938D939C939397C601B5012D893E892E
:100F40004F89588D0E9463347B018C01C401B30129
:100F500029893A894B895C890E9463349B01AC01E1
:100F6000C801B7010E9496317B018C01C201B10119
:100F70002D853E854F8558890E9463349B01AC01C5
:100F8000C801B7010E949631EDADFEAD648F758F3B
:100F9000868F978FC601B50129A13AA14BA15CA10B
:100FA0000E9463347B018C01C401B3012D8D3E8D01
:100FB0004F8D58A10E9463349B01AC01C801B70159
:100FC0000E9496317B018C01C201B101298D3A8DBD
:100FD0004B8D5C8D0E9463349B01AC01C801B7014D
:100FE0000E949631ADADBEAD58966D937D938D93B5
:100FF0009C935B976DA57EA58FA598A929853A85B9
:101000004B855C850E9463347B018C0169A57AA5C0
:101010008BA59CA52D813E814F8158850E9463340C
:101020009B01AC01C801B7010E9496317B018C0184
:101030006DA17EA18FA198A529813A814B815C8108
:101040000E9463349B01AC01C801B7010E94963134
:10105000EDADFEAD648B758B868B978B6DA57EA5F4
:101060008FA598A92D893E894F89588D0E94633498
:101070007B018C0169A57AA58BA59CA529893A8954
:101080004B895C890E9463349B01AC01C801B701A4
:101090000E9496317B018C016DA17EA18FA198A544
:1010A0002D853E854F8558890E9463349B01AC0194
:1010B000C801B7010E949631ADADBEAD50966D939B
:1010C0007D938D939C9353976DA57EA58FA598A92D
:1010D00029A13AA14BA15CA10E9463347B018C0140
:1010E00069A57AA58BA59CA52D8D3E8D4F8D58A108
:1010F0000E9463349B01AC01C801B7010E94963184
:101100007B018C016DA17EA18FA198A5298D3A8DBF
:101110004B8D5C8D0E9463349B01AC01C801B7010B
:101120000E949631EDADFEAD6487758786879787FF
:1011300069AD7AAD8BAD9CAD29853A854B855C85D3
:101140000E9463347B018C016DA97EA98FA998ADA3
:101150002D813E814F8158850E9463349B01AC01F3
:10116000C801B7010E9496317B018C0169A97AA957
:101170008BA99CA929813A814B815C810E946334AF
:101180009B01AC01C801B7010E949631ADADBEAD67
:1011900018966D937D938D939C931B9769AD7AAD53
:1011A0008BAD9CAD2D893E894F89588D0E9463344B
:1011B0007B018C016DA97EA98FA998AD29893A89F7
:1011C0004B895C890E9463349B01AC01C801B70163
:1011D0000E9496317B018C0169A97AA98BA99CA9EF
:1011E0002D853E854F8558890E9463349B01AC0153
:1011F000C801B7010E949631EDADFEAD64837583E1
:101200008683978369AD7AAD8BAD9CAD29A13AA158
:101210004BA15CA10E9463347B018C016DA97EA966
:101220008FA998AD2D8D3E8D4F8D58A10E946334AE
:101230009B01AC01C801B7010E9496317B018C0172
:1012400069A97AA98BA99CA9298D3A8D4B8D5C8DB2
:101250000E9463349B01AC01C801B7010E94963122
:10126000ADADBEAD6D937D938D939C931397CD01E2
:10127000EE960FB6F894DEBF0FBECDBFCF91DF91D3
:101280001F910F91FF90EF90DF90CF90BF90AF90A4
:101290009F908F907F906F905F904F903F902F9096
:1012A00008952F923F924F925F926F927F928F920A
:1012B0009F92AF92BF92CF92DF92EF92FF920F93E5
:1012C0001F93DF93CF93CDB7DEB72A970FB6F8946D
:1012D000DEBF0FBECDBF9E838D8327966CAC7DACE9
:1012E0008EAC9FAC27972B962CAC3DAC4EAC5FAC34
:1012F0002B972F968CAD9DADAEADBFAD2F9789834B
:101300009A83AB83BC83C401B3012F8D38A149A15B
:101310005AA10E9463347B018C01C201B1012BA14F
:101320003CA14DA15EA10E9463349B01AC01C801A8
:10133000B7010E9496317B018C0169817A818B8192
:101340009C812FA138A549A55AA50E9463349B0111
:10135000AC01C801B7010E9496316F8378878987F5
:101360009A87C401B3012BA53CA54DA55EA50E949B
:1013700063347B018C01C201B1012FA538A949A9B1
:101380005AA90E9463349B01AC01C801B7010E94B5
:1013900096317B018C0169817A818B819C812BA99B
:1013A0003CA94DA95EA90E9463349B01AC01C80110
:1013B000B7010E9496315B016C01C401B3012FA9F2
:1013C00038AD49AD5AAD0E9463347B018C01C20136
:1013D000B1012BAD3CAD4DAD5EAD0E9463349B01C0
:1013E000AC01C801B7010E9496317B018C01698173
:1013F0007A818B819C8123962CAD3DAD4EAD5FAD46
:1014000023970E9463349B01AC01C801B7010E947D
:101410009631AD81BE8118966D937D938D939C938B
:101420001B97C501D601ED81FE8184839583A68338
:10143000B7832F81388549855A85C901DA018083B0
:101440009183A283B383CF012A960FB6F894DEBFAF
:101450000FBECDBFCF91DF911F910F91FF90EF9005
:10146000DF90CF90BF90AF909F908F907F906F90C4
:101470005F904F903F902F900895CF92DF92EF9220
:10148000FF920F931F93DF93CF93CDB7DEB72C97C7
:101490000FB6F894DEBF0FBECDBFE982FA820B8390
:1014A0001C832D833E834F83588769877A878B8778
:1014B0009C87F6012D813E814F815885E984FA840D
:1014C0000B851C8589819A81AB81BC818083918346
:1014D000A283B3832483358346835783E086F186D2
:1014E000028713872C960FB6F894DEBF0FBECDBFD0
:1014F000CF91DF911F910F91FF90EF90DF90CF90F0
:101500000895CF92DF92EF92FF920F931F938C0179
:10151000FB01C080D180E280F38024813581468147
:10152000578180859185A285B385F8018087918751
:10153000A287B3872483358346835783C082D182B1
:10154000E282F382C8011F910F91FF90EF90DF902C
:10155000CF9008958F929F92AF92BF92CF92DF92D9
:10156000EF92FF920F931F93DF93CF93CDB7DEB728
:101570002C970FB6F894DEBF0FBECDBF4C01C982C9
:10158000DA82EB82FC820D831E832F8338874987A2
:101590005A876B877C8769817A818B819C812B8DAF
:1015A0003C8D4D8D5E8D0E9496315B016C016D818D
:1015B0007E818F8198852F8D38A149A15AA10E94E3
:1015C00096317B018C0169857A858B859C852BA161
:1015D0003CA14DA15EA10E949631F4016087718704
:1015E00082879387C701D80184839583A683B783B5
:1015F000C501D60180839183A283B383C4012C9655
:101600000FB6F894DEBF0FBECDBFCF91DF911F9113
:101610000F91FF90EF90DF90CF90BF90AF909F9091
:101620008F9008958F929F92AF92BF92CF92DF9248
:10163000EF92FF920F931F93DF93CF93CDB7DEB757
:101640002C970FB6F894DEBF0FBECDBF4C01C982F8
:10165000DA82EB82FC820D831E832F8338874987D1
:101660005A876B877C876B8D7C8D8D8D9E8D2981B4
:101670003A814B815C810E9495315B016C016F8DD9
:1016800078A189A19AA12D813E814F8158850E9420
:1016900095317B018C016BA17CA18DA19EA1298537
:1016A0003A854B855C850E949531F401608771878E
:1016B00082879387C701D80184839583A683B783E4
:1016C000C501D60180839183A283B383C4012C9684
:1016D0000FB6F894DEBF0FBECDBFCF91DF911F9143
:1016E0000F91FF90EF90DF90CF90BF90AF909F90C1
:1016F0008F9008958F929F92AF92BF92CF92DF9278
:10170000EF92FF920F931F93DF93CF93CDB7DEB786
:101710002C970FB6F894DEBF0FBECDBF4C01C98227
:10172000DA82EB82FC820D831E832F833887498700
:101730005A876B877C876B8D7C8D8D8D9E8D2981E3
:101740003A814B815C810E9463345B016C016F8D37
:1017500078A189A19AA12D813E814F8158850E944F
:1017600063347B018C016BA17CA18DA19EA1298595
:101770003A854B855C850E946334F40160877187EC
:1017800082879387C701D80184839583A683B78313
:10179000C501D60180839183A283B383C4012C96B3
:1017A0000FB6F894DEBF0FBECDBFCF91DF911F9172
:1017B0000F91FF90EF90DF90CF90BF90AF909F90F0
:1017C0008F9008958F929F92AF92BF92CF92DF92A7
:1017D000EF92FF920F931F93DF93CF93CDB7DEB7B6
:1017E0002C970FB6F894DEBF0FBECDBF4C01C98257
:1017F000DA82EB82FC820D831E832F833887498730
:101800005A876B877C876B8D7C8D8D8D9E8D298112
:101810003A814B815C810E947A325B016C016F8D51
:1018200078A189A19AA12D813E814F8158850E947E
:101830007A327B018C016BA17CA18DA19EA12985AF
:101840003A854B855C850E947A32F4016087718706
:1018500082879387C701D80184839583A683B78342
:10186000C501D60180839183A283B383C4012C96E2
:101870000FB6F894DEBF0FBECDBFCF91DF911F91A1
:101880000F91FF90EF90DF90CF90BF90AF909F901F
:101890008F9008951F938FEF87B91FEF18B982E3D8
:1018A00090E00E94801D18B882E390E00E94801DA5
:1018B000F5CF0E94203220E030E044E353E40E9460
:1018C000633420E138E549E450E40E947A32089517
:1018D00020E138E549E450E40E94633420E030E040
:1018E00044E353E40E947A320E947732089520E163
:1018F00038E549E450E40E94633420E030E044E3FA
:1019000053E40E947A320E94123508958F929F927A
:10191000AF92BF92CF92DF92EF92FF920F931F93FD
:10192000CF93DF934C015B016A01790100E010E085
:10193000C0E0D0E01DC0F401EC0FFD1F608171819B
:1019400082819381F501EC0FFD1F2081318142815D
:1019500053810E94C634F601EC0FFD1FAC01CB0190
:10196000DA0180839183A283B3830F5F1F4F249694
:101970000E151F0504F3DF91CF911F910F91FF907A
:10198000EF90DF90CF90BF90AF909F908F90089591
:101990006F927F928F929F92AF92BF92CF92DF927F
:1019A000EF92FF920F931F93DF93CF93CDB7DEB7E4
:1019B0002C970FB6F894DEBF0FBECDBFE982FA8236
:1019C0000B831C832D833E834F83588769877A87D7
:1019D0008B879C8729813A814B815C81CA01B9013F
:1019E0000E9463343B014C012D813E814F8158851B
:1019F000CA01B9010E9463345B016C0129853A85F3
:101A00004B855C85CA01B9010E9463347B018C015E
:101A1000C401B301A60195010E949631A801970166
:101A20000E9496310E941C352C960FB6F894DEBFAA
:101A30000FBECDBFCF91DF911F910F91FF90EF901F
:101A4000DF90CF90BF90AF909F908F907F906F90DE
:101A50000895AF92BF92CF92DF92EF92FF920F93D1
:101A60001F93CF93DF935A01EB01CC0FDD1FCC0FF7
:101A7000DD1FC80FD91F6B010F2EF0E0EF2EF0E035
:101A8000FF2EF0E00F2FF0E01F2FF02D13C0299153
:101A9000399149915991CA01B9010E9463349B015E
:101AA000AC01C801B7010E9496317B018C010894FA
:101AB000C11CD11CAC14BD0454F7C801B7010E946D
:101AC0001C35DF91CF911F910F91FF90EF90DF9028
:101AD000CF90BF90AF9008952F923F924F925F9218
:101AE0006F927F928F929F92AF92BF92CF92DF922E
:101AF000EF92FF920F931F93DF93CF93CDB7DEB793
:101B000028970FB6F894DEBF0FBECDBF1B012C0186
:101B10002D833E834F835887A20191010E94633435
:101B20003B014C016D817E818F8198859B01AC01C9
:101B30000E9463345B016C01C801B7010E947732D7
:101B400069837A838B839C83C401B301A6019501C9
:101B50000E9496317B018C01C201B101A201910169
:101B60000E9496312D813E814F8158850E946334B9
:101B700029813A814B815C810E9463349B01AC01D5
:101B8000C801B7010E9496310E941C3528960FB6F5
:101B9000F894DEBF0FBECDBFCF91DF911F910F91A3
:101BA000FF90EF90DF90CF90BF90AF909F908F907D
:101BB0007F906F905F904F903F902F9008952F925D
:101BC0003F924F925F926F927F928F929F92AF92CD
:101BD000BF92CF92DF92EF92FF920F931F93DF930A
:101BE000CF9300D000D0CDB7DEB71B012C012983E5
:101BF0003A834B835C83A8019701C801B7010E9417
:101C000063343B014C01C201B101A20191010E9468
:101C100063345B016C0169817A818B819C819B01BA
:101C2000AC010E9463347B018C01C401B301A601A5
:101C300095010E949531A80197010E9495317B0181
:101C40008C01C201B10120E030E040E050EC0E9484
:101C5000633429813A814B815C810E9463349B010A
:101C6000AC01C801B7010E947A327B018C01A80146
:101C700097010E9463349B01AC0160E070E080E852
:101C80009FE30E9495310E941C35A80197010E9494
:101C900020320F900F900F900F90CF91DF911F91F6
:101CA0000F91FF90EF90DF90CF90BF90AF909F90FB
:101CB0008F907F906F905F904F903F902F900895FE
:101CC0000E944B3220E030E044E353E40E9463344E
:101CD00020E138E549E450E40E947A3208950E94F8
:101CE000FA3120E030E044E353E40E94633420E121
:101CF00038E549E450E40E947A3208950E94873121
:101D000020E030E044E353E40E94633420E138E50E
:101D100049E450E40E947A32089520E138E549E42C
:101D200050E40E94633420E030E044E353E40E9436
:101D30007A320E94693508959B01AC015F770E9459
:101D40007A320E9489350E94E232CB0108952F92A7
:101D50003F924F925F926F927F928F929F92AF923B
:101D6000BF92CF92DF92EF92FF920F931F93DF9378
:101D7000CF93CDB7DEB7C654D0400FB6F894DEBFD0
:101D80000FBECDBF25969FAF8EAF2597C98EDA8E39
:101D9000EB8EFC8E0D8F1E8F2F8F38A349A35AA375
:101DA0006BA37CA32796BFAEAEAE27978D8D9E8D7D
:101DB000AF8DB8A189A79AA7ABA7BCA7898D9A8D2B
:101DC000AB8DBC8D8DA39EA3AFA3B8A76F966CAD52
:101DD0007DAD8EAD9FAD6F9720E138E549E450E4CD
:101DE0000E94583418160CF56F966CAD7DAD8EAD13
:101DF0009FAD6F9720E030E040E050E00E947332EA
:101E000088239CF46F962CAD3DAD4EAD5FAD6F97C2
:101E10005F7760E178E589E490E40E9495316F9600
:101E20006CAF7DAF8EAF9FAF6F972796AEADBFAD56
:101E300027972D903D904D905C906F966CAD7DAD49
:101E40008EAD9FAD6F970E9412356BAF7CAF8DAF9B
:101E50009EAF6F966CAD7DAD8EAD9FAD6F970E94BE
:101E6000773223966CAF7DAF8EAF9FAF239789A556
:101E70009AA5ABA5BCA58D8F9E8FAF8FB8A38DA162
:101E80009EA1AFA1B8A5898F9A8FAB8FBC8FDE01C1
:101E90001D96FE0179968CE001900D928150E1F73C
:101EA00023966CAD7DAD8EAD9FAD2397A2019101C0
:101EB0000E9463347B018C016BAD7CAD8DAD9EAD1A
:101EC000905820E030E040E050E00E9463349B01F5
:101ED000AC01C801B7010E94963120E030E040E03B
:101EE00050E00E9496312D853E854F8558890E948D
:101EF00095313B014C01C201B10120E030E040E0EE
:101F000050E00E94633420E030E040E050E00E9466
:101F1000963120E030E040E050E00E9496312D897B
:101F20003E894F89588D0E9495315B016C016BADE4
:101F30007CAD8DAD9EADA20191010E9463347B0109
:101F40008C0123966CAD7DAD8EAD9FAD239720E0C7
:101F500030E040E050E00E9463349B01AC01C801D6
:101F6000B7010E94963120E030E040E050E00E944E
:101F7000963129893A894B895C890E9495316D8314
:101F80007E838F8398872796AEADBFAD279718962F
:101F90006D917D918D919C911B971C962D913D91FA
:101FA0004D915C911F976F96ECACFDAC0EAD1FADE3
:101FB0006F970E946C0D1B012C016F966CAD7DAD6F
:101FC0008EAD9FAD6F970E949C0E9AAF89AF2796FA
:101FD000EEADFFAD27972085318542855385E4849A
:101FE000F58406851785C201B1010E94DF0D6DAB36
:101FF0007EAB8FAB98AFC301D40189839A83AB8347
:10200000BC83C501D60189879A87AB87BC87E980E5
:10201000FA800B811C812D813E814F815885698515
:102020007A858B859C850E94C80C69AB7AAB8BAB9B
:102030009CAB2796AEADBFAD279714962D913D91E1
:102040004D915C911797C201B101E9A8FAA80BA9BB
:102050001CA90E94DF0D6DA77EA78FA798ABB501C5
:10206000C6019301A4010E9420325B016C012796F6
:10207000EEADFFAD2797648175818681978129A98F
:102080003AA94BA95CA9820171010E94DF0D9B0155
:10209000AC01C601B5010E9495312596AEADBFAD2C
:1020A000259718966D937D938D939C931B97E9AD1F
:1020B000FAADBF01882777FD8095982F0E941533D0
:1020C0002DA93EA94FA958AD0E9463342DA53EA568
:1020D0004FA558A90E9496319B01AC0160E178E5BB
:1020E00089E490E40E9495312596AEADBFAD259769
:1020F00014966D937D938D939C93179769A57AA5FC
:102100008BA59CA52DA13EA14FA158A50E942032D0
:102110002596EEADFFAD259760837183828393830F
:10212000CF01CA5BDF4F0FB6F894DEBF0FBECDBF45
:10213000CF91DF911F910F91FF90EF90DF90CF90A3
:10214000BF90AF909F908F907F906F905F904F90D7
:102150003F902F900895FC019C012D5F3F4F3283EB
:1021600021838FEF9FEF948383833683258330878A
:10217000278310820895FC01118610860895CF935D
:10218000DF93AC01DB01EC0129813A81F901828105
:10219000938113969C938E93129789819A811596B9
:1021A0009C938E9314970280F381E02D7583648352
:1021B000E9017B836A83FA017283618319965C93D8
:1021C0004E93189780818F5F8083DF91CF91089520
:1021D000CF93DF939C01EB01488159818FEF4F3FF3
:1021E000580721F4F901A781B08510C0D9011396D1
:1021F00004C012960D90BC91A02D1296ED91FC9109
:102200001397808191814817590798F71296ED919D
:10221000FC911397FB83EA83D583C483BD83AC838E
:102220001396DC93CE93129739872887F901808122
:102230008F5F8083DF91CF910895CF93DF93DC018F
:102240001296ED91FC91139714968D919C91159790
:10225000958384831496CD91DC911597FB83EA8353
:102260001896ED91FC911997818192818A179B07AD
:1022700011F4D283C18319961C921E921897808103
:1022800081508083DF91CF910895FC010FB6F894BF
:102290000F92828D0F900FBE0895FC01828D0895DC
:1022A000FC01828D90E0882309F491E0892F089544
:1022B000FC01928D20E0838D981709F421E0822F94
:1022C00008950F931F938C01FC01808191810E94DE
:1022D000BA1BC8010E94BA1B1F910F9108950F935A
:1022E0001F93CF93DF93EC01FB018A018A8D882332
:1022F00081F14881598141155105A9F08C8D2E81BC
:102300003F81280F311D3F832E838A819B812817AF
:10231000390710F05F834E834C8D6E817F81CF0132
:1023200050E00E9468318A8D81508A8F8D8D8F3F59
:1023300069F48885882361F0CE0108960E94CF1445
:10234000882331F081E0F801808303C08F5F8D8F97
:1023500081E0DF91CF911F910F910895CF93DF938B
:10236000EC01842F4C8D4423A1F18823B1F48C819E
:102370009D8150E00E9468318C8D2C813D81280F19
:10238000311D3D832C838A819B812817390708F1F1
:10239000888199819D838C831CC08E819F8150E0B0
:1023A0000E9468318C8D90E044275527481B590BBB
:1023B0008E819F81840F951F9F838E832881398111
:1023C0008217930730F48A819B81840F951F9F8326
:1023D0008E838A8D8F5F8A8FDF91CF9108950F93BF
:1023E0001F93CF93DF93EC018A019A8D8B8D981701
:1023F00010F080E017C0CE01422F0E94AE118E8DEA
:102400008F3F69F48989882361F0CE0141960E944B
:10241000CF14882331F081E0F801808303C08F5FFF
:102420008E8F81E0DF91CF911F910F9108950F93CF
:102430001F93CF93DF93EC010FB6F8940F928C01AA
:102440000F5E1F4F0DC08989882369F0C8010E9463
:10245000CF14882311F00E94CB148E8D81508E8F63
:102460008E8D181684F38FEF8E8F0F900FBE0FB6E0
:10247000F8940F928E01085F1F4F0DC08885882346
:1024800069F0C8010E94CF14882311F00E94CB1478
:102490008D8D81508D8F8D8D181684F38FEF8D8FDC
:1024A0000F900FBEDF91CF911F910F9108957F92F2
:1024B0008F929F92AF92BF92CF92DF92EF92FF9254
:1024C0000F931F93DF93CF9300D000D00F92CDB71F
:1024D000DEB78C01962E872E5D834C83722E91E1A0
:1024E000C92ED12CC00ED11E20E07E010894E11C23
:1024F000F11C84E0A82EB12CAC0EBD1E01C021E061
:102500000FB6F8940F92F801828D882309F43EC02B
:10251000E680F7804081518141155105B1F0848DED
:102520009701280F311D37832683828193812817D5
:10253000390710F057834683F801448D668177810F
:10254000892D982D50E00E946831772071F4F801B0
:10255000828D8150828F80858823A1F0C8010896E2
:102560000E94CF14813071F40BC0F801F782E6822B
:102570008189882339F0C6010E94CF14882311F085
:102580000E9497190F900FBE81E04AC08C819D81F7
:10259000892B19F40F900FBE42C0222319F4C701F2
:1025A0000E9486140F900FBE0E942A140FB6F89452
:1025B0000F92F801858D8F3F09F4158EF801868DF5
:1025C0008F3F09F4168E0F900FBEC701B5010E9410
:1025D00091148823F9F40FB6F8940F92F801828DC4
:1025E0000F900FBE882381F46C817D81C6010E940B
:1025F0008815C8010E9417120E94C115882309F08E
:102600007ECF0E9497197BCFC8010E9417120E94AB
:10261000C11575CFC8010E9417120E94C11580E034
:102620000F900F900F900F900F90CF91DF911F910F
:102630000F91FF90EF90DF90CF90BF90AF909F9061
:102640008F907F9008957F928F929F92AF92BF92CA
:10265000CF92DF92EF92FF920F931F93DF93CF936E
:1026600000D000D00F92CDB7DEB78C016B015D8337
:102670004C83722E48E0E42EF12CE80EF91E20E087
:102680005E010894A11CB11C34E0832E912C8C0EA9
:102690009D1E01C021E00FB6F8940F92F801928DB3
:1026A000838D9817A8F4C801B601472D0E94AE117A
:1026B000F8018189882341F0C80141960E94CF1416
:1026C000813011F40E9497190F900FBE81E04CC029
:1026D0008C819D81892B19F40F900FBE44C0222359
:1026E00019F4C5010E9486140F900FBE0E942A148F
:1026F0000FB6F8940F92F801858D8F3F09F4158E6F
:10270000F801868D8F3F09F4168E0F900FBEC5011C
:10271000B4010E949114882309F50FB6F8940F9222
:10272000F801928D0F900FBEF801838D981781F4F8
:102730006C817D81C7010E948815C8010E94171213
:102740000E94C115882309F0A5CF0E949719A2CF36
:10275000C8010E9417120E94C1159CCFC8010E9497
:1027600017120E94C11580E00F900F900F900F90EC
:102770000F90CF91DF911F910F91FF90EF90DF901D
:10278000CF90BF90AF909F908F907F9008958F9241
:102790009F92AF92BF92CF92DF92EF92FF920F93F0
:1027A0001F93CF93DF93982E862E882309F442C07F
:1027B0008FE190E00E94CA1B8C01EC010097E1F1CF
:1027C000C92CDD24A82CBB24AC9C7001AD9CF00C62
:1027D000BC9CF00C1124C70101960E94CA1B9C01ED
:1027E00099838883009719F1E80EF91EFB82EA822B
:1027F0001A8E9D838C830894C108D108CA9CC0019D
:10280000CB9C900DDA9C900D1124280F391F3F832B
:102810002E839B8E8C8E8FEF8D8F8E8FC8010896A6
:102820000E94AB10C80141960E94AB1005C0C801C0
:102830000E94BA1BC0E0D0E0CE01DF91CF911F9182
:102840000F91FF90EF90DF90CF90BF90AF909F904F
:102850008F90089580919E028F5F80939E020895CD
:102860000FB6F8940F9220919C0230919D020F9028
:102870000FBEC901089520919C0230919D02C901AB
:1028800008958091A102089580919E02882351F0BD
:1028900081E080939A02089580919F0281508093F5
:1028A0009F0201C099E0E0919F02E99FF00111248D
:1028B000EA55FD4F8081882379F390919F0289E04A
:1028C000989FD0011124AA55BD4F1196ED91FC910E
:1028D00012970280F381E02D1296FC93EE931197EC
:1028E000CD010396E817F90731F48281938112969E
:1028F0009C938E9311971196ED91FC91129786817E
:10290000978190939902809398020895FC01809199
:102910009B02808380919C0290919D02928381838F
:102920000895FC01DB010FB6F8940F9290919B0281
:102930008081981749F020919C0230919D028181FD
:1029400092812817390718F580919C0290919D0279
:10295000218132814D915C911197821B930B8417D9
:102960009507A8F480919C0290919D02281B390B39
:10297000240F351F2D933C9380919B02808380917F
:102980009C0290919D029283818380E001C081E04E
:102990000F900FBE089581E080939A0208950F93DF
:1029A0001F93CF93DF93FC018081882319F4C0E04B
:1029B000D0E005C00580F681E02DC681D7818E016B
:1029C000045F1F4FC8010E941D1180919E02882341
:1029D000A1F48E010E5F1F4FC8010E941D119E8938
:1029E00080919F02891710F490939F0289E0989F2D
:1029F000C00111248A559D4F02C080EE92E0B801BB
:102A00000E94BF10E0919802F091990220E09E8907
:102A10008689981708F021E0822FDF91CF911F91CE
:102A20000F910895FF920F931F93CF93DF9380919F
:102A30009E02882309F061C080919C0290919D02C2
:102A4000019690939D0280939C0280919C029091AC
:102A50009D02892BE9F58091DC029091DD022091A5
:102A6000DE023091DF023093DD022093DC0290938E
:102A7000DF028093DE0280919B028F5F80939B0236
:102A800027C020919C0230919D028A819B8128174A
:102A90003907C0F18E010E5F1F4FC8010E941D1142
:102AA0008C899D89892B21F0CE010C960E941D11E5
:102AB0009E8980919F02891710F490939F029F9D99
:102AC000C00111248A559D4FB8010E94BF1002C059
:102AD00089E0F82EE091DC02F091DD02808188230C
:102AE00089F0E091DC02F091DD020580F681E02DB5
:102AF000C681D781209729F605C08091A0028F5FFB
:102B00008093A002DF91CF911F910F91FF900895C4
:102B10000F931F938B016091980270919902645FEB
:102B20007F4F0E94E810809198029091990202963E
:102B30000E941D1180919C0290919D02800F911F17
:102B4000E0919802F09199029383828320919C02F4
:102B500030919D028217930728F48091DE029091B4
:102B6000DF0204C08091DC029091DD026091980246
:102B7000709199026E5F7F4F0E94E8101F910F9134
:102B80000895CF92DF92FF920F931F93DF93CF931D
:102B90000F92CDB7DEB70FB6F8940F9280919E02D8
:102BA000815080939E0280919E02882309F05BC031
:102BB0008091A102882309F456C0198299E0F92E68
:102BC00027C0C6010C960E941D1186010E5F1F4F83
:102BD000C8010E941D11D60156969C9180919F02BA
:102BE000891710F490939F029F9DC00111248A556C
:102BF0009D4FB8010E94BF10E0919802F091990298
:102C0000D60156969C918689981710F0B1E0B98349
:102C10008091E002882349F0E091E502F091E6021C
:102C2000C680D780C114D10461F68091A0028823A8
:102C300041F40CC00E9412158091A0028150809333
:102C4000A0028091A0028823A9F707C0E981E130A2
:102C500021F080919A02813031F410929A020E9400
:102C6000971981E001C080E00F900FBE0F90CF91C7
:102C7000DF911F910F91FF90DF90CF9008950F93F8
:102C80001F939C010097A1F180919E028F5F80931A
:102C90009E0200919C0210919D02020F131F8091D1
:102CA00098029091990202960E941D11E09198025B
:102CB000F09199021383028380919C0290919D026E
:102CC0000817190728F48091DE029091DF0204C0F2
:102CD0008091DC029091DD026091980270919902DE
:102CE0006E5F7F4F0E94E8100E94C115882311F487
:102CF0000E9497191F910F910895CF93DF93FC01C4
:102D0000EB0180919E028F5F80939E022081318132
:102D1000C20FD31F80919C0290919D02821793074E
:102D200028F4C217D30728F020E00CC0C217D3073D
:102D300040F080919C0290919D0220E08C179D07AD
:102D400008F421E0D183C083222329F180919802E5
:102D50009091990202960E941D11E0919802F091C3
:102D60009902D383C28380919C0290919D02C817DF
:102D7000D90728F48091DE029091DF0204C080918F
:102D8000DC029091DD0260919802709199026E5F71
:102D90007F4F0E94E8100E94C115882311F40E9401
:102DA0009719DF91CF910895EF92FF920F931F93A0
:102DB000CF93DF938C010FB6F8940F928091980215
:102DC000909199020817190719F400E010E003C068
:102DD0000115110529F4C0919802D091990201C002
:102DE000E80122E0E22EF12CEC0EFD1EC7010E944C
:102DF0001D118C899D89892B21F0CE010C960E9492
:102E00001D1189EE92E0B7010E94BF108091A302CC
:102E10008F5F8093A3028091A4028F5F8093A402AE
:102E20000F900FBE8091A202882321F0012B11F494
:102E30000E949719DF91CF911F910F91FF90EF9012
:102E40000895F8941092A2020E94381908951F93D1
:102E5000CF93DF938091A302882391F180919E020A
:102E60008F5F80939E021091E9020E94C115112389
:102E700039F10FB6F8940F928091E902882319F482
:102E8000C0E0D0E006C0E091EE02F091EF02C68112
:102E9000D781CE0102960E941D118091A10281501E
:102EA0008093A1028091A30281508093A3020F908E
:102EB0000FBE8F89988D0E94BA1BCE010E94BA1B4B
:102EC0008091A602823030F20E949719C3CF2F92D0
:102ED0003F925F926F927F928F929F92AF92BF923A
:102EE000CF92DF92EF92FF920F931F93DF93CF93D6
:102EF00000D000D0CDB7DEB79A8389834B015A0149
:102F00001901502E370181E290E00E94CA1B8B8389
:102F10009C838B819C81892B89F0C114D10421F47D
:102F2000C5010E94CA1B6C01EB81FC81D08EC78A4F
:102F3000C114D10429F4CF010E94BA1B8FEFD5C070
:102F4000C60165EA70E0A5010E9471310894A108EC
:102F5000B108EB81FC81E788F08CEA0CFB1CCF0107
:102F60004996B40148E050E00E947831EB81FC8141
:102F700010A2052DF3E0F51508F403E0EB81FC81C8
:102F8000068B42E0C42ED12CCE0EDF1EC6010E945D
:102F9000BB108B819C810C960E94BB108B819C8105
:102FA000FC019187808784E090E0801B91099587E0
:102FB0008487F38BE28BC70169817A81A1010E942A
:102FC000B618EB81FC81918380836114710421F038
:102FD000CF01F301918380830FB6F8940F92809113
:102FE000A1028F5F8093A102809198029091990233
:102FF000892BB9F5EB81FC81F0939902E09398025B
:103000008091A1028130F1F586EA92E00E94AB1036
:103010008FEA92E00E94AB1088EB92E00E94AB1026
:1030200081EC92E00E94AB103AECE32E32E0F32EFA
:10303000C7010E94AB1003ED12E0C8010E94AB1063
:1030400080EE92E00E94AB1089EE92E00E94AB10FD
:10305000F092DD02E092DC021093DF020093DE02C8
:1030600011C08091A202882369F4E0919802F09146
:1030700099028689581630F08B819C819093990231
:1030800080939802EB81FC8196898091A502891733
:1030900010F49093A5028091A4028F5F8093A40204
:1030A000EB81FC81968980919F02891710F490939F
:1030B0009F02EB81FC81868929E0829FC001112457
:1030C0008A559D4FB6010E94BF100F900FBE809190
:1030D000A202882349F0E0919802F0919902868932
:1030E000851510F40E94971981E00F900F900F90B2
:1030F0000F90CF91DF911F910F91FF90EF90DF9094
:10310000CF90BF90AF909F908F907F906F905F9087
:103110003F902F900895AF92BF92CF92DF92EF929F
:10312000FF920F9387E297E162E972E045E550E094
:1031300020E030E000E0EE24FF24CC24DD24AA24AB
:10314000BB240E946717813049F4F8948093A2024F
:1031500010929D0210929C020E94FE180F91FF9007
:10316000EF90DF90CF90BF90AF900895FC0191E178
:10317000908322E2229383E382936293729312926A
:1031800080E88293129282E0829383E0829384E0CB
:10319000829385E0829386E0829387E0829388E041
:1031A000829389E0829380E18293929382E1829379
:1031B00083E1829384E1829385E1829386E1829325
:1031C00087E1829388E1829389E1829380E282930E
:1031D00081E28293229383E282934293529386E226
:1031E000829387E2829388E2829389E2829380E3EA
:1031F000829381E382933197CF01089510928900E1
:1032000089EF809388008BE080938100EFE6F0E007
:10321000808182608083A0919802B0919902CD91C3
:10322000CDBFDD91DEBFFF91EF91DF91CF91BF91D7
:10323000AF919F918F917F916F915F914F913F914E
:103240002F911F910F91FF90EF90DF90CF90BF9043
:10325000AF909F908F907F906F905F904F903F9036
:103260002F901F900F900FBE0F90089581E008954A
:1032700008950F920FB6F8940F921F9211242F9277
:103280003F924F925F926F927F928F929F92AF92F6
:10329000BF92CF92DF92EF92FF920F931F932F93E3
:1032A0003F934F935F936F937F938F939F93AF93CE
:1032B000BF93CF93DF93EF93FF93A0919802B091C8
:1032C00099020DB60D920EB60D920E9412150E9433
:1032D0004414A0919802B0919902CD91CDBFDD9197
:1032E000DEBFFF91EF91DF91CF91BF91AF919F91A1
:1032F0008F917F916F915F914F913F912F911F918E
:103300000F91FF90EF90DF90CF90BF90AF909F9084
:103310008F907F906F905F904F903F902F901F9075
:103320000F900FBE0F9008950E94391918950F92B3
:103330000FB6F8940F921F9211242F923F924F9242
:103340005F926F927F928F929F92AF92BF92CF9235
:10335000DF92EF92FF920F931F932F933F934F9320
:103360005F936F937F938F939F93AF93BF93CF930D
:10337000DF93EF93FF93A0919802B09199020DB65D
:103380000D920EB60D920E944414A0919802B09135
:103390009902CD91CDBFDD91DEBFFF91EF91DF911D
:1033A000CF91BF91AF919F918F917F916F915F91DD
:1033B0004F913F912F911F910F91FF90EF90DF90D0
:1033C000CF90BF90AF909F908F907F906F905F90C5
:1033D0004F903F902F901F900F900FBE0F90089529
:1033E0000F931F93CF93DF93FC018081882319F4FF
:1033F000C0E0D0E005C00580F681E02DC681D78110
:103400008E01045F1F4FC8010E941D1183E293E0EB
:10341000B8010E94BF1020E0E091F202F091F302A7
:103420009E898689981708F021E0822FDF91CF913D
:103430001F910F910895FF920F931F93CF93DF93E6
:1034400099E0F92E28C0F89480912303882319F479
:10345000C0E0D0E006C0E0912803F0912903C681C6
:10346000D781CE010C960E941D1178948E010E5FBB
:103470001F4FC8010E941D119E898091F402891777
:1034800010F49093F4029F9DC001112485509D4F2C
:10349000B8010E94BF10809123038823A1F60E94E7
:1034A00030142091F5023091F602821B930B909319
:1034B000F8028093F70289E0F82E54C001969093A9
:1034C000FA028093F902215030403093F8022093A1
:1034D000F702892BC9F520911F03309120038091B9
:1034E0002103909122039093200380931F03309334
:1034F00022032093210328C02091F9023091FA027F
:103500008A819B812817390768F1F8948E010E5F34
:103510001F4FC8010E941D118C899D89892B21F0A4
:10352000CE010C960E941D1178949E898091F40220
:10353000891710F49093F4029F9DC00111248550C7
:103540009D4FB8010E94BF10E0911F03F09120032E
:103550008081882339F00580F681E02DC681D781EE
:10356000209751F62091F7023091F8028091F902EC
:103570009091FA022115310509F0A0CF9093F6023F
:103580008093F5029091F40229E006C0992319F482
:103590001092F40232C09150929FD0011124A55094
:1035A000BD4F8C91882391F39093F4021196ED9185
:1035B000FC9112970280F381E02D1296FC93EE931A
:1035C0001197CD010396E817F90731F482819381B1
:1035D00012969C938E9311971196ED91FC911297F0
:1035E0000680F781E02DF093F302E093F202208150
:1035F0003181CF016789F9010995DF91CF911F9141
:103600000F91FF9008950F931F93CF93DF93EB01DA
:103610000091F9021091FA02080F191F8091F2022D
:103620009091F30202960E941D11E091F202F09136
:10363000F302138302838091F9029091FA02BF0191
:103640006E5F7F4F0817190728F48091210390912E
:10365000220304C080911F03909120030E94E81070
:10366000209749F06091F2027091F302645F7F4FFE
:10367000CE010E94E810DF91CF911F910F91089524
:10368000AF92BF92CF92DF92EF92FF920F931F9370
:10369000CF93DF936C01B62EA42E8AE190E00E94B6
:1036A000CA1BEC01009711F48FEF59C08091F20210
:1036B0009091F302892B21F5D093F302C093F2028B
:1036C0008BEF92E00E94AB1084E093E00E94AB107D
:1036D0002DE0E22E23E0F22EC7010E94AB1006E19E
:1036E00013E0C8010E94AB1083E293E00E94AB108C
:1036F000F0922003E0921F03109322030093210312
:10370000EB2CBB2011F0EE24E394198E188EEE8A78
:10371000AF8AFE01C192D1928F01CF010E94BB10EE
:10372000CE010C960E94BB10D987C887DB8BCA8B51
:1037300084E090E08E1991099D878C879E89809105
:10374000F402891710F49093F40289E0989FC00165
:10375000112485509D4FB8010E94BF1081E0DF9178
:10376000CF911F910F91FF90EF90DF90CF90BF907E
:10377000AF900895089510922D0310922C03089590
:1037800028EB3BE080912C0390912D03281B390BF3
:10379000C90108950F931F93CF93DF938C010E946B
:1037A0002A1480912C0390912D039801280F391F22
:1037B0004BE0283B340758F48217930740F4EC01A0
:1037C000C25DDC4F30932D0320932C0302C0C0E078
:1037D000D0E00E94C115CE01DF91CF911F910F91D2
:1037E0000895E82FF0E0E770F070EE0FFF1FE05F44
:1037F000FD4F25913491C9010895E82FF0E0E7705D
:10380000F070EE0FFF1FE45EFD4F25913491C9016A
:10381000089585B5E82FF0E0E770F070EE0FFF1F18
:10382000E05FFD4F25913491C90108958091810099
:10383000E82FF0E0E770F070EE0FFF1FE05FFD4F44
:1038400025913491C90108958091B100E82FF0E0ED
:10385000E770F070EE0FFF1FE45EFD4F259134918D
:10386000C901089580919100E82FF0E0E770F070B1
:10387000EE0FFF1FE05FFD4F25913491C9010895C0
:103880008091A100E82FF0E0E770F070EE0FFF1FCD
:10389000E05FFD4F25913491C90108958091210188
:1038A000E82FF0E0E770F070EE0FFF1FE05FFD4FD4
:1038B00025913491C90108952091B6113091B71125
:1038C0004091B8115091B911B901CA0108952091E0
:1038D000B2113091B3114091B4115091B511B901A9
:1038E000CA0108952091BA113091BB114091BC11C9
:1038F0005091BD11B901CA0108952091C2113091B2
:10390000C3114091C4115091C511B901CA01089564
:103910002091AE113091AF114091B0115091B11181
:10392000B901CA0108952091C6113091C711409183
:10393000C8115091C911B901CA01089586B50895F9
:103940002091840030918500C90108958091B200D2
:1039500008952091940030919500C9010895209117
:10396000A4003091A500C90108952091240130914F
:103970002501C90108951092B6111092B711109245
:10398000B8111092B91116BC08951092B21110928C
:10399000B3111092B4111092B511109285001092CB
:1039A000840008951092BA111092BB111092BC11AC
:1039B0001092BD111092B20008951092C21110928F
:1039C000C3111092C4111092C5111092950010925B
:1039D000940008951092AE111092AF111092B01190
:1039E0001092B1111092A5001092A40008951092A7
:1039F000C6111092C7111092C8111092C9111092DD
:103A00002501109224010895089585BD81E08093D9
:103A10006E001092B6111092B7111092B811109258
:103A2000B91116BC08958093810081E080936F00E6
:103A30001092B2111092B3111092B4111092B511EC
:103A4000109285001092840008958093B10081E067
:103A5000809370001092BA111092BB111092BC1199
:103A60001092BD111092B20008958093910081E0F0
:103A7000809371001092C2111092C3111092C41160
:103A80001092C511109295001092940008958093A1
:103A9000A10081E0809372001092AE111092AF11DC
:103AA0001092B0111092B1111092A5001092A400C2
:103AB00008958093210181E0809373001092C611D4
:103AC0001092C7111092C8111092C91110922501BD
:103AD000109224010895E82FF0E0EE0FFF1FEA5145
:103AE000F14F718360830895E82FF0E0EE0FFF1F20
:103AF000EA51F14F1182108208950197F1F708956C
:103B0000AF92BF92CF92DF92EF92FF920F931F93EB
:103B1000A0E0B0E0BC01CD010E9413335B016C0159
:103B200020E030E04AE755E40E9463347B018C01D9
:103B300020E030E040E85FE30E94733288231CF409
:103B400061E070E024C0C801B70120E03FEF4FE71B
:103B500057E40E9458341816B4F4C601B50120E0A9
:103B600030E040E251E40E9463340E94E73280E991
:103B700091E005C0FC013197F1F76150704061158B
:103B80007105C1F707C0C801B7010E94E732CB0138
:103B90000197F1F71F910F91FF90EF90DF90CF9079
:103BA000BF90AF9008951F920F920FB60F921124FD
:103BB0002F933F934F935F936F937F938F939F9335
:103BC000AF93BF93EF93FF938091B6119091B7118C
:103BD000A091B811B091B9110196A11DB11D8093AA
:103BE000B6119093B711A093B811B093B911809109
:103BF000BE119091BF11A091C011B091C111019659
:103C0000A11DB11D8093BE119093BF11A093C0114F
:103C1000B093C1118091EA0E9091EB0E892B29F09F
:103C2000E091EA0EF091EB0E0995FF91EF91BF91B3
:103C3000AF919F918F917F916F915F914F913F9144
:103C40002F910F900FBE0F901F9018951F920F92FB
:103C50000FB60F9211242F933F934F935F936F935F
:103C60007F938F939F93AF93BF93EF93FF93809135
:103C7000B2119091B311A091B411B091B511019608
:103C8000A11DB11D8093B2119093B311A093B411F3
:103C9000B093B5118091F40E9091F50E892B29F017
:103CA000E091F40EF091F50E0995FF91EF91BF911F
:103CB000AF919F918F917F916F915F914F913F91C4
:103CC0002F910F900FBE0F901F9018951F920F927B
:103CD0000FB60F9211242F933F934F935F936F93DF
:103CE0007F938F939F93AF93BF93EF93FF938091B5
:103CF000BA119091BB11A091BC11B091BD11019668
:103D0000A11DB11D8093BA119093BB11A093BC115A
:103D1000B093BD118091FA0E9091FB0E892B29F082
:103D2000E091FA0EF091FB0E0995FF91EF91BF9192
:103D3000AF919F918F917F916F915F914F913F9143
:103D40002F910F900FBE0F901F9018951F920F92FA
:103D50000FB60F9211242F933F934F935F936F935E
:103D60007F938F939F93AF93BF93EF93FF93809134
:103D7000C2119091C311A091C411B091C5110196C7
:103D8000A11DB11D8093C2119093C311A093C411C2
:103D9000B093C5118091040F9091050F892B29F0E4
:103DA000E091040FF091050F0995FF91EF91BF91FC
:103DB000AF919F918F917F916F915F914F913F91C3
:103DC0002F910F900FBE0F901F9018951F920F927A
:103DD0000FB60F9211242F933F934F935F936F93DE
:103DE0007F938F939F93AF93BF93EF93FF938091B4
:103DF000AE119091AF11A091B011B091B111019697
:103E0000A11DB11D8093AE119093AF11A093B0117D
:103E1000B093B11180910E0F90910F0F892B29F063
:103E2000E0910E0FF0910F0F0995FF91EF91BF9167
:103E3000AF919F918F917F916F915F914F913F9142
:103E40002F910F900FBE0F901F9018951F920F92F9
:103E50000FB60F9211242F933F934F935F936F935D
:103E60007F938F939F93AF93BF93EF93FF93809133
:103E7000C6119091C711A091C811B091C9110196B6
:103E8000A11DB11D8093C6119093C711A093C811B5
:103E9000B093C9118091180F9091190F892B29F0B7
:103EA000E091180FF091190F0995FF91EF91BF91D3
:103EB000AF919F918F917F916F915F914F913F91C2
:103EC0002F910F900FBE0F901F9018951F920F9279
:103ED0000FB60F9211242F933F934F935F936F93DD
:103EE0007F938F939F93AF93BF93EF93FF938091B3
:103EF000E60E9091E70E892B29F0E091E60EF09105
:103F0000E70E0995FF91EF91BF91AF919F918F912E
:103F10007F916F915F914F913F912F910F900FBEC5
:103F20000F901F9018951F920F920FB60F921124A9
:103F30002F933F934F935F936F937F938F939F93B1
:103F4000AF93BF93EF93FF938091E80E9091E90EAA
:103F5000892B29F0E091E80EF091E90E0995FF9187
:103F6000EF91BF91AF919F918F917F916F915F91F1
:103F70004F913F912F910F900FBE0F901F9018956A
:103F80001F920F920FB60F9211242F933F934F93CE
:103F90005F936F937F938F939F93AF93BF93EF93B1
:103FA000FF938091EC0E9091ED0E892B29F0E0911A
:103FB000EC0EF091ED0E0995FF91EF91BF91AF914D
:103FC0009F918F917F916F915F914F913F912F9131
:103FD0000F900FBE0F901F9018951F920F920FB663
:103FE0000F9211242F933F934F935F936F937F937F
:103FF0008F939F93AF93BF93EF93FF938091F00EB6
:104000009091F10E892B29F0E091F00EF091F10ED4
:104010000995FF91EF91BF91AF919F918F917F9102
:104020006F915F914F913F912F910F900FBE0F9025
:104030001F9018951F920F920FB60F9211242F9375
:104040003F934F935F936F937F938F939F93AF9320
:10405000BF93EF93FF938091F20E9091F30E892B13
:1040600029F0E091F20EF091F30E0995FF91EF9196
:10407000BF91AF919F918F917F916F915F914F9180
:104080003F912F910F900FBE0F901F9018951F9288
:104090000F920FB60F9211242F933F934F935F937C
:1040A0006F937F938F939F93AF93BF93EF93FF9300
:1040B0008091F60E9091F70E892B29F0E091F60E83
:1040C000F091F70E0995FF91EF91BF91AF919F91FC
:1040D0008F917F916F915F914F913F912F910F90B1
:1040E0000FBE0F901F9018951F920F920FB60F9250
:1040F00011242F933F934F935F936F937F938F93ED
:104100009F93AF93BF93EF93FF938091F80E90919D
:10411000F90E892B29F0E091F80EF091F90E09952E
:10412000FF91EF91BF91AF919F918F917F916F918F
:104130005F914F913F912F910F900FBE0F901F9065
:1041400018951F920F920FB60F9211242F933F9341
:104150004F935F936F937F938F939F93AF93BF938F
:10416000EF93FF938091FC0E9091FD0E892B29F027
:10417000E091FC0EF091FD0E0995FF91EF91BF913A
:10418000AF919F918F917F916F915F914F913F91EF
:104190002F910F900FBE0F901F9018951F920F92A6
:1041A0000FB60F9211242F933F934F935F936F930A
:1041B0007F938F939F93AF93BF93EF93FF938091E0
:1041C000FE0E9091FF0E892B29F0E091FE0EF091EA
:1041D000FF0E0995FF91EF91BF91AF919F918F9144
:1041E0007F916F915F914F913F912F910F900FBEF3
:1041F0000F901F9018951F920F920FB60F921124D7
:104200002F933F934F935F936F937F938F939F93DE
:10421000AF93BF93EF93FF938091000F9091010FA5
:10422000892B29F0E091000FF091010F0995FF9182
:10423000EF91BF91AF919F918F917F916F915F911E
:104240004F913F912F910F900FBE0F901F90189597
:104250001F920F920FB60F9211242F933F934F93FB
:104260005F936F937F938F939F93AF93BF93EF93DE
:10427000FF938091020F9091030F892B29F0E09119
:10428000020FF091030F0995FF91EF91BF91AF914C
:104290009F918F917F916F915F914F913F912F915E
:1042A0000F900FBE0F901F9018951F920F920FB690
:1042B0000F9211242F933F934F935F936F937F93AC
:1042C0008F939F93AF93BF93EF93FF938091060FCC
:1042D0009091070F892B29F0E091060FF091070FBD
:1042E0000995FF91EF91BF91AF919F918F917F9130
:1042F0006F915F914F913F912F910F900FBE0F9053
:104300001F9018951F920F920FB60F9211242F93A2
:104310003F934F935F936F937F938F939F93AF934D
:10432000BF93EF93FF938091080F9091090F892B12
:1043300029F0E091080FF091090F0995FF91EF9195
:10434000BF91AF919F918F917F916F915F914F91AD
:104350003F912F910F900FBE0F901F9018951F92B5
:104360000F920FB60F9211242F933F934F935F93A9
:104370006F937F938F939F93AF93BF93EF93FF932D
:1043800080910A0F90910B0F892B29F0E0910A0F71
:10439000F0910B0F0995FF91EF91BF91AF919F9114
:1043A0008F917F916F915F914F913F912F910F90DE
:1043B0000FBE0F901F9018951F920F920FB60F927D
:1043C00011242F933F934F935F936F937F938F931A
:1043D0009F93AF93BF93EF93FF9380910C0F9091B6
:1043E0000D0F892B29F0E0910C0FF0910D0F09951D
:1043F000FF91EF91BF91AF919F918F917F916F91BD
:104400005F914F913F912F910F900FBE0F901F9092
:1044100018951F920F920FB60F9211242F933F936E
:104420004F935F936F937F938F939F93AF93BF93BC
:10443000EF93FF938091100F9091110F892B29F02A
:10444000E091100FF091110F0995FF91EF91BF913D
:10445000AF919F918F917F916F915F914F913F911C
:104460002F910F900FBE0F901F9018951F920F92D3
:104470000FB60F9211242F933F934F935F936F9337
:104480007F938F939F93AF93BF93EF93FF9380910D
:10449000120F9091130F892B29F0E091120FF091D8
:1044A000130F0995FF91EF91BF91AF919F918F915C
:1044B0007F916F915F914F913F912F910F900FBE20
:1044C0000F901F9018951F920F920FB60F92112404
:1044D0002F933F934F935F936F937F938F939F930C
:1044E000AF93BF93EF93FF938091140F9091150FAB
:1044F000892B29F0E091140FF091150F0995FF9188
:10450000EF91BF91AF919F918F917F916F915F914B
:104510004F913F912F910F900FBE0F901F901895C4
:104520001F920F920FB60F9211242F933F934F9328
:104530005F936F937F938F939F93AF93BF93EF930B
:10454000FF938091160F9091170F892B29F0E0911E
:10455000160FF091170F0995FF91EF91BF91AF9151
:104560009F918F917F916F915F914F913F912F918B
:104570000F900FBE0F901F9018951F920F920FB6BD
:104580000F9211242F933F934F935F936F937F93D9
:104590008F939F93AF93BF93EF93FF9300D00F92AE
:1045A00081E0EDB7FEB781838CE292E09383828352
:1045B0000E94622A0F900F900F90FF91EF91BF9190
:1045C000AF919F918F917F916F915F914F913F91AB
:1045D0002F910F900FBE0F901F901895843040F4CC
:1045E000E82FF0E0EE0FFF1FE65AFE4E7183608366
:1045F00008951F93182F9A01AB01CA01B9016058A1
:104600007B47814E9F4FF3E0660F771F881F991FEE
:10461000FA95D1F7E4E0220F331F441F551FEA95A6
:10462000D1F70E94DF3621503040133029F4209317
:1046300034013093350112C0123029F42093D40094
:104640003093D5000BC0113029F42093CC00309367
:10465000CD0004C02093C4003093C5001F9108957D
:10466000282F30E0A3E0220F331FAA95E1F7225351
:104670003E4EC9010895282F30E0B3E0220F331FCA
:10468000BA95E1F72E503E4EC9010895E82F8330C8
:1046900039F48091300185FFFCCF6093360118C05A
:1046A000823039F48091D00085FFFCCF6093D60032
:1046B0000FC0813039F48091C80085FFFCCF609332
:1046C000CE0006C08091C00085FFFCCF6093C6007D
:1046D000F0E0E653FE4E10820895682F80E00E94BD
:1046E00046230895682F81E00E9446230895682F8D
:1046F00082E00E9446230895682F83E00E944623AB
:10470000089520E0E82FF0E083E0EE0FFF1F8A9588
:10471000E1F7EE52FE4E80819181892B09F421E070
:10472000822F0895CF93DF93833019F4609136017F
:104730000CC0823019F46091D60007C0813019F4A2
:104740006091CE0002C06091C600282F30E0E901E0
:10475000CC0FDD1FFE01E65AFE4E80819181892B30
:1047600031F00190F081E02D862F099514C093E07F
:10477000220F331F9A95E1F7C90182539E4E0E9482
:104780007927882341F4FE01EE5EFD4E8081918100
:10479000019691838083DF91CF9108951F920F92AC
:1047A0000FB60F9211242F933F934F935F936F9304
:1047B0007F938F939F93AF93BF93EF93FF9383E088
:1047C0000E949223FF91EF91BF91AF919F918F91A2
:1047D0007F916F915F914F913F912F910F900FBEFD
:1047E0000F901F9018951F920F920FB60F921124E1
:1047F0002F933F934F935F936F937F938F939F93E9
:10480000AF93BF93EF93FF9381E00E949223FF91B8
:10481000EF91BF91AF919F918F917F916F915F9138
:104820004F913F912F910F900FBE0F901F901895B1
:104830001F920F920FB60F9211242F933F934F9315
:104840005F936F937F938F939F93AF93BF93EF93F8
:10485000FF9380E00E949223FF91EF91BF91AF916F
:104860009F918F917F916F915F914F913F912F9188
:104870000F900FBE0F901F9018958F929F92AF923E
:10488000BF92CF92DF92EF92FF920F931F93CF933D
:10489000DF93882EDB01C82EDD24F60113E0EE0F36
:1048A000FF1F1A95E1F7EA50FE4E20813181240F57
:1048B000351FF60173E0EE0FFF1F7A95E1F7EC501C
:1048C000FE4E808191812817390770F541155105F9
:1048D00059F19C90760163E0EE0CFF1C6A95E1F7BC
:1048E00082EF91E1E80EF91E8D01C0E0D0E05A019F
:1048F0000894A108B10806C0C701F80160810E94B0
:10490000792721960F5F1F4FCA15DB05A8F38EEE9E
:1049100091E1C80ED91E8FEFF6018083882D692D95
:104920000E9446238FEF01C080E0DF91CF911F915D
:104930000F91FF90EF90DF90CF90BF90AF909F903E
:104940008F90089590E023E0880F991F2A95E1F752
:104950008E509E4E0E9479270895682F8AE092E13A
:104960000E9479270895682F82E092E10E947927BA
:104970000895682F8AEF91E10E9479270895682FA2
:1049800082EF91E10E9479270895CF93DF93282F3A
:10499000A82FB0E0ED01C251DE4E8881882379F165
:1049A000FD0133E0EE0FFF1F3A95E1F7EA50FE4EAE
:1049B00080819181892B11F1233039F48AE092E1D1
:1049C0000E941027809336011EC0223039F482E005
:1049D00092E10E9410278093D60015C0213039F44F
:1049E0008AEF91E10E9410278093CE000CC082EFE5
:1049F00091E10E9410278093C60005C01882A6533B
:104A0000BE4E8FEF8C93DF91CF9108951F920F923E
:104A10000FB60F9211242F933F934F935F936F9391
:104A20007F938F939F93AF93BF93EF93FF9383E015
:104A30000E94C524FF91EF91BF91AF919F918F91FB
:104A40007F916F915F914F913F912F910F900FBE8A
:104A50000F901F9018951F920F920FB60F9211246E
:104A60002F933F934F935F936F937F938F939F9376
:104A7000AF93BF93EF93FF9382E00E94C524FF9111
:104A8000EF91BF91AF919F918F917F916F915F91C6
:104A90004F913F912F910F900FBE0F901F9018953F
:104AA0001F920F920FB60F9211242F933F934F93A3
:104AB0005F936F937F938F939F93AF93BF93EF9386
:104AC000FF9381E00E94C524FF91EF91BF91AF91C8
:104AD0009F918F917F916F915F914F913F912F9116
:104AE0000F900FBE0F901F9018951F920F920FB648
:104AF0000F9211242F933F934F935F936F937F9364
:104B00008F939F93AF93BF93EF93FF9380E00E94A7
:104B1000C524FF91EF91BF91AF919F918F917F91AC
:104B20006F915F914F913F912F910F900FBE0F901A
:104B30001F9018951F93182F90E0FC01E251FE4E34
:104B40002FEF208343E0880F991F4A95E1F78E509D
:104B50009E4E0E941027682F812F0E9446231F918E
:104B60000895CF93DF93EB01282F30E0F90173E034
:104B7000EE0FFF1F7A95E1F7E053FE4E80819181A1
:104B8000892BC9F0F90163E0EE0FFF1F6A95E1F789
:104B9000EE52FE4E80819181892B69F053E0220F05
:104BA000331F5A95E1F7C90182539E4E0E94102788
:104BB00088838FEF01C080E0DF91CF910895DF936C
:104BC000CF930F92CDB7DEB783E0BE016F5F7F4F0B
:104BD0000E94B125882319F42FEF3FEF03C089818C
:104BE000282F30E0C9010F90CF91DF910895DF9316
:104BF000CF930F92CDB7DEB782E0BE016F5F7F4FDC
:104C00000E94B125882319F42FEF3FEF03C089815B
:104C1000282F30E0C9010F90CF91DF910895DF93E5
:104C2000CF930F92CDB7DEB781E0BE016F5F7F4FAC
:104C30000E94B125882319F42FEF3FEF03C089812B
:104C4000282F30E0C9010F90CF91DF910895DF93B5
:104C5000CF930F92CDB7DEB780E0BE016F5F7F4F7D
:104C60000E94B125882319F42FEF3FEF03C08981FB
:104C7000282F30E0C9010F90CF91DF91089590E087
:104C8000E3E0880F991FEA95E1F782539E4E0E9458
:104C9000AC27089586EE91E16AEC70E140E850E0BF
:104CA0000E9403278AE092E16AE471E140E150E06A
:104CB0000E94032708950E944A26109261111092C3
:104CC000601188ED8093310183E040E855E260E0B7
:104CD00070E00E94F9228FEF8093CD111092F111B4
:104CE0001092191210921812789408958EED91E195
:104CF0006AE370E140E850E00E94032782E092E11D
:104D00006AEB70E140E150E00E94032708950E94A1
:104D1000762610925F1110925E1188ED8093D1007B
:104D200082E040E855E260E070E00E94F9228FEFF7
:104D30008093CC111092F01110921712109216124B
:104D40007894089586ED91E16AEA7FE040E850E0CA
:104D50000E9403278AEF91E16AE270E140E150E0AE
:104D60000E94032708950E94A22610925D111092BE
:104D70005C1188ED8093C90081E040E855E260E075
:104D800070E00E94F9228FEF8093CB111092EF1107
:104D90001092151210921412789408958EEC91E1ED
:104DA0006AE17FE040E850E00E94032782EF91E152
:104DB0006AE97FE040E150E00E94032708950E94E5
:104DC000CE2610925B1110925A1188ED8093C1008B
:104DD00080E040E855E260E070E00E94F9228FEF49
:104DE0008093CA111092EE111092131210921212A7
:104DF000789408950E94DF260E94B3260E94872699
:104E00000E945B260895FC018FB7F894718360833C
:104E10005383428317821682158214828FBF0895AE
:104E2000DC014FB7F89414968D919C911597892BBE
:104E300011F4E0E025C016968D919C911797ED91A5
:104E4000FC911197E80FF91FE081019617969C934A
:104E50008E93169712962D913C9113978217930774
:104E600030F0821B930B17969C938E931697149693
:104E70008D919C911597019715969C938E931497FD
:104E80004FBF8E2F0895FC014FB7F8948481958110
:104E900068177907B0F486819781860F971F9783EB
:104EA0008683228133818217930720F0821B930B24
:104EB0009783868384819581861B970B9583848352
:104EC00002C0158214824FBF0895FC01CB012FB799
:104ED000F8942FBF2681378162817381820F931FDF
:104EE0000E94B8360190F081E02DE80FF91F808113
:104EF00008951F93CF93DF93EC01162F4FB7F894CB
:104F00002C813D816A817B812617370798F48E8139
:104F10009F81820F931F0E94B836E881F981E80FC4
:104F2000F91F10838C819D8101969D838C834FBFD7
:104F30008FEF02C04FBF80E0DF91CF911F910895A6
:104F4000FC018FB7F8948FBF2281338184819581D2
:104F5000281B390BC9010895FC018FB7F8941582FD
:104F600014828FBF0895AAE7B0E08C9180688C937B
:104F70008C918F7D8C938C91887F86608C93ECE7ED
:104F8000F0E080818F738064808380818F7D808357
:104F90008C9188608C9310921A1278940895EAE7A5
:104FA000F0E08081877F808380818F778083089580
:104FB000EAE7F0E09081987F982B90830895ECE7E2
:104FC000F0E090818295880F880F807C9F73982BEA
:104FD00090830895ECE7F0E090818F71907E892BAB
:104FE00080830895EAE7F0E080818061808380819A
:104FF00080648083089580917A0080740895982F4A
:1050000010921A12883020F080917B00886003C0D3
:1050100080917B00877F80937B0080917C009770DC
:10502000887F892B80937C0080917A0080618093B7
:105030007A0080917A00806480937A0080917A006F
:1050400086FDFCCF2091780030917900C901089548
:105050000E94FF27969587959695879508951F92AC
:105060000F920FB60F9211248F938FEF80931A1225
:105070008F910F900FBE0F901F9018959093631112
:105080008093621108951F93182F8A3031F4E091B4
:105090006211F09163118DE00995E0916211F09138
:1050A0006311812F09951F910895CF93DF93EC0130
:1050B000009721F406C021960E9443288881882306
:1050C000D1F7DF91CF910895EF92FF920F931F9345
:1050D000CF93DF938C017A010097E9F020E030E074
:1050E0002617370738F4F80181918F012F5F3F4F62
:1050F0008823B1F7C0E0D0E00BC0F801808188239D
:1051000019F00F5F1F4F01C080E20E9443282196D3
:10511000CE15DF0590F3DF91CF911F910F91FF9096
:10512000EF900895CF93DF93EC01009719F407C037
:105130000E944328FE01219684918823C9F7DF91BC
:10514000CF9108958AE00E9443280895E82FF0E067
:10515000EF70F070E35CFD4FE4918E2F0E944328C6
:1051600008951F93182F82958F700E94A628812F73
:105170000E94A6281F9108951F93182F892F0E941F
:10518000B128812F0E94B1281F910895EF92FF92BC
:105190000F931F937B018C01C801AA27BB270E9494
:1051A000BC28C7010E94BC281F910F91FF90EF906F
:1051B00008952F923F924F925F926F927F928F92BB
:1051C0009F92AF92BF92CF92DF92EF92FF920F9396
:1051D0001F93DF93CF93CDB7DEB7A3970FB6F894A5
:1051E000DEBF0FBECDBF6AA3242E2BA3370148011B
:1051F000442351F017FF08C0EE24FF248701E6186E
:10520000F7080809190902C0840173012AA1215075
:1052100090E0211091E0291B29A318A2A82EBB24FD
:10522000CC24DD24C801B701A60195010E94DF3618
:10523000FB01EF70F070E35CFD4F64916F8FC8016C
:10524000B701A60195010E94DF36C901DA017C0190
:105250008D019EE1492E512C4C0E5D1E39A025C0BA
:10526000E114F10401051105C9F0C801B701A60157
:1052700095010E94DF36FB01EF70F070E35CFD4F9B
:105280006491F2016083C801B701A60195010E94F3
:10529000DF36C901DA017C018D0103C02BA1F201C7
:1052A00020833A940894410851083320C9F6CE016E
:1052B0004F968C01E9A10E1B11092220F1F097FEF7
:1052C00005C08DE2F80182938F0117C0C8010197D4
:1052D000611471048104910419F08C018BE202C005
:1052E0008C0180E2F801808308C0F80181918F0170
:1052F0000E944328FAA1F150FAA32AA12223A9F778
:10530000A3960FB6F894DEBF0FBECDBFCF91DF914D
:105310001F910F91FF90EF90DF90CF90BF90AF90D3
:105320009F908F907F906F905F904F903F902F90C5
:1053300008954F925F926F927F928F929F92AF9259
:10534000BF92CF92DF92EF92FF920F931F93CF9372
:10535000DF93482E5A016B01CB01BA0120E030E007
:1053600040E050E00E94583418161CF43501460104
:1053700006C03501460197FA909497F890940F2E45
:10538000F0E0EF2EF0E0FF2EF0E80F2FFFE31F2FED
:10539000F02D5524C401B301A80197010E947A326F
:1053A00020E030E040E251E40E94733287FD0EC0FD
:1053B000C801B70120E030E040E251E40E946334CC
:1053C0007B018C0153948FE0581621F7C601B5017B
:1053D00020E030E040E050E00E947332882314F473
:1053E0008DE201C08BE20E944328DD24AA2456C02E
:1053F000C401B301A80197010E947A320E94E732EA
:10540000B62ED62ACD2DD0E0CC24DD24C801B7019C
:1054100020E030E040E85FE30E947332882319F413
:1054200021E0C22ED12CCC29DD29CD2B39F08B2DBA
:10543000805D0E944328DD24DA9404C080E20E944B
:105440004328DD24C801B70120E030E040E85FE3F5
:105450000E947332882319F48EE20E9443286B2D38
:1054600070E0882777FD8095982F0E941533A8015A
:1054700097010E9463349B01AC01C401B3010E94F7
:1054800095313B014C01C801B70120E030E040E21A
:1054900051E40E947A327B018C01A394A41408F495
:1054A000A7CFDF91CF911F910F91FF90EF90DF90E9
:1054B000CF90BF90AF909F908F907F906F905F90B4
:1054C0004F9008957F928F929F92AF92BF92CF920A
:1054D000DF92EF92FF920F931F93DF93CF93CDB79D
:1054E000DEB77888C988DA8863E1E62EF12CEC0E05
:1054F000FD1E14C0882381F480E090E0CF91DF91FD
:105500001F910F91FF90EF90DF90CF90BF90AF90E1
:105510009F908F907F9008950E94432896012F5F5F
:105520003F4F772021F0F6016901849103C0F60115
:10553000808169018532F1F62F5F3F4F772021F09E
:10554000F6016901849103C0F60180816901843606
:1055500029F0883781F08336F9F606C000E117E2BA
:105560005AE0A52EB12C0CC0F701808122E030E07A
:10557000E20EF31ED1CF00E010E140E1A42EB12CE9
:1055800032E0832E912C8E0C9F1CF701E080F1807D
:105590008436B1F4F7FE11C0F094E194F108F3946D
:1055A0008DE20E94432809C0C8016AE070E00E94B1
:1055B000B8368B016230710518F0E016F106A0F3E1
:1055C000C701B8010E94B836862F0E94A628C701DD
:1055D000B8010E94B8367C01C801B5010E94B836F6
:1055E0008B016115710561F7740198CF2091B900A5
:1055F0002E7F2093B9002091B9002D7F2093B90010
:105600009C0140E050E060E87EE380E090E00E9492
:105610000137203130F0822F90E0409795958795A3
:10562000282F2093B8000895589A599A1092AB11D8
:105630001092AA111092AD111092AC1184E690E074
:105640000E94F62AECEBF0E0808184608083109267
:1056500064118081816080838081806480837894FC
:10566000089590E0611191E08E7F982B9093BA009D
:1056700008959093AB118093AA1108959093AD1162
:105680008093AC110895ECEBF0E080818F70806A1C
:1056900080830895ECEBF0E080818F70806D8083D3
:1056A00008958091BC0087FFFCCF08958093BB00D4
:1056B000ECEBF0E080818F70806880830895882310
:1056C00029F08091BC008F70806C04C08091BC0078
:1056D0008F7080688093BC0008958091BB0008950E
:1056E0008091B9000895982F809164118823E1F783
:1056F00082E0809364119E7F90936511A6E6B1E1EC
:10570000FA0102C081918D938E2F841B8617D0F3EE
:1057100010928611609387118091BC008F70806A0F
:105720008093BC000895982F809164118823E1F73D
:1057300083E0809364119160909365111092A81199
:105740006093A9118091BC008F70806A8093BC0027
:10575000809164118823E1F7A8E8B1E1FA0102C061
:105760008D9181938E2F841B8617D0F30895982FE7
:10577000FA018091BC008E7F8093BC008091BC00B8
:105780008F70806A8093BC008091BC0087FFFCCF43
:105790009E7F9093BB008091BC008F708068809347
:1057A000BC008091BC0087FFFCCF8091B90088319C
:1057B00089F091E012C080818093BB008091BC0091
:1057C0008F7080688093BC008091BC0087FFFCCF05
:1057D00031966150662379F790E08091BC008F701C
:1057E000806D8093BC008091BC0084FFFCCF8091D1
:1057F000BC0081608093BC00892F0895982FFA0126
:105800008091BC008E7F8093BC008091BC008F7023
:10581000806A8093BC008091BC0087FFFCCF9160C0
:105820009093BB008091BC008F7080688093BC0017
:105830008091BC0087FFFCCF8091B900803481F05B
:1058400091E01EC08091BC008F70806C8093BC0082
:105850008091BC0087FFFCCF8091BB008193615099
:10586000623080F78091BC008F7080688093BC00AC
:105870008091BC0087FFFCCF8091BB00808390E0CB
:105880008091BC008F70806D8093BC008091BC00C3
:1058900081608093BC00892F08951F920F920FB6EC
:1058A0000F9211242F933F934F935F936F937F93A6
:1058B0008F939F93AF93BF93EF93FF938091B90022
:1058C000887F803609F4A0C0813670F5883209F4EB
:1058D0005FC0893298F4803109F457C0813138F4BF
:1058E000882309F4EAC0883009F0EFC04EC088313F
:1058F00009F44EC0803209F0E8C0DFC0803409F4FA
:1059000077C0813438F4803309F4D7C0883309F084
:10591000DCC05DC0803509F45FC0883509F44AC039
:10592000883409F0D2C0C9C0883909F4BAC08939AD
:10593000B0F4883709F468C0893738F4883609F438
:1059400063C0803709F0C1C05FC0883809F4A9C0BE
:10595000803909F45FC0803809F0B7C05BC0803B74
:1059600009F479C0813B38F4803A09F462C0883A7E
:1059700009F0ABC070C0803C09F49AC0883C09F4BF
:1059800097C0883B09F0A1C077C0809165110FC016
:105990009091861180918711981708F08EC0E92F99
:1059A000F0E0EA59FE4E80819F5F909386118093CC
:1059B000BB0077C08091A8119091BB00E82FF0E068
:1059C000E857FE4E90838F5F8093A81176C0809138
:1059D000BC008F70806875C08091A8119091BB0049
:1059E000E82FF0E0E857FE4E90838F5F8093A81178
:1059F0002091A81130E08091A91190E0019728171B
:105A000039070CF04EC048C085E0809364111092B5
:105A1000A81142C08091A8119091BB00E82FF0E03E
:105A2000E857FE4E90838F5F8093A8118032C8F5AF
:105A300033C08091BC008F70806C8093BC00E0917B
:105A4000AA11F091AB113097F1F18091A81168E89B
:105A500071E1099538C084E080936411E091AC1144
:105A6000F091AD11309731F080E266E671E1099571
:105A7000809387111092861190918611E92FF0E0A2
:105A8000EA59FE4E80818093BB009F5F9093861100
:105A900080918711981728F48091BC008F70806CDA
:105AA00004C08091BC008F7080688093BC000DC0E2
:105AB0008091BC008F70806C04C08091BC008F709E
:105AC000806D8093BC0010926411FF91EF91BF91A3
:105AD000AF919F918F917F916F915F914F913F9186
