:100000000C94B6020C94DE020C94DE020C94DE0218
:100010000C94DE020C94DE020C94DE020C94DE02E0
:100020000C94DE020C94301B0C94081B0C94E01A08
:100030000C94DE020C94FF110C94D9110C94ED1366
:100040000C9455130C9471120C944B120C942512B1
:100050000C9413140C94BD120C9497120C94391434
:100060000C94DE020C94CB0F0C94DE020C94211045
:100070000C94DE020C9470170C94DE020C942F1377
:100080000C94B3110C948D110C9467110C94C7133C
:100090000C94F60F0C94DE020C9447100C94DE02C4
:1000A0000C94DE020C9409130C9441110C941B1156
:1000B0000C94F5100C94A1130C94E3120C94CF1033
:1000C0000C94A9100C9483100C947B130C94DE02F6
:1000D0000C94DE020C94DE020C94DE020C94DE0220
:1000E0000C94DE0207634236B79BD8A71A396856CC
:1000F00018AEBAAB558C1D3CB7CC5763BD6DEDFD4A
:10010000753EF6177231BF000000803F0800000006
:10011000BE922449123EABAAAA2ABECDCCCC4C3EFC
:1001200000000080BEABAAAAAA3E00000000BF00EB
:100130000000803F0000000000084178D3BB4387E7
:10014000D1133D190E3CC3BD4282AD2B3E68EC82FB
:1001500076BED98FE1A93E4C80EFFFBE01C4FF7F80
:100160003F00000000009804409E04049E04089E86
:100170000410A40404A40408AA0401AA0402AA0402
:1001800004AA0408AA0410AA0420AA0480B0042027
:10019000B60408B60410B60420B60440BC0410BC73
:1001A0000420BC0440BC04800000000000000000EB
:1001B000000000006601000078010000000000005F
:1001C000000000000000000000000000000000002F
:1001D0009C019F01A201A501DB0A006E00024700FD
:1001E0003500024400060000E30A006E00044800E7
:1001F0003500044400048D01EB0A016F0002880001
:100200003600028000060000F30A016F00048A0035
:100210003600048000046601FB0A016F00088C00B0
:100220003600088000020000030B02700002B300D9
:10023000370002B0000600000B0B02700004B4008F
:10024000370004B000049901130B037100029800F9
:1002500038000290000681011B0B037100049A0014
:100260003800049000048401230B037100089C00F3
:1002700038000890000287012B0B04720002A800CE
:10028000390002A000069001330B04720004AA009A
:10029000390004A0000493013B0B04720008AC0079
:1002A000390008A000029601430B057300022801E3
:1002B0003A000220010600004B0B057300042A01DE
:1002C0003A00042001040000530B057300082C01C0
:1002D0003A000820010200005B0B460045000000C8
:1002E000023388440001440002450008000001D8A0
:1002F000016E000135000100000000010000010056
:10030000000100006A0B84008100FF0003FFDF8012
:100310000001800002810008810010F8016F0001D7
:1003200036000186006F002036002081004000006A
:10033000790BB200B10000FF023388B00001B000B9
:1003400002B100080000012802700001370001001E
:10035000000000010000010000010000880B940073
:100360009100FF0003FFDF90000190000291000860
:1003700091001048027100013800019600710020C0
:100380003800209100408A01970BA400A100FF00D3
:1003900003FFDFA00001A00002A10008A100107867
:1003A00002720001390001A600720020390020A16C
:1003B00000400000A60B24012101FF0003FFDF2005
:1003C0000101200102210108210110A8027300018E
:1003D0003A000126017300203A002021014000006C
:1003E00025640A000A002C002C0025642C002C0037
:1003F0000A0A0A0A0A004445475245453A2564203C
:10040000434F533A25642053494E3A25640A000A63
:10041000000A00202564200047474700575757002F
:100420002052200020522000205220002052200084
:100430002052200020522000205220002052200074
:10044000203C200020562000203E2000205E20007E
:100450000A0077616C6C436F6C3A20256409776100
:100460006C6C526F773A20256409616E676C653A4F
:10047000202564000A0077616C6C436F6C3A20257C
:10048000640977616C6C526F773A20256409616E5C
:10049000676C653A202564002500240023002800AD
:1004A000270026002B002A0029002E002D002C00FA
:1004B000340033003200020101010001080107018C
:1004C000060184029802B502D202E602FA020E0385
:1004D00000005F140000000028257520636D2900CE
:1004E000CA14A31400000000282564207469636BFB
:1004F000732900303132333435363738394142438D
:10050000444546002D1E0000000001000800400088
:1005100000010004000001000800200040008000ED
:10052000000100040001FFFF0203FFFFFFFFFF05C2
:10053000FFFFFF070001FFFF0203557365722045AF
:1005400072726F723A25640A00576562626F744C6A
:100550006962204572726F723A25640A0094294AD2
:100560002A882A1F2A512A352A007F1711241FBEE4
:10057000CFEFD1E2DEBFCDBF13E0A0E0B2E0E6EE08
:10058000F0E602C005900D92AA3CB107D9F71CE035
:10059000AAECB3E001C01D92A437B107E1F715E062
:1005A000CCE6D5E004C02297FE010E946D30CA3629
:1005B000D107C9F70E94AE180C948F2C0C94000040
:1005C000089560E070E080E090E0089597FD10C02D
:1005D00025E030E040E050E00E945030DA01C901EF
:1005E000880F991F8B5C9C4FFC012081318117C0C3
:1005F00025E030E040E050E00E945030DA01C901CF
:10060000885B9F4FAF4FBF4F880F991F8B5C9C4FEC
:10061000FC018081918122273327281B390BC901D6
:1006200008956A5570408040904097FD10C025E0C5
:1006300030E040E050E00E945030DA01C901880FFC
:10064000991F8B5C9C4FFC012081318117C025E0F4
:1006500030E040E050E00E945030DA01C901885B90
:100660009F4FAF4FBF4F880F991F8B5C9C4FFC0172
:100670008081918122273327281B390BC9010895D6
:10068000CF92DF92EF92FF920F931F936B017C0149
:100690008AE5C816D104E104F104A1F186EAC8167E
:1006A0008FEFD8068FEFE8068FEFF80659F18EE04E
:1006B000C81681E0D80680E0E80680E0F80611F16F
:1006C00082EFC8168EEFD8068FEFE8068FEFF80698
:1006D000C9F0C701B6010E9411038C01C701B60120
:1006E0000E94E602BC01C8010E941B30CB019B01A5
:1006F00073E0220F331F7A95E1F7880F991F280FB7
:10070000391F02C020E030E0C9011F910F91FF9016
:10071000EF90DF90CF9008952EEF30E040E050E072
:100720000E94E82F24EB30E040E050E00E9450307F
:100730002F57304040405040B901CA01089520E091
:1007400030E04CE350E00BC01192119201968E31D3
:100750009105D1F72F5F3F4F2E31310561F0249F76
:10076000F001259FF00D349FF00D1124E653FC4F4E
:1007700080E090E0E9CF089540912B0320912C0375
:1007800030E0842F90E00296FC0165E0EE0FFF1F41
:100790006A95E1F7880F991FE81BF90BE20FF31F29
:1007A000EE0FFF1FE853FC4FA0E0B0E0B9016F521D
:1007B0007F4F8EE1489FA0011124640F751F660FC3
:1007C000771F66537C4F8281938120813181820F14
:1007D000931FA80FB91F84819581A80FB91FFC969C
:1007E000E617F70781F7CD01089520912C0380913A
:1007F0002B0390E00796FC01B5E0EE0FFF1FBA95C2
:10080000E1F7880F991FE81BF90BE20FF11DEE0FBE
:10081000FF1FE653FC4F40E050E020E030E08081D5
:100820009181480F591F2F5F3F4FFC9625303105AE
:10083000B1F7CA01089520912C0380912B0390E019
:100840000796FC0145E0EE0FFF1F4A95E1F7880F80
:10085000991FE81BF90BE20FF11DEE0FFF1FE85384
:10086000FC4F40E050E020E030E080819181480F73
:10087000591F2F5F3F4FFC9625303105B1F7CA0154
:10088000089520912C0380912B0390E00796FC01A2
:1008900075E0EE0FFF1F7A95E1F7880F991FE81BAF
:1008A000F90BE20FF11DEE0FFF1FE453FC4F40E088
:1008B00050E020E030E080819181480F591F2F5F88
:1008C0003F4FFC9625303105B1F7CA0108952091BC
:1008D0002C0380912B0390E00296FC0135E0EE0F93
:1008E000FF1F3A95E1F7880F991FE81BF90BE20FFC
:1008F000F11DEE0FFF1FEA53FC4F40E050E020E0F7
:1009000030E080819181480F591F2F5F3F4FFC9647
:100910002A303105B1F7CA01089520912C03809146
:100920002B0390E00296FC0165E0EE0FFF1F6A9535
:10093000E1F7880F991FE81BF90BE20FF11DEE0F8D
:10094000FF1FEC53FC4F40E050E020E030E080819E
:100950009181480F591F2F5F3F4FFC96253031057D
:10096000B1F7CA01089520912C0380912B0390E0E8
:100970000296FC01B5E0EE0FFF1FBA95E1F7880F74
:10098000991FE81BF90BE20FF11DEE0FFF1FE25359
:10099000FC4F40E050E020E030E080819181480F42
:1009A000591F2F5F3F4FFC9625303105B1F7CA0123
:1009B000089520912C0380912B0390E00296FC0176
:1009C00045E0EE0FFF1F4A95E1F7880F991FE81BDE
:1009D000F90BE20FF11DEE0FFF1FE053FC4F40E05B
:1009E00050E020E030E080819181480F591F2F5F57
:1009F0003F4FFC9625303105B1F7CA010895CF93DA
:100A0000DF9390912B0380912C03A82FB0E01296D6
:100A100060E070E040E050E0C92FD0E00EC081916E
:100A20009191680F791F2F5F3F4F25303105B9F73E
:100A30004F5F5F4F43305105B1F0CA018C0F9D1FCE
:100A4000FC0135E0EE0FFF1F3A95E1F7880F991F83
:100A5000E81BF90BEA0FFB1FEE0FFF1FE653FC4FDD
:100A600020E030E0DCCFCB01DF91CF910895CF9330
:100A7000DF9390912B0380912C03A82FB0E0129765
:100A800060E070E040E050E0C92FD0E00FC080810E
:100A90009181680F791F2F5F3F4F329725303105C5
:100AA000B1F74F5F5F4F43305105B1F0CA018C0F72
:100AB0009D1FFC0135E0EE0FFF1F3A95E1F7880F0F
:100AC000991FE81BF90BEA0FFB1FEE0FFF1FE65300
:100AD000FC4F20E030E0DBCFCB01DF91CF910895D8
:100AE00085EB92E060E00E94CC17FACF1F93182F9D
:100AF00084E892E0612F0E94CC1788E992E0612F90
:100B00000E94CC171F9108952F923F924F925F92AF
:100B10006F927F928F929F92AF92BF92CF92DF920D
:100B2000FF920F931F93CF93DF935C0100E010E0DF
:100B30007CE3272E74E0372E64E4462E64E0562EC4
:100B40002DC180912B03482F50E00417150709F0A1
:100B500040C080912C0390E0C817D907D1F5A114AB
:100B6000B10461F400D00F92ADB7BEB71196FC92FC
:100B7000119713969C928E92129725C0B1E0AB16F6
:100B8000B10441F400D00F92EDB7FEB7F182738249
:100B9000628219C0F2E0AF16B10461F400D00F9286
:100BA000ADB7BEB71196FC92119713965C924E9218
:100BB000129709C000D00F92EDB7FEB7F18220E482
:100BC00034E0338322830E945C1C0F900F900F90BF
:100BD000C3C0CA0101970817190779F580912C0342
:100BE000282F30E0C9010197C817D90761F400D058
:100BF0000F92ADB7BEB71196FC92119713963C9227
:100C00002E921297E0CFC217D30741F400D00F9273
:100C1000EDB7FEB7F18228E334E0D3CF2F5F3F4F2B
:100C2000C217D30751F400D00F92ADB7BEB71196DB
:100C3000FC921197E4E3F4E073C00417150711F573
:100C400080912C03282F30E0C9010197C817D907DC
:100C500051F400D00F92ADB7BEB71196FC92119728
:100C6000E0E3F4E05DC02F5F3F4FC217D30751F4BC
:100C700000D00F92ADB7BEB71196FC921197ECE27F
:100C8000F4E04EC04F5F5F4F0417150779F5809170
:100C90002C03282F30E0C9010197C817D90751F458
:100CA00000D00F92ADB7BEB71196FC921197E8E253
:100CB000F4E036C0C217D30751F400D00F92ADB79D
:100CC000BEB71196FC921197E4E2F4E029C02F5FC1
:100CD0003F4FC217D30751F400D00F92ADB7BEB744
:100CE0001196FC921197E0E2F4E01AC0D6018D91C2
:100CF0009C918E3F910541F400D00F92EDB7FEB765
:100D0000F1822CE134E05DCF8D3F910571F400D08C
:100D10000F92ADB7BEB71196FC921197E8E1F4E0DF
:100D20001396FC93EE9312974ECF00D000D00F9203
:100D3000EDB7FEB73196ADB7BEB71196FC9223E181
:100D400034E032832183948383830E945C1C0F9060
:100D50000F900F900F900F90219682E090E0C80EB8
:100D6000D91ECE31D10509F0ECCE00D00F92FF2470
:100D7000F394ADB7BEB71196FC92119781E194E060
:100D800013969C938E9312970E945C1C0F5F1F4FCB
:100D90000F900F900F900E311105D1F08CE390E081
:100DA000089F6001099FD00C189FD00C1124EAEC19
:100DB000F3E0CE0EDF1EC0E0D0E0FF24F39458E451
:100DC000652E54E0752E4CE4842E44E0942EB9CE6A
:100DD00000D00F92ADB7BEB71196FC9211978FE07D
:100DE00094E013969C938E9312970E945C1C0F9034
:100DF0000F900F90DF91CF911F910F91FF90DF9097
:100E0000CF90BF90AF909F908F907F906F905F90AA
:100E10004F903F902F9008951F9311E882ED92E03C
:100E2000612F0E94CC1786EE92E0612F0E94CC17B2
:100E30008AEF92E0612F0E94CC178EE093E0612F41
:100E40000E94CC1762E370E080E090E00E94E1270E
:100E50001F5F1F3719F71F910895EF92FF920F93AD
:100E60001F93282F7B0188E992E0622F0E94CC1704
:100E70000027F7FC0095102FC801B7010E94E12759
:100E80001F910F91FF90EF90089585E090E060ED45
:100E900077E00E942D070895EF92FF920F931F9322
:100EA000282F7B0184E892E0622F0E94CC17002754
:100EB000F7FC0095102FC801B7010E94E1271F9190
:100EC0000F91FF90EF90089585E090E060ED77E05E
:100ED0000E944C070895EF92FF920F931F93E4E84E
:100EE000EE2EE2E0FE2EC70160E00E94CC1708E97A
:100EF00012E0C80160E00E94CC17C70165E00E94C3
:100F0000CC17C8016BEF0E94CC1760ED77E080E052
:100F100090E00E94E127C70160E00E94CC17C80161
:100F200060E00E94CC171F910F91FF90EF90089501
:100F30000E946B070895FF920F931F93CF93DF9347
:100F400060912D0370912E03882777FD8095982F4F
:100F50002EEF30E040E050E00E94E82F24EB30E03C
:100F600040E050E00E9450302F5730404040504009
:100F700085EB92E0622F0E94CC1700D000D00F9238
:100F8000EDB7FEB73196FF24F394ADB7BEB7119617
:100F9000FC9280EE93E09283818380912D03909167
:100FA0002E03948383830E945C1C0F900F900F90FC
:100FB0000F900F9064E170E080E090E00E94E127E4
:100FC0008AE792E00E941A15E0918102F091820274
:100FD000CF010A978734910508F04BC000912D038B
:100FE00010912E03C0913103D0913203C017D10765
:100FF0001CF4F092D70A05C00C171D0714F4F092E8
:10100000D80A8AE590E08E1B9F0B6AE070E00E9490
:10101000073029E030E0C901861B970BBC018FE740
:1010200090E00E9407307093340360933303CF0144
:101030006AE070E00E940730261B370B8FE790E0D4
:10104000B9010E9407307093D40A6093D30ABE019D
:10105000601B710B77FF03C0709561957F4F6F5FC9
:101060007F4F88EE93E00E941B307093D60A609306
:10107000D50A40912D0350912E03209131033091D8
:10108000320360912F0370913003CB01820F931FC5
:101090008417950724F481E08093D20A07C0261BA9
:1010A000370B4217530714F41092D20A8091D20AD8
:1010B000882319F4465F5F4F02C04A505040509356
:1010C0002E0340932D03DF91CF911F910F91FF903D
:1010D00008956F927F928F929F92AF92BF92CF921C
:1010E000DF92EF92FF921F93CF93DF9300D00F9286
:1010F00081E0ADB7BEB711968C93119780EF93E066
:1011000013969C938E9312970E945C1CC1E8DFEFAC
:101110000F900F900F9011E09EEE692E93E0792EC4
:101120008AEE882E83E0982EB8EEAB2EB3E0BB2E6D
:10113000A6EECA2EA3E0DA2EF4EEEF2EF3E0FF2E99
:1011400088E992E06C2F0E94CC1784E892E060E07E
:101150000E94CC170E94FA210E94491C00D00F92D5
:10116000EDB7FEB71183738262820E945C1C00D0CF
:10117000EDB7FEB73196ADB7BEB711961C9392820C
:101180008182D483C3830E945C1C0F900F900F90C8
:101190000F900F9089E692E00E941A1589E692E07E
:1011A0000E94FC1400D00F92EDB7FEB71183B382FA
:1011B000A2820E945C1C0F900F900F9068EE73E06B
:1011C00080E090E00E94E1270E94FA210E94491CE1
:1011D00000D00F92ADB7BEB711961C93119713961E
:1011E000DC92CE9212970E945C1C0F900F900F9091
:1011F00089E692E00E941A1589E692E00E94FC14AA
:1012000000D00F92EDB7FEB71183F382E2820E9405
:101210005C1C21960F900F900F90CF37D10509F0ED
:101220008FCFDF91CF911F91FF90EF90DF90CF9004
:10123000BF90AF909F908F907F906F9008957F9216
:101240008F929F92AF92BF92CF92DF92EF92FF92D6
:101250000F931F93CF93DF93882499245401CC24B8
:10126000DD24760177247394C6EFD3E08AE792E019
:101270000E941A15C501B40124EB30E040E050E0B3
:101280000E9450302F5730404040504085EB92E054
:10129000622F0E94CC1780918102909182020A975E
:1012A00087349105A8F58AE792E00E948514B6017B
:1012B000C7010E94E6028C01B601C7010E9411031A
:1012C0002DB73EB7295030400FB6F8943EBF0FBE41
:1012D0002DBFEDB7FEB73196ADB7BEB711967C9274
:1012E000D283C183D482C3821683058397FF03C050
:1012F000909581959F4F908787830E945C1C2DB7A6
:101300003EB7275F3F4F0FB6F8943EBF0FBE2DBFCD
:1013100064E670E080E090E00E94E1278CEE99E0C6
:10132000A0E0B0E0880E991EAA1EBB1E8AE090E0E5
:10133000A0E0B0E0C80ED91EEA1EFB1E98E989168F
:1013400092EB990690E0A90690E0B90609F08ECFDD
:10135000DF91CF911F910F91FF90EF90DF90CF9091
:10136000BF90AF909F908F907F9008952F923F9263
:101370004F925F926F927F928F929F92AF92BF92A5
:10138000CF92DF92EF92FF920F931F93DF93CF9351
:10139000CDB7DEB762970FB6F894DEBF0FBECDBFF4
:1013A0009E838D8378876F837C010027F7FC0095EF
:1013B000102FC801B7012EEF30E040E050E00E944E
:1013C000E82FD62EC72EB82EA92E24EB30E040E011
:1013D00050E00E9450302F5730404040504085EB45
:1013E00092E0622F0E94CC1764E170E080E090E010
:1013F0000E94E1272D2D3C2D4B2D5A2DC901DA01DC
:101400001C012D012D813E813C832B836624772492
:101410004301ED86FE860F87188B2DC18AE792E087
:101420000E941A15ED84FE840F851889E60CF71CBE
:10143000081D191DC201B10124EB30E040E050E06D
:101440000E9450302F5730404040504085EB92E092
:10145000622F0E94CC176091810270918202CB01B1
:101460000A978734910508F0A6C080E090E00E94BA
:101470002B2D20E030E040EA50E40E94922C5B01EA
:101480006C01C801B7010E94E602AA2797FDA0954A
:10149000BA2FBC01CD010E942D2D9B01AC01C601CC
:1014A000B5010E94B92D20E030E048EC52E40E94E2
:1014B000922C0E94FA2C7A8B698BC801B7010E948A
:1014C00011039C011816190634F4B901882777FD19
:1014D0008095982F08C066277727681B790B882787
:1014E00077FD8095982F0E942D2D9B01AC01C601A0
:1014F000B5010E94B92D20E030E048EC52E40E9492
:10150000922C0E94FA2C9B0150912C0340912B03AA
:10151000240F311DF90115E0EE0FFF1F1A95E1F7B9
:10152000220F331FE21BF30BA989BA89EA0FFB1FB5
:10153000E50FF11DEE0FFF1FE653FC4F2EEF30E0DD
:1015400031832083ADB7BEB719970FB6F894BEBFED
:101550000FBEADBFEDB7FEB7319621E011962C93CB
:10156000A6E7B4E0B283A18329893A89348323832F
:10157000768365838B819C81908787830E945C1C26
:10158000ADB7BEB719960FB6F894BEBF0FBEADBFCC
:101590008AE792E00E94851400D00F9221E0EDB717
:1015A000FEB7218384E794E0938382830E945C1CCE
:1015B0000F900F900F9040912B0320912C0330E05F
:1015C000842F90E00296FC0165E0EE0FFF1F6A9504
:1015D000E1F7880F991FE81BF90BE20FF31FE150A9
:1015E000F040EE0FFF1FE653FC4FA0E0B0E0B90162
:1015F0006F527F4F9EE1499FA0011124640F751F18
:10160000660F771F66537C4F8081918122813381E1
:10161000820F931FA80FB91F84819581A80FB91F4E
:10162000FC96E617F70781F7AB2B51F084E892E0C0
:1016300060E00E94CC1788E992E060E00E94CC173D
:1016400064E170E080E090E00E94E127AB81BC8122
:101650001596BC83AB8386EF94E0A0E0B0E0280E43
:10166000391E4A1E5B1E85E090E0A0E0B0E0680EE7
:10167000791E8A1E9B1EAB81BC81EF81F885EA171B
:10168000FB070CF0CBCE7F010027F7FC0095102F55
:10169000C801B7012EEF30E040E050E00E94E82F93
:1016A000D62EC72EB82EA92E24EB30E040E050E015
:1016B0000E9450302F5730404040504085EB92E020
:1016C000622F0E94CC1764E170E080E090E00E94FD
:1016D000E1272D2D3C2D4B2D5A2DC901DA011C017E
:1016E0002D012F8138853A8B298B6624772443017D
:1016F000E986FA860B871C87E8C08AE792E00E9499
:101700001A15E984FA840B851C85E60CF71C081D64
:10171000191DC201B10124EB30E040E050E00E940D
:1017200050302F5730404040504085EB92E0622FC0
:101730000E94CC176091810270918202CB010A97BE
:101740008734910508F0A6C080E090E00E942B2D20
:1017500020E030E040EA50E40E94922C5B016C01F2
:10176000C801B7010E94E602AA2797FDA095BA2FEB
:10177000BC01CD010E942D2D9B01AC01C601B5011C
:101780000E94B92D20E030E048EC52E40E94922CF7
:101790000E94FA2C7A836983C801B7010E94110361
:1017A0009C011816190634F4B901882777FD809535
:1017B000982F08C066277727681B790B882777FD45
:1017C0008095982F0E942D2D9B01AC01C601B5017B
:1017D0000E94B92D20E030E048EC52E40E94922CA7
:1017E0000E94FA2C9B0150912C0340912B03240F53
:1017F000311DF901A5E0EE0FFF1FAA95E1F7220FB9
:10180000331FE21BF30BA981BA81EA0FFB1FE50F1F
:10181000F11DEE0FFF1FE653FC4F2EEF30E031833A
:101820002083ADB7BEB719970FB6F894BEBF0FBEF1
:10183000ADBFEDB7FEB7319621E011962C93A2E52E
:10184000B4E0B283A18329813A81348323837683F0
:10185000658389899A89908787830E945C1CADB7CC
:10186000BEB719960FB6F894BEBF0FBEADBF8AE7DC
:1018700092E00E94851400D00F9221E0EDB7FEB7F0
:10188000218380E594E0938382830E945C1C0F9007
:101890000F900F9064E170E080E090E00E94E127FB
:1018A000A989BA891597BA8BA98B8AE09BEFAFEF0C
:1018B000BFEF280E391E4A1E5B1E8BEF9FEFAFEF66
:1018C000BFEF680E791E8A1E9B1EA989BA89ED8119
:1018D000FE81AE17BF070CF010CF62960FB6F894DA
:1018E000DEBF0FBECDBFCF91DF911F910F91FF9053
:1018F000EF90DF90CF90BF90AF909F908F907F90B0
:101900006F905F904F903F902F900895CF92DF920D
:10191000FF920F931F93CF93DF934CE3C42ED12CF0
:1019200084E892E060E00E94CC1788E992E060E0F1
:101930000E94CC1720E030E00BC01192119201966A
:101940008E319105D1F72F5F3F4F2E31310561F078
:101950002C9DF0012D9DF00D3C9DF00D1124E653C2
:10196000FC4F80E090E0E9CF80E090E064EB70E035
:101970000E94B60980912B03F0902C030F2D10E0EC
:10198000B8016E5F7F4FC0E0D0E040E050E0A82F8C
:10199000B0E00EC081919191C80FD91F2F5F3F4FCA
:1019A00025303105B9F74F5F5F4F43305105B1F036
:1019B000CA018A0F9B1FFC0135E0EE0FFF1F3A950D
:1019C000E1F7880F991FE81BF90BE60FF71FEE0FE1
:1019D000FF1FE653FC4F20E030E0DCCF2097D1F032
:1019E0004F2D50E0475050409D01220F331FCD0135
:1019F00065E0880F991F6A95E1F7821B930B480FEA
:101A0000591F440F551F46535C4F60E070E020E0C3
:101A100030E013C00E94450734C080819181680F77
:101A2000791F3297E417F507C1F72F5F3F4FAF01DA
:101A3000445C5F4F23303105A9F0C9018A0F9B1F19
:101A4000FC01689414F8EE0FFF1F1694E1F7880F5D
:101A5000991FE81BF90BE00FF11FEE0FFF1FEA5370
:101A6000FC4FDBCF6115710519F40E94640709C0B2
:101A70006C177D071CF40E94640752CF0E94450733
:101A80004FCFDF91CF911F910F91FF90DF90CF90BB
:101A900008954F925F926F927F928F929F92AF9232
:101AA000BF92CF92DF92EF92FF920F931F93CF934B
:101AB000DF9320912B03C22EDD24D6011296809154
:101AC0002C03C82FD0E05E010894A108B108CD0115
:101AD000880F991FFD0135E0EE0FFF1F3A95E1F7E2
:101AE000E81BF90BEA0DFB1DEE0FFF1FE653FC4F41
:101AF00060E070E07E018EE1289F80011124AE013C
:101B00004F525F4F400F511F440F551F46535C4FBC
:101B10008281938120813181820F931F680F791F09
:101B200084819581680F791FFC96E417F50781F78A
:101B3000672B09F46DC084E892E060E00E94CC1746
:101B400088E992E060E00E94CC1720E030E04CE3AE
:101B500050E00BC01192119201968E319105D1F790
:101B60002F5F3F4F2E31310561F0249FF001259FFB
:101B7000F00D349FF00D1124E653FC4F80E090E00F
:101B8000E9CF8DE290E067E870E00E94B60982E05C
:101B900090E00E94840540912B0320912C0330E0BB
:101BA000842F90E00296FC0165E0EE0FFF1F6A951E
:101BB000E1F7880F991FE81BF90BE20FF31FEE0FF7
:101BC000FF1FE853FC4FA0E0B0E0B9016F527F4F18
:101BD0008EE1489FA0011124640F751F660F771FC7
:101BE00066537C4F8081918122813381820F931FC4
:101BF000A80FB91F84819581A80FB91FFC96E6171D
:101C0000F70781F7AB2B09F45EC10E94860C5BC11C
:101C10009601295F3F4FC901880F991FF90145E0DF
:101C2000EE0FFF1F4A95E1F7E81BF90BEC0FFD1FC4
:101C3000EE0FFF1FE653FC4F44245524A7014859DB
:101C40005E4F400F511F440F551F46535C4F80811C
:101C50009181480E591EFC96E417F507C1F7C9019A
:101C6000880F991FF90145E0EE0FFF1F4A95E1F734
:101C7000E81BF90BEA0DFB1DEE0FFF1FE653FC4FAF
:101C800066247724A70149595E4F400F511F440F26
:101C9000551F46535C4F80819181680E791EFC96DA
:101CA000E417F507C1F7F90155E0EE0FFF1F5A954C
:101CB000E1F7220F331FE21BF30BEC0FFD1FEE0FBA
:101CC000FF1FE453FC4F88249924970127593E4F66
:101CD000200F311F220F331F26533C4F80819181EB
:101CE000880E991EFC96E217F307C1F7CD01880F05
:101CF000991FFD0165E0EE0FFF1F6A95E1F7E81BF4
:101D0000F90BEC0FFD1FEE0FFF1FEA53FC4FAA2447
:101D1000BB2497012A593E4F200F311F220F331F3A
:101D200026533C4F80819181A80EB91EFC96E21784
:101D3000F307C1F7CD01880F991FFD0125E0EE0FD4
:101D4000FF1F2A95E1F7E81BF90BEC0FFD1FEE0FC3
:101D5000FF1FE253FC4FCC24DD2497012C523F4F50
:101D6000200F311F220F331F26533C4F808191815A
:101D7000C80ED91EFC96E217F307C1F7CD01880FF4
:101D8000991FFD0165E0EE0FFF1F6A95E1F7E81B63
:101D9000F90BEC0FFD1FEE0FFF1FEC53FC4F60E043
:101DA00070E0970121533F4F200F311F220F331F47
:101DB00026533C4F80819181680F791FFC96E21772
:101DC000F307C1F7FD0195E0EE0FFF1F9A95E1F7CC
:101DD000AA0FBB1FEA1BFB0BEC0FFD1FEE0FFF1F33
:101DE000E053FC4F40E050E097012B523F4F200F53
:101DF000311F220F331F26533C4F80819181480FA2
:101E0000591FFC96E217F307C1F7452849F084E80B
:101E100092E060E00E94CC1788E992E06FE741C051
:101E2000672849F084E892E061E00E94CC1788E9D5
:101E300092E06FE336C0AB2849F084E892E063E0BB
:101E40000E94CC1788E992E06FE12BC0672B49F024
:101E500084E892E067E00E94CC1788E992E06FE0A6
:101E600020C0892849F084E892E06FE30E94CC17F3
:101E700088E992E061E015C0CD2849F084E892E05D
:101E80006FE10E94CC1788E992E063E00AC0452B1D
:101E900081F084E892E06FE00E94CC1788E992E03C
:101EA00067E00E94CC1764EF71E080E090E00E9450
:101EB000E12784E892E06CE00E94CC1788E992E088
:101EC0006CE00E94CC17DF91CF911F910F91FF9092
:101ED000EF90DF90CF90BF90AF909F908F907F90CA
:101EE0006F905F904F90089586E691E09093B60BC7
:101EF0008093B50B8091B70B8C7F8093B70B85EBEC
:101F00009BE06FEF0E94E019089588E592E00E943F
:101F1000701589E692E00E9470158AE792E00E94AF
:101F200070158CEA92E064E073E00E94341D89EC45
:101F300092E06CE573E00E94341D82E293E068E871
:101F400073E00E94341D80E392E040E052EC61E0D7
:101F500070E00E94201608950E94850F08950F9347
:101F60001F9380915602909157026FEF0E941A19A9
:101F70000DE710E1C8010E94C620C8010E94DA1BCB
:101F80008BE092E040E052EC61E070E00E942016AD
:101F90001F910F9108951F920F920FB60F92112467
:101FA0002F933F934F935F936F937F938F939F9361
:101FB000AF93BF93EF93FF93E0915002F0915102E2
:101FC000608180E392E00E940317FF91EF91BF913F
:101FD000AF919F918F917F916F915F914F913F91C1
:101FE0002F910F900FBE0F901F9018951F920F9278
:101FF0000FB60F9211242F933F934F935F936F93DC
:102000007F938F939F93AF93BF93EF93FF93E09151
:102010002B02F0912C0260818BE092E00E9403176A
:10202000FF91EF91BF91AF919F918F917F916F91B0
:102030005F914F913F912F910F900FBE0F901F9086
:1020400018951F920F920FB60F9211242F933F9362
:102050004F935F936F937F938F939F93AF93BF93B0
:10206000EF93FF9380E392E00E94D016FF91EF91EF
:10207000BF91AF919F918F917F916F915F914F91A0
:102080003F912F910F900FBE0F901F9018951F92A8
:102090000F920FB60F9211242F933F934F935F939C
:1020A0006F937F938F939F93AF93BF93EF93FF9320
:1020B0008BE092E00E94D016FF91EF91BF91AF911B
:1020C0009F918F917F916F915F914F913F912F9150
:1020D0000F900FBE0F901F90189580E392E00E9422
:1020E000AA1608958BE092E00E94AA160895682F20
:1020F00080E392E00E9459160895682F8BE092E0E9
:102100000E94591608951F920F920FB60F92112434
:102110002F933F934F935F936F937F938F939F93EF
:10212000AF93BF93EF93FF9388EC92E00E94A520BA
:10213000FF91EF91BF91AF919F918F917F916F919F
:102140005F914F913F912F910F900FBE0F901F9075
:1021500018951F920F920FB60F9211242F933F9351
:102160004F935F936F937F938F939F93AF93BF939F
:10217000EF93FF9388EB92E00E94A520FF91EF91EF
:10218000BF91AF919F918F917F916F915F914F918F
:102190003F912F910F900FBE0F901F9018951F9297
:1021A0000F920FB60F9211242F933F934F935F938B
:1021B0006F937F938F939F93AF93BF93EF93FF930F
:1021C00088EA92E00E94A520FF91EF91BF91AF9124
:1021D0009F918F917F916F915F914F913F912F913F
:1021E0000F900FBE0F901F9018951F920F920FB671
:1021F0000F9211242F933F934F935F936F937F938D
:102200008F939F93AF93BF93EF93FF9388E992E0EF
:102210000E94A520FF91EF91BF91AF919F918F9167
:102220007F916F915F914F913F912F910F900FBED2
:102230000F901F9018951F920F920FB60F921124B6
:102240002F933F934F935F936F937F938F939F93BE
:10225000AF93BF93EF93FF9388E892E00E94A5208D
:10226000FF91EF91BF91AF919F918F917F916F916E
:102270005F914F913F912F910F900FBE0F901F9044
:1022800018951F920F920FB60F9211242F933F9320
:102290004F935F936F937F938F939F93AF93BF936E
:1022A000EF93FF9388E792E00E94A520FF91EF91C2
:1022B000BF91AF919F918F917F916F915F914F915E
:1022C0003F912F910F900FBE0F901F9018951F9266
:1022D0000F920FB60F9211242F933F934F935F935A
:1022E0006F937F938F939F93AF93BF93EF93FF93DE
:1022F00088E692E00E94A520FF91EF91BF91AF91F7
:102300009F918F917F916F915F914F913F912F910D
:102310000F900FBE0F901F9018951F920F920FB63F
:102320000F9211242F933F934F935F936F937F935B
:102330008F939F93AF93BF93EF93FF9388E592E0C2
:102340000E94A520FF91EF91BF91AF919F918F9136
:102350007F916F915F914F913F912F910F900FBEA1
:102360000F901F9018951F920F920FB60F92112485
:102370002F933F934F935F936F937F938F939F938D
:10238000AF93BF93EF93FF9388E492E00E94A52060
:10239000FF91EF91BF91AF919F918F917F916F913D
:1023A0005F914F913F912F910F900FBE0F901F9013
:1023B00018951F920F920FB60F9211242F933F93EF
:1023C0004F935F936F937F938F939F93AF93BF933D
:1023D000EF93FF9388E392E00E94A520FF91EF9195
:1023E000BF91AF919F918F917F916F915F914F912D
:1023F0003F912F910F900FBE0F901F9018951F9235
:102400000F920FB60F9211242F933F934F935F9328
:102410006F937F938F939F93AF93BF93EF93FF93AC
:1024200088E292E00E94A520FF91EF91BF91AF91C9
:102430009F918F917F916F915F914F913F912F91DC
:102440000F900FBE0F901F9018951F920F920FB60E
:102450000F9211242F933F934F935F936F937F932A
:102460008F939F93AF93BF93EF93FF9388E192E095
:102470000E94A520FF91EF91BF91AF919F918F9105
:102480007F916F915F914F913F912F910F900FBE70
:102490000F901F9018951F920F920FB60F92112454
:1024A0002F933F934F935F936F937F938F939F935C
:1024B000AF93BF93EF93FF9388E092E00E94A52033
:1024C000FF91EF91BF91AF919F918F917F916F910C
:1024D0005F914F913F912F910F900FBE0F901F90E2
:1024E00018951F920F920FB60F9211242F933F93BE
:1024F0004F935F936F937F938F939F93AF93BF930C
:10250000EF93FF9388EF91E00E94A520FF91EF9158
:10251000BF91AF919F918F917F916F915F914F91FB
:102520003F912F910F900FBE0F901F9018951F9203
:102530000F920FB60F9211242F933F934F935F93F7
:102540006F937F938F939F93AF93BF93EF93FF937B
:1025500088EE91E00E94A520FF91EF91BF91AF918D
:102560009F918F917F916F915F914F913F912F91AB
:102570000F900FBE0F901F9018951F920F920FB6DD
:102580000F9211242F933F934F935F936F937F93F9
:102590008F939F93AF93BF93EF93FF9388ED91E059
:1025A0000E94A520FF91EF91BF91AF919F918F91D4
:1025B0007F916F915F914F913F912F910F900FBE3F
:1025C0000F901F9018951F920F920FB60F92112423
:1025D0002F933F934F935F936F937F938F939F932B
:1025E000AF93BF93EF93FF9384EB93E00E94962009
:1025F000FF91EF91BF91AF919F918F917F916F91DB
:102600005F914F913F912F910F900FBE0F901F90B0
:1026100018951F920F920FB60F9211242F933F938C
:102620004F935F936F937F938F939F93AF93BF93DA
:10263000EF93FF9388E893E00E949620FF91EF913B
:10264000BF91AF919F918F917F916F915F914F91CA
:102650003F912F910F900FBE0F901F9018951F92D2
:102660000F920FB60F9211242F933F934F935F93C6
:102670006F937F938F939F93AF93BF93EF93FF934A
:102680008CE593E00E949620FF91EF91BF91AF916E
:102690009F918F917F916F915F914F913F912F917A
:1026A0000F900FBE0F901F9018951F920F920FB6AC
:1026B0000F9211242F933F934F935F936F937F93C8
:1026C0008F939F93AF93BF93EF93FF9384E093E037
:1026D0000E949620FF91EF91BF91AF919F918F91B2
:1026E0007F916F915F914F913F912F910F900FBE0E
:1026F0000F901F9018951F920F920FB60F921124F2
:102700002F933F934F935F936F937F938F939F93F9
:10271000AF93BF93EF93FF9384EB93E00E947820F5
:10272000FF91EF91BF91AF919F918F917F916F91A9
:102730005F914F913F912F910F900FBE0F901F907F
:1027400018951F920F920FB60F9211242F933F935B
:102750004F935F936F937F938F939F93AF93BF93A9
:10276000EF93FF9388E893E00E947820FF91EF9128
:10277000BF91AF919F918F917F916F915F914F9199
:102780003F912F910F900FBE0F901F9018951F92A1
:102790000F920FB60F9211242F933F934F935F9395
:1027A0006F937F938F939F93AF93BF93EF93FF9319
:1027B0008CE593E00E947820FF91EF91BF91AF915B
:1027C0009F918F917F916F915F914F913F912F9149
:1027D0000F900FBE0F901F9018951F920F920FB67B
:1027E0000F9211242F933F934F935F936F937F9397
:1027F0008F939F93AF93BF93EF93FF9380E393E007
:102800000E947820FF91EF91BF91AF919F918F919E
:102810007F916F915F914F913F912F910F900FBEDC
:102820000F901F9018951F920F920FB60F921124C0
:102830002F933F934F935F936F937F938F939F93C8
:10284000AF93BF93EF93FF9384E093E00E947820CF
:10285000FF91EF91BF91AF919F918F917F916F9178
:102860005F914F913F912F910F900FBE0F901F904E
:1028700018951F920F920FB60F9211242F933F932A
:102880004F935F936F937F938F939F93AF93BF9378
:10289000EF93FF9388ED92E00E947820FF91EF91F3
:1028A000BF91AF919F918F917F916F915F914F9168
:1028B0003F912F910F900FBE0F901F9018950F937F
:1028C0001F938C01FC0181850E94691790E0A0E0B4
:1028D000B0E0BC01CD010E942B2D2BE531EB4FE781
:1028E0005FEB0E941C2E9B01AC01CA01B9012DECCB
:1028F0003CE04DEA54E40E94B92D0E94FF2CF801FF
:10290000708767831F910F91089500D000D00F92B8
:10291000EDB7FEB7319621E0ADB7BEB711962C9357
:1029200028ED34E032832183DC0117968D919C9150
:102930001897948383830E945C1C0F900F900F90D4
:102940000F900F900895FC018FB7F8942585368578
:102950008FBF878580FF03C0309521953F4F30871B
:1029600027830895FC01878580FF03C070956195DA
:102970007F4F2FB7F89485859685861B970B968792
:1029800085872FBF0895FC01208930E0220F331F77
:10299000C90108950F931F938C01FC0181859285D5
:1029A00060E00E941A19F8018385948560E00E9416
:1029B0001A19F8018185928564EE74E1A8010E94DC
:1029C000581B1F910F9108951F93CF93DF93162FDC
:1029D000EA018B859C850E940519181721F08D85C9
:1029E0009E85019603C08D859E8501979E878D8764
:1029F000DF91CF911F91089500D000D00F92EDB7D5
:102A0000FEB7319621E0ADB7BEB711962C9328EEF4
:102A100034E032832183DC0117968D919C911897C5
:102A2000948383830E945C1C0F900F900F900F90F3
:102A30000F900895CF92DF92EF92FF920F931F9322
:102A4000CF93DF93EC01088119818E81882351F4A3
:102A5000F80185919491892B29F084EE0E945522EA
:102A600080E035C00E94FA216B017C01F8013696A6
:102A70006591749161157105E9F080E090E028EEB0
:102A800033E040E050E00E94E82F9B01AC018091D0
:102A90006E0C90916F0C892B29F4CA01B9010E9428
:102AA000032808C06A817B818C819D810E94332824
:102AB000882369F0C8010296FC0125913491CE016A
:102AC000F9010995CA82DB82EC82FD828FEFDF91EA
:102AD000CF911F910F91FF90EF90DF90CF900895CD
:102AE000CF92DF92EF92FF920F931F93CF93DF93DA
:102AF000EC018E818823B1F588819981FC01C59014
:102B0000D490C114D10461F1FC01349665917491A3
:102B10006115710511F180916E0C90916F0C9B0104
:102B200040E050E0892B29F4CA01B9010E94E12755
:102B300014C0CA01B90128EE33E040E050E00E9421
:102B4000E82F7B018C0160E070E080E090E0A8015C
:102B500097010E9433288823B1F3CE01F60109952D
:102B60008FEF8E83DF91CF911F910F91FF90EF90A8
:102B7000DF90CF900895DC0117968D919C91189766
:102B80000296FC0125913491CD01F9010995089532
:102B9000CF93DF93EC018E818E7F8E83EC89FD894C
:102BA000309721F08E899F896FEF0995EF81F88525
:102BB0003896259134912115310519F0CE01F9018E
:102BC0000995DF91CF910895CF93DF93EC018E812A
:102BD00081608E83EF81F8853A9625913491211595
:102BE000310519F0CE01F9010995EC89FD8930977D
:102BF00021F08E899F8960E00995DF91CF9108953A
:102C0000DC0117968D919C911897FC0125913491C8
:102C1000CD01F90109950895DC011796ED91FC911C
:102C200018973696259134919FB7789416968C9183
:102C3000169780FFFBCF9FBFCD01F901099508953D
:102C4000EF92FF920F931F93CF93DF93EC017A01E2
:102C50008B01F8948B89882381F02B853C858D85A9
:102C60009E852817390721F0C90160E00E941A19D2
:102C70008D859E856FEF0E941A198E8181608E83EB
:102C80008E818B7F8E838E818D7F8E838F819885C1
:102C90000496FC0125913491CE01B801A701F901F8
:102CA00009957894DF91CF911F910F91FF90EF904C
:102CB00008950F931F93CF93DF93EC01062F8A8122
:102CC0009B81892B19F419C00E947D188A819B81F0
:102CD0000E9467188823C1F71FB7F8948E8181FD81
:102CE00004C08E8182608E830DC08A819B81602F9B
:102CF0000E9441180EC00E947D188E8180FFFBCF7C
:102D00001FB7F894CE010E94C815CE01602F0E9413
:102D1000BB151FBF802FDF91CF911F910F91089599
:102D2000EF92FF920F931F93CF93DF937C018B0160
:102D3000EA0107C0F80161918F01C7010E9459168D
:102D400021972097B9F7DF91CF911F910F91FF90B5
:102D5000EF900895DF93CF930F92CDB7DEB7FC01CC
:102D600080819181009771F0BE016F5F7F4F0E945B
:102D70001418882319F44FEF5FEF0DC08981482F95
:102D800050E009C02FB7F894418552858FEF9FEF2F
:102D9000928781872FBFCA010F90CF91DF9108954D
:102DA000EF92FF921F93DF93CF930F92CDB7DEB7D1
:102DB0007C01FC01868181FF19C01FB7F894F701DF
:102DC00082819381BE016F5F7F4F0E941418882318
:102DD00029F0C70169810E94BB150DC0C7010E947F
:102DE000E415F70186818D7F868305C01FB7F894AF
:102DF000C7010E94E4151FBF0F90CF91DF911F9173
:102E0000FF90EF900895CF93DF93EC01862F90E031
:102E10009A8789878C819D81892B29F0EC81FD819E
:102E2000862F09950EC088819981009751F00E94E4
:102E30004118882331F48E8184608E8385EF0E944F
:102E40005522DF91CF910895EAE7F0E08081877FF6
:102E5000808380818F7780830895EAE7F0E0908116
:102E60008770987F892B80830895ECE7F0E090814C
:102E70008295880F880F807C9F73982B908308958C
:102E8000982F85FF04C080917B00886003C08091EB
:102E90007B00877F80937B0080917C009F71807E88
:102EA000892B80937C001092680C80917A0080615D
:102EB00080937A0080917A00806480937A00809178
:102EC0007A0086FDFCCF2091780030917900C9010D
:102ED00008950E9440179695879596958795089531
:102EE0001F920F920FB60F9211248F938FEF809342
:102EF000680C8F910F900FBE0F901F901895EF9256
:102F0000FF920F931F93CF93DF9380917A00806895
:102F100080937A0080917A008F7D80937A008091EF
:102F20007A00887F866080937A0080917C008F731E
:102F3000806480937C0080917C008F7D80937C00F6
:102F400080917A00886080937A008FEF8093680C7C
:102F5000789480915502C82FD0E0219700E010E0CE
:102F60007E010FC0C701801B910B089724F09E01C2
:102F7000285E822F01C08C2F0E94401721970F5F7F
:102F80001F4F3FEFCF3FD30769F7DF91CF911F91DD
:102F90000F91FF90EF9008951F93CF93DF93EC0173
:102FA000162F61380CF411E8E881F981309779F037
:102FB000259134912115310551F08B8181FD02C09D
:102FC000612F02C0612F6195CE01F90109951A8325
:102FD000DF91CF911F910895DC01962F9170139688
:102FE0008C9113978E7F892B13968C9313978D91C9
:102FF0009C911197009751F0FC01329625913491E4
:103000002115310519F0CD01F90109950895FC014B
:103010008FB7F8947183608353834283158214823F
:10302000178216828FBF0895CF93DF93EC01DB01E7
:103030002FB7F894009701F18A819B81892BE1F0E9
:103040008C819D81892BC1F0E881F9818E819F81DE
:10305000E80FF91F80818C938E819F816A817B812B
:1030600001960E9407309F838E838C819D810197FA
:103070009D838C838FEF01C080E02FBFDF91CF91C4
:1030800008951F93CF93DF93EC01462F1FB7F89459
:103090002C813D816A817B812617370710F080E003
:1030A00011C08E819F81820F931F0E940730E8819B
:1030B000F981E80FF91F40838C819D8101969D83E2
:1030C0008C838FEF1FBFDF91CF911F910895FC017B
:1030D0008FB7F8948FBF40E024813581828193813E
:1030E0002817390709F441E0842F0895FC018FB7B0
:1030F000F894158214828FBF08958FB778940000DA
:103100000000000000000000000000008FBF0895D4
:103110009C01FC01A591B4912E5F3F4FF901949160
:103120008C91892B8C9308959C01FC01A591B491FD
:103130002E5F3F4FF90194918C91892309F08FEF15
:1031400008959C01FC01A591B4912E5F3F4FF901B8
:1031500094918C91909589238C9308956F927F928E
:103160008F929F92AF92BF92CF92DF92EF92FF9297
:103170000F931F930E94E0020E94740F0E947B2510
:103180000E94AF0F0E94AC0F0E940D260E94FA21F0
:103190005B016C010E94E1027B018C0166247724B3
:1031A00043018FB778940000000000000000000089
:1031B000000000008FBFE114F1040105110559F46E
:1031C00012C08FB7789400000000000000000000DB
:1031D000000000008FBFC601B501A80197010E9441
:1031E0003328882371F30E94FA215B016C01089453
:1031F000611C711C811C911CC401B301A6019501C5
:103200000E9470057B018C01CCCF9C01009781F05E
:10321000FC01859194910496FC01A591B4912E5FD7
:103220003F4FF90194918C91892311F08FEF08950C
:1032300080E00895CF93DF939C010097F9F0FC01A3
:1032400045915491CA010296FC01A591B491FA01ED
:10325000C591D4912E5F3F4FF90124913FB7F89467
:103260008C91922F909589238C93888189238883D0
:10327000662319F08881822B88833FBFDF91CF912D
:1032800008959C01009789F0FC0185919491029624
:10329000FC01A591B4912E5F3F4FF90194912FB796
:1032A000F8948C91892B8C932FBF08959C010097E3
:1032B00081F0FC01859194910296FC01A591B49155
:1032C0002E5F3F4FF90194918C91892311F08FEF7C
:1032D000089580E00895CF93DF939C010097E1F07B
:1032E000FC0185919491FC01A591B4910296FC0199
:1032F000C591D4912E5F3F4FF9012491888182239B
:1033000041F09FB7F8948C9182278C939FBF000067
:1033100003C087EF0E945522DF91CF910895CF938C
:10332000DF939C010097E9F0FC0185919491FC01E9
:10333000A591B4910296FC01C591D4912E5F3F4FA7
:10334000F90124918881822349F09FB7F8948C91E8
:10335000209582238C939FBF000003C087EF0E94BB
:103360005522DF91CF910895CF93DF939C01009771
:10337000E1F0FC0185919491FC01A591B491029634
:10338000FC01C591D4912E5F3F4FF90124918881B2
:10339000822341F09FB7F8948C91822B8C939FBF2E
:1033A000000003C087EF0E945522DF91CF9108955E
:1033B000662319F00E94B41908950E948F19089588
:1033C0001F93CF93DF93EC01162F288139812115AC
:1033D0003105B1F08A8181FD06C0C9010E94411901
:1033E0008A8182608A838A8180FD05C080E0112302
:1033F00009F481E0182F88819981612F0E94D819E2
:10340000DF91CF911F910895CF93DF93EC018091CD
:103410000902A82FB0E068EA71E020E030E00DC0BA
:10342000FB01459154914115510519F04C175D0769
:1034300049F02F5F3F4F6E5F7F4F2A173B0784F3A2
:103440002FEF3FEFC901DF91CF9108951F93CF93E5
:10345000DF93EC011FB7F89480910902A82FB0E028
:1034600068EA71E040E050E00DC0FB012591349125
:103470002115310519F02C173D0741F04F5F5F4FC3
:103480006E5F7F4F4A175B0784F343C0FA01EE0F6C
:10349000FF1FEE0FFF1FE40FF51FE051F44F1182E5
:1034A0001082138212824830510574F420916B000F
:1034B00081E090E002C0880F991F4A95E2F780955D
:1034C000822380936B0025C04031510584F4209104
:1034D0006C004770507081E090E002C0880F991F27
:1034E0004A95E2F78095822380936C0012C04831A0
:1034F00051057CF420916D004770507081E090E0A0
:1035000002C0880F991F4A95E2F780958223809325
:103510006D001FBFDF91CF911F910895BF92CF9291
:10352000DF92EF92FF920F931F93CF93DF93B62E0C
:103530009C017C01EE0CFF1C88EA91E0E80EF91E6C
:10354000E901CC0FDD1FCC0FDD1FC20FD31FC0510F
:10355000D44FCC24DD24B0FE1BC0F701059114919B
:1035600001151105A9F088819981892B89F0C8017D
:103570000E940519682F8C81681751F0E881F98144
:103580004A815B81C8010995C8010E9405198C8395
:103590000894C11CD11C82E090E0E80EF91E25962B
:1035A00098E0C916D10411F0B694D5CFDF91CF9130
:1035B0001F910F91FF90EF90DF90CF90BF900895F3
:1035C0001F920F920FB60F9211242F933F934F9398
:1035D0005F936F937F938F939F93AF93BF93EF937B
:1035E000FF9360916D0080E190E00E948E1AFF9140
:1035F000EF91BF91AF919F918F917F916F915F916B
:103600004F913F912F910F900FBE0F901F901895E3
:103610001F920F920FB60F9211242F933F934F9347
:103620005F936F937F938F939F93AF93BF93EF932A
:10363000FF9360916C0088E090E00E948E1AFF91E9
:10364000EF91BF91AF919F918F917F916F915F911A
:103650004F913F912F910F900FBE0F901F90189593
:103660001F920F920FB60F9211242F933F934F93F7
:103670005F936F937F938F939F93AF93BF93EF93DA
:10368000FF9360916B0080E090E00E948E1AFF91A2
:10369000EF91BF91AF919F918F917F916F915F91CA
:1036A0004F913F912F910F900FBE0F901F90189543
:1036B000EF92FF920F931F93CF93DF937C01F894C7
:1036C0008091090290E0A8EAB1E000E010E00CC0AF
:1036D000FD01259134912115310519F02E153F0575
:1036E00039F00F5F1F4F1296081719078CF35DC052
:1036F000E801CC0FDD1FCC0FDD1FC00FD11FC05163
:10370000D44F88819981892B11F08BEE4FC079833A
:1037100068835B834A83C7010E9405198C83083044
:10372000110584F480916B0021E030E002C0220F8B
:10373000331F0A95E2F7822B80936B00809168001B
:10374000816029C00031110594F480916C000770EC
:10375000107021E030E002C0220F331F0A95E2F71B
:10376000822B80936C0080916800826014C00831C5
:1037700011059CF480916D000770107021E030E01D
:1037800002C0220F331F0A95E2F7822B80936D004F
:10379000809168008460809368007894DF91CF9175
:1037A0001F910F91FF90EF9008958CEE0E9455228B
:1037B000F4CF08952091C7033091C8039093C803B4
:1037C0008093C703C90108951F93182F8A3031F4DD
:1037D000E091C703F091C8038DE00995E091C7031C
:1037E000F091C803812F09951F9108951F93CF93DE
:1037F000DF93182FEB0104C0812F0E94E41B219757
:103800002097D1F7DF91CF911F910895CF93DF9348
:10381000EC01009721F406C021960E94E41B8881E8
:103820008823D1F7DF91CF910895CF93DF93EC01F7
:10383000009719F407C00E94E41BFE0121968491B1
:103840008823C9F7DF91CF9108958AE00E94E41B95
:103850000895E82FF0E0EF70F070ED50FB4FE49129
:103860008E2F0E94E41B08951F93182F82958F704E
:103870000E94291C812F0E94291C1F9108951F93CB
:10388000182F892F0E94341C812F0E94341C1F91F5
:103890000895EF92FF920F931F937B018C01C80153
:1038A000AA27BB270E943F1CC7010E943F1C1F91F3
:1038B0000F91FF90EF9008957F928F929F92AF9219
:1038C000BF92CF92DF92EF92FF920F931F93DF93FD
:1038D000CF930F92CDB7DEB77988CA88DB8864E1D1
:1038E000E62EF12CEC0EFD1E17C0882389F480E033
:1038F00090E00F90CF91DF911F910F91FF90EF908B
:10390000DF90CF90BF90AF909F908F907F90089561
:103910000E94E41B5701750196012F5F3F4F7720EE
:1039200021F0F6016901849103C0F60180816901EB
:103930008532D9F62F5F3F4F772021F0F6016901DC
:10394000949103C0F601908169019337A1F09437F7
:1039500038F49336D9F0943641F0953209F525C004
:10396000953719F09837E1F422C000E117E25AE0E8
:10397000852E912C21C042E0A42EB12CAE0CBF1C90
:10398000F701808191810E94061CC5CF32E0A32EF1
:10399000B12CAE0CBF1CF70180810E94E41BBBCF91
:1039A00085E299830E94E41B9981892FB1CF00E0C1
:1039B00010E120E1822E912C82E0A82EB12CAE0CD9
:1039C000BF1CF701E080F180943651F4F7FE14C07B
:1039D000F094E194F108F3948DE20E94E41B0CC092
:1039E000953769F409C0C8016AE070E00E940730A9
:1039F0008B016230710518F0E016F106A0F3C701E3
:103A0000B8010E940730862F0E94291CC701B80107
:103A10000E9407307C01C801B4010E9407308B016D
:103A20006115710561F777CFCF93DF93EC01FB014F
:103A300092818581981788F4892F90E0880F991FCB
:103A400020813181280F391FF901A591B491169673
:103A50008D919C9117970E948F19CE0103960E9419
:103A6000A118DF91CF9108952F923F924F925F92CC
:103A70006F927F928F929F92AF92BF92CF92DF927E
:103A8000EF92FF920F931F93CF93DF935C01EB01B3
:103A90009B01295E3F4FF90165907490F9012590D3
:103AA00034902696FE0184912697882309F4B7C0A6
:103AB0002896FE0184912897823008F4B0C0CE0188
:103AC0000496FC01A591B4918C9190E08770907060
:103AD000892B09F4A8C0FE01A591B4918D909C900A
:103AE00011971E968C91882319F082EF0E9455221F
:103AF000D50115968C91159712968C9364E170E020
:103B000080E090E0A4010E947A1FF501778366832C
:103B100060707070611571058105910519F086EE70
:103B20000E945522D50115968C91E82EFF24089409
:103B3000E108F1086701CC0CDD1C34E0432E35E0D0
:103B4000532E35C0D501ED91FC911197EC0DFD1D63
:103B500005911491F80151824082B582A482169693
:103B60008D919C911797938B828B868197810E9470
:103B70004119D80116968D919C9117970E948F1923
:103B8000F8016085718542855385C8010E94FF1E3A
:103B9000C8016FEF0E94EC17C80160E00E94CC17CB
:103BA0000894E108F1088EEF9FEFC80ED91E9FEF31
:103BB000E9169FEFF90631F60E94C3208823D1F55C
:103BC0008101005F1F4FDFB6F894862D972D0E946C
:103BD0002D23D50116964D915C911797480F591FCB
:103BE000862D972D60E57EE195010E94A625C801EE
:103BF0000E942D23F50146815781480F591FC801A6
:103C000064E17DE195010E94A625C80103960E940A
:103C1000A118CE01B4010E943C24DFBE0BC089EF85
:103C20000E94552207C0CE0169E170E00E94B523D1
:103C30004C015ECFDF91CF911F910F91FF90EF90DC
:103C4000DF90CF90BF90AF909F908F907F906F90BC
:103C50005F904F903F902F9008950F931F93CF93B5
:103C6000DF93EC012C853D850E851F85862F9927D6
:103C700087FD909561E87FEF4FE750E00E949E2A14
:103C80009C01888999892817390729F08FB7F894FA
:103C9000398B288B8FBFDF91CF911F910F910895A2
:103CA0008F929F92AF92BF92CF92DF92EF92FF924C
:103CB0000F931F93CF93DF935C01EB018C010E5F99
:103CC0001F4FF80194918CE2989F7001112488EDA8
:103CD00092E0E80EF91EF70177968591949170E1D4
:103CE000872E912C880E991E63E1C62ED12CC80E0A
:103CF000D91E02C00E947D18C6010E949418882314
:103D0000C9F78885882321F08A818F5F8A8310C054
:103D10008FEF8887F80184912CE2829FC0011124E3
:103D200088529D4F0E942620BC01C5010E94F822A6
:103D30009A818D81981709F43CC0891718F41A826A
:103D40001C821B828A8190E0880F991FE881F9818B
:103D5000E80FF91F05911491C7010E9426207C01EC
:103D6000F801838180FF04C0868197810E94B41985
:103D7000F801608971896E0D7F1DC4010E94F822CF
:103D8000C40108960E948818C6010E948818F8018C
:103D9000668577856E0D7F1DC5010E94F8228B8197
:103DA0009C81F80126853785820F931F9C838B8326
:103DB00019C0C6010E94A1188B819C816E817F81F0
:103DC0006817790718F4C4E6D0E003C0EB01C81BFC
:103DD000D90BC5010E942D23C80FD91FC501BE01F3
:103DE0000E94F822DF91CF911F910F91FF90EF90E9
:103DF000DF90CF90BF90AF909F908F9008959F924B
:103E0000AF92BF92CF92DF92EF92FF920F931F93E8
:103E1000CF93DF938C017B01EA01FC0171876087FE
:103E20005387428784819581892B09F457C09FB6B7
:103E3000F894F8018289938968EE73E00E94073054
:103E40005B01CC24DD24B7016C1B7D0B80E090E08E
:103E5000A60195010E94E82F24E130E040E050E007
:103E60000E942E30C901DA019C01AD01DA01C901BD
:103E7000807090700097A105B10539F086EE0E9420
:103E800055222FEF3FEF40E050E0F80135872487BF
:103E9000CE0DDF1DBE0180E090E0A60195010E94DD
:103EA000E82F24E130E040E050E00E942E30C901CC
:103EB000DA019C01AD01DA01C901807090700097B0
:103EC000A105B10539F086EE0E9455222FEF3FEF94
:103ED00040E050E0F801378726879FBEDF91CF9101
:103EE0001F910F91FF90EF90DF90CF90BF90AF9018
:103EF0009F900895EF92FF920F931F937A01209164
:103F000004023091050240E050E00E94E82F00E0FA
:103F100010E0A80197010E942E30CA01B9011F913B
:103F20000F91FF90EF900895613023E0720720E039
:103F3000820720E0920748F423E030E040E050E0C0
:103F40000E942E302A95F1F708959B01AC0182E082
:103F500056954795379527958A95D1F7DA01C90186
:103F6000203060E0360761E0460760E0560720F049
:103F70008FEF9FEFA0E0B0E0FC013197F1F7A0E0F8
:103F8000B0E0281B390B4A0B5B0B41F70895FC018D
:103F90003796E491EE2321F426E088E095E003C013
:103FA00028E084E195E0422F4150242F332727FD5C
:103FB0003095220F331F280F391F0EC0F90185914C
:103FC0009491225030408617970729F4242F3327E5
:103FD00027FD309505C0415047FFF0CF2FEF3FEF51
:103FE000C9010895FC01CB0124E06130720710F093
:103FF00080E094E0AC01009711F441E050E0379686
:104000007491772321F4E8E0F5E086E003C0E4E171
:10401000F5E088E0682F6150262F332727FD309583
:10402000220F331F2E0F3F1F09C0F9018591949174
:10403000225030408417950721F0615067FFF5CF7B
:1040400002C0CA0108954F5F5F4FDBCF9C0102960B
:10405000FC01A591B4912A5F3F4FF9018491882317
:1040600019F02D913C9103C08C91282F30E0C901AB
:1040700008959C010B96FC01A591B491235F3F4FDD
:10408000F901249170E0022E02C0660F771F0A9496
:10409000E2F781E090E002C0880F991F2A95E2F7CD
:1040A000282F220F282B9C91822F862320952923AD
:1040B000822B8C9308959C010B96FC01A591B491E1
:1040C000235F3F4FF901449121E030E0042E02C00C
:1040D000220F331F0A94E2F7822F880F822B2C9134
:1040E000822390E002C0959587954A95E2F708955E
:1040F000CF93DF93AC01FC01C591D4918A819B8160
:10410000AC81BD810196A11DB11D8A839B83AC83C7
:10411000BD832E813F812115310529F06885798580
:10412000CA01F9010995DF91CF910895FC01A5918C
:10413000B4911A96ED91FC911B97309729F01C963B
:104140006D917C911D9709950895CF93DF93AC01F4
:10415000FC01C591D4918C819D81AE81BF81019676
:10416000A11DB11D8C839D83AE83BF8328813981BE
:104170002115310529F06A817B81CA01F901099570
:10418000DF91CF9108958091690C089590936D0C03
:1041900080936C0C08958F929F92AF92BF92CF92B2
:1041A000DF92EF92FF920F931F93CF93DF93982E9E
:1041B000892E5A016B01C82FD92F8981882341F498
:1041C0008881181614F4888102C0888181958983BA
:1041D000888187FD08C000E2E02E01EAF02E07E0AA
:1041E000002F112D07C010E9E12E10EDF12E13E084
:1041F000012F112D8A8180FF1DC08091B50B9091F8
:10420000B60B0E945619882329F085EB9BE060E0ED
:104210000E94E0198981815089838981882339F43A
:10422000B0E8EB2EB4E8FB2EBEE10B2F112D8A81F6
:104230008E7F0FC08091B50B9091B60B0E945619DE
:10424000882329F085EB9BE06FEF0E94E0198A81BB
:1042500081608A838BEC90E2692D782DA60195010F
:104260000E94EB2BDF91CF911F910F91FF90EF9068
:10427000DF90CF90BF90AF909F908F9008954F9216
:104280005F926F927F929F92AF92BF92CF92DF9296
:10429000EF92FF920F931F93CF93DF93DC013B01CB
:1042A0002A01FC01C591D4918E85843039F0893082
:1042B00029F08B3019F08F3009F039C0FD01779665
:1042C00065917491FB01459154919FB6F89432E049
:1042D000A32EB12CAA0EBB1EF501C591D49126E0E8
:1042E000C22ED12CCA0EDB1EF6018491882319F050
:1042F0002881398103C08881282F30E0FA01E480C9
:10430000F58006811781F501A591B491F60184919C
:10431000882319F0CD91DC9103C08C91C82FD0E097
:10432000C217D30708F43BC0CB01089634C0FD0187
:10433000459154919FB6F89492E0A92EB12CAA0E03
:10434000BB1EF501C591D49186E0C82ED12CCA0EB2
:10435000DB1EF6018491882319F02881398103C07E
:104360008881282F30E0FA01E280F38004811581F2
:10437000F501C591D491F6018491882321F009902B
:10438000D881C02D03C08881C82FD0E0C217D307C1
:1043900030F0CD014C960E949418882391F0089437
:1043A000E11CF11C011D111DF501A591B491F6014F
:1043B0008491882319F0CD91DC9103C08C91C82F92
:1043C000D0E09FBEF301E082F18202831383F20109
:1043D000D183C083DF91CF911F910F91FF90EF9018
:1043E000DF90CF90BF90AF909F907F906F905F9045
:1043F0004F900895EF92FF920F931F93DF93CF9307
:1044000000D000D000D0CDB7DEB780916E0C909177
:104410006F0CBE016D5F7F4FAE014F5F5F4F0E941B
:104420003F216B817C818D819E812091B80B3091E1
:10443000B90B4091BA0B5091BB0B0E94E82F6B83D4
:104440007C838D839E8380916E0C90916F0C0E9473
:104450005A237C0169817A8180E090E02091B80B39
:104460003091B90B4091BA0B5091BB0B0E94E82FD1
:1044700000E010E0A80197010E942E308B819C8102
:10448000AD81BE81280F391F4A1F5B1FB901CA01C8
:1044900026960FB6F894DEBF0FBECDBFCF91DF9149
:1044A0001F910F91FF90EF900895DF92EF92FF928E
:1044B0000F931F93D82E8091690C882309F05BC05D
:1044C000D092690C8091B50B9091B60B892B99F025
:1044D00080916E0C90916F0C892B69F00E94FA21EB
:1044E0009B01AC018BEC90E269E67CE0EE24FF24BA
:1044F00087010E94EB2B80916C0C90916D0C0097C2
:10450000D1F10E94DA1B8C012D2D332727FD309528
:10451000D7FE16C000D000D00F92EDB7FEB731968F
:1045200081E0ADB7BEB711968C9389E495E0928394
:10453000818388279927821B930B9483838311C0DF
:1045400000D000D00F92EDB7FEB7319681E0ADB745
:10455000BEB711968C938AE395E09283818334836E
:1045600023830E945C1C0F900F900F900F900F9070
:10457000C8010E94DA1B1F910F91FF90EF90DF900E
:104580000895CF93DF93EC012296FE019491229738
:104590008CE2989FF0011124E052FD4FE491EE234C
:1045A00009F1CE0103960E94A118CE010B96FC01E1
:1045B000A591B4912D96FE0184912D9721E030E0D4
:1045C00002C0220F331F8A95E2F79C91822F880F39
:1045D000822B809589238C93FE01A591B4911D9225
:1045E0001C9203C08DEF0E945522DF91CF91089558
:1045F000CF93DF939C012E5F3F4FF90184912250AE
:1046000030409CE2899FA001112448525D4F485FD1
:104610005F4FFA018491485050408823C1F0C9018E
:104620000696FC01C591D491FA013696E491EE23E9
:1046300019F0798368830EC06F3F710531F028F05F
:104640008EEF0E9455226FEF70E0688303C08DEFFC
:104650000E945522DF91CF9108959C012E5F3F4F1C
:10466000F9018491225030409CE2899FA0011124DD
:1046700048525D4F485F5F4FFA0184914850504067
:10468000882389F0C9010696FC01A591B491FA012D
:104690003696E491EE2319F02D913C9109C08C914E
:1046A000282F30E005C08DEF0E9455222FEF30E01B
:1046B000C9010895CF93DF93EC010496FC01A59105
:1046C000B4918C9190E087709070892B09F441C06F
:1046D000FE01A591B4911E968C91873039F18830F6
:1046E00070F4833019F1843028F48130C9F08230BD
:1046F000D0F413C08530A1F08630A8F41AC08B30F6
:10470000C1F08C3018F48930E1F413C08E30C9F058
:104710008F3079F08C30E9F414C02FEF3FEF1BC0DD
:104720002FEF30E018C02FEF31E015C02FEF33E04E
:1047300012C0FE017796859194910E942D239C01D1
:104740000AC0CE014F96FC01A591B4912D913C91E8
:1047500002C020E030E02696FE018491882309F40F
:104760003070C901DF91CF9108953F924F925F92CF
:104770006F927F928F929F92AF92BF92CF92DF9271
:10478000EF92FF920F931F93CF93DF93EC01269646
:10479000FE0184912697882331F4FFEFAF2EB12CD0
:1047A000C12CD12C06C0EFEFAE2EEFEFBE2EC12CE8
:1047B000D12C279680E090E02091040230910502F0
:1047C00040E050E00E94E82F3B014C0101E010E086
:1047D00061E0462E512CEE24FF24FE01349033205C
:1047E00021F468E075E086E003C064E175E088E0EC
:1047F000482F4150242F332727FD3095220F331F98
:10480000260F371F09C0F90185919491225030403D
:104810008017910721F0415047FFF5CF0DC0980157
:1048200040E050E0C401B3010E942E30A216B3064E
:10483000C406D50670F42801000F111F0894E11C6E
:10484000F11CFBE0EF16F10451F688EF0E945522AF
:104850008201C801DF91CF911F910F91FF90EF90DE
:10486000DF90CF90BF90AF909F908F907F906F9090
:104870005F904F903F9008951F93CF93DF93AC01CB
:10488000EB01FC013496A591B4911FB7F894495FF0
:104890005F4FFA01849147505040882321F4E8E0AB
:1048A000F5E086E003C0E4E1F5E088E0682F6150C0
:1048B000262F332727FD3095220F331F2E0F3F1F42
:1048C00016C0F90185919491225030408C179D07B4
:1048D00069F4FA0125913491F901D183C0838C9157
:1048E000887F8C938C91862B8C9304C0615067FFDA
:1048F000E8CF05C01FBFDF91CF911F9108958AEFC8
:104900000E945522F7CF7F928F929F92AF92BF92D3
:10491000CF92DF92EF92FF920F931F93CF93DF938B
:10492000EC01FC01329605911491FC01C590D490E4
:104930007FB6F8940496FC01A591B4918C91887F80
:104940008C9399E1892E912C8C0E9D1EC4010E949E
:10495000A118F8011082F6011282138214821582C6
:1049600060817181CE010E943C242896FE01E49072
:104970002F96FF2400E010E0FE01A590B490679709
:1049800009C0C501800F911F08960E948818F394F2
:10499000005F1F4FFE14A8F3CE014C960E948818AA
:1049A000F60186819781892B19F0C4010E9488182D
:1049B0007FBEDF91CF911F910F91FF90EF90DF901D
:1049C000CF90BF90AF909F908F907F900895DF928F
:1049D000EF92FF920F931F93CF93DF938C01662387
:1049E00041F0FC01A591B4911E968C91861709F4B3
:1049F0007AC0F80139962591349181E090E0062E35
:104A000002C0880F991F0A94E2F782239323892B0F
:104A100009F466C0F801A591B4911E966C93FFED60
:104A20002F3F3F0711F4D62E13C088E823333807F1
:104A300031F4E62FF0E0EC5DFA4FD49009C0233357
:104A4000310509F04DC0E62FF0E0EC5CFA4FD49050
:104A5000EFEFDE1609F444C0C8010496FC01A591ED
:104A6000B4918C91887F8C93E8012B96EE24FF24DF
:104A7000E881F98185919491892B99F0D0FE04C049
:104A8000CE010E94881803C0CE010E94A11808948C
:104A9000E11CF11CF4E0EF16F10419F0D694239612
:104AA000E7CF085F1F4FF801F490FA94015F1F4FA2
:104AB000F801C591D491075110400CC08F2D90E0A2
:104AC00024E0880F991F2A95E1F78C0F9D1F0E9403
:104AD000C122FA94F7FEF2CFC8010E94832403C0DA
:104AE00086EF0E945522DF91CF911F910F91FF9089
:104AF000EF90DF9008950F931F93CF93DF93F89477
:104B000000910A02C8EDD2E010E018C0CE0160E0CA
:104B100070E040E050E00E945C29CE010E948F28A6
:104B2000CE0160E00E94E724CE010496FC01A5912D
:104B3000B4918C91887F8C931F5FAC96101730F3E3
:104B40007894DF91CF911F910F9108956F927F928A
:104B50008F929F92AF92BF92CF92DF92EF92FF928D
:104B60000F931F93CF93DF937C015B014A013901BF
:104B700022E030E0E20EF31EF70184912EEF3FEFCA
:104B8000E20EF31E9CE2899FE0011124C852DD4F22
:104B90002896FE0184912897882369F1F701C59032
:104BA000D4906115710541F0F60180819181892BC6
:104BB00019F08BEF0E945522CE01FE01A591B49110
:104BC0006D917C910E943C2487010D5F1F4FC801AD
:104BD0000E94A118C701B4010E94F822F601B18217
:104BE000A08273826282C70108960E948818C80159
:104BF0000E94881803C08DEF0E945522DF91CF914B
:104C00001F910F91FF90EF90DF90CF90BF90AF90EA
:104C10009F908F907F906F9008952F923F924F9228
:104C20005F926F927F928F929F92AF92BF92CF923C
:104C3000DF92EF92FF920F931F93DF93CF93CDB745
:104C4000DEB72E970FB6F894DEBF0FBECDBF109221
:104C50006F0C10926E0CB0900A02BA94809104020C
:104C6000909105029C0140E050E02D833E834F83EC
:104C70005887CA01B9012CE030E040E050E00E94C2
:104C8000E82F2B013C018CE23B2D3802100111244E
:104C900048ED52E0240E351E1C861B861A861986A6
:104CA0008824992451C0C1010496FC01A591B491B6
:104CB0008C9190E087709070892B09F040C0F8C00B
:104CC00028E030E0220E331EF101849128EF3FEFFF
:104CD000220E331E823098F14B855C854F3F510583
:104CE00069F060F086E090E0280E391EF1018491B1
:104CF0002AEF3FEF220E331E882309F1C1016CE039
:104D000070E00E94B5236C019C0140E050E0C301BB
:104D1000B2010E942E3079018A018114910451F070
:104D20004B855C85CA01A0E0B0E08E159F05A00709
:104D3000B10728F4FC86EB86DA86C9864101BA946D
:104D400084ED9FEF280E391EB7FEADCF811491047C
:104D500009F4A5C0A6E0B0E08A0E9B1EF401849180
:104D60002AEF3FEF820E931E882331F45FEFA52ECA
:104D7000B12CC12CD12C06C04FEFA42E4FEFB42E76
:104D8000C12CD12CA985BA85CD01A0E0B0E08983E2
:104D90009A83AB83BC836D817E818F8198852981C5
:104DA0003A814B815C810E942E3079018A010894FE
:104DB000E11CF11C011D111D3CE0632E712CEB85E3
:104DC000FC851F0144245524D201C1018E0D9F1D75
:104DD000A01FB11F8A159B05AC05BD0580F5930189
:104DE0002F5F3F4F3E872D87C401B9010E94B52335
:104DF00049855A858417950711F5AD85BE85BD0196
:104E000080E090E02D813E814F8158850E94E82FFF
:104E100029813A814B815C810E942E30C901DA01DF
:104E2000A816B906CA06DB0650F0281639064A0647
:104E30005B0628F43C872B876D847E84C0CF9092DC
:104E40006F0C80926E0CB30180E090E028EE33E0AE
:104E500040E050E00E94E82F6093B80B7093B90BCC
:104E60008093BA0B9093BB0BC40169857A850E942D
:104E70003C2480916E0C90916F0C64E00E94E724BA
:104E8000E0916E0CF0916F0C7796859194916BE5A3
:104E900079E24B855C8520E030E00E94A625809178
:104EA000690C882361F01092690C0E94552207C09A
:104EB000F10139968591949184FD02CF40CF2E96D1
:104EC0000FB6F894DEBF0FBECDBFCF91DF911F911B
:104ED0000F91FF90EF90DF90CF90BF90AF909F9099
:104EE0008F907F906F905F904F903F902F9008959C
:104EF0008F929F92AF92BF92CF92DF92EF92FF92EA
:104F00000F931F93CF93DF936B017C0149015A01EB
:104F1000E8010E94FA216C197D098E099F09861605
:104F20009706A806B90650F4681979098A099B09F9
:104F3000688379838A839B838FEF09C0861A970AD7
:104F4000A80AB90A88829982AA82BB8280E0DF918E
:104F5000CF911F910F91FF90EF90DF90CF90BF9076
:104F6000AF909F908F900895AF92BF92CF92DF92B3
:104F7000EF92FF920F931F935B016C010E94FA2145
:104F80007B018C0101C000000E94FA216E197F098B
:104F9000800B910B6A157B058C059D05A0F31F9175
:104FA0000F91FF90EF90DF90CF90BF90AF9008955A
:104FB00028EE33E040E050E00E94E82F0E94B42742
:104FC0000895EF92FF920F931F937B018C018091C4
:104FD0006E0C90916F0C892B29F0C801B7010E94CB
:104FE000D8270CC0209104023091050240E050E027
:104FF000C801B7010E94E82F0E94941F1F910F91D2
:10500000FF90EF900895EF92FF920F931F937B0113
:105010008C0180916E0C90916F0C892B59F085E674
:10502000E816F1040105110528F0C801B7010E9436
:10503000B42714C0209104023091050240E050E0F2
:10504000C801B7010E94E82F28EE33E040E050E0AD
:105050000E942E30CA01B9010E94941F1F910F9126
:10506000FF90EF900895AF92BF92CF92DF92EF92B0
:10507000FF920F931F937B018C0159016A010E94DB
:10508000FA216E197F09800B910B6A157B058C053F
:105090009D0510F480E001C08FEF1F910F91FF90EC
:1050A000EF90DF90CF90BF90AF9008950F931F9334
:1050B000DF93CF9300D000D000D0CDB7DEB78C0106
:1050C000BE016D5F7F4FAE014F5F5F4F0E943F217A
:1050D000C8010E945A23A0E0B0E00196A11DB11DB5
:1050E0002B813C814D815E81BC01CD010E94E82F66
:1050F0009B01AC0189819A81A0E0B0E0280F391FA3
:105100004A1F5B1FB901CA0126960FB6F894DEBF8D
:105110000FBECDBFCF91DF911F910F910895EF92F8
:10512000FF920F931F938C01FC01E590F490819600
:105130000E94A118C80184960E948818F70113865E
:1051400012861F910F91FF90EF900895AF92BF923A
:10515000CF92DF92EF92FF920F931F93CF93DF9343
:105160008C017B016A01B22EFC01C591D4918A8524
:105170009B85892B19F08AEE0E945522AFB6F894D0
:10518000FB86EA86DD86CC86C8018796BB2019F0AF
:105190000E94881802C00E94A118C80184960E942B
:1051A0008818C80181960E948818AFBEDF91CF9100
:1051B0001F910F91FF90EF90DF90CF90BF90AF9035
:1051C00008959C01FC01A591B4918D919C91892B2E
:1051D00011F52E5F3F4FF9019491225030408CE23F
:1051E000989FB001112468527D4FAB01495E5F4F1B
:1051F000FA01859194912817390779F4FB01A5915B
:10520000B4911E968C91843031F0893021F08B302E
:1052100011F08F3011F48FEF089580E00895BF9260
:10522000CF92DF92EF92FF920F931F93CF93DF9372
:105230006C01B0900A0228ED32E090E0C0E0D0E0CE
:105240002DC0285F3F4FF901E49028503040F9010C
:1052500077962A5F3F4F80E0A0E0B0E0059114917F
:10526000F901F4902650304014C0B8016A0F7B1F3A
:10527000FB013E96459154914115510541F04C1565
:105280005D0529F4FF2011F0EB010AC0EB018F5FEF
:1052900050968E1550F39F5F245D3F4F9B1588F20B
:1052A000CE01DF91CF911F910F91FF90EF90DF9092
:1052B000CF90BF9008950895DF92EF92FF920F93E1
:1052C0001F93CF93DF93EC018B017A01DFB6F89443
:1052D0006115710561F0FC01A591B49116968D914F
:1052E0009C911797892B19F08CEF0E945522CE01C3
:1052F000FE01A591B49117961C930E9316971996DB
:10530000FC92EE9218974996012B19F00E9488188A
:1053100002C00E94A118DFBEDF91CF911F910F91B3
:10532000FF90EF90DF900895BF92CF92DF92EF92BF
:10533000FF920F931F93CF93DF937A018B01EC01C0
:10534000BFB6F8944F3F8FEF58078FEF68078FEF86
:10535000780721F4A1E0CA2ED12C24C0CB01BA01D8
:10536000F3E0660F771F881F991FFA95D1F72091F8
:105370000002309101024091020250910302620F3B
:10538000731F841F951FA8019701E4E0220F331FAC
:10539000441F551FEA95D1F70E942E3069010894E9
:1053A000C108D1089CA19923C9F1E88DF98D8081AC
:1053B0009095892380838FEFE8168FEFF8068FEFA3
:1053C00008078FEF180719F421E030E01DC032E024
:1053D000EE0CFF1C001F111F3A95D1F760910002DF
:1053E0007091010280910202909103026E0D7F1D67
:1053F000801F911FEE0CFF1C001F111FA8019701B9
:105400000E942E30215030402C153D0538F0E88D9B
:10541000F98D80819CA1892B80836901EC8DFD8DA4
:10542000C082EE8DFF8DD082BFBEDF91CF911F91E4
:105430000F91FF90EF90DF90CF90BF900895DC0127
:105440005A96ED91FC915B97808187728083949648
:105450009C919497992341F05896ED91FC9159971E
:1054600080819095892380830895DC0153968C91E7
:105470005397882371F05A96ED91FC915B97808148
:10548000877B80835A96ED91FC915B978081806940
:1054900080830895DC019096ED91FC919197608353
:1054A0000895DC0153968C915397882371F05A9696
:1054B000ED91FC915B9780818F7680835A96ED9178
:1054C000FC915B978081886480830895DC015A9603
:1054D000ED91FC915B97662319F080818F7702C074
:1054E0008081806880830895DC015896ED91FC915D
:1054F0005997808187FD03C02FEF3FEF07C090963B
:10550000ED91FC9191978081282F30E0C901089599
:105510000F931F938C010E940016D80153968C9113
:1055200053975A96ED91FC915B97882311F080E98F
:1055300001C088ED80831F910F9108954F925F9273
:105540006F927F928F929F92AF92BF92CF92DF9293
:10555000EF92FF920F931F932B015A0139017801AB
:10556000E21AF30A00E010E09C01261B370B4427E7
:1055700037FD4095542FC801B7010E94E82FA418A9
:10558000B508CC24B7FCC094DC2CA60195010E9480
:10559000503088249924260D371D481D591DC901F6
:1055A0001F910F91FF90EF90DF90CF90BF90AF9041
:1055B0009F908F907F906F905F904F9008952F9263
:1055C0003F924F925F926F927F928F929F92AF9293
:1055D000BF92CF92DF92EF92FF920F931F93DF93D0
:1055E000CF93CDB7DEB729970FB6F894DEBF0FBEC5
:1055F000CDBF998788870E94C1222FB72F837894C7
:105600008FEF8093730C1092720C80910802A82F78
:10561000B0E01197BE83AD83EDE0F0E0AE9F5001A6
:10562000AF9FB00CBE9FB00C11242CEB3BE0A20E40
:10563000B31E2224332421015AC0D5018C91882322
:1056400009F44CC019966D907D908D909C901C979C
:105650001596CD90DD90ED90FC901897C401B301A4
:10566000A70196018E010F5F1F4F0E9478278823A4
:1056700019F1D5011196ED91FC91129713968D9128
:105680009C9114971C922091700C3091710C2150B8
:1056900030403093710C2093700CC60CD71CE81C62
:1056A000F91C09811A812B813C81B701A60109955A
:1056B000BFEFB093720C12C02114310441045104A5
:1056C00049F089819A81AB81BC8182159305A4053B
:1056D000B50520F429803A804B805C80ED81FE8105
:1056E0003197FE83ED8323EF3FEFA20EB31E8D8132
:1056F0009E818F5F9F4F09F0A0CF8091720C88230D
:1057000009F081CF1092730C8091700C9091710C04
:10571000181619060CF044C0F0906E0CE0906F0C57
:10572000EF2DFE2D05911491209106023091070274
:1057300040E050E0C201B1010E94E82FF801208151
:10574000318140E050E00E942E3059016A018F2DD6
:105750009E2D0E945A237C0100E010E0AE14BF048D
:10576000C006D10610F48601750180916E0C9091EF
:105770006F0C0E945A238C0180916E0C90916F0CDB
:105780000E9426208E0D9F1DB8010E940730AC019B
:10579000888599856FED7AE220E030E00E94A625A9
:1057A000FF81FFBF29960FB6F894DEBF0FBECDBFB5
:1057B000CF91DF911F910F91FF90EF90DF90CF90ED
:1057C000BF90AF909F908F907F906F905F904F9021
:1057D0003F902F9008952F923F924F925F926F9239
:1057E0007F928F929F92AF92BF92CF92DF92EF9271
:1057F000FF920F931F93DF93CF9300D000D0CDB7CC
:10580000DEB71C012B0149015A016701780188EEBE
:10581000C81683E0D80680E0E80680E0F80638F491
:105820008091730C8823C1F18FEF8093720C6FB756
:10583000F89480910802482F50E0ACEBBBE020E0E8
:1058400030E020C0FD018C911D968823C9F48FEFB4
:105850008083328221825482438281869286A3860B
:10586000B486C582D682E782F0868091700C9091D2
:10587000710C01969093710C8093700C8FEF06C0A1
:105880002F5F3F4F24173507ECF280E06FBF88236E
:1058900059F58FEF0E9455223E010894611C711C3E
:1058A000C501B401A701960183010E9478278823CE
:1058B000B9F3C80CD91CEA1CFB1C09811A812B8185
:1058C0003C81C201B701A601F101099511C0E09127
:1058D0006E0CF0916F0C779685919491409660E0F4
:1058E00070E00E94DF2A04C08091730C882379F352
:1058F0000F900F900F900F90CF91DF911F910F910C
:10590000FF90EF90DF90CF90BF90AF909F908F90DF
:105910007F906F905F904F903F902F900895F894F4
:105920000C9471300CD0EBC0E3D040F0DAD030F002
:1059300021F45F3F19F0CCC0511115C1CFC0F0D098
:1059400098F39923C9F35523B1F3951B550BBB2746
:10595000AA2762177307840738F09F5F5F4F220FF3
:10596000331F441FAA1FA9F333D00E2E3AF0E0E8EC
:1059700030D091505040E695001CCAF729D0FE2F38
:1059800027D0660F771F881FBB1F261737074807CA
:10599000AB07B0E809F0BB0B802DBF01FF27935880
:1059A0005F4F2AF09E3F510568F092C0DCC05F3F18
:1059B000ECF3983EDCF3869577956795B795F79568
:1059C0009F5FC9F7880F911D9695879597F9089560
:1059D000E1E0660F771F881FBB1F621773078407FC
:1059E000BA0720F0621B730B840BBA0BEE1F88F70B
:1059F000E095089504D06894B111B5C0089598D089
:105A000088F09F5790F0B92F9927B751A0F0D1F0A7
:105A1000660F771F881F991F1AF0BA95C9F712C031
:105A2000B13081F09FD0B1E008959CC0672F782FEE
:105A30008827B85F39F0B93FCCF38695779567959D
:105A4000B395D9F73EF490958095709561957F4F09
:105A50008F4F9F4F0895E89409C097FB3EF49095AF
:105A60008095709561957F4F8F4F9F4F9923A9F037
:105A7000F92F96E9BB279395F695879577956795C6
:105A8000B795F111F8CFFAF4BB0F11F460FF1BC00A
:105A90006F5F7F4F8F4F9F4F16C0882311F096E99D
:105AA00011C0772321F09EE8872F762F05C066234B
:105AB00071F096E8862F70E060E02AF09A95660F04
:105AC000771F881FDAF7880F9695879597F90895BD
:105AD00097F99F6780E870E060E008959FEF80ECA1
