:100000000C94F4000C9411010C9411010C94110146
:100010000C9411010C9411010C9411010C94110118
:100020000C9411010C9411010C9411010C94110108
:100030000C9411010C94AF1E0C94DC1E0C94CE1C7D
:100040000C94281E0C94FC170C94551E0C94821EC4
:100050000C948E1C0C94CE1D0C94FB1D0C943B1C1C
:100060000C9411010C94A5220C9411010C940224FF
:100070000C9411010C94BC260C9411010C94091FD2
:100080000C94361F0C94631F0C94901F0C940E1D3F
:100090000C9480220C9411010C94DD230C94DA2A28
:1000A0000C9411010C94BD1F0C94EA1F0C941720A2
:1000B0000C9444200C944E1D0C9471200C949E20A2
:1000C0000C94CB200C94F8200C948E1D0C945B2285
:1000D0000C9411010C94B8230C9436220C94110149
:1000E0000C94932307634236B79BD8A71A396856F6
:1000F00018AEBAAB558C1D3CB7CC5763BD6DEDFD4A
:10010000753EF6177231BF000000803F0800000006
:10011000BE922449123EABAAAA2ABECDCCCC4C3EFC
:1001200000000080BEABAAAAAA3E00000000BF00EB
:100130000000803F0000000000084178D3BB4387E7
:10014000D1133D190E3CC3BD4282AD2B3E68EC82FB
:1001500076BED98FE1A93E4C80EFFFBE01C4FF7F80
:100160003F000000000044454154480A0025640A4D
:1001700000496E697469616C697A6174696F6E2097
:10018000436F6D706C657465200D0A002E000D0ABA
:1001900053797374656D205761726D656420557075
:1001A0000057520A0057520A0000000100080040A0
:1001B0000000010004000001000800200040008051
:1001C00000000100044241445F766563742063616E
:1001D0006C6C656421003031323334353637383950
:1001E000414243444546000011241FBECFEFD1E2F7
:1001F000DEBFCDBF12E0A0E0B2E0E8E0F1E602C071
:1002000005900D92AA39B107D9F712E1AAE9B2E037
:1002100001C01D92A338B107E1F70E94F40E0C94BF
:10022000062C0C942521893049F48091800082604D
:1002300080938000809180008E7F0EC08A3021F4F0
:1002400080918000826003C0809180008D7F8093C8
:1002500080008091800081608093800010928B00EC
:1002600010928A000895893049F48091B00082602C
:100270008093B0008091B0008E7F0EC08A3021F450
:100280008091B000826003C08091B0008D7F809328
:10029000B0008091B00081608093B0001092B400F3
:1002A0000895893049F48091900082608093900095
:1002B000809190008E7F0EC08A3021F48091900052
:1002C000826003C0809190008D7F80939000809128
:1002D0009000816080939000109299001092980095
:1002E0000895893049F48091910082608093910053
:1002F000809191008E7F0EC08A3021F48091910010
:10030000826003C0809191008D7F809391008091E5
:10031000910081608093910010929B0010929A004E
:100320000895893049F48091920082608093920010
:10033000809192008E7F0EC08A3021F480919200CD
:10034000826003C0809192008D7F809392008091A3
:10035000920081608093920010929D0010929C0008
:100360000895893049F48091A00082608093A000B4
:100370008091A0008E7F0EC08A3021F48091A00071
:10038000826003C08091A0008D7F8093A000809147
:10039000A00081608093A0001092A9001092A80094
:1003A0000895893049F48091A10082608093A10072
:1003B0008091A1008E7F0EC08A3021F48091A1002F
:1003C000826003C08091A1008D7F8093A100809105
:1003D000A10081608093A1001092AB001092AA004E
:1003E0000895893049F48091A00082608093A00034
:1003F0008091A0008E7F0EC08A3021F48091A000F1
:10040000826003C08091A0008D7F8093A0008091C6
:10041000A00081608093A0001092AD001092AC000B
:100420000895E0E8F0E020812E7F20832081226083
:100430002083E1E8F0E02081286020832081206192
:1004400020839093870080938600109289001092F9
:10045000880010928B0010928A0010928D001092EA
:100460008C000895E0E9F0E020812E7F2083208138
:1004700022602083E1E9F0E0208128602083208150
:1004800020612083909397008093960010929900AA
:100490001092980010929B0010929A0010929D006A
:1004A00010929C000895E0EAF0E020812E7F2083E6
:1004B000208122602083E1EAF0E02081286020830F
:1004C0002081206120839093A7008093A600109242
:1004D000A9001092A8001092AB001092AA001092EE
:1004E000AD001092AC000895E0E8F0E080818062F9
:1004F000808380818F7E80830895E0EBF0E08081AF
:100500008062808380818F7E80830895E0E9F0E0BF
:1005100080818068808380818F7B80830895E0E97B
:10052000F0E080818062808380818F7E8083089567
:10053000E0E9F0E080818860808380818B7F808328
:100540000895E0EAF0E080818068808380818F7B7D
:1005500080830895E0EAF0E080818062808380817A
:100560008F7E80830895E0EAF0E080818860808358
:1005700080818B7F80830895E0E8F0E080818F7D2B
:10058000808380818F7E80830895E0EBF0E080811E
:100590008F7D808380818F7E80830895E0E9F0E005
:1005A00080818F77808380818F7B80830895E0E9CD
:1005B000F0E080818F7D808380818F7E80830895AD
:1005C000E0E9F0E08081877F808380818B7F80837A
:1005D0000895E0EAF0E080818F77808380818F7BCF
:1005E00080830895E0EAF0E080818F7D80838081C0
:1005F0008F7E80830895E0EAF0E08081877F8083AA
:1006000080818B7F80830895E0E8F0E080818D7F9A
:10061000808380818E7F808380818F7D80838081B5
:100620008F7E80830895E0EBF0E080818D7F808372
:1006300080818E7F808380818F7D808380818F7E8B
:1006400080830895E0E9F0E080818D7F8083808160
:100650008E7F808380818F77808380818F7B808372
:1006600080818F7D808380818F7E80838081877F62
:10067000808380818B7F80830895E0EAF0E0808131
:100680008D7F808380818E7F808380818F77808340
:1006900080818F7B808380818F7D808380818F7E2E
:1006A00080838081877F808380818B7F8083089592
:1006B00090938B0080938A0008958093B4000895EE
:1006C0009093990080939800089590939B00809355
:1006D0009A00089590939D0080939C0008959093B4
:1006E000A9008093A80008959093AB008093AA007E
:1006F00008959093AD008093AC00089510BA11BA9C
:1007000010920701109208019FEF91B980E484B91B
:1007100097B9589A599A83EF8AB98EEF8DB9A59AED
:100720009D988093010180930401089508952E9A65
:1007300008952E98089522B330E085E036952795E8
:100740008A95E1F72095309521703070C9010895A0
:1007500097FD10C025E030E040E050E00E94673097
:10076000DA01C901880F991F80509E4FFC0120813A
:10077000318117C025E030E040E050E00E94673052
:10078000DA01C901885B9F4FAF4FBF4F880F991F98
:1007900080509E4FFC018081918122273327281BA6
:1007A000390BC90108956A5570408040904097FD0B
:1007B00010C025E030E040E050E00E946730DA01F0
:1007C000C901880F991F80509E4FFC012081318103
:1007D00017C025E030E040E050E00E946730DA01C9
:1007E000C901885B9F4FAF4FBF4F880F991F805043
:1007F0009E4FFC018081918122273327281B390BD2
:10080000C9010895CF92DF92EF92FF920F931F9349
:100810006B017C018AE5C816D104E104F104A1F161
:1008200086EAC8168FEFD8068FEFE8068FEFF80636
:1008300059F18EE0C81681E0D80680E0E80680E035
:10084000F80611F182EFC8168EEFD8068FEFE80692
:100850008FEFF806C9F0C701B6010E94D3038C01DF
:10086000C701B6010E94A803BC01C8010E94323032
:10087000CB019B0173E0220F331F7A95E1F7880FBC
:10088000991F280F391F02C020E030E0C9011F91D5
:100890000F91FF90EF90DF90CF9008958AE00E9433
:1008A00071018AE00E9451018AE00E94B1018AE050
:1008B0000E94D1010895982F80538A3038F08151D9
:1008C000863010F0892F0895892F87530895FC01F1
:1008D0009081218142815381892F80538A3010F485
:1008E000982F05C0892F8154863008F49753822FA2
:1008F00080538A3010F4282F05C0822F815486300F
:1009000008F42753842F80538A3010F4482F05C0F1
:10091000842F8154863008F44753852F80538A30C2
:1009200010F4582F05C0852F8154863008F4575392
:1009300030E0892F90E0A4E0880F991FAA95E1F795
:10094000282B392BF4E0220F331FFA95E1F7842F7F
:1009500090E0822B932BE4E0880F991FEA95E1F752
:10096000252F30E0282B392BC9010895FF920F93D2
:100970001F93FC0190812181628173811481058123
:10098000F680E781892F80538A3010F4982F05C0B4
:10099000892F8154863008F49753822F80538A30F0
:1009A00010F4282F05C0822F8154863008F4275375
:1009B000862F80538A3010F4682F05C0862F81540B
:1009C000863008F46753872F80538A3010F4782FCD
:1009D00005C0872F8154863008F47753812F8053C8
:1009E0008A3010F4182F05C0812F8154863008F406
:1009F0001753802F80538A3010F4082F05C0802FA2
:100A00008154863008F407538F2D80538A3010F4B8
:100A1000F82E06C08F2D8154863010F489ECF80E24
:100A20008E2F80538A3010F4E82F05C08E2F81540A
:100A3000863008F4E75330E040E050E0892F90E042
:100A4000A0E0B0E0F4E0880F991FAA1FBB1FFA9541
:100A5000D1F7282B392B4A2B5B2BA4E0220F331F15
:100A6000441F551FAA95D1F7862F90E0A0E0B0E073
:100A7000822B932BA42BB52BF4E0880F991FAA1F70
:100A8000BB1FFA95D1F7272F30E040E050E0282B2C
:100A9000392B4A2B5B2B64E0220F331F441F551F59
:100AA0006A95D1F7812F90E0A0E0B0E0822B932BE4
:100AB000A42BB52B24E0880F991FAA1FBB1F2A95D2
:100AC000D1F7202F30E040E050E0282B392B4A2B83
:100AD0005B2B04E0220F331F441F551F0A95D1F7EB
:100AE0008F2D90E0A0E0B0E0822B932BA42BB52BB0
:100AF00014E0880F991FAA1FBB1F1A95D1F72E2F3C
:100B000030E040E050E0282B392B4A2B5B2BB90119
:100B1000CA011F910F91FF9008959C0185329105A4
:100B20001CF024E230E006C08FEF2C3D380714F4AF
:100B30002CED3FEF0FB6F8940F92B901882777FD9F
:100B40008095982F0E942C2D28E430E54CEF5EEB29
:100B50000E94E02D2FE135E449E353E40E94292C63
:100B60000E94F92C70939B0060939A000F900FBE27
:100B700008959C01853291051CF024E230E006C006
:100B80008FEF2C3D380714F42CED3FEF0FB6F8949F
:100B90000F92B901882777FD8095982F0E942C2D00
:100BA00021E137EC4AE05FEB0E94E02D26EF38E6CA
:100BB0004CE353E40E94292C0E94F92C7093990075
:100BC000609398000F900FBE0895982F8A3010F40C
:100BD000905D04C08A50873008F4995C892F08958D
:100BE000982F8F3F09F479C08A3021F481E08093F7
:100BF000DA0233C08091DA02882391F0963531F41D
:100C000081E08093D7021092D90207C0943441F456
:100C100081E08093D6021092D8021092DA020895F1
:100C20008091D702882359F08091D902E82FF0E013
:100C3000EE52FD4F90838F5F8093D9020EC080915A
:100C4000D602882351F08091D802E82FF0E0E653D5
:100C5000FD4F90838F5F8093D8028091D9028430BA
:100C6000E9F482ED92E00E946704AA2797FDA0951F
:100C7000BA2FBC01CD010E942C2D20E030E040E8CD
:100C80005EE30E94E02D0E94F92C7093A502609310
:100C9000A4021092D7021092D90208958091D8022E
:100CA000883051F58AEC92E00E94B6040E942C2D07
:100CB00020E030E040E85EE30E94E02D0E94F92C45
:100CC0006093A6027093A7028093A8029093A90252
:100CD0001092D6021092D802089500D00F9281E0AF
:100CE000EDB7FEB7818381EA91E0938382830E940E
:100CF000EF280F900F900F900895982F8F3F09F4D1
:100D000079C08A3021F481E08093EB0233C0809176
:100D1000EB02882391F0963531F481E08093E8026C
:100D20001092EA0207C0943441F481E08093E70214
:100D30001092E9021092EB0208958091E802882354
:100D400059F08091EA02E82FF0E0ED51FD4F9083D9
:100D50008F5F8093EA020EC08091E702882351F0F2
:100D60008091E902E82FF0E0E552FD4F90838F5F1C
:100D70008093E9028091EA028430E9F483EE92E004
:100D80000E946704AA2797FDA095BA2FBC01CD0148
:100D90000E942C2D20E030E040E85EE30E94E02D30
:100DA0000E94F92C7093B1026093B0021092E80295
:100DB0001092EA0208958091E902883051F58BED96
:100DC00092E00E94B6040E942C2D20E030E040E822
:100DD0005EE30E94E02D0E94F92C6093B2027093B2
:100DE000B3028093B4029093B5021092E70210927E
:100DF000E902089500D00F9281E0EDB7FEB781833C
:100E000085EA91E0938382830E94EF280F900F90F0
:100E10000F9008950E94DA210895EF92FF921F9398
:100E2000DF93CF930F92CDB7DEB77E010894E11C1C
:100E3000F11C80911012909111120E94AD0F863119
:100E400090F18091101290911112B7014AE050E098
:100E500020E00E94BF1089818A3F29F580911012FD
:100E600090911112B7014AE050E020E00E94BF10BB
:100E70008981805A8A35B8F48AEF0E94DA21898103
:100E80000E94DA2110E08091101290911112B701A6
:100E90004AE050E020E00E94BF1089810E94DA21E0
:100EA0001F5F153181F78AE090E00E94A714C1CF3F
:100EB0000F931F938AE00E948C26182F8BE00E94CC
:100EC0008C26082F0FB6F8940F9282E50E94DA2143
:100ED000812F0E94DA218CE40E94DA21802F0E9467
:100EE000DA218EE60E94DA210F900FBE8AEF90E0A1
:100EF0000E94A714DFCFEF92FF920F931F93DF930F
:100F0000CF9300D0CDB7DEB78E010F5F1F4FAAE59C
:100F1000EA2EF12C1092C1021092C002C80160E1C9
:100F200077E20E94E514F092C102E092C002C8018B
:100F300060E177E20E94E514EDCF8F929F92AF922D
:100F4000BF92CF92DF92EF92FF920F931F93DF93A6
:100F5000CF9300D0CDB7DEB780E090E0A0E0B0E066
:100F600080939A0290939B02A0939C02B0939D025F
:100F700080E090E0A8ECB1E480939E0290939F0201
:100F8000A093A002B093A1028E010F5F1F4FC80172
:100F900060E177E20E94E5144801C40168EE73E065
:100FA0000E94E514E0909E02F0909F020091A00242
:100FB0001091A102A0909A02B0909B02C0909C0256
:100FC000D0909D02C801B701A60195010E94282C6E
:100FD0009B01AC0160E070E080E89FE30E94912CEF
:100FE000A80197010E94E02D9B01AC01C601B5014B
:100FF0000E94292C60939A0270939B0280939C021A
:1010000090939D0220E030E048EC51E40E94DC2DFA
:10101000181664F480E090E0A8ECB1E480939A02A2
:1010200090939B02A0939C02B0939D0260919A02C0
:1010300070919B0280919C0290919D0220E030E093
:1010400040E050E00E948D2C88230CF0A6CF80E079
:1010500090E0A0E0B0E080939A0290939B02A0936E
:101060009C02B0939D0299CF0F931F93DF93CF9370
:1010700000D0CDB7DEB78E010F5F1F4F2E98C8018D
:1010800062E370E00E94E5142E9AC80162E370E00A
:101090000E94E514F3CF0F931F93DF93CF9300D0FB
:1010A000CDB7DEB78E010F5F1F4F109AC80162E304
:1010B00070E00E94E5141098C80162E370E00E949D
:1010C000E514F3CF6F927F928F929F92AF92BF926F
:1010D000CF92DF92EF92FF920F931F93DF93CF9304
:1010E00000D0CDB7DEB780919000806880939000EB
:1010F000809190008F7B80939000882499243E01FA
:101100000894611C711CE0909A02F0909B0200917F
:101110009C0210919D026091A2027091A302882707
:1011200077FD8095982F0E942C2D9B01AC01C80162
:10113000B7010E94282C0E94F92C5B016C01609180
:10114000B0027091B102709561957F4F882777FD4D
:101150008095982F0E942C2D9B01AC01C801B701EE
:101160000E94282C0E94F92C6B01B601882777FD7C
:101170008095982F0E942C2D20E030E040E85EE31F
:101180000E94E02D7B018C01B401882777FD8095BA
:10119000982F0E942C2D20E030E040E05EE30E947A
:1011A000E02D9B01AC01C801B7010E94292C0E94CF
:1011B000F92C6A0D7B1D653271051CF064E270E04C
:1011C00006C08FEF6C3D780714F46CED7FEF0FB61F
:1011D000F8940F9288279927861B970B0E94B905D0
:1011E0000F900FBE8C0C9D1CC30162E370E00E9447
:1011F000E51489CF4F925F926F927F928F929F9268
:10120000AF92BF92CF92DF92EF92FF920F931F9314
:10121000DF93CF9300D0CDB7DEB78091900080628E
:1012200080939000809190008F7E80939000662440
:1012300077242E010894411C511C6091A2027091E8
:10124000A302882777FD8095982F0E942C2D20914E
:101250009A0230919B0240919C0250919D020E9403
:10126000292C0E94F92C7B018C018091A402909181
:10127000A5024701881A990AB401882777FD80954D
:10128000982F0E942C2D20E030E040E85EE30E9481
:10129000E02D5B016C01B301882777FD8095982FC5
:1012A0000E942C2D20E030E040E05EE30E94E02D23
:1012B0009B01AC01C601B5010E94292C0E94F92CAA
:1012C000CB018E0D9F1D680C791C853291051CF099
:1012D00084E290E006C02FEF8C3D920714F48CED71
:1012E0009FEF0FB6F8940F920E948D050F900FBEDE
:1012F000C20162E370E00E94E5149FCFDF92EF929B
:10130000FF920F931F930E94231B6091B002709174
:10131000B102709561957F4F2091A4023091A50292
:10132000621B730B882777FD8095982F0E942C2DC8
:1013300026E636E646E851E40E94912C7B018C01BA
:101340000E94C41AD6B42FEF30E040E050E00E9473
:10135000FF2F6D0D711D811D911D0E942A2D2FE6FD
:1013600032E143E85EE30E94E02D20E030E04AE70E
:1013700054E40E94912C9B01AC01C801B7010E946A
:10138000E02D9B01AC016091BC027091BD02809187
:10139000BE029091BF020E94292C6093BC02709300
:1013A000BD028093BE029093BF02ADCFFF920F9318
:1013B0001F93CF93DF93EB010E94E4218FE0F82E7F
:1013C000FC2289E08F1518F090E3F90E06C08F2DEE
:1013D0008A50873010F487E3F80ECE0104E095952B
:1013E00087950A95E1F7082F0F700A3010F4005D19
:1013F00005C0802F8A50873008F4095C8D2F99270B
:1014000087FD9A95182F1F701A3010F4105D05C0D3
:10141000812F8A50873008F4195CC0E1DC02C12DAD
:10142000DD0B1124CE018F70682F8A3010F4605DBF
:1014300004C08A50873008F4695C862F0E94E4213A
:10144000812F0E94E421802F0E94E4218F2D0E9491
:10145000E4218AE00E94E421DF91CF911F910F9156
:10146000FF900895AF92BF92CF92DF92EF92FF92DA
:101470000F931F936091BC027091BD028091BE02D8
:101480009091BF0220E030E044E353E40E94E02D5D
:101490002BED3FE049E450E40E94912C5B016C018C
:1014A00060930212709303128093041290930512BA
:1014B00020E030E040E05FE30E94E02D7B018C0102
:1014C0006091C0027091C102882777FD8095982FA6
:1014D0000E942C2D20E030E040E05FE30E94E02DF0
:1014E0009B01AC01C801B7010E94292C2091C602C2
:1014F0003091C7024091C8025091C9020E94292C24
:101500000E94F92C7093A3026093A2028091A4021E
:101510009091A5022091B0023091B102821B930BF1
:1015200062E070E00E943230882777FD8095982F26
:101530000E942C2D6093061270930712809308125C
:10154000909309128091B2029091B302A091B402DB
:10155000B091B502E090B602F090B702E81AF90A2D
:101560008093B6029093B702A093B802B093B902E9
:101570008091A6029091A702A091A802B091A90221
:101580002091AA023091AB028C01021B130B8093B5
:10159000AA029093AB02A093AC02B093AD0210925A
:1015A000AF021092AE021092BB021092BA02C601B4
:1015B000B5010E94F92C9B01AC0188E4B9010E949D
:1015C000D6096091061270910712809108129091CD
:1015D00009120E94F92C9B01AC0186E5B9010E9419
:1015E000D6090E0D1F1DB801660F771F660F771FF6
:1015F000600F711F83E50E94D6093CCFCF92DF9226
:10160000EF92FF920F931F93DF93CF9300D0CDB74C
:10161000DEB78091A00080628093A0008091A0003E
:101620008F7E8093A0008091A00080688093A000AE
:101630008091A0008F7B8093A0000AE710E02CEC43
:10164000C22ED12C7E010894E11CF11C84E00030F4
:10165000180710F000E010E00FB6F8940F92109306
:10166000A9000093A800D092AB00C092AA000F90EE
:101670000FBE6091920270919302C7010E94E5141F
:101680000E949C24803719F40F5F1F4F04C08C36D2
:1016900011F4015010400F5F1F4FD8CF1F93CF930D
:1016A000DF9311E0CDE6D1E00E949C24803731F435
:1016B0008091920290919302019607C08C3649F472
:1016C000809192029091930201979093930280935C
:1016D000920200D000D00F92EDB7FEB73196ADB7B1
:1016E000BEB711961C93D283C183809192029091D0
:1016F0009302948383830E94EF280F900F900F90A2
:101700000F900F90D1CFAA2797FDA095BA2FBC01BB
:10171000CD010E942C2D2EEE3CE74FE45FEB0E94A2
:10172000432E9B01AC01CA01B90122E538ED48E323
:1017300054E40E94E02D0E94F92CCB010895AA27C1
:1017400097FDA095BA2FBC01CD010E942C2D2BE551
:1017500031EB4FE75FEB0E94432E9B01AC01CA01C6
:10176000B9012DEC3CE04DEA54E40E94E02D0E94CA
:10177000F92CCB0108952F923F924F925F926F9276
:101780007F928F929F92AF92BF92CF92DF92EF9211
:10179000FF920F931F93DF93CF93CDB7DEB72D97B3
:1017A0000FB6F894DEBF0FBECDBF19820F2EF0E04A
:1017B000EF2EF0E0FF2EF0E00F2FF0E01F2FF02DC6
:1017C00057016801EA86FB860C871D8737014801AF
:1017D0001701280193C082E00E94B52690E00E9484
:1017E000830BAA2797FDA095BA2FBC01CD010E94BB
:1017F0002C2D20E030E040E251E40E94912C9B012E
:10180000AC01C801B7010E94292C7B018C0183E047
:101810000E94B52690E00E949F0BAA2797FDA095F5
:10182000BA2FBC01CD010E942C2D20E030E040E217
:1018300051E40E94912C9B01AC016A857B858C85CB
:101840009D850E94292C6A877B878C879D8784E0F1
:101850000E94B52690E00E949F0BAA2797FDA095B5
:10186000BA2FBC01CD010E942C2D20E030E040E2D7
:1018700051E40E94912C9B01AC01C601B5010E946C
:10188000292C5B016C0185E00E94B52690E00E9446
:10189000830BAA2797FDA095BA2FBC01CD010E940A
:1018A0002C2D20E030E040E251E40E94912C9B017D
:1018B000AC01C201B1010E94292C1B012C0186E060
:1018C0000E94B52690E00E94830BAA2797FDA09561
:1018D000BA2FBC01CD010E942C2D20E030E040E267
:1018E00051E40E94912C9B01AC01C401B3010E9400
:1018F000292C3B014C0189818F5F898399819A3022
:1019000008F469CFC801B70120E030E040E251E4BB
:101910000E94282C9B01AC010E94E02D7B018C01D0
:10192000C601B50120E030E040E251E40E94282CDD
:101930009B01AC010E94E02D5B016C01C401B3016D
:1019400020E030E040E251E40E94282C9B01AC01F1
:101950000E94E02D3B014C01C201B10120E030E0CA
:1019600040E251E40E94282C9B01AC010E94E02D32
:101970006E837F8388879987C801B70120E030E0B4
:1019800040E050E00E948D2C8823A1F060E070E0E0
:101990008AE794E4A80197010E94912C6A837B83D3
:1019A0008C839D8320E030E044EB52E40E94DC2DE8
:1019B00018162CF480E090E0A4EBB2E410C06A8129
:1019C0007B818C819D8120E030E044EB52EC0E94D1
:1019D0008D2C882344F480E090E0A4EBB2EC8A8361
:1019E0009B83AC83BD83C601B50120E030E040E0BD
:1019F00050E00E948D2C882391F060E070E08AE72F
:101A000094E4A60195010E94912C7B018C0120E0B9
:101A100030E044EB52E40E94DC2D18165CF40F2EEB
:101A2000F0E0EF2EF0E0FF2EF4EB0F2FF2E41F2F8B
:101A3000F02D14C0C801B70120E030E044EB52ECB7
:101A40000E948D2C882354F40F2EF0E0EF2EF0E04E
:101A5000FF2EF4EB0F2FF2EC1F2FF02DC401B3017A
:101A600020E030E040E050E00E948D2C882391F08F
:101A700060E070E08AE794E4A40193010E94912C55
:101A80001B012C0120E030E044EB52E40E94DC2DED
:101A900018165CF40F2EF0E02F2EF0E03F2EF4EB42
:101AA0004F2EF2E45F2EF02D14C0C201B10120E0F0
:101AB00030E044EB52EC0E948D2C882354F40F2E1E
:101AC000F0E02F2EF0E03F2EF4EB4F2EF2EC5F2EE5
:101AD000F02D6E817F818885998520E030E040E09F
:101AE00050E00E948D2C8823A1F060E070E08AE72E
:101AF00094E42E813F81488559850E94912C5B0199
:101B00006C0120E030E044EB52E40E94DC2D18161A
:101B10005CF40F2EF0E0AF2EF0E0BF2EF4EBCF2EF2
:101B2000F2E4DF2EF02D14C0C601B50120E030E054
:101B300044EB52EC0E948D2C882354F40F2EF0E0DD
:101B4000AF2EF0E0BF2EF4EBCF2EF2ECDF2EF02D17
:101B50006A857B858C859D8520E030E040E251E4FC
:101B60000E94282C9B01AC0160E070E080E292E4CE
:101B70000E94912C3B014C016A857B858C859D855B
:101B800020E030E040E252E40E94912C0E94932E2B
:101B900020919E0230919F024091A0025091A1029B
:101BA0000E94E02D20E030E040E85FE30E94292C15
:101BB00060939E0270939F028093A0029093A10273
:101BC000C401B30120E030E040E85FE30E948D2CC7
:101BD000882354F40F2EF0E06F2EF0E07F2EF0E813
:101BE0008F2EFFE39F2EF02DC801B7012A813B8184
:101BF0004C815D810E94282C7B018C01C601B501BE
:101C0000A20191010E94282C9B01AC01C801B701DF
:101C10000E94292C9B01AC01C401B3010E94E02D5C
:101C20006093C6027093C7028093C8029093C90262
:101C300020E030E044EB52E40E94DC2D181664F4FE
:101C400080E090E0A4EBB2E48093C6029093C702D8
:101C5000A093C802B093C9026091C6027091C702F6
:101C60008091C8029091C90220E030E044EB52EC30
:101C70000E948D2C87FF0CC080E090E0A4EBB2ECBA
:101C80008093C6029093C702A093C802B093C90282
:101C900019820F2EF0E0EF2EF0E0FF2EF0E00F2F74
:101CA000F0E01F2FF02D57016801EA86FB860C87B4
:101CB0001D8737014801170128018DCD0F931F9310
:101CC000CF93DF930E94872580E040E056E960E0F3
:101CD00070E00E94612181E040E052EC61E070E040
:101CE0000E94612182E040E056E960E070E00E94DD
:101CF000612183E040E052EC61E070E00E946121EC
:101D00008AED91E20E94CB260E947E0382E060EF82
:101D100075E00E94562180E06DE776E00E94562132
:101D200083E06AE077E00E9456212E9800D00F925F
:101D300081E0EDB7FEB781838EE891E093838283E3
:101D40000E94EF280F900F900F9085E00E946D1B6E
:101D500084E00E948D1B83E00E949D1B83E00E9413
:101D6000AF1B83E00E94C11B0E94402685E00E94B9
:101D7000652681E00E946C2610E001E0CCE8D1E00D
:101D8000812F0E94B52600D00F92EDB7FEB70183D8
:101D9000D383C2830E94EF281F5F0F900F900F9094
:101DA000103171F72E9A00D00F92EDB7FEB7018374
:101DB00081E791E0938382830E94EF280F900F9038
:101DC0000F900E94231B0E942D1B0E943A1B0E9411
:101DD000451B0E94521B0E945F1B0E944E04DF9114
:101DE000CF911F910F9108951F93CF93DF9388EEAA
:101DF00061E00E942F1290931112809310120E94A2
:101E00005E0E0E94F31611E0C6E6D1E000D00F92FC
:101E1000EDB7FEB71183D383C2830E94EF280F90E2
:101E20000F900F90F3CFFC019C012D5F3F4F328349
:101E300021838FEF9FEF94838383368325833087BD
:101E4000278310820895FC01118610860895CF9390
:101E5000DF93AC01DB01EC0129813A81F901828138
:101E6000938113969C938E93129789819A811596EC
:101E70009C938E9314970280F381E02D7583648385
:101E8000E9017B836A83FA017283618319965C930B
:101E90004E93189780818F5F8083DF91CF91089553
:101EA000CF93DF939C01EB01488159818FEF4F3F26
:101EB000580721F4F901A781B08510C0D901139604
:101EC00004C012960D90BC91A02D1296ED91FC913C
:101ED0001397808191814817590798F71296ED91D1
:101EE000FC911397FB83EA83D583C483BD83AC83C2
:101EF0001396DC93CE93129739872887F901808156
:101F00008F5F8083DF91CF910895CF93DF93DC01C2
:101F10001296ED91FC91139714968D919C911597C3
:101F2000958384831496CD91DC911597FB83EA8386
:101F30001896ED91FC911997818192818A179B07E0
:101F400011F4D283C18319961C921E921897808136
:101F500081508083DF91CF910895FC010FB6F894F2
:101F60000F92828D0F900FBE0895FC01828D08950F
:101F7000FC01828D90E0882309F491E0892F089577
:101F8000FC01928D20E0838D981709F421E0822FC7
:101F900008950F931F938C01FC01808191810E9411
:101FA000221AC8010E94221A1F910F9108950F93BF
:101FB0001F93CF93DF93EC01FB018A018A8D882365
:101FC00081F14881598141155105A9F08C8D2E81EF
:101FD0003F81280F311D3F832E838A819B812817E3
:101FE000390710F05F834E834C8D6E817F81CF0166
:101FF00050E00E94092C8A8D81508A8F8D8D8F3FF1
:1020000069F48885882361F0CE0108960E94371311
:10201000882331F081E0F801808303C08F5F8D8FCA
:1020200081E0DF91CF911F910F910895CF93DF93BE
:10203000EC01842F4C8D4423A1F18823B1F48C81D1
:102040009D8150E00E94092C8C8D2C813D81280FB0
:10205000311D3D832C838A819B812817390708F124
:10206000888199819D838C831CC08E819F8150E0E3
:102070000E94092C8C8D90E044275527481B590B52
:102080008E819F81840F951F9F838E832881398144
:102090008217930730F48A819B81840F951F9F8359
:1020A0008E838A8D8F5F8A8FDF91CF9108950F93F2
:1020B0001F93CF93DF93EC018A019A8D8B8D981734
:1020C00010F080E017C0CE01422F0E9416108E8DB6
:1020D0008F3F69F48989882361F0CE0141960E947F
:1020E0003713882331F081E0F801808303C08F5FCC
:1020F0008E8F81E0DF91CF911F910F9108950F9303
:102100001F93CF93DF93EC010FB6F8940F928C01DD
:102110000F5E1F4F0DC08989882369F0C8010E9496
:102120003713882311F00E9433138E8D81508E8FC8
:102130008E8D181684F38FEF8E8F0F900FBE0FB613
:10214000F8940F928E01085F1F4F0DC08885882379
:1021500069F0C8010E943713882311F00E943313DD
:102160008D8D81508D8F8D8D181684F38FEF8D8F0F
:102170000F900FBEDF91CF911F910F9108957F9225
:102180008F929F92AF92BF92CF92DF92EF92FF9287
:102190000F931F93DF93CF9300D000D00F92CDB752
:1021A000DEB78C01962E872E5D834C83722E91E1D3
:1021B000C92ED12CC00ED11E20E07E010894E11C56
:1021C000F11C84E0A82EB12CAC0EBD1E01C021E094
:1021D0000FB6F8940F92F801828D882309F43EC05F
:1021E000E680F7804081518141155105B1F0848D21
:1021F0009701280F311D3783268382819381281709
:10220000390710F057834683F801448D6681778142
:10221000892D982D50E00E94092C772071F4F80147
:10222000828D8150828F80858823A1F0C801089615
:102230000E943713813071F40BC0F801F782E682F7
:102240008189882339F0C6010E943713882311F051
:102250000E94FF170F900FBE81E04AC08C819D81C4
:10226000892B19F40F900FBE42C0222319F4C70125
:102270000E94EE120F900FBE0E9492120FB6F894B9
:102280000F92F801858D8F3F09F4158EF801868D28
:102290008F3F09F4168E0F900FBEC701B5010E9443
:1022A000F9128823F9F40FB6F8940F92F801828D91
:1022B0000F900FBE882381F46C817D81C6010E943E
:1022C000F013C8010E947F100E942914882309F08E
:1022D0007ECF0E94FF177BCFC8010E947F100E9413
:1022E000291475CFC8010E947F100E94291480E034
:1022F0000F900F900F900F900F90CF91DF911F9143
:102300000F91FF90EF90DF90CF90BF90AF909F9094
:102310008F907F9008957F928F929F92AF92BF92FD
:10232000CF92DF92EF92FF920F931F93DF93CF93A1
:1023300000D000D00F92CDB7DEB78C016B015D836A
:102340004C83722E48E0E42EF12CE80EF91E20E0BA
:102350005E010894A11CB11C34E0832E912C8C0EDC
:102360009D1E01C021E00FB6F8940F92F801928DE6
:10237000838D9817A8F4C801B601472D0E94161046
:10238000F8018189882341F0C80141960E943713E2
:10239000813011F40E94FF170F900FBE81E04CC0F6
:1023A0008C819D81892B19F40F900FBE44C022238C
:1023B00019F4C5010E94EE120F900FBE0E949212F6
:1023C0000FB6F8940F92F801858D8F3F09F4158EA2
:1023D000F801868D8F3F09F4168E0F900FBEC50150
:1023E000B4010E94F912882309F50FB6F8940F92F0
:1023F000F801928D0F900FBEF801838D981781F42C
:102400006C817D81C7010E94F013C8010E947F107A
:102410000E942914882309F0A5CF0E94FF17A2CF9C
:10242000C8010E947F100E9429149CCFC8010E94FD
:102430007F100E94291480E00F900F900F900F9052
:102440000F90CF91DF911F910F91FF90EF90DF9050
:10245000CF90BF90AF909F908F907F9008958F9274
:102460009F92AF92BF92CF92DF92EF92FF920F9323
:102470001F93CF93DF93982E862E882309F442C0B2
:102480008FE190E00E94321A8C01EC010097E1F19B
:10249000C92CDD24A82CBB24AC9C7001AD9CF00C95
:1024A000BC9CF00C1124C70101960E94321A9C01B9
:1024B00099838883009719F1E80EF91EFB82EA825E
:1024C0001A8E9D838C830894C108D108CA9CC001D0
:1024D000CB9C900DDA9C900D1124280F391F3F835F
:1024E0002E839B8E8C8E8FEF8D8F8E8FC8010896DA
:1024F0000E94130FC80141960E94130F05C0C80126
:102500000E94221AC0E0D0E0CE01DF91CF911F914E
:102510000F91FF90EF90DF90CF90BF90AF909F9082
:102520008F9008958091F2028F5F8093F202089558
:102530000FB6F8940F922091F0023091F1020F90B3
:102540000FBEC90108952091F0023091F102C90136
:1025500008958091F50208958091F202882351F048
:1025600081E08093EE0208958091F3028150809380
:10257000F30201C099E0E091F302E99FF001112418
:10258000E650FD4F8081882379F39091F30289E032
:10259000989FD0011124A650BD4F1196ED91FC914A
:1025A00012970280F381E02D1296FC93EE9311971F
:1025B000CD010396E817F90731F4828193811296D1
:1025C0009C938E9311971196ED91FC9112978681B1
:1025D00097819093ED028093EC020895FC01809125
:1025E000EF0280838091F0029091F10292838183C7
:1025F0000895FC01DB010FB6F8940F929091EF0261
:102600008081981749F02091F0023091F102818188
:1026100092812817390718F58091F0029091F10204
:10262000218132814D915C911197821B930B84170C
:102630009507A8F48091F0029091F102281B390BC4
:10264000240F351F2D933C938091EF02808380915E
:10265000F0029091F1029283818380E001C081E0D9
:102660000F900FBE089581E08093EE0208950F93BE
:102670001F93CF93DF93FC018081882319F4C0E07E
:10268000D0E005C00580F681E02DC681D7818E019E
:10269000045F1F4FC8010E94850F8091F2028823BA
:1026A000A1F48E010E5F1F4FC8010E94850F9E8905
:1026B0008091F302891710F49093F30289E0989FB8
:1026C000C001112486509D4F02C084E393E0B801FD
:1026D0000E94270FE091EC02F091ED0220E09E892C
:1026E0008689981708F021E0822FDF91CF911F9102
:1026F0000F910895FF920F931F93CF93DF938091D3
:10270000F202882309F061C08091F0029091F102F9
:1027100001969093F1028093F0028091F0029091E3
:10272000F102892BE9F580913003909131032091DA
:10273000320330913303309331032093300390936D
:102740003303809332038091EF028F5F8093EF0217
:1027500027C02091F0023091F1028A819B812817D5
:102760003907C0F18E010E5F1F4FC8010E94850F0F
:102770008C899D89892B21F0CE010C960E94850FB2
:102780009E898091F302891710F49093F3029F9D24
:10279000C001112486509D4FB8010E94270F02C02E
:1027A00089E0F82EE0913003F09131038081882395
:1027B00089F0E0913003F09131030580F681E02D3E
:1027C000C681D781209729F605C08091F4028F5FDA
:1027D0008093F402DF91CF911F910F91FF900895A4
:1027E0000F931F938B016091EC027091ED02645F77
:1027F0007F4F0E94500F8091EC029091ED02029663
:102800000E94850F8091F0029091F102800F911F3C
:10281000E091EC02F091ED02938382832091F0022B
:102820003091F1028217930728F48091320390913E
:10283000330304C080913003909131036091EC0226
:102840007091ED026E5F7F4F0E94500F1F910F91AC
:102850000895CF92DF92FF920F931F93DF93CF9350
:102860000F92CDB7DEB70FB6F8940F928091F202B7
:1028700081508093F2028091F202882309F05BC0BC
:102880008091F502882309F456C0198299E0F92E47
:1028900027C0C6010C960E94850F86010E5F1F4F50
:1028A000C8010E94850FD60156969C918091F30233
:1028B000891710F49093F3029F9DC0011124865054
:1028C0009D4FB8010E94270FE091EC02F091ED02BC
:1028D000D60156969C918689981710F0B1E0B9837D
:1028E00080913403882349F0E0913903F0913A0351
:1028F000C680D780C114D10461F68091F402882388
:1029000041F40CC00E947A138091F40281508093AC
:10291000F4028091F4028823A9F707C0E981E1302D
:1029200021F08091EE02813031F41092EE020E948B
:10293000FF1781E001C080E00F900FBE0F90CF9194
:10294000DF911F910F91FF90DF90CF9008950F932B
:102950001F939C010097A1F18091F2028F5F8093F9
:10296000F2020091F0021091F102020F131F809108
:10297000EC029091ED0202960E94850FE091EC022C
:10298000F091ED02138302838091F0029091F102A5
:102990000817190728F4809132039091330304C07B
:1029A00080913003909131036091EC027091ED02BF
:1029B0006E5F7F4F0E94500F0E942914882311F4EC
:1029C0000E94FF171F910F910895CF93DF93FC0191
:1029D000EB018091F2028F5F8093F20220813181BE
:1029E000C20FD31F8091F0029091F10282179307DA
:1029F00028F4C217D30728F020E00CC0C217D30771
:102A000040F08091F0029091F10220E08C179D0738
:102A100008F421E0D183C083222329F18091EC02C4
:102A20009091ED0202960E94850FE091EC02F091E8
:102A3000ED02D383C2838091F0029091F102C81716
:102A4000D90728F4809132039091330304C0809118
:102A50003003909131036091EC027091ED026E5F52
:102A60007F4F0E94500F0E942914882311F40E9466
:102A7000FF17DF91CF910895EF92FF920F931F936D
:102A8000CF93DF938C010FB6F8940F928091EC02F4
:102A90009091ED020817190719F400E010E003C047
:102AA0000115110529F4C091EC02D091ED0201C08D
:102AB000E80122E0E22EF12CEC0EFD1EC7010E947F
:102AC000850F8C899D89892B21F0CE010C960E945F
:102AD000850F8DE393E0B7010E94270F8091F702E5
:102AE0008F5F8093F7028091F8028F5F8093F802E6
:102AF0000F900FBE8091F602882321F0012B11F474
:102B00000E94FF17DF91CF911F910F91FF90EF90DF
:102B10000895F8941092F6020E94A01708951F934A
:102B2000CF93DF938091F702882391F18091F20295
:102B30008F5F8093F20210913D030E9429141123AC
:102B400039F10FB6F8940F9280913D03882319F460
:102B5000C0E0D0E006C0E0914203F0914303C6819B
:102B6000D781CE0102960E94850F8091F502815097
:102B70008093F5028091F70281508093F7020F90C5
:102B80000FBE8F89988D0E94221ACE010E94221AB0
:102B90008091FA02823030F20E94FF17C3CF2F9249
:102BA0003F925F926F927F928F929F92AF92BF926D
:102BB000CF92DF92EF92FF920F931F93DF93CF9309
:102BC00000D000D0CDB7DEB79A8389834B015A017C
:102BD0001901502E370181E290E00E94321A8B8356
:102BE0009C838B819C81892B89F0C114D10421F4B1
:102BF000C5010E94321A6C01EB81FC81D08EC78A1C
:102C0000C114D10429F4CF010E94221A8FEFD5C03C
:102C1000C60165EA70E0A5010E94122C0894A10883
:102C2000B108EB81FC81E788F08CEA0CFB1CCF013A
:102C30004996B40148E050E00E94192CEB81FC81D8
:102C400010A2052DF3E0F51508F403E0EB81FC81FB
:102C5000068B42E0C42ED12CCE0EDF1EC6010E9490
:102C6000230F8B819C810C960E94230F8B819C816A
:102C7000FC019187808784E090E0801B9109958713
:102C80008487F38BE28BC70169817A81A1010E945D
:102C90001E17EB81FC81918380836114710421F004
:102CA000CF01F301918380830FB6F8940F92809146
:102CB000F5028F5F8093F5028091EC029091ED0216
:102CC000892BB9F5EB81FC81F093ED02E093EC02E6
:102CD0008091F5028130F1F58AEF92E00E94130FA6
:102CE00083E093E00E94130F8CE093E00E94130FA7
:102CF00085E193E00E94130F3EE1E32E33E0F32ED3
:102D0000C7010E94130F07E213E0C8010E94130FCE
:102D100084E393E00E94130F8DE393E00E94130F6E
:102D2000F0923103E09230031093330300933203A7
:102D300011C08091F602882369F4E091EC02F091D1
:102D4000ED028689581630F08B819C819093ED02BC
:102D50008093EC02EB81FC8196898091F9028917BE
:102D600010F49093F9028091F8028F5F8093F8023B
:102D7000EB81FC8196898091F302891710F490937E
:102D8000F302EB81FC81868929E0829FC001112436
:102D900086509D4FB6010E94270F0F900FBE809165
:102DA000F602882349F0E091EC02F091ED02868969
:102DB000851510F40E94FF1781E00F900F900F907F
:102DC0000F90CF91DF911F910F91FF90EF90DF90C7
:102DD000CF90BF90AF909F908F907F906F905F90BB
:102DE0003F902F900895AF92BF92CF92DF92EF92D3
:102DF000FF920F938FE895E164E972E045E550E0BA
:102E000020E030E000E0EE24FF24CC24DD24AA24DE
:102E1000BB240E94CF15813049F4F8948093F602C8
:102E20001092F1021092F0020E9466170F91FF902B
:102E3000EF90DF90CF90BF90AF900895FC0191E1AB
:102E4000908322E2229383E382936293729312929D
:102E500080E88293129282E0829383E0829384E0FE
:102E6000829385E0829386E0829387E0829388E074
:102E7000829389E0829380E18293929382E18293AC
:102E800083E1829384E1829385E1829386E1829358
:102E900087E1829388E1829389E1829380E2829341
:102EA00081E28293229383E282934293529386E259
:102EB000829387E2829388E2829389E2829380E31D
:102EC000829381E382933197CF0108951092890014
:102ED00089EF809388008BE080938100EFE6F0E03B
:102EE000808182608083A091EC02B091ED02CD914F
:102EF000CDBFDD91DEBFFF91EF91DF91CF91BF910B
:102F0000AF919F918F917F916F915F914F913F9181
:102F10002F911F910F91FF90EF90DF90CF90BF9076
:102F2000AF909F908F907F906F905F904F903F9069
:102F30002F901F900F900FBE0F90089581E008957D
:102F400008950F920FB6F8940F921F9211242F92AA
:102F50003F924F925F926F927F928F929F92AF9229
:102F6000BF92CF92DF92EF92FF920F931F932F9316
:102F70003F934F935F936F937F938F939F93AF9301
:102F8000BF93CF93DF93EF93FF93A091EC02B091A7
:102F9000ED020DB60D920EB60D920E947A130E94AC
:102FA000AC12A091EC02B091ED02CD91CDBFDD91BC
:102FB000DEBFFF91EF91DF91CF91BF91AF919F91D4
:102FC0008F917F916F915F914F913F912F911F91C1
:102FD0000F91FF90EF90DF90CF90BF90AF909F90B8
:102FE0008F907F906F905F904F903F902F901F90A9
:102FF0000F900FBE0F9008950E94A11718950F9281
:103000000FB6F8940F921F9211242F923F924F9275
:103010005F926F927F928F929F92AF92BF92CF9268
:10302000DF92EF92FF920F931F932F933F934F9353
:103030005F936F937F938F939F93AF93BF93CF9340
:10304000DF93EF93FF93A091EC02B091ED020DB6E8
:103050000D920EB60D920E94AC12A091EC02B091AE
:10306000ED02CD91CDBFDD91DEBFFF91EF91DF91FC
:10307000CF91BF91AF919F918F917F916F915F9110
:103080004F913F912F911F910F91FF90EF90DF9003
:10309000CF90BF90AF909F908F907F906F905F90F8
:1030A0004F903F902F901F900F900FBE0F9008955C
:1030B0000F931F93CF93DF93FC018081882319F432
:1030C000C0E0D0E005C00580F681E02DC681D78143
:1030D0008E01045F1F4FC8010E94850F87E793E0B0
:1030E000B8010E94270F20E0E0914603F0914703CA
:1030F0009E898689981708F021E0822FDF91CF9171
:103100001F910F910895FF920F931F93CF93DF9319
:1031100099E0F92E28C0F89480917703882319F458
:10312000C0E0D0E006C0E0917C03F0917D03C68151
:10313000D781CE010C960E94850F78948E010E5F88
:103140001F4FC8010E94850F9E89809148038917EF
:1031500010F4909348039F9DC0011124815B9C4F04
:10316000B8010E94270F809177038823A1F60E945F
:1031700098122091490330914A03821B930B90933C
:103180004C0380934B0389E0F82E54C00196909332
:103190004E0380934D032150304030934C032093D5
:1031A0004B03892BC9F520917303309174038091EF
:1031B0007503909176039093740380937303309317
:1031C00076032093750328C020914D0330914E0360
:1031D0008A819B812817390768F1F8948E010E5F68
:1031E0001F4FC8010E94850F8C899D89892B21F072
:1031F000CE010C960E94850F78949E898091480399
:10320000891710F4909348039F9DC0011124815B9E
:103210009C4FB8010E94270FE0917303F091740353
:103220008081882339F00580F681E02DC681D78121
:10323000209751F620914B0330914C0380914D0320
:1032400090914E032115310509F0A0CF90934A03C8
:10325000809349039091480329E006C0992319F40B
:103260001092480332C09150929FD0011124A15B6B
:10327000BC4F8C91882391F3909348031196ED9164
:10328000FC9112970280F381E02D1296FC93EE934D
:103290001197CD010396E817F90731F482819381E4
:1032A00012969C938E9311971196ED91FC91129723
:1032B0000680F781E02DF0934703E09346032081D9
:1032C0003181CF016789F9010995DF91CF911F9174
:1032D0000F91FF9008950F931F93CF93DF93EB010E
:1032E00000914D0310914E03080F191F8091460362
:1032F0009091470302960E94850FE0914603F0915A
:1033000047031383028380914D0390914E03BF01C5
:103310006E5F7F4F0817190728F48091750390910D
:10332000760304C080917303909174030E94500F40
:10333000209749F06091460370914703645F7F4F87
:10334000CE010E94500FDF91CF911F910F910895F0
:10335000AF92BF92CF92DF92EF92FF920F931F93A3
:10336000CF93DF936C01B62EA42E8AE190E00E94E9
:10337000321AEC01009711F48FEF59C08091460387
:1033800090914703892B21F5D0934703C0934603BF
:103390008FE493E00E94130F88E593E00E94130FDF
:1033A00021E6E22E23E0F22EC7010E94130F0AE667
:1033B00013E0C8010E94130F87E793E00E94130FE8
:1033C000F0927403E09273031093760300937503F5
:1033D000EB2CBB2011F0EE24E394198E188EEE8AAC
:1033E000AF8AFE01C192D1928F01CF010E94230FBB
:1033F000CE010C960E94230FD987C887DB8BCA8B1E
:1034000084E090E08E1991099D878C879E89809138
:103410004803891710F49093480389E0989FC001EE
:103420001124815B9C4FB8010E94270F81E0DF913E
:10343000CF911F910F91FF90EF90DF90CF90BF90B1
:10344000AF9008950895109281031092800308951B
:1034500028EB3BE08091800390918103281B390B7E
:10346000C90108950F931F93CF93DF938C010E949E
:10347000921280918003909181039801280F391F47
:103480004BE0283B340758F48217930740F4EC01D3
:10349000CE57DC4F309381032093800302C0C0E0FD
:1034A000D0E00E942914CE01DF91CF911F910F919E
:1034B0000895E82FF0E0E770F070EE0FFF1FE7557A
:1034C000FE4F25913491C9010895E82FF0E0E7708F
:1034D000F070EE0FFF1FEB54FE4F25913491C901A0
:1034E000089585B5E82FF0E0E770F070EE0FFF1F4C
:1034F000E755FE4F25913491C901089580918100CF
:10350000E82FF0E0E770F070EE0FFF1FE755FE4F79
:1035100025913491C90108958091B100E82FF0E020
:10352000E770F070EE0FFF1FEB54FE4F25913491C2
:10353000C901089580919100E82FF0E0E770F070E4
:10354000EE0FFF1FE755FE4F25913491C9010895F5
:103550008091A100E82FF0E0E770F070EE0FFF1F00
:10356000E755FE4F25913491C901089580912101BD
:10357000E82FF0E0E770F070EE0FFF1FE755FE4F09
:1035800025913491C901089520911E1230911F1286
:103590004091201250912112B901CA010895209141
:1035A0001A1230911B1240911C1250911D12B90138
:1035B000CA010895209122123091231240912412C1
:1035C00050912512B901CA01089520912A12309113
:1035D0002B1240912C1250912D12B901CA0108955D
:1035E0002091161230911712409118125091191211
:1035F000B901CA01089520912E1230912F124091E5
:10360000301250913112B901CA01089586B508955A
:103610002091840030918500C90108958091B20005
:1036200008952091940030919500C901089520914A
:10363000A4003091A500C901089520912401309182
:103640002501C901089510921E1210921F121092A6
:1036500020121092211216BC089510921A12109284
:103660001B1210921C1210921D12109285001092C3
:1036700084000895109222121092231210922412A4
:10368000109225121092B200089510922A121092F0
:103690002B1210922C1210922D1210929500109253
:1036A0009400089510921612109217121092181288
:1036B000109219121092A5001092A4000895109271
:1036C0002E1210922F12109230121092311210926C
:1036D0002501109224010895089585BD81E080930D
:1036E0006E0010921E1210921F1210922012109251
:1036F000211216BC08958093810081E080936F00B1
:1037000010921A1210921B1210921C1210921D127B
:10371000109285001092840008958093B10081E09A
:103720008093700010922212109223121092241291
:10373000109225121092B20008958093910081E0BA
:103740008093710010922A1210922B1210922C1258
:1037500010922D121092950010929400089580936B
:10376000A10081E08093720010921612109217123D
:1037700010921812109219121092A5001092A40023
:1037800008958093210181E08093730010922E129E
:1037900010922F12109230121092311210922501B5
:1037A000109224010895E82FF0E0EE0FFF1FE65C71
:1037B000F04F718360830895E82FF0E0EE0FFF1F54
:1037C000E65CF04F1182108208950197F1F7089599
:1037D000AF92BF92CF92DF92EF92FF920F931F931F
:1037E000A0E0B0E0BC01CD010E942A2D5B016C017C
:1037F00020E030E04AE755E40E94E02D7B018C0197
:1038000020E030E040E85FE30E948D2C88231CF428
:1038100061E070E024C0C801B70120E03FEF4FE74E
:1038200057E40E94DC2D1816B4F4C601B50120E05F
:1038300030E040E251E40E94E02D0E94FE2C80E93D
:1038400091E005C0FC013197F1F7615070406115BE
:103850007105C1F707C0C801B7010E94FE2CCB015A
:103860000197F1F71F910F91FF90EF90DF90CF90AC
:10387000BF90AF9008951F920F920FB60F92112430
:103880002F933F934F935F936F937F938F939F9368
:10389000AF93BF93EF93FF9380911E1290911F12ED
:1038A000A0912012B09121120196A11DB11D80930B
:1038B0001E1290931F12A0932012B0932112809198
:1038C000261290912712A0912812B09129120196E8
:1038D000A11DB11D8093261290932712A093281248
:1038E000B093291280913E0F90913F0F892B29F0C0
:1038F000E0913E0FF0913F0F0995FF91EF91BF913D
:10390000AF919F918F917F916F915F914F913F9177
:103910002F910F900FBE0F901F9018951F920F922E
:103920000FB60F9211242F933F934F935F936F9392
:103930007F938F939F93AF93BF93EF93FF93809168
:103940001A1290911B12A0911C12B0911D12019697
:10395000A11DB11D80931A1290931B12A0931C12EB
:10396000B0931D128091480F9091490F892B29F037
:10397000E091480FF091490F0995FF91EF91BF91A8
:10398000AF919F918F917F916F915F914F913F91F7
:103990002F910F900FBE0F901F9018951F920F92AE
:1039A0000FB60F9211242F933F934F935F936F9312
:1039B0007F938F939F93AF93BF93EF93FF938091E8
:1039C000221290912312A0912412B09125120196F7
:1039D000A11DB11D8093221290932312A093241253
:1039E000B093251280914E0F90914F0F892B29F0A3
:1039F000E0914E0FF0914F0F0995FF91EF91BF911C
:103A0000AF919F918F917F916F915F914F913F9176
:103A10002F910F900FBE0F901F9018951F920F922D
:103A20000FB60F9211242F933F934F935F936F9391
:103A30007F938F939F93AF93BF93EF93FF93809167
:103A40002A1290912B12A0912C12B0912D12019656
:103A5000A11DB11D80932A1290932B12A0932C12BA
:103A6000B0932D128091580F9091590F892B29F006
:103A7000E091580FF091590F0995FF91EF91BF9187
:103A8000AF919F918F917F916F915F914F913F91F6
:103A90002F910F900FBE0F901F9018951F920F92AD
:103AA0000FB60F9211242F933F934F935F936F9311
:103AB0007F938F939F93AF93BF93EF93FF938091E7
:103AC000161290911712A0911812B0911912019626
:103AD000A11DB11D8093161290931712A093181276
:103AE000B09319128091620F9091630F892B29F086
:103AF000E091620FF091630F0995FF91EF91BF91F3
:103B0000AF919F918F917F916F915F914F913F9175
:103B10002F910F900FBE0F901F9018951F920F922C
:103B20000FB60F9211242F933F934F935F936F9390
:103B30007F938F939F93AF93BF93EF93FF93809166
:103B40002E1290912F12A0913012B0913112019645
:103B5000A11DB11D80932E1290932F12A0933012AD
:103B6000B093311280916C0F90916D0F892B29F0D9
:103B7000E0916C0FF0916D0F0995FF91EF91BF915E
:103B8000AF919F918F917F916F915F914F913F91F5
:103B90002F910F900FBE0F901F9018951F920F92AC
:103BA0000FB60F9211242F933F934F935F936F9310
:103BB0007F938F939F93AF93BF93EF93FF938091E6
:103BC0003A0F90913B0F892B29F0E0913A0FF09139
:103BD0003B0F0995FF91EF91BF91AF919F918F910D
:103BE0007F916F915F914F913F912F910F900FBEF9
:103BF0000F901F9018951F920F920FB60F921124DD
:103C00002F933F934F935F936F937F938F939F93E4
:103C1000AF93BF93EF93FF9380913C0F90913D0F33
:103C2000892B29F0E0913C0FF0913D0F0995FF9110
:103C3000EF91BF91AF919F918F917F916F915F9124
:103C40004F913F912F910F900FBE0F901F9018959D
:103C50001F920F920FB60F9211242F933F934F9301
:103C60005F936F937F938F939F93AF93BF93EF93E4
:103C7000FF938091400F9091410F892B29F0E091A3
:103C8000400FF091410F0995FF91EF91BF91AF91D6
:103C90009F918F917F916F915F914F913F912F9164
:103CA0000F900FBE0F901F9018951F920F920FB696
:103CB0000F9211242F933F934F935F936F937F93B2
:103CC0008F939F93AF93BF93EF93FF938091440F94
:103CD0009091450F892B29F0E091440FF091450F09
:103CE0000995FF91EF91BF91AF919F918F917F9136
:103CF0006F915F914F913F912F910F900FBE0F9059
:103D00001F9018951F920F920FB60F9211242F93A8
:103D10003F934F935F936F937F938F939F93AF9353
:103D2000BF93EF93FF938091460F9091470F892B9C
:103D300029F0E091460FF091470F0995FF91EF911F
:103D4000BF91AF919F918F917F916F915F914F91B3
:103D50003F912F910F900FBE0F901F9018951F92BB
:103D60000F920FB60F9211242F933F934F935F93AF
:103D70006F937F938F939F93AF93BF93EF93FF9333
:103D800080914A0F90914B0F892B29F0E0914A0FB7
:103D9000F0914B0F0995FF91EF91BF91AF919F91DA
:103DA0008F917F916F915F914F913F912F910F90E4
:103DB0000FBE0F901F9018951F920F920FB60F9283
:103DC00011242F933F934F935F936F937F938F9320
:103DD0009F93AF93BF93EF93FF9380914C0F90917C
:103DE0004D0F892B29F0E0914C0FF0914D0F099563
:103DF000FF91EF91BF91AF919F918F917F916F91C3
:103E00005F914F913F912F910F900FBE0F901F9098
:103E100018951F920F920FB60F9211242F933F9374
:103E20004F935F936F937F938F939F93AF93BF93C2
:103E3000EF93FF938091500F9091510F892B29F0B0
:103E4000E091500FF091510F0995FF91EF91BF91C3
:103E5000AF919F918F917F916F915F914F913F9122
:103E60002F910F900FBE0F901F9018951F920F92D9
:103E70000FB60F9211242F933F934F935F936F933D
:103E80007F938F939F93AF93BF93EF93FF93809113
:103E9000520F9091530F892B29F0E091520FF0911E
:103EA000530F0995FF91EF91BF91AF919F918F9122
:103EB0007F916F915F914F913F912F910F900FBE26
:103EC0000F901F9018951F920F920FB60F9211240A
:103ED0002F933F934F935F936F937F938F939F9312
:103EE000AF93BF93EF93FF938091540F9091550F31
:103EF000892B29F0E091540FF091550F0995FF910E
:103F0000EF91BF91AF919F918F917F916F915F9151
:103F10004F913F912F910F900FBE0F901F901895CA
:103F20001F920F920FB60F9211242F933F934F932E
:103F30005F936F937F938F939F93AF93BF93EF9311
:103F4000FF938091560F9091570F892B29F0E091A4
:103F5000560FF091570F0995FF91EF91BF91AF91D7
:103F60009F918F917F916F915F914F913F912F9191
:103F70000F900FBE0F901F9018951F920F920FB6C3
:103F80000F9211242F933F934F935F936F937F93DF
:103F90008F939F93AF93BF93EF93FF9380915A0FAB
:103FA00090915B0F892B29F0E0915A0FF0915B0FF4
:103FB0000995FF91EF91BF91AF919F918F917F9163
:103FC0006F915F914F913F912F910F900FBE0F9086
:103FD0001F9018951F920F920FB60F9211242F93D6
:103FE0003F934F935F936F937F938F939F93AF9381
:103FF000BF93EF93FF9380915C0F90915D0F892B9E
:1040000029F0E0915C0FF0915D0F0995FF91EF9120
:10401000BF91AF919F918F917F916F915F914F91E0
:104020003F912F910F900FBE0F901F9018951F92E8
:104030000F920FB60F9211242F933F934F935F93DC
:104040006F937F938F939F93AF93BF93EF93FF9360
:1040500080915E0F90915F0F892B29F0E0915E0FA8
:10406000F0915F0F0995FF91EF91BF91AF919F91F3
:104070008F917F916F915F914F913F912F910F9011
:104080000FBE0F901F9018951F920F920FB60F92B0
:1040900011242F933F934F935F936F937F938F934D
:1040A0009F93AF93BF93EF93FF938091600F909195
:1040B000610F892B29F0E091600FF091610F099554
:1040C000FF91EF91BF91AF919F918F917F916F91F0
:1040D0005F914F913F912F910F900FBE0F901F90C6
:1040E00018951F920F920FB60F9211242F933F93A2
:1040F0004F935F936F937F938F939F93AF93BF93F0
:10410000EF93FF938091640F9091650F892B29F0B5
:10411000E091640FF091650F0995FF91EF91BF91C8
:10412000AF919F918F917F916F915F914F913F914F
:104130002F910F900FBE0F901F9018951F920F9206
:104140000FB60F9211242F933F934F935F936F936A
:104150007F938F939F93AF93BF93EF93FF93809140
:10416000660F9091670F892B29F0E091660FF0910F
:10417000670F0995FF91EF91BF91AF919F918F913B
:104180007F916F915F914F913F912F910F900FBE53
:104190000F901F9018951F920F920FB60F92112437
:1041A0002F933F934F935F936F937F938F939F933F
:1041B000AF93BF93EF93FF938091680F9091690F36
:1041C000892B29F0E091680FF091690F0995FF9113
:1041D000EF91BF91AF919F918F917F916F915F917F
:1041E0004F913F912F910F900FBE0F901F901895F8
:1041F0001F920F920FB60F9211242F933F934F935C
:104200005F936F937F938F939F93AF93BF93EF933E
:10421000FF9380916A0F90916B0F892B29F0E091A9
:104220006A0FF0916B0F0995FF91EF91BF91AF91DC
:104230009F918F917F916F915F914F913F912F91BE
:104240000F900FBE0F901F9018951F920F920FB6F0
:104250000F9211242F933F934F935F936F937F930C
:104260008F939F93AF93BF93EF93FF9300D00F92E1
:1042700081E0EDB7FEB7818385EC91E09383828383
:104280000E94EF280F900F900F90FF91EF91BF9138
:10429000AF919F918F917F916F915F914F913F91DE
:1042A0002F910F900FBE0F901F901895843040F4FF
:1042B000E82FF0E0EE0FFF1FE255FE4E71836083A2
:1042C00008951F93182F9A01AB01CA01B9016058D4
:1042D0007B47814E9F4FF3E0660F771F881F991F22
:1042E000FA95D1F7E4E0220F331F441F551FEA95DA
:1042F000D1F70E94453021503040133029F42093EB
:1043000034013093350112C0123029F42093D400C7
:104310003093D5000BC0113029F42093CC0030939A
:10432000CD0004C02093C4003093C5001F910895B0
:10433000282F30E0A3E0220F331FAA95E1F72A5C73
:104340003D4EC9010895282F30E0B3E0220F331FFE
:10435000BA95E1F7265A3D4EC9010895E82F8330FA
:1043600039F48091300185FFFCCF6093360118C08D
:10437000823039F48091D00085FFFCCF6093D60065
:104380000FC0813039F48091C80085FFFCCF609365
:10439000CE0006C08091C00085FFFCCF6093C600B0
:1043A000F0E0EE5CFD4E10820895682F80E00E94E0
:1043B000AE210895682F81E00E94AE210895682FF4
:1043C00082E00E94AE210895682F83E00E94AE2112
:1043D000089520E0E82FF0E083E0EE0FFF1F8A95BC
:1043E000E1F7E65CFD4E80819181892B09F421E0A3
:1043F000822F0895CF93DF93833019F460913601B3
:104400000CC0823019F46091D60007C0813019F4D5
:104410006091CE0002C06091C600282F30E0E90113
:10442000CC0FDD1FFE01E255FE4E80819181892B6C
:1044300031F00190F081E02D862F099514C093E0B2
:10444000220F331F9A95E1F7C9018A5C9D4E0E94A5
:104450000626882341F4FE01E658FD4E80819181B5
:10446000019691838083DF91CF9108951F920F92DF
:104470000FB60F9211242F933F934F935F936F9337
:104480007F938F939F93AF93BF93EF93FF9383E0BB
:104490000E94FA21FF91EF91BF91AF919F918F916F
:1044A0007F916F915F914F913F912F910F900FBE30
:1044B0000F901F9018951F920F920FB60F92112414
:1044C0002F933F934F935F936F937F938F939F931C
:1044D000AF93BF93EF93FF9382E00E94FA21FF9185
:1044E000EF91BF91AF919F918F917F916F915F916C
:1044F0004F913F912F910F900FBE0F901F901895E5
:104500001F920F920FB60F9211242F933F934F9348
:104510005F936F937F938F939F93AF93BF93EF932B
:10452000FF9381E00E94FA21FF91EF91BF91AF913B
:104530009F918F917F916F915F914F913F912F91BB
:104540000F900FBE0F901F9018951F920F920FB6ED
:104550000F9211242F933F934F935F936F937F9309
:104560008F939F93AF93BF93EF93FF9380E00E944D
:10457000FA21FF91EF91BF91AF919F918F917F9120
:104580006F915F914F913F912F910F900FBE0F90C0
:104590001F9018958F929F92AF92BF92CF92DF9209
:1045A000EF92FF920F931F93CF93DF93882EDB013F
:1045B000C82EDD24F60113E0EE0FFF1F1A95E1F778
:1045C000E25AFD4E20813181240F351FF60173E040
:1045D000EE0FFF1F7A95E1F7E45AFD4E808191813D
:1045E0002817390770F54115510559F19C9076014E
:1045F00063E0EE0CFF1C6A95E1F78AE592E1E80EB4
:10460000F91E8D01C0E0D0E05A010894A108B1085C
:1046100006C0C701F80160810E94062621960F5F3F
:104620001F4FCA15DB05A8F386E592E1C80ED91E17
:104630008FEFF6018083882D692D0E94AE218FEFC8
:1046400001C080E0DF91CF911F910F91FF90EF901B
:10465000DF90CF90BF90AF909F908F90089590E0A3
:1046600023E0880F991F2A95E1F7865A9D4E0E94F4
:1046700006260895682F82E792E10E940626089593
:10468000682F8AE692E10E9406260895682F82E646
:1046900092E10E9406260895682F8AE592E10E9421
:1046A00006260895CF93DF93282FA82FB0E0ED01C1
:1046B000CA5ADD4E8881882379F1FD0133E0EE0F7F
:1046C000FF1F3A95E1F7E25AFD4E80819181892BD7
:1046D00011F1233039F482E792E10E949D25809305
:1046E00036011EC0223039F48AE692E10E949D25EF
:1046F0008093D60015C0213039F482E692E10E9401
:104700009D258093CE000CC08AE592E10E949D25F4
:104710008093C60005C01882AE5CBD4E8FEF8C93AF
:10472000DF91CF9108951F920F920FB60F9211242F
:104730002F933F934F935F936F937F938F939F93A9
:10474000AF93BF93EF93FF9383E00E945223FF91B7
:10475000EF91BF91AF919F918F917F916F915F91F9
:104760004F913F912F910F900FBE0F901F90189572
:104770001F920F920FB60F9211242F933F934F93D6
:104780005F936F937F938F939F93AF93BF93EF93B9
:10479000FF9382E00E945223FF91EF91BF91AF916E
:1047A0009F918F917F916F915F914F913F912F9149
:1047B0000F900FBE0F901F9018951F920F920FB67B
:1047C0000F9211242F933F934F935F936F937F9397
:1047D0008F939F93AF93BF93EF93FF9381E00E94DA
:1047E0005223FF91EF91BF91AF919F918F917F9154
:1047F0006F915F914F913F912F910F900FBE0F904E
:104800001F9018951F920F920FB60F9211242F939D
:104810003F934F935F936F937F938F939F93AF9348
:10482000BF93EF93FF9380E00E945223FF91EF919B
:10483000BF91AF919F918F917F916F915F914F91B8
:104840003F912F910F900FBE0F901F9018951F93BF
:10485000182F90E0FC01EA5AFD4E2FEF208343E031
:10486000880F991F4A95E1F7865A9D4E0E949D2513
:10487000682F812F0E94AE211F910895CF93DF935F
:10488000EB01282F30E0F90173E0EE0FFF1F7A955E
:10489000E1F7E85CFD4E80819181892BC9F0F90137
:1048A00063E0EE0FFF1F6A95E1F7E65CFD4E808145
:1048B0009181892B69F053E0220F331F5A95E1F75C
:1048C000C9018A5C9D4E0E949D2588838FEF01C09F
:1048D00080E0DF91CF910895DF93CF930F92CDB712
:1048E000DEB783E0BE016F5F7F4F0E943E248823C6
:1048F00019F42FEF3FEF03C08981282F30E0C90161
:104900000F90CF91DF910895DF93CF930F92CDB7A2
:10491000DEB782E0BE016F5F7F4F0E943E24882396
:1049200019F42FEF3FEF03C08981282F30E0C90130
:104930000F90CF91DF910895DF93CF930F92CDB772
:10494000DEB781E0BE016F5F7F4F0E943E24882367
:1049500019F42FEF3FEF03C08981282F30E0C90100
:104960000F90CF91DF910895DF93CF930F92CDB742
:10497000DEB780E0BE016F5F7F4F0E943E24882338
:1049800019F42FEF3FEF03C08981282F30E0C901D0
:104990000F90CF91DF91089590E0E3E0880F991F89
:1049A000EA95E1F78A5C9D4E0E94392608958EE4CF
:1049B00092E16EE171E140E850E00E94902582E7CB
:1049C00092E16EE971E140E150E00E949025089586
:1049D0000E94D7241092B5111092B41188ED8093E3
:1049E000310183E040E855E260E070E00E9461211F
:1049F0008FEF8093351210925912109281121092FB
:104A000080127894089586E492E16EE870E140E8BF
:104A100050E00E9490258AE692E16EE071E140E16B
:104A200050E00E94902508950E9403251092B31132
:104A30001092B21188ED8093D10082E040E855E2F7
:104A400060E070E00E9461218FEF80933412109239
:104A5000581210927F1210927E12789408958EE36D
:104A600092E16EEF7FE040E850E00E94902582E600
:104A700092E16EE770E140E150E00E9490250895D8
:104A80000E942F251092B1111092B01188ED8093E1
:104A9000C90081E040E855E260E070E00E946121D9
:104AA0008FEF809333121092571210927D12109252
:104AB0007C127894089586E392E16EE67FE040E808
:104AC00050E00E9490258AE592E16EEE7FE040E1A1
:104AD00050E00E94902508950E945B251092AF112E
:104AE0001092AE1188ED8093C10080E040E855E25D
:104AF00060E070E00E9461218FEF8093321210928B
:104B0000561210927B1210927A12789408950E9495
:104B10006C250E9440250E9414250E94E8240895D7
:104B2000FC018FB7F89471836083538342831782AB
:104B30001682158214828FBF0895DC014FB7F89456
:104B400014968D919C911597892B11F4E0E025C066
:104B500016968D919C911797ED91FC911197E80F06
:104B6000F91FE081019617969C938E9316971296E3
:104B70002D913C9113978217930730F0821B930B72
:104B800017969C938E93169714968D919C911597DA
:104B9000019715969C938E9314974FBF8E2F08956F
:104BA000FC014FB7F8948481958168177907B0F4B8
:104BB00086819781860F971F978386832281338111
:104BC0008217930720F0821B930B9783868384813F
:104BD0009581861B970B9583848302C0158214826E
:104BE0004FBF0895FC01CB012FB7F8942FBF26814A
:104BF000378162817381820F931F0E941E30019062
:104C0000F081E02DE80FF91F808108951F93CF9365
:104C1000DF93EC01162F4FB7F8942C813D816A8108
:104C20007B812617370798F48E819F81820F931F0F
:104C30000E941E30E881F981E80FF91F10838C81F2
:104C40009D8101969D838C834FBF8FEF02C04FBF24
:104C500080E0DF91CF911F910895FC018FB7F89408
:104C60008FBF2281338184819581281B390BC90133
:104C70000895FC018FB7F894158214828FBF0895B0
:104C8000AAE7B0E08C9180688C938C918F7D8C9397
:104C90008C91887F86608C93ECE7F0E080818F7345
:104CA0008064808380818F7D80838C9188608C93E9
:104CB0001092821278940895EAE7F0E08081877F6D
:104CC000808380818F7780830895EAE7F0E0908188
:104CD000987F982B90830895ECE7F0E0908182957F
:104CE000880F880F807C9F73982B90830895ECE742
:104CF000F0E090818F71907E892B80830895EAE7A0
:104D0000F0E0808180618083808180648083089569
:104D100080917A0080740895982F109282128830C2
:104D200020F080917B00886003C080917B00877FAA
:104D300080937B0080917C009770887F892B809383
:104D40007C0080917A00806180937A0080917A0063
:104D5000806480937A0080917A0086FDFCCF209158
:104D6000780030917900C90108950E948C269695AB
:104D700087959695879508951F920F920FB60F927B
:104D800011248F938FEF809382128F910F900FBE1B
:104D90000F901F9018959093B7118093B6110895B6
:104DA0001F93182F8A3031F4E091B611F091B711AA
:104DB0008DE00995E091B611F091B711812F099519
:104DC0001F910895CF93DF93EC01009721F406C063
:104DD00021960E94D02688818823D1F7DF91CF9138
:104DE0000895EF92FF920F931F93CF93DF938C015F
:104DF0007A010097E9F020E030E02617370738F411
:104E0000F80181918F012F5F3F4F8823B1F7C0E0F8
:104E1000D0E00BC0F8018081882319F00F5F1F4F8D
:104E200001C080E20E94D0262196CE15DF0590F3C6
:104E3000DF91CF911F910F91FF90EF900895CF9345
:104E4000DF93EC01009719F407C00E94D026FE0101
:104E5000219684918823C9F7DF91CF9108958AE044
:104E60000E94D0260895E82FF0E0EF70F070EA522B
:104E7000FE4FE4918E2F0E94D02608951F93182F85
:104E800082958F700E943327812F0E9433271F91B4
:104E900008951F93182F892F0E943E27812F0E946B
:104EA0003E271F910895EF92FF920F931F937B016E
:104EB0008C01C801AA27BB270E944927C7010E946D
:104EC00049271F910F91FF90EF9008952F923F92E5
:104ED0004F925F926F927F928F929F92AF92BF920A
:104EE000CF92DF92EF92FF920F931F93DF93CF93B6
:104EF000CDB7DEB7A3970FB6F894DEBF0FBECDBF18
:104F00006AA3242E2BA337014801442351F017FF35
:104F100008C0EE24FF248701E618F70808091909DC
:104F200002C0840173012AA1215090E0211091E078
:104F3000291B29A318A2A82EBB24CC24DD24C80138
:104F4000B701A60195010E944530FB01EF70F0709A
:104F5000EA52FE4F64916F8FC801B701A601950117
:104F60000E944530C901DA017C018D019EE1492E84
:104F7000512C4C0E5D1E39A025C0E114F104010531
:104F80001105C9F0C801B701A60195010E9445307D
:104F9000FB01EF70F070EA52FE4F6491F201608302
:104FA000C801B701A60195010E944530C901DA0187
:104FB0007C018D0103C02BA1F20120833A94089457
:104FC000410851083320C9F6CE014F968C01E9A162
:104FD0000E1B11092220F1F097FE05C08DE2F801A9
:104FE00082938F0117C0C801019761147104810475
:104FF000910419F08C018BE202C08C0180E2F8016F
:10500000808308C0F80181918F010E94D026FAA107
:10501000F150FAA32AA12223A9F7A3960FB6F89478
:10502000DEBF0FBECDBFCF91DF911F910F91FF90DB
:10503000EF90DF90CF90BF90AF909F908F907F9038
:105040006F905F904F903F902F9008954F925F9296
:105050006F927F928F929F92AF92BF92CF92DF9288
:10506000EF92FF920F931F93CF93DF93482E5A0135
:105070006B01CB01BA0120E030E040E050E00E943B
:10508000DC2D18161CF43501460106C03501460119
:1050900097FA909497F890940F2EF0E0EF2EF0E0AE
:1050A000FF2EF0E80F2FFFE31F2FF02D5524C40132
:1050B000B301A80197010E94912C20E030E040E26A
:1050C00051E40E948D2C87FD0EC0C801B70120E07D
:1050D00030E040E251E40E94E02D7B018C015394CA
:1050E0008FE0581621F7C601B50120E030E040E01E
:1050F00050E00E948D2C882314F48DE201C08BE2D5
:105100000E94D026DD24AA2456C0C401B301A80100
:1051100097010E94912C0E94FE2CB62ED62ACD2DEE
:10512000D0E0CC24DD24C801B70120E030E040E825
:105130005FE30E948D2C882319F421E0C22ED12C2C
:10514000CC29DD29CD2B39F08B2D805D0E94D02616
:10515000DD24DA9404C080E20E94D026DD24C80158
:10516000B70120E030E040E85FE30E948D2C882307
:1051700019F48EE20E94D0266B2D70E0882777FD0F
:105180008095982F0E942C2DA80197010E94E02D58
:105190009B01AC01C401B3010E94282C3B014C01CE
:1051A000C801B70120E030E040E251E40E94912CB8
:1051B0007B018C01A394A41408F4A7CFDF91CF91B5
:1051C0001F910F91FF90EF90DF90CF90BF90AF9025
:1051D0009F908F907F906F905F904F9008957F92F7
:1051E0008F929F92AF92BF92CF92DF92EF92FF92F7
:1051F0000F931F93DF93CF93CDB7DEB77888C9881D
:10520000DA8863E1E62EF12CEC0EFD1E14C0882333
:1052100081F480E090E0CF91DF911F910F91FF909A
:10522000EF90DF90CF90BF90AF909F908F907F9046
:1052300008950E94D02696012F5F3F4F772021F0DE
:10524000F6016901849103C0F6018081690185320C
:10525000F1F62F5F3F4F772021F0F601690184912D
:1052600003C0F60180816901843629F0883781F016
:105270008336F9F606C000E117E25AE0A52EB12CFC
:105280000CC0F701808122E030E0E20EF31ED1CFA6
:1052900000E010E140E1A42EB12C32E0832E912CED
:1052A0008E0C9F1CF701E080F1808436B1F4F7FE8C
:1052B00011C0F094E194F108F3948DE20E94D0269D
:1052C00009C0C8016AE070E00E941E308B016230A4
:1052D000710518F0E016F106A0F3C701B8010E94AD
:1052E0001E30862F0E943327C701B8010E941E304E
:1052F0007C01C801B5010E941E308B01611571054A
:1053000061F7740198CF2091B9002E7F2093B900E6
:105310002091B9002D7F2093B9009C0140E050E01E
:1053200060E87EE380E090E00E946730203130F05A
:10533000822F90E0409795958795282F2093B8006D
:105340000895589A599A1092FF111092FE111092D6
:1053500001121092001284E690E00E948329ECEB87
:10536000F0E08081846080831092B8118081816038
:1053700080838081806480837894089590E06111B7
:1053800091E08E7F982B9093BA0008959093FF112F
:105390008093FE1108959093011280930012089556
:1053A000ECEBF0E080818F70806A80830895ECEBF5
:1053B000F0E080818F70806D808308958091BC00C3
:1053C00087FFFCCF08958093BB00ECEBF0E0808179
:1053D0008F70806880830895882329F08091BC00B5
:1053E0008F70806C04C08091BC008F708068809347
:1053F000BC0008958091BB0008958091B900089584
:10540000982F8091B8118823E1F782E08093B8113A
:105410009E7F9093B911AAEBB1E1FA0102C081918C
:105420008D938E2F841B8617D0F31092DA11609320
:10543000DB118091BC008F70806A8093BC0008955E
:10544000982F8091B8118823E1F783E08093B811F9
:1054500091609093B9111092FC116093FD118091AD
:10546000BC008F70806A8093BC008091B811882343
:10547000E1F7ACEDB1E1FA0102C08D9181938E2F7D
:10548000841B8617D0F30895982FFA018091BC00F1
:105490008E7F8093BC008091BC008F70806A809367
:1054A000BC008091BC0087FFFCCF9E7F9093BB0027
:1054B0008091BC008F7080688093BC008091BC009C
:1054C00087FFFCCF8091B900883189F091E012C04C
:1054D00080818093BB008091BC008F708068809336
:1054E000BC008091BC0087FFFCCF319661506623E1
:1054F00079F790E08091BC008F70806D8093BC0044
:105500008091BC0084FFFCCF8091BC0081608093BF
:10551000BC00892F0895982FFA018091BC008E7FDE
:105520008093BC008091BC008F70806A8093BC0027
:105530008091BC0087FFFCCF91609093BB0080916D
:10554000BC008F7080688093BC008091BC0087FF96
:10555000FCCF8091B900803481F091E01EC0809131
:10556000BC008F70806C8093BC008091BC0087FF72
:10557000FCCF8091BB0081936150623080F78091B5
:10558000BC008F7080688093BC008091BC0087FF56
:10559000FCCF8091BB00808390E08091BC008F7035
:1055A000806D8093BC008091BC0081608093BC00C2
:1055B000892F08951F920F920FB60F9211242F93E7
:1055C0003F934F935F936F937F938F939F93AF938B
:1055D000BF93EF93FF938091B900887F803609F4E1
:1055E000A0C0813670F5883209F45FC0893298F422
:1055F000803109F457C0813138F4882309F4EAC0B6
:10560000883009F0EFC04EC0883109F44EC08032B6
:1056100009F0E8C0DFC0803409F477C0813438F481
:10562000803309F4D7C0883309F0DCC05DC0803511
:1056300009F45FC0883509F44AC0883409F0D2C043
:10564000C9C0883909F4BAC08939B0F4883709F477
:1056500068C0893738F4883609F463C0803709F0A8
:10566000C1C05FC0883809F4A9C0803909F45FC09F
:10567000803809F0B7C05BC0803B09F479C0813B3A
:1056800038F4803A09F462C0883A09F0ABC070C0BF
:10569000803C09F49AC0883C09F497C0883B09F023
:1056A000A1C077C08091B9110FC09091DA1180919B
:1056B000DB11981708F08EC0E92FF0E0E654FE4E9B
:1056C00080819F5F9093DA118093BB0077C08091B7
:1056D000FC119091BB00E82FF0E0E452FE4E908365
:1056E0008F5F8093FC1176C08091BC008F708068C2
:1056F00075C08091FC119091BB00E82FF0E0E4525E
:10570000FE4E90838F5F8093FC112091FC1130E05E
:105710008091FD1190E00197281739070CF04EC0D9
:1057200048C085E08093B8111092FC1142C080916E
:10573000FC119091BB00E82FF0E0E452FE4E908304
:105740008F5F8093FC118032C8F533C08091BC001C
:105750008F70806C8093BC00E091FE11F091FF117E
:105760003097F1F18091FC116CED71E1099538C031
:1057700084E08093B811E0910012F091011230970B
:1057800031F080E26AEB71E109958093DB111092B0
:10579000DA119091DA11E92FF0E0E654FE4E8081A3
:1057A0008093BB009F5F9093DA118091DB11981773
:1057B00028F48091BC008F70806C04C08091BC0084
:1057C0008F7080688093BC000DC08091BC008F708A
:1057D000806C04C08091BC008F70806D8093BC0091
:1057E0001092B811FF91EF91BF91AF919F918F915E
:1057F0007F916F915F914F913F912F910F900FBECD
:105800000F901F9018958091B8110895F8940C94FA
:105810008230FB01DC0102C001900D9241505040EA
:10582000D8F70895DC0101C06D9341505040E0F776
:105830000895FB01DC014150504048F001900D9269
:105840000020C9F701C01D9241505040E0F7089573
:105850005058BB27AA270ED075C166D130F06BD146
:1058600020F031F49F3F11F41EF45BC10EF4E0957B
:10587000E7FB51C1E92F77D180F3BA1762077307AD
:105880008407950718F071F49EF58FC10EF4E0952A
:105890000B2EBA2FA02D0B01B90190010C01CA01EA
:1058A000A0011124FF27591B99F0593F50F4503E95
:1058B00068F11A16F040A22F232F342F4427585F87
:1058C000F3CF469537952795A795F0405395C9F79F
:1058D0007EF41F16BA0B620B730B840BBAF0915057
:1058E000A1F0FF0FBB1F661F771F881FC2F70EC0F6
:1058F000BA0F621F731F841F48F4879577956795C9
:10590000B795F7959E3F08F0B3CF9395880F08F0B1
:105910009927EE0F979587950895D9D008F481E0DF
:1059200008950CD00FC107D140F0FED030F021F423
:105930005F3F19F0F0C0511139C1F3C014D198F391
:105940009923C9F35523B1F3951B550BBB27AA2700
:1059500062177307840738F09F5F5F4F220F331F72
:10596000441FAA1FA9F333D00E2E3AF0E0E830D03E
:1059700091505040E695001CCAF729D0FE2F27D041
:10598000660F771F881FBB1F261737074807AB070F
:10599000B0E809F0BB0B802DBF01FF2793585F4F84
:1059A0002AF09E3F510568F0B6C000C15F3FECF39E
:1059B000983EDCF3869577956795B795F7959F5F49
:1059C000C9F7880F911D9695879597F90895E1E09D
:1059D000660F771F881FBB1F621773078407BA07FC
:1059E00020F0621B730B840BBA0BEE1F88F7E09557
:1059F000089504D06894B111D9C00895BCD088F03E
:105A00009F5790F0B92F9927B751A0F0D1F0660FAA
:105A1000771F881F991F1AF0BA95C9F712C0B130C5
:105A200081F0C3D0B1E00895C0C0672F782F8827D8
:105A3000B85F39F0B93FCCF3869577956795B39504
:105A4000D9F73EF490958095709561957F4F8F4F73
:105A50009F4F0895E89409C097FB3EF49095809578
:105A6000709561957F4F8F4F9F4F9923A9F0F92F24
:105A700096E9BB279395F695879577956795B795A2
:105A8000F111F8CFFAF4BB0F11F460FF1BC06F5F88
:105A90007F4F8F4F9F4F16C0882311F096E911C09A
:105AA000772321F09EE8872F762F05C0662371F0BB
:105AB00096E8862F70E060E02AF09A95660F771FCF
:105AC000881FDAF7880F9695879597F90895990FAB
:105AD0000008550FAA0BE0E8FEEF16161706E807B8
