:100000000C9430010C944D010C944D010C944D0155
:100010000C944D010C944D010C944D010C944D0128
:100020000C944D010C944D010C944D010C944D0118
:100030000C944D010C942E0E0C945B0E0C944D0CF4
:100040000C94A70D0C944D010C94D40D0C94010E3E
:100050000C940D0C0C944D0D0C947A0D0C94BA0B61
:100060000C944D010C9424120C944D010C948113AA
:100070000C944D010C948B150C944D010C94880E2E
:100080000C94B50E0C94E20E0C940F0F0C948D0C86
:100090000C94FF110C944D010C945C130C94A91951
:1000A0000C944D010C943C0F0C94690F0C94960F1A
:1000B0000C94C30F0C94CD0C0C94F00F0C941D10E9
:1000C0000C944A100C9477100C940D0D0C94DA11CA
:1000D0000C944D010C9437130C94B5110C944D01F4
:1000E0000C94121307634236B79BD8A71A39685687
:1000F00018AEBAAB558C1D3CB7CC5763BD6DEDFD4A
:10010000753EF6177231BF000000803F0800000006
:10011000BE922449123EABAAAA2ABECDCCCC4C3EFC
:1001200000000080BEABAAAAAA3E00000000BF00EB
:100130000000803F0000000000084178D3BB4387E7
:10014000D1133D190E3CC3BD4282AD2B3E68EC82FB
:1001500076BED98FE1A93E4C80EFFFBE01C4FF7F80
:100160003F0000000000535441525421212121211D
:10017000212121212121212121212121212121216F
:10018000212121212121210A005374617274696E99
:10019000672070726F6772616D2E0A00096C696E5C
:1001A0005F763A2000616E675F763A20004469739B
:1001B000745F7A65726F3A2000096C696E5F763AF7
:1001C0002000616E675F763A2000496E697469614C
:1001D0006C697A6174696F6E20436F6D706C6574C1
:1001E00065200D0A002E000D0A53797374656D2089
:1001F0005761726D656420557000000001000800B1
:100200004000000100040000010008002000400040
:100210008000000100044241445F766563742063FE
:10022000616C6C65642100303132333435363738D7
:100230003941424344454600256420002044697307
:1002400074616E6365733A2000204D6F746F722085
:1002500053706565643A2000496E6465783A200001
:1002600011241FBECFEFD1E2DEBFCDBF12E0A0E070
:10027000B2E0E2EEF4E402C005900D92A239B107BB
:10028000D9F719E0A2E9B2E001C01D92A33BB10782
:10029000E1F70E942E090C94331E0C94A4108930AF
:1002A00049F480918000826080938000809180007A
:1002B0008E7F0EC08A3021F480918000826003C05E
:1002C000809180008D7F809380008091800081608C
:1002D0008093800010928B0010928A0008958930DC
:1002E00049F48091B00082608093B0008091B000AA
:1002F0008E7F0EC08A3021F48091B000826003C0EE
:100300008091B0008D7F8093B0008091B0008160BB
:100310008093B0001092B4000895893049F4809120
:100320009000826080939000809190008E7F0EC03C
:100330008A3021F480919000826003C08091900007
:100340008D7F8093900080919000816080939000D9
:1003500010929900109298000895893049F4809184
:100360009100826080939100809191008E7F0EC0F9
:100370008A3021F480919100826003C080919100C5
:100380008D7F809391008091910081608093910096
:1003900010929B0010929A000895893049F4809140
:1003A0009200826080939200809192008E7F0EC0B6
:1003B0008A3021F480919200826003C08091920083
:1003C0008D7F809392008091920081608093920053
:1003D00010929D0010929C000895893049F48091FC
:1003E000A00082608093A0008091A0008E7F0EC04C
:1003F0008A3021F48091A000826003C08091A00027
:100400008D7F8093A0008091A00081608093A000E8
:100410001092A9001092A8000895893049F48091A3
:10042000A10082608093A1008091A1008E7F0EC008
:100430008A3021F48091A100826003C08091A100E4
:100440008D7F8093A1008091A10081608093A100A5
:100450001092AB001092AA000895893049F480915F
:10046000A00082608093A0008091A0008E7F0EC0CB
:100470008A3021F48091A000826003C08091A000A6
:100480008D7F8093A0008091A00081608093A00068
:100490001092AD001092AC000895E0E8F0E02081E9
:1004A0002E7F2083208122602083E1E8F0E02081FC
:1004B000286020832081206120839093870080938F
:1004C0008600109289001092880010928B00109282
:1004D0008A0010928D0010928C000895E0E9F0E0FF
:1004E00020812E7F2083208122602083E1E9F0E0BB
:1004F00020812860208320812061208390939700B1
:1005000080939600109299001092980010929B0090
:1005100010929A0010929D0010929C000895E0EABB
:10052000F0E020812E7F2083208122602083E1EA79
:10053000F0E0208128602083208120612083909337
:10054000A7008093A6001092A9001092A800109214
:10055000AB001092AA001092AD001092AC0008956A
:10056000E0E8F0E080818062808380818F7E8083FC
:100570000895E0EBF0E080818062808380818F7E4F
:1005800080830895E0E9F0E0808180688083808145
:100590008F7B80830895E0E9F0E080818062808332
:1005A00080818F7E80830895E0E9F0E0808188601B
:1005B000808380818B7F80830895E0EAF0E08081F2
:1005C0008068808380818F7B80830895E0EAF0E0FB
:1005D00080818062808380818F7E80830895E0EABD
:1005E000F0E080818860808380818B7F80830895A4
:1005F000E0E8F0E080818F7D808380818F7E808342
:100600000895E0EBF0E080818F7D808380818F7E94
:1006100080830895E0E9F0E080818F778083808196
:100620008F7B80830895E0E9F0E080818F7D808377
:1006300080818F7E80830895E0E9F0E08081877F6C
:10064000808380818B7F80830895E0EAF0E0808161
:100650008F77808380818F7B80830895E0EAF0E04C
:1006600080818F7D808380818F7E80830895E0EA02
:10067000F0E08081877F808380818B7F80830895F5
:10068000E0E8F0E080818D7F808380818E7F8083B1
:1006900080818F7D808380818F7E80830895E0EBD1
:1006A000F0E080818D7F808380818E7F8083808158
:1006B0008F7D808380818F7E80830895E0E9F0E0E4
:1006C00080818D7F808380818E7F808380818F7702
:1006D000808380818F7B808380818F7D80838081F8
:1006E0008F7E80838081877F808380818B7F8083E2
:1006F0000895E0EAF0E080818D7F808380818E7FA5
:10070000808380818F77808380818F7B80838081CD
:100710008F7D808380818F7E80838081877F8083AF
:1007200080818B7F8083089590938B0080938A00D3
:1007300008958093B4000895909399008093980051
:10074000089590939B0080939A00089590939D0044
:1007500080939C0008959093A9008093A800089529
:100760009093AB008093AA0008959093AD0080937E
:10077000AC00089510BA11BA109207011092080146
:100780009FEF91B980E484B997B9589A599A83EF49
:100790008AB98EEF8DB9A59A9D98809301018093B7
:1007A0000401089508952E9A08952E98089522B36D
:1007B00030E085E0369527958A95E1F720953095CC
:1007C00021703070C901089597FD10C025E030E018
:1007D00040E050E00E945422DA01C901880F991FBD
:1007E00080509E4FFC012081318117C025E030E010
:1007F00040E050E00E945422DA01C901885B9F4F1B
:10080000AF4FBF4F880F991F80509E4FFC018081D2
:10081000918122273327281B390BC90108956A5576
:1008200070408040904097FD10C025E030E040E0EF
:1008300050E00E945422DA01C901880F991F8050AC
:100840009E4FFC012081318117C025E030E040E05F
:1008500050E00E945422DA01C901885B9F4FAF4FDC
:10086000BF4F880F991F80509E4FFC01808191815E
:1008700022273327281B390BC9010895CF92DF9215
:10088000EF92FF920F931F936B017C018AE5C816CC
:10089000D104E104F104A1F186EAC8168FEFD8066D
:1008A0008FEFE8068FEFF80659F18EE0C81681E069
:1008B000D80680E0E80680E0F80611F182EFC8165D
:1008C0008EEFD8068FEFE8068FEFF806C9F0C70164
:1008D000B6010E940F048C01C701B6010E94E40317
:1008E000BC01C8010E941F22CB019B0173E0220FB3
:1008F000331F7A95E1F7880F991F280F391F02C01F
:1009000020E030E0C9011F910F91FF90EF90DF9040
:10091000CF9008952F923F924F925F926F927F9265
:100920008F929F92AF92BF92CF92DF92EF92FF92FF
:100930000F931F93CF93DF938C016B011A0180E01B
:1009400090E0A0E0B0E0FA0180839183A283B383BA
:10095000FB0180839183A283B383C0E0D0E0F801E0
:10096000EC0FFD1F608171816115710561F080E000
:1009700090E00E94331F9B01AC01C301B2010E94B1
:10098000371E2B013C012296F2E0C03DDF0739F70C
:100990005801EEEC8E2EE2E09E2E800E911E0F2E60
:1009A000F0E0EF2EF0E0FF2EF0E00F2FF0E01F2F31
:1009B000F02DC0E0D0E0CE014F97CB97F8F4F501D1
:1009C0006081718161157105C9F0F40180819181A7
:1009D0000097A1F0681B790B80E090E00E94331F24
:1009E00020E030E040E05FE30E94E91F9B01AC01A2
:1009F000C801B7010E94371E7B018C01C431D105AB
:100A00006CF5F5016081718161157105B9F0F40132
:100A100080819181009791F0680F791F685C704028
:100A200080E090E00E94331F9B01AC01F6016081E1
:100A30007181828193810E94371E0BC0F601608113
:100A400071818281938120E030E040E85FE30E9481
:100A5000361EF6016083718382839383219682E040
:100A600090E0A80EB91EEEEFFFEF8E0E9F1EF1E094
:100A7000C836DF0709F09FCF60E070E080E090E0CB
:100A8000A80197010E94361EA30192010E949F1E99
:100A9000F1016083718382839383F60160817181A8
:100AA0008281938120E030E04AE754E40E949F1E57
:100AB000F6016083718382839383DF91CF911F91CD
:100AC0000F91FF90EF90DF90CF90BF90AF909F90ED
:100AD0008F907F906F905F904F903F902F900895F0
:100AE0000895E0E2F1E020812E7F208320812260C2
:100AF0002083E1E2F1E020812860208320812061D1
:100B000020832FB7F89490932701809326012FBF5D
:100B1000109229011092280110922B0110922A01A3
:100B20000895E0E2F1E080818F77808380818F7B80
:100B300080830895E0E2F1E080818F7D8083808171
:100B40008F7E80830895E0E2F1E080818068808379
:100B500080818F7B80830895E0E2F1E08081806274
:100B6000808380818F7E8083089590932901809374
:100B70002801089590932B0180932A010895A0E005
:100B8000B0E0BC01CD010E94331F21EC3AEC41E3FF
:100B900050EC0E94E91F20E030E84BEB53E40E9448
:100BA000371E0E94071F7093290160932801089542
:100BB000A0E0B0E0BC01CD010E94331F21EC3AEC73
:100BC00041E350E40E94E91F20E030E84BEB53E49E
:100BD0000E94371E0E94071F70932B0160932A0109
:100BE00008952F923F924F925F926F927F928F92D1
:100BF0009F92AF92BF92CF92DF92EF92FF920F93AC
:100C00001F93062FF72EE82ED92EC22EB32EA42E18
:100C1000952E172F360125018AEF0E945411802F3F
:100C20000E9454118F2D0E9454118E2D0E94541138
:100C30008D2D0E9454118C2D0E9454118B2D0E94D9
:100C400054118A2D0E945411892D0E945411100FA5
:100C50001E0D170D160D150D140D812F890D0E94F7
:100C600054111F910F91FF90EF90DF90CF90BF90A4
:100C7000AF909F908F907F906F905F904F903F903C
:100C80002F9008952F923F924F925F926F927F9292
:100C90008F929F92AF92BF92CF92DF92EF92FF928C
:100CA0000F931F93FC01608171816739710548F4CE
:100CB0005524772488249924DD2422246624AA2418
:100CC000A1C080E090E00E94331F3B014C0120E076
:100CD00030E048E453E40E94361E20E030E040E279
:100CE00051E40E949F1E7B018C0160E070E080E077
:100CF00090E4A80197010E944C200E949C209B0137
:100D0000AC01C801B7010E949F1E20E030E040E81E
:100D10005FE30E94371E20E030E040E85FE30E947E
:100D2000371E20E030E040E05FE30E94E91F1B0136
:100D30002C01C401B30120E030E048E453E40E94F8
:100D4000371E20E030E040E251E40E949F1E7B010C
:100D50008C0160E070E080E090E4A80197010E94BF
:100D60004C200E949C209B01AC01C801B7010E944D
:100D70009F1E20E030E040E85FE30E94371E20E045
:100D800030E040E85FE30E94371E20E030E040E0C2
:100D90005FE30E94E91F5B016C0100D00F9281E0CC
:100DA000EDB7FEB781838DEA91E0938382830E9441
:100DB000BE170F900F900F9085E0B401A3010E9421
:100DC000F516C201B10120E030E040EF51E40E948D
:100DD000E91F7B018C01562E7F2C4801C601B5010D
:100DE0002BED3FE049E450E40E94E91F9B01AC0178
:100DF000D62E232E642EA52EB701C801DA01AD012F
:100E00000E94F10500D00F9211E0EDB7FEB71183FB
:100E100085EA91E0938382830E94BE170F900F9022
:100E20000F9085E04D2D522D662D7A2D0E94F516DE
:100E300000D00F92EDB7FEB711838CE991E0938358
:100E400082830E94BE170F900F900F9085E0452D72
:100E5000572D682D792D0E94F5160E94FE151F91C1
:100E60000F91FF90EF90DF90CF90BF90AF909F9049
:100E70008F907F906F905F904F903F902F9008954C
:100E80004F925F926F927F928F929F92AF92BF929A
:100E9000CF92DF92EF92FF920F931F93CF93DF9346
:100EA0004C01EC01C453DF4FCC240F2EF0E0EF2EA9
:100EB000F0E0FF2EF0E00F2FF0E01F2FF02DDD24EB
:100EC000688179816739710568F080E090E00E945F
:100ED000331F9B01AC01C801B7010E94371E7B0183
:100EE0008C01C394D394229685E0D81649F7CC2080
:100EF00071F06C2D70E080E090E00E94331F9B0148
:100F0000AC01C801B7010E949F1E7B018C01C80182
:100F1000B70120E030E048EC52E40E949F1E20E040
:100F200030E040EA50E40E94361E9B01AC0160E0D4
:100F300070E080E090E40E944C207B018C01C801AD
:100F4000B70120E030E048EC52E40E94E91F5B0169
:100F50006C01C801B70120E030E040E850E40E9495
:100F6000371E9B01AC01C601B5010E949F1E762E63
:100F7000672E582E492EF0E7CF2EF2E0DF2EC80C58
:100F8000D91CAA240F2EF0E0EF2EF0E0FF2EF0E0A7
:100F90000F2FF0E01F2FF02DC8E3D1E0F6016081A4
:100FA00071816739710568F080E090E00E94331F1D
:100FB0009B01AC01C801B7010E94371E7B018C0167
:100FC000A394219682E090E0C80ED91E91E0CD3323
:100FD000D90721F7AA2071F06A2D70E080E090E037
:100FE0000E94331F9B01AC01C801B7010E949F1EE4
:100FF0007B018C01C801B70120E030E046E653E4F4
:101000000E94361E5B016C010E94E62020E030E069
:1010100040E85FE30E94371E0E949C207B018C0108
:10102000C601B5012AE939E949E95EEB0E94E91FE9
:10103000A80197010E949F1E7B018C01272D362D50
:10104000452D542DB901CA019701A8010E94F1054F
:1010500000D00F92DD24D394EDB7FEB7D18282EC9D
:1010600091E0938382830E94BE170F900F900F90A0
:1010700085E04E2D5F2D602F712F0E94F51600D058
:101080000F92EDB7FEB7D18289EB91E09383828313
:101090000E94BE170F900F900F9085E0472D562DA0
:1010A000652D742D0E94F5160E94FE15DF91CF91DB
:1010B0001F910F91FF90EF90DF90CF90BF90AF9076
:1010C0009F908F907F906F905F904F9008950F93B7
:1010D0001F93CF93DF930E94061580E040E056E90E
:1010E00060E070E00E94E01081E040E052EC61E0DE
:1010F00070E00E94E01082E040E052EC61E070E0BD
:101100000E94E01083E040E052EC61E070E00E9459
:10111000E01089E591E10E949A150E94BA0380E0EF
:1011200060E775E00E94D51083E060EE7AE10E94EE
:10113000D5102E9800D00F9281E0EDB7FEB78183D5
:1011400087EE91E0938382830E94BE170F900F90E9
:101150000F9085E00E94EC0A83E00E94FA0A87E083
:101160000E940C0B83E00E941C0B83E00E942E0B5C
:1011700083E00E94400B0E940F1585E00E94341509
:1011800081E00E943B1510E001E0C5EED1E0812F27
:101190000E94841500D00F92EDB7FEB70183D38370
:1011A000C2830E94BE171F5F0F900F900F901031E7
:1011B00071F72E9A809101018F77809301018091C0
:1011C00020018E7F80932001809120018260809396
:1011D000200180912101886080932101809121016B
:1011E0008061809321012FB7F89488E893E1909370
:1011F0002701809326012FBF109229011092280108
:1012000010922B0110922A0180910A01886080932C
:101210000A0180910A01806180930A0100D00F9237
:1012200081E0EDB7FEB781838AEC91E093838283FE
:101230000E94BE170F900F900F900E94A20A0E946A
:10124000AC0A0E94B90A0E94C40A0E94D10A0E94F4
:10125000DE0ADF91CF911F910F9108951F93CF93D5
:10126000DF930E94D51A0E94670800D00F9281E098
:10127000EDB7FEB7818389E891E0938382830E9472
:10128000BE170F900F900F9011E06DC0809100017C
:1012900087FD02C0109395028AE00E945B15895574
:1012A000924008F45CC0C0E0D0E08AE00E945B1588
:1012B0008955924048F08091930290919402019652
:1012C00090939402809393028AE090E00E94EB0A4C
:1012D000219683E0C83ED80741F7C0E0D0E08AE01D
:1012E0000E945B158955924048F08091930290913D
:1012F0009402019690939402809393028AE090E086
:101300000E94EB0A2196F3E0C83EDF0741F7C0E0F8
:10131000D0E08AE00E945B158955924048F08091A8
:101320009302909194020196909394028093930279
:101330008AE090E00E94EB0A219683E0C83ED8073D
:1013400041F780919302909194028152934018F05A
:101350001093920204C010929402109293028AE0B9
:1013600090E00E94EB0A80919202882329F48091F8
:101370009502882309F48ACF00D00F9281E0EDB75F
:10138000FEB7818386E691E0938382830E94BE1735
:101390000F900F900F9086E795E00E944A1D86E718
:1013A00095E00E9442068AE090E00E94670BF3CF2E
:1013B000E82FF0E0E770F070EE0FFF1FE650FE4FF1
:1013C00025913491C9010895E82FF0E0E770F0709D
:1013D000EE0FFF1FEA5FFD4F25913491C90108957B
:1013E00085B5E82FF0E0E770F070EE0FFF1FE650D4
:1013F000FE4F25913491C901089580918100E82F15
:10140000F0E0E770F070EE0FFF1FE650FE4F259101
:101410003491C90108958091B100E82FF0E0E770A0
:10142000F070EE0FFF1FEA5FFD4F25913491C90167
:10143000089580919100E82FF0E0E770F070EE0FD2
:10144000FF1FE650FE4F25913491C9010895809108
:10145000A100E82FF0E0E770F070EE0FFF1FE650FC
:10146000FE4F25913491C901089580912101E82F03
:10147000F0E0E770F070EE0FFF1FE650FE4F259191
:101480003491C901089520914E0830914F08409140
:10149000500850915108B901CA01089520914A0895
:1014A00030914B0840914C0850914D08B901CA0148
:1014B000089520915208309153084091540850915A
:1014C0005508B901CA01089520915A0830915B0866
:1014D00040915C0850915D08B901CA0108952091BE
:1014E0004608309147084091480850914908B90191
:1014F000CA01089520915E0830915F08409160080C
:1015000050916108B901CA01089586B508952091E6
:10151000840030918500C90108958091B20008953A
:101520002091940030919500C90108952091A40064
:101530003091A500C9010895209124013091250121
:10154000C901089510924E0810924F081092500849
:101550001092510816BC089510924A0810924B0838
:1015600010924C0810924D08109285001092840041
:101570000895109252081092530810925408109235
:1015800055081092B200089510925A0810925B0804
:1015900010925C0810925D081092950010929400D1
:1015A0000895109246081092470810924808109229
:1015B00049081092A5001092A400089510925E08A8
:1015C00010925F0810926008109261081092250135
:1015D000109224010895089585BD81E080936E00E6
:1015E00010924E0810924F08109250081092510815
:1015F00016BC08958093810081E080936F00109263
:101600004A0810924B0810924C0810924D08109204
:1016100085001092840008958093B10081E080934A
:1016200070001092520810925308109254081092B1
:1016300055081092B20008958093910081E0809344
:10164000710010925A0810925B0810925C08109278
:101650005D08109295001092940008958093A10067
:1016600081E0809372001092460810924708109211
:101670004808109249081092A5001092A4000895FD
:101680008093210181E08093730010925E08109294
:101690005F08109260081092610810922501109264
:1016A00024010895E82FF0E0EE0FFF1FE256FD4FF2
:1016B000718360830895E82FF0E0EE0FFF1FE2567C
:1016C000FD4F1182108208950197F1F70895AF92AE
:1016D000BF92CF92DF92EF92FF920F931F93A0E001
:1016E000B0E0BC01CD010E94331F5B016C0120E022
:1016F00030E04AE755E40E94E91F7B018C0120E0BD
:1017000030E040E85FE30E949B1E88231CF461E008
:1017100070E024C0C801B70120E03FEF4FE757E475
:101720000E94E51F1816B4F4C601B50120E030E0B0
:1017300040E251E40E94E91F0E94071F80E991E006
:1017400005C0FC013197F1F76150704061157105DA
:10175000C1F707C0C801B7010E94071FCB0101975D
:10176000F1F71F910F91FF90EF90DF90CF90BF9016
:10177000AF9008951F920F920FB60F9211242F93DE
:101780003F934F935F936F937F938F939F93AF9309
:10179000BF93EF93FF9380914E0890914F08A091D3
:1017A0005008B09151080196A11DB11D80934E08BB
:1017B00090934F08A0935008B09351088091560819
:1017C00090915708A0915808B09159080196A11D11
:1017D000B11D8093560890935708A0935808B09372
:1017E00059088091A2029091A302892B29F0E091DF
:1017F000A202F091A3020995FF91EF91BF91AF91E1
:101800009F918F917F916F915F914F913F912F9118
:101810000F900FBE0F901F9018951F920F920FB64A
:101820000F9211242F933F934F935F936F937F9366
:101830008F939F93AF93BF93EF93FF9380914A0849
:1018400090914B08A0914C08B0914D080196A11DB4
:10185000B11D80934A0890934B08A0934C08B09315
:101860004D088091AC029091AD02892B29F0E09156
:10187000AC02F091AD020995FF91EF91BF91AF914C
:101880009F918F917F916F915F914F913F912F9198
:101890000F900FBE0F901F9018951F920F920FB6CA
:1018A0000F9211242F933F934F935F936F937F93E6
:1018B0008F939F93AF93BF93EF93FF9380915208C1
:1018C00090915308A0915408B09155080196A11D1C
:1018D000B11D8093520890935308A0935408B0937D
:1018E00055088091B2029091B302892B29F0E091C2
:1018F000B202F091B3020995FF91EF91BF91AF91C0
:101900009F918F917F916F915F914F913F912F9117
:101910000F900FBE0F901F9018951F920F920FB649
:101920000F9211242F933F934F935F936F937F9365
:101930008F939F93AF93BF93EF93FF9380915A0838
:1019400090915B08A0915C08B0915D080196A11D83
:10195000B11D80935A0890935B08A0935C08B093E4
:101960005D088091BC029091BD02892B29F0E09125
:10197000BC02F091BD020995FF91EF91BF91AF912B
:101980009F918F917F916F915F914F913F912F9197
:101990000F900FBE0F901F9018951F920F920FB6C9
:1019A0000F9211242F933F934F935F936F937F93E5
:1019B0008F939F93AF93BF93EF93FF9380914608CC
:1019C00090914708A0914808B09149080196A11D3F
:1019D000B11D8093460890934708A0934808B093A0
:1019E00049088091C6029091C702892B29F0E091A5
:1019F000C602F091C7020995FF91EF91BF91AF9197
:101A00009F918F917F916F915F914F913F912F9116
:101A10000F900FBE0F901F9018951F920F920FB648
:101A20000F9211242F933F934F935F936F937F9364
:101A30008F939F93AF93BF93EF93FF9380915E0833
:101A400090915F08A0916008B09161080196A11D76
:101A5000B11D80935E0890935F08A0936008B093D7
:101A600061088091D0029091D102892B29F0E091F8
:101A7000D002F091D1020995FF91EF91BF91AF9102
:101A80009F918F917F916F915F914F913F912F9196
:101A90000F900FBE0F901F9018951F920F920FB6C8
:101AA0000F9211242F933F934F935F936F937F93E4
:101AB0008F939F93AF93BF93EF93FF9380919E0279
:101AC00090919F02892B29F0E0919E02F0919F0254
:101AD0000995FF91EF91BF91AF919F918F917F9168
:101AE0006F915F914F913F912F910F900FBE0F908B
:101AF0001F9018951F920F920FB60F9211242F93DB
:101B00003F934F935F936F937F938F939F93AF9385
:101B1000BF93EF93FF938091A0029091A102892B34
:101B200029F0E091A002F091A1020995FF91EF91B7
:101B3000BF91AF919F918F917F916F915F914F91E5
:101B40003F912F910F900FBE0F901F9018951F92ED
:101B50000F920FB60F9211242F933F934F935F93E1
:101B60006F937F938F939F93AF93BF93EF93FF9365
:101B70008091A4029091A502892B29F0E091A40202
:101B8000F091A5020995FF91EF91BF91AF919F91BF
:101B90008F917F916F915F914F913F912F910F9016
:101BA0000FBE0F901F9018951F920F920FB60F92B5
:101BB00011242F933F934F935F936F937F938F9352
:101BC0009F93AF93BF93EF93FF938091A80290915F
:101BD000A902892B29F0E091A802F091A9020995A8
:101BE000FF91EF91BF91AF919F918F917F916F91F5
:101BF0005F914F913F912F910F900FBE0F901F90CB
:101C000018951F920F920FB60F9211242F933F93A6
:101C10004F935F936F937F938F939F93AF93BF93F4
:101C2000EF93FF938091AA029091AB02892B29F048
:101C3000E091AA02F091AB020995FF91EF91BF915B
:101C4000AF919F918F917F916F915F914F913F9154
:101C50002F910F900FBE0F901F9018951F920F920B
:101C60000FB60F9211242F933F934F935F936F936F
:101C70007F938F939F93AF93BF93EF93FF93809145
:101C8000AE029091AF02892B29F0E091AE02F09163
:101C9000AF020995FF91EF91BF91AF919F918F9105
:101CA0007F916F915F914F913F912F910F900FBE58
:101CB0000F901F9018951F920F920FB60F9211243C
:101CC0002F933F934F935F936F937F938F939F9344
:101CD000AF93BF93EF93FF938091B0029091B102C5
:101CE000892B29F0E091B002F091B1020995FF91A2
:101CF000EF91BF91AF919F918F917F916F915F9184
:101D00004F913F912F910F900FBE0F901F901895FC
:101D10001F920F920FB60F9211242F933F934F9360
:101D20005F936F937F938F939F93AF93BF93EF9343
:101D3000FF938091B4029091B502892B29F0E09134
:101D4000B402F091B5020995FF91EF91BF91AF9167
:101D50009F918F917F916F915F914F913F912F91C3
:101D60000F900FBE0F901F9018951F920F920FB6F5
:101D70000F9211242F933F934F935F936F937F9311
:101D80008F939F93AF93BF93EF93FF938091B6028E
:101D90009091B702892B29F0E091B602F091B70239
:101DA0000995FF91EF91BF91AF919F918F917F9195
:101DB0006F915F914F913F912F910F900FBE0F90B8
:101DC0001F9018951F920F920FB60F9211242F9308
:101DD0003F934F935F936F937F938F939F93AF93B3
:101DE000BF93EF93FF938091B8029091B902892B32
:101DF00029F0E091B802F091B9020995FF91EF91B5
:101E0000BF91AF919F918F917F916F915F914F9112
:101E10003F912F910F900FBE0F901F9018951F921A
:101E20000F920FB60F9211242F933F934F935F930E
:101E30006F937F938F939F93AF93BF93EF93FF9392
:101E40008091BA029091BB02892B29F0E091BA02ED
:101E5000F091BB020995FF91EF91BF91AF919F91D6
:101E60008F917F916F915F914F913F912F910F9043
:101E70000FBE0F901F9018951F920F920FB60F92E2
:101E800011242F933F934F935F936F937F938F937F
:101E90009F93AF93BF93EF93FF938091BE02909176
:101EA000BF02892B29F0E091BE02F091BF02099593
:101EB000FF91EF91BF91AF919F918F917F916F9122
:101EC0005F914F913F912F910F900FBE0F901F90F8
:101ED00018951F920F920FB60F9211242F933F93D4
:101EE0004F935F936F937F938F939F93AF93BF9322
:101EF000EF93FF938091C0029091C102892B29F04A
:101F0000E091C002F091C1020995FF91EF91BF915C
:101F1000AF919F918F917F916F915F914F913F9181
:101F20002F910F900FBE0F901F9018951F920F9238
:101F30000FB60F9211242F933F934F935F936F939C
:101F40007F938F939F93AF93BF93EF93FF93809172
:101F5000C2029091C302892B29F0E091C202F09154
:101F6000C3020995FF91EF91BF91AF919F918F911E
:101F70007F916F915F914F913F912F910F900FBE85
:101F80000F901F9018951F920F920FB60F92112469
:101F90002F933F934F935F936F937F938F939F9371
:101FA000AF93BF93EF93FF938091C4029091C502CA
:101FB000892B29F0E091C402F091C5020995FF91A7
:101FC000EF91BF91AF919F918F917F916F915F91B1
:101FD0004F913F912F910F900FBE0F901F9018952A
:101FE0001F920F920FB60F9211242F933F934F938E
:101FF0005F936F937F938F939F93AF93BF93EF9371
:10200000FF938091C8029091C902892B29F0E09139
:10201000C802F091C9020995FF91EF91BF91AF916C
:102020009F918F917F916F915F914F913F912F91F0
:102030000F900FBE0F901F9018951F920F920FB622
:102040000F9211242F933F934F935F936F937F933E
:102050008F939F93AF93BF93EF93FF938091CA02A7
:102060009091CB02892B29F0E091CA02F091CB022A
:102070000995FF91EF91BF91AF919F918F917F91C2
:102080006F915F914F913F912F910F900FBE0F90E5
:102090001F9018951F920F920FB60F9211242F9335
:1020A0003F934F935F936F937F938F939F93AF93E0
:1020B000BF93EF93FF938091CC029091CD02892B37
:1020C00029F0E091CC02F091CD020995FF91EF91BA
:1020D000BF91AF919F918F917F916F915F914F9140
:1020E0003F912F910F900FBE0F901F9018951F9248
:1020F0000F920FB60F9211242F933F934F935F933C
:102100006F937F938F939F93AF93BF93EF93FF93BF
:102110008091CE029091CF02892B29F0E091CE02DE
:10212000F091CF020995FF91EF91BF91AF919F91EF
:102130008F917F916F915F914F913F912F910F9070
:102140000FBE0F901F9018951F920F920FB60F920F
:1021500011242F933F934F935F936F937F938F93AC
:102160009F93AF93BF93EF93FF9300D00F9281E0C3
:10217000EDB7FEB7818386E192E0938382830E946C
:10218000BE170F900F900F90FF91EF91BF91AF91FD
:102190009F918F917F916F915F914F913F912F917F
:1021A0000F900FBE0F901F901895843040F4E82FC9
:1021B000F0E0EE0FFF1FEE5EFA4F7183608308952B
:1021C0001F93182F9A01AB01CA01B90160587B47D0
:1021D000814E9F4FF3E0660F771F881F991FFA9576
:1021E000D1F7E4E0220F331F441F551FEA95D1F7C2
:1021F0000E94322221503040133029F420933401C0
:102200003093350112C0123029F42093D40030935A
:10221000D5000BC0113029F42093CC003093CD00B1
:1022200004C02093C4003093C5001F910895282F47
:1022300030E0A3E0220F331FAA95E1F72A59374F68
:10224000C9010895282F30E0B3E0220F331FBA955B
:10225000E1F72657374FC9010895E82F833039F445
:102260008091300185FFFCCF6093360118C0823029
:1022700039F48091D00085FFFCCF6093D6000FC069
:10228000813039F48091C80085FFFCCF6093CE0087
:1022900006C08091C00085FFFCCF6093C600F0E0CF
:1022A000EE59F74F10820895682F80E00E942D119B
:1022B0000895682F81E00E942D110895682F82E013
:1022C0000E942D110895682F83E00E942D1108951A
:1022D00020E0E82FF0E083E0EE0FFF1F8A95E1F7A2
:1022E000E659F74F80819181892B09F421E0822FF3
:1022F0000895CF93DF93833019F4609136010CC0B9
:10230000823019F46091D60007C0813019F46091D1
:10231000CE0002C06091C600282F30E0E901CC0F4A
:10232000DD1FFE01EE5EFA4F80819181892B31F035
:102330000190F081E02D862F099514C093E0220FC3
:10234000331F9A95E1F7C9018A59974F0E94F91DE9
:10235000882341F4FE01E655F74F80819181019673
:1023600091838083DF91CF9108951F920F920FB6D2
:102370000F9211242F933F934F935F936F937F930B
:102380008F939F93AF93BF93EF93FF9383E00E944C
:102390007911FF91EF91BF91AF919F918F917F91B3
:1023A0006F915F914F913F912F910F900FBE0F90C2
:1023B0001F9018951F920F920FB60F9211242F9312
:1023C0003F934F935F936F937F938F939F93AF93BD
:1023D000BF93EF93FF9382E00E947911FF91EF91F9
:1023E000BF91AF919F918F917F916F915F914F912D
:1023F0003F912F910F900FBE0F901F9018951F9235
:102400000F920FB60F9211242F933F934F935F9328
:102410006F937F938F939F93AF93BF93EF93FF93AC
:1024200081E00E947911FF91EF91BF91AF919F914F
:102430008F917F916F915F914F913F912F910F906D
:102440000FBE0F901F9018951F920F920FB60F920C
:1024500011242F933F934F935F936F937F938F93A9
:102460009F93AF93BF93EF93FF9380E00E94791106
:10247000FF91EF91BF91AF919F918F917F916F915C
:102480005F914F913F912F910F900FBE0F901F9032
:1024900018958F929F92AF92BF92CF92DF92EF9258
:1024A000FF920F931F93CF93DF93882EDB01C82EEB
:1024B000DD24F60113E0EE0FFF1F1A95E1F7E25756
:1024C000F74F20813181240F351FF60173E0EE0FA5
:1024D000FF1F7A95E1F7E457F74F80819181281724
:1024E000390770F54115510559F19C90760163E06B
:1024F000EE0CFF1C6A95E1F78AE898E0E80EF91EF9
:102500008D01C0E0D0E05A010894A108B10806C0CE
:10251000C701F80160810E94F91D21960F5F1F4FCE
:10252000CA15DB05A8F386E898E0C80ED91E8FEF20
:10253000F6018083882D692D0E942D118FEF01C037
:1025400080E0DF91CF911F910F91FF90EF90DF908E
:10255000CF90BF90AF909F908F90089590E023E030
:10256000880F991F2A95E1F78657974F0E94F91D0A
:102570000895682F82EA98E00E94F91D0895682F57
:102580008AE998E00E94F91D0895682F82E998E091
:102590000E94F91D0895682F8AE898E00E94F91DAD
:1025A0000895CF93DF93282FA82FB0E0ED01CA57ED
:1025B000D74F8881882379F1FD0133E0EE0FFF1FAB
:1025C0003A95E1F7E257F74F80819181892B11F11C
:1025D000233039F482EA98E00E94901D80933601FE
:1025E0001EC0223039F48AE998E00E94901D809341
:1025F000D60015C0213039F482E998E00E94901D80
:102600008093CE000CC08AE898E00E94901D8093D1
:10261000C60005C01882AE59B74F8FEF8C93DF917B
:10262000CF9108951F920F920FB60F9211242F93FE
:102630003F934F935F936F937F938F939F93AF934A
:10264000BF93EF93FF9383E00E94D112FF91EF912C
:10265000BF91AF919F918F917F916F915F914F91BA
:102660003F912F910F900FBE0F901F9018951F92C2
:102670000F920FB60F9211242F933F934F935F93B6
:102680006F937F938F939F93AF93BF93EF93FF933A
:1026900082E00E94D112FF91EF91BF91AF919F9183
:1026A0008F917F916F915F914F913F912F910F90FB
:1026B0000FBE0F901F9018951F920F920FB60F929A
:1026C00011242F933F934F935F936F937F938F9337
:1026D0009F93AF93BF93EF93FF9381E00E94D1123A
:1026E000FF91EF91BF91AF919F918F917F916F91EA
:1026F0005F914F913F912F910F900FBE0F901F90C0
:1027000018951F920F920FB60F9211242F933F939B
:102710004F935F936F937F938F939F93AF93BF93E9
:10272000EF93FF9380E00E94D112FF91EF91BF9150
:10273000AF919F918F917F916F915F914F913F9159
:102740002F910F900FBE0F901F9018951F93182F69
:1027500090E0FC01EA57F74F2FEF208343E0880F0A
:10276000991F4A95E1F78657974F0E94901D682F51
:10277000812F0E942D111F910895CF93DF93EB01BC
:10278000282F30E0F90173E0EE0FFF1F7A95E1F793
:10279000E859F74F80819181892BC9F0F90163E0F5
:1027A000EE0FFF1F6A95E1F7E659F74F808191819F
:1027B000892B69F053E0220F331F5A95E1F7C901C5
:1027C0008A59974F0E94901D88838FEF01C080E047
:1027D000DF91CF910895DF93CF930F92CDB7DEB7FE
:1027E00083E0BE016F5F7F4F0E94BD13882319F401
:1027F0002FEF3FEF03C08981282F30E0C9010F90F0
:10280000CF91DF910895DF93CF930F92CDB7DEB7CD
:1028100082E0BE016F5F7F4F0E94BD13882319F4D1
:102820002FEF3FEF03C08981282F30E0C9010F90BF
:10283000CF91DF910895DF93CF930F92CDB7DEB79D
:1028400081E0BE016F5F7F4F0E94BD13882319F4A2
:102850002FEF3FEF03C08981282F30E0C9010F908F
:10286000CF91DF910895DF93CF930F92CDB7DEB76D
:1028700080E0BE016F5F7F4F0E94BD13882319F473
:102880002FEF3FEF03C08981282F30E0C9010F905F
:10289000CF91DF91089590E0E3E0880F991FEA95CA
:1028A000E1F78A59974F0E942C1E08958EE798E011
:1028B00062E874E040E850E00E94831D82EA98E0FC
:1028C00062E075E040E150E00E94831D08950E949F
:1028D0005614109219051092180588ED8093310155
:1028E00083E040E855E260E070E00E94E0108FEF86
:1028F00080936508109289081092B1081092B00870
:102900007894089586E798E062EF73E040E850E03D
:102910000E94831D8AE998E062E774E040E150E09C
:102920000E94831D08950E94821410921705109230
:10293000160588ED8093D10082E040E855E260E022
:1029400070E00E94E0108FEF809364081092880876
:102950001092AF081092AE08789408958EE698E031
:1029600062E673E040E850E00E94831D82E998E04F
:1029700062EE73E040E150E00E94831D08950E94E2
:10298000AE14109215051092140588ED8093C900BD
:1029900081E040E855E260E070E00E94E0108FEFD7
:1029A00080936308109287081092AD081092AC08CB
:1029B0007894089586E698E062ED72E040E850E091
:1029C0000E94831D8AE898E062E573E040E150E0F0
:1029D0000E94831D08950E94DA141092130510922C
:1029E000120588ED8093C10080E040E855E260E088
:1029F00070E00E94E0108FEF8093620810928608CA
:102A00001092AB081092AA08789408950E94EB14D3
:102A10000E94BF140E9493140E9467140895AAE7AD
:102A2000B0E08C9180688C938C918F7D8C938C918D
:102A3000887F86608C93ECE7F0E080818F73806400
:102A4000808380818F7D80838C9188608C931092AD
:102A5000B20878940895EAE7F0E08081877F808368
:102A600080818F7780830895EAE7F0E09081987FF6
:102A7000982B90830895ECE7F0E090818295880F81
:102A8000880F807C9F73982B90830895ECE7F0E08B
:102A900090818F71907E892B80830895EAE7F0E022
:102AA00080818061808380818064808308958091AB
:102AB0007A0080740895982F1092B208883020F020
:102AC00080917B00886003C080917B00877F80932A
:102AD0007B0080917C009770887F892B80937C009D
:102AE00080917A00806180937A0080917A0080647E
:102AF00080937A0080917A0086FDFCCF2091780047
:102B000030917900C90108950E945B1596958795CB
:102B10009695879508951F920F920FB60F921124E4
:102B20008F938FEF8093B2088F910F900FBE0F900D
:102B30001F90189590931B0580931A0508951F9375
:102B4000182F8A3031F4E0911A05F0911B058DE0C1
:102B50000995E0911A05F0911B05812F09951F91A8
:102B60000895CF93DF93EC01009721F406C02196DE
:102B70000E949F1588818823D1F7DF91CF91089516
:102B8000EF92FF920F931F93CF93DF938C017A0103
:102B90000097E9F020E030E02617370738F4F80115
:102BA00081918F012F5F3F4F8823B1F7C0E0D0E0C4
:102BB0000BC0F8018081882319F00F5F1F4F01C0FF
:102BC00080E20E949F152196CE15DF0590F3DF91DC
:102BD000CF911F910F91FF90EF900895CF93DF93C6
:102BE000EC01009719F407C00E949F15FE01219681
:102BF00084918823C9F7DF91CF9108958AE00E94DC
:102C00009F150895E82FF0E0EF70F070E95DFD4F3B
:102C1000E4918E2F0E949F1508951F93182F82957F
:102C20008F700E940216812F0E9402161F91089534
:102C30001F93182F892F0E940D16812F0E940D16A9
:102C40001F910895EF92FF920F931F937B018C01C8
:102C5000C801AA27BB270E941816C7010E94181690
:102C60001F910F91FF90EF9008952F923F924F92F6
:102C70005F926F927F928F929F92AF92BF92CF920C
:102C8000DF92EF92FF920F931F93DF93CF93CDB715
:102C9000DEB7A3970FB6F894DEBF0FBECDBF6AA311
:102CA000242E2BA337014801442351F017FF08C0FD
:102CB000EE24FF248701E618F7080809190902C065
:102CC000840173012AA1215090E0211091E0291B79
:102CD00029A318A2A82EBB24CC24DD24C801B70147
:102CE000A60195010E943222FB01EF70F070E95DB0
:102CF000FD4F64916F8FC801B701A60195010E9435
:102D00003222C901DA017C018D019EE1492E512C4C
:102D10004C0E5D1E39A025C0E114F104010511051A
:102D2000C9F0C801B701A60195010E943222FB013A
:102D3000EF70F070E95DFD4F6491F2016083C801AE
:102D4000B701A60195010E943222C901DA017C0176
:102D50008D0103C02BA1F20120833A94089441080D
:102D600051083320C9F6CE014F968C01E9A10E1B04
:102D700011092220F1F097FE05C08DE2F80182933F
:102D80008F0117C0C8010197611471048104910477
:102D900019F08C018BE202C08C0180E2F801808383
:102DA00008C0F80181918F010E949F15FAA1F1508E
:102DB000FAA32AA12223A9F7A3960FB6F894DEBF9F
:102DC0000FBECDBFCF91DF911F910F91FF90EF907C
:102DD000DF90CF90BF90AF909F908F907F906F903B
:102DE0005F904F903F902F9008954F925F926F9217
:102DF0007F928F929F92AF92BF92CF92DF92EF928B
:102E0000FF920F931F93CF93DF93482E5A016B01CC
:102E1000CB01BA0120E030E040E050E00E94E51F25
:102E200018161CF43501460106C03501460197FA13
:102E3000909497F890940F2EF0E0EF2EF0E0FF2E94
:102E4000F0E80F2FFFE31F2FF02D5524C401B3012D
:102E5000A80197010E949F1E20E030E040E251E46B
:102E60000E949B1E87FD0EC0C801B70120E030E024
:102E700040E251E40E94E91F7B018C0153948FE0F2
:102E8000581621F7C601B50120E030E040E050E0DF
:102E90000E949B1E882314F48DE201C08BE20E94E5
:102EA0009F15DD24AA2456C0C401B301A8019701CF
:102EB0000E949F1E0E94071FB62ED62ACD2DD0E05D
:102EC000CC24DD24C801B70120E030E040E85FE316
:102ED0000E949B1E882319F421E0C22ED12CCC29FC
:102EE000DD29CD2B39F08B2D805D0E949F15DD24CF
:102EF000DA9404C080E20E949F15DD24C801B70166
:102F000020E030E040E85FE30E949B1E882319F434
:102F10008EE20E949F156B2D70E0882777FD8095CB
:102F2000982F0E94351FA80197010E94E91F9B015D
:102F3000AC01C401B3010E94361E3B014C01C80123
:102F4000B70120E030E040E251E40E949F1E7B0187
:102F50008C01A394A41408F4A7CFDF91CF911F9103
:102F60000F91FF90EF90DF90CF90BF90AF909F9028
:102F70008F907F906F905F904F9008957F928F9287
:102F80009F92AF92BF92CF92DF92EF92FF920F93F8
:102F90001F93DF93CF93CDB7DEB77888C988DA88DF
:102FA00063E1E62EF12CEC0EFD1E14C0882381F4A3
:102FB00080E090E0CF91DF911F910F91FF90EF9013
:102FC000DF90CF90BF90AF909F908F907F900895AB
:102FD0000E949F1596012F5F3F4F772021F0F60149
:102FE0006901849103C0F601808169018532F1F69F
:102FF0002F5F3F4F772021F0F6016901849103C0D4
:10300000F60180816901843629F0883781F08336A2
:10301000F9F606C000E117E25AE0A52EB12C0CC06B
:10302000F701808122E030E0E20EF31ED1CF00E014
:1030300010E140E1A42EB12C32E0832E912C8E0CB5
:103040009F1CF701E080F1808436B1F4F7FE11C0D7
:10305000F094E194F108F3948DE20E949F1509C069
:10306000C8016AE070E00E940B228B01623071059A
:1030700018F0E016F106A0F3C701B8010E940B2278
:10308000862F0E940216C701B8010E940B227C0104
:10309000C801B5010E940B228B016115710561F712
:1030A000740198CF2091B9002E7F2093B900209110
:1030B000B9002D7F2093B9009C0140E050E060E80A
:1030C0007EE380E090E00E945422203130F0822F95
:1030D00090E0409795958795282F2093B800089504
:1030E000589A599A109263051092620510926505DC
:1030F0001092640584E690E00E945218ECEBF0E038
:1031000080818460808310921C058081816080832F
:103110008081806480837894089590E0611191E0CB
:103120008E7F982B9093BA000895909363058093B7
:103130006205089590936505809364050895ECEB0E
:10314000F0E080818F70806A80830895ECEBF0E07E
:1031500080818F70806D808308958091BC0087FF8F
:10316000FCCF08958093BB00ECEBF0E080818F7082
:10317000806880830895882329F08091BC008F7037
:10318000806C04C08091BC008F7080688093BC000C
:1031900008958091BB0008958091B9000895982FFB
:1031A00080911C058823E1F782E080931C059E7FB7
:1031B00090931D05AEE1B5E0FA0102C081918D93B7
:1031C0008E2F841B8617D0F310923E0560933F0527
:1031D0008091BC008F70806A8093BC000895982F06
:1031E00080911C058823E1F783E080931C059160A2
:1031F00090931D0510926005609361058091BC005D
:103200008F70806A8093BC0080911C058823E1F751
:10321000A0E4B5E0FA0102C08D9181938E2F841B4A
:103220008617D0F30895982FFA018091BC008E7F05
:103230008093BC008091BC008F70806A8093BC003A
:103240008091BC0087FFFCCF9E7F9093BB00809154
:10325000BC008F7080688093BC008091BC0087FFA9
:10326000FCCF8091B900883189F091E012C0808153
:103270008093BB008091BC008F7080688093BC00FD
:103280008091BC0087FFFCCF31966150662379F7AF
:1032900090E08091BC008F70806D8093BC00809125
:1032A000BC0084FFFCCF8091BC0081608093BC0097
:1032B000892F0895982FFA018091BC008E7F80930A
:1032C000BC008091BC008F70806A8093BC008091AC
:1032D000BC0087FFFCCF91609093BB008091BC0045
:1032E0008F7080688093BC008091BC0087FFFCCF0A
:1032F0008091B900803481F091E01EC08091BC00C3
:103300008F70806C8093BC008091BC0087FFFCCFE5
:103310008091BB0081936150623080F78091BC0046
:103320008F7080688093BC008091BC0087FFFCCFC9
:103330008091BB00808390E08091BC008F70806D95
:103340008093BC008091BC0081608093BC00892F79
:1033500008951F920F920FB60F9211242F933F934F
:103360004F935F936F937F938F939F93AF93BF938D
:10337000EF93FF938091B900887F803609F4A0C055
:10338000813670F5883209F45FC0893298F4803153
:1033900009F457C0813138F4882309F4EAC0883031
:1033A00009F0EFC04EC0883109F44EC0803209F0F8
:1033B000E8C0DFC0803409F477C0813438F480334A
:1033C00009F4D7C0883309F0DCC05DC0803509F44A
:1033D0005FC0883509F44AC0883409F0D2C0C9C03A
:1033E000883909F4BAC08939B0F4883709F468C05B
:1033F000893738F4883609F463C0803709F0C1C0D2
:103400005FC0883809F4A9C0803909F45FC08038EA
:1034100009F0B7C05BC0803B09F479C0813B38F448
:10342000803A09F462C0883A09F0ABC070C0803CB1
:1034300009F49AC0883C09F497C0883B09F0A1C000
:1034400077C080911D050FC090913E0580913F058A
:10345000981708F08EC0E92FF0E0E25EFA4F808105
:103460009F5F90933E058093BB0077C0809160057D
:103470009091BB00E82FF0E0E05CFA4F90838F5F03
:103480008093600576C08091BC008F70806875C0A5
:10349000809160059091BB00E82FF0E0E05CFA4F6E
:1034A00090838F5F809360052091600530E080916C
:1034B000610590E00197281739070CF04EC048C00D
:1034C00085E080931C051092600542C080916005E4
:1034D0009091BB00E82FF0E0E05CFA4F90838F5FA3
:1034E000809360058032C8F533C08091BC008F7036
:1034F000806C8093BC00E0916205F0916305309789
:10350000F1F18091600560E475E0099538C084E0D0
:1035100080931C05E0916405F0916505309731F0CA
:1035200080E26EE175E0099580933F0510923E05BB
:1035300090913E05E92FF0E0E25EFA4F80818093A2
:10354000BB009F5F90933E0580913F05981728F43C
:103550008091BC008F70806C04C08091BC008F7023
:1035600080688093BC000DC08091BC008F70806C1F
:1035700004C08091BC008F70806D8093BC0010925D
:103580001C05FF91EF91BF91AF919F918F917F911A
:103590006F915F914F913F912F910F900FBE0F90C0
:1035A0001F90189580911C05089583EB98E09093E7
:1035B0006905809368059093670580936605089573
:1035C0008F3FB9F0E0916605F091670580838091A7
:1035D000660590916705019690936705809366054F
:1035E000835B994030F083EB98E09093670580937C
:1035F000660508950F931F93CF93DF93EC018B0122
:1036000020E030E040E050E060E070E0220F331F47
:10361000441F551FFE01E60FF71F80819181A0E036
:10362000B0E0280F391F4A1F5B1F6E5F7F4F643168
:10363000710561F7C9019F776FE0569547953795FA
:1036400027956A95D1F7820F931F20E09F77801707
:10365000910709F421E0822FDF91CF911F910F9103
:103660000895CF93DF93EC0120E0E881F0E0E05A89
:10367000F040EE0FFF1FEE0FFF1FDF01AA0FBB1F71
:10368000A60FB71F8B859C858D939C93DF011196A8
:10369000AA0FBB1FA60FB71F8D859E858D939C9388
:1036A0003296DF01AA0FBB1FA60FB71F8F8598891F
:1036B0008D939C933196EE0FFF1FE60FF71F8989BC
:1036C0009A89918380832F5F6D962A3571F6DF91F9
:1036D000CF910895EF92FF920F931F93DF93CF93B3
:1036E000CDB7DEB7E9840A851B8500D00F92FF2491
:1036F000F394ADB7BEB71196FC92119788E592E0AE
:1037000013969C938E9312970E94BE170F900F9062
:103710000F908E2D0E940D1600D00F92EDB7FEB7C0
:10372000F18289E492E0938382830E94BE170F9016
:103730000F900F90C8010E94181600D00F92ADB7DD
:10374000BEB71196FC9211978CE392E013969C936E
:103750008E9312970E94BE1700D0EDB7FEB7319638
:10376000ADB7BEB71196FC9208E312E01283018355
:103770008C899D89948383830E94BE17EDB7FEB721
:103780003196ADB7BEB71196FC92128301838E8934
:103790009F89948383830E94BE17EDB7FEB731964D
:1037A000ADB7BEB71196FC9212830183888D998DB7
:1037B000948383830E94BE17EDB7FEB73196ADB7F1
:1037C000BEB71196FC92128301838A8D9B8D9483E0
:1037D00083830E94BE170F900F900F900F900F9051
:1037E0000E94FE15CF91DF911F910F91FF90EF90F6
:1037F000089504C08AE090E00E94EB0AE091680519
:10380000F09169058091660590916705E817F907C1
:1038100089F32191F0936905E0936805E35BF94032
:1038200030F083EB98E09093690580936805822FD0
:1038300008952F923F924F925F926F927F928F9254
:103840009F92AF92BF92CF92DF92EF92FF920F932F
:103850001F93DF93CF93CDB7DEB76A970FB6F89477
:10386000DEBF0FBECDBF2C010E94F91B8A3F09F0BD
:10387000ACC00E94F91B282FF2018083805A8A3540
:1038800008F0A3C0922F80E086509F4F9E838D83C7
:103890000E94F91B182F0E94F91B382F20E0210FDE
:1038A000311DF2013283218338872F83320109E0F1
:1038B000802E912C8C0E9D1E620115E0212E312C44
:1038C0002C0E3D1EAE01475E5F4F5A8F498F46C09A
:1038D0000E94F91BF80181938F01E215F305C1F7EE
:1038E0004A81942F9078F3019383842F8074878387
:1038F000992321F0F601148613860CC0842F90E0E2
:103900008F739070982F88272981820F911DF6015F
:1039100094878387BC80AA248B819501280F311D51
:10392000F601348B238BF42EEE248981A701480FF6
:10393000511DF401518340833383228342E050E0E0
:10394000C40ED51E84E090E0880E991E0894611C78
:10395000711CE98DFA8D8E169F0621F08E010F5F86
:103960001F4FB6CF0E94F91B182F0E94F91B382F4A
:1039700020E0B901610F711DF201748F638FF101B5
:1039800020E030E040E050E0220F331F441F551F7D
:1039900081919191A0E0B0E0280F391F4A1F5B1F71
:1039A000E815F90589F7C9019F77EFE05695479526
:1039B00037952795EA95D1F7820F931F20E09F77DF
:1039C0008617970719F421E001C020E0822F6A963C
:1039D0000FB6F894DEBF0FBECDBFCF91DF911F9120
:1039E0000F91FF90EF90DF90CF90BF90AF909F909E
:1039F0008F907F906F905F904F903F902F900895A1
:103A0000AF92BF92CF92DF92EF92FF921F93DF931C
:103A1000CF93CDB7DEB76D970FB6F894DEBF0FBE6C
:103A2000CDBF7B01DB01FC018DE101900D92815046
:103A3000E1F711E06E010894C11CD11C8DE1A82EA4
:103A4000B12CC6010E94191C8823D9F3812F90E064
:103A50008A9DF0018B9DF00D9A9DF00D1124EE0DC5
:103A6000FF1DD6018DE10D9001928150E1F71F5F9E
:103A70001A3538F36D960FB6F894DEBF0FBECDBF82
:103A8000CF91DF911F91FF90EF90DF90CF90BF908B
:103A9000AF900895CF92DF92EF92FF920F931F9312
:103AA000DF93CF93CDB7DEB7CF54DA400FB6F8949B
:103AB000DEBF0FBECDBF6C017E010894E11CF11C7E
:103AC000C7010E94191C8823D9F38981803AC1F764
:103AD0008E01025E1F4FC701B8010E94001DC80180
:103AE000B6010E94311BC15BD54F0FB6F894DEBF03
:103AF0000FBECDBFCF91DF911F910F91FF90EF903F
:103B0000DF90CF900895FC018FB7F89471836083A4
:103B10005383428317821682158214828FBF0895C1
:103B2000DC014FB7F89414968D919C911597892BD1
:103B300011F4E0E025C016968D919C911797ED91B8
:103B4000FC911197E80FF91FE081019617969C935D
:103B50008E93169712962D913C9113978217930787
:103B600030F0821B930B17969C938E9316971496A6
:103B70008D919C911597019715969C938E93149710
:103B80004FBF8E2F0895FC014FB7F8948481958123
:103B900068177907B0F486819781860F971F9783FE
:103BA0008683228133818217930720F0821B930B37
:103BB0009783868384819581861B970B9583848365
:103BC00002C0158214824FBF0895FC01CB012FB7AC
:103BD000F8942FBF2681378162817381820F931FF2
:103BE0000E940B220190F081E02DE80FF91F8081E7
:103BF00008951F93CF93DF93EC01162F4FB7F894DE
:103C00002C813D816A817B812617370798F48E814C
:103C10009F81820F931F0E940B22E881F981E80F98
:103C2000F91F10838C819D8101969D838C834FBFEA
:103C30008FEF02C04FBF80E0DF91CF911F910895B9
:103C4000FC018FB7F8948FBF2281338184819581E5
:103C5000281B390BC9010895FC018FB7F894158210
:103C600014828FBF0895F8940C946F225058BB278C
:103C7000AA270ED070C161D130F066D120F031F4A6
:103C80009F3F11F41EF456C10EF4E095E7FB4CC1C2
:103C9000E92F72D180F3BA1762077307840795077B
:103CA00018F071F49EF58AC10EF4E0950B2EBA2F30
:103CB000A02D0B01B90190010C01CA01A001112432
:103CC000FF27591B99F0593F50F4503E68F11A16DE
:103CD000F040A22F232F342F4427585FF3CF46956F
:103CE00037952795A795F0405395C9F77EF41F1691
:103CF000BA0B620B730B840BBAF09150A1F0FF0F5B
:103D0000BB1F661F771F881FC2F70EC0BA0F621F46
:103D1000731F841F48F4879577956795B795F79536
:103D20009E3F08F0B3CF9395880F08F09927EE0FC8
:103D3000979587950895D4D008F481E008950CD024
:103D40000AC102D140F0F9D030F021F45F3F19F000
:103D5000EBC0511134C1EEC00FD198F39923C9F3D0
:103D60005523B1F3951B550BBB27AA276217730781
:103D7000840738F09F5F5F4F220F331F441FAA1F35
:103D8000A9F333D00E2E3AF0E0E830D091505040F5
:103D9000E695001CCAF729D0FE2F27D0660F771FA3
:103DA000881FBB1F261737074807AB07B0E809F085
:103DB000BB0B802DBF01FF2793585F4F2AF09E3F1A
:103DC000510568F0B1C0FBC05F3FECF3983EDCF3F7
:103DD000869577956795B795F7959F5FC9F7880F93
:103DE000911D9695879597F90895E1E0660F771FE5
:103DF000881FBB1F621773078407BA0720F0621B76
:103E0000730B840BBA0BEE1F88F7E0950895BCD0B6
:103E100088F09F5790F0B92F9927B751A0F0D1F0B3
:103E2000660F771F881F991F1AF0BA95C9F712C03D
:103E3000B13081F0C3D0B1E00895C0C0672F782FB2
:103E40008827B85F39F0B93FCCF3869577956795A9
:103E5000B395D9F73EF490958095709561957F4F15
:103E60008F4F9F4F0895E89409C097FB3EF49095BB
:103E70008095709561957F4F8F4F9F4F9923A9F043
:103E8000F92F96E9BB279395F695879577956795D2
:103E9000B795F111F8CFFAF4BB0F11F460FF1BC016
:103EA0006F5F7F4F8F4F9F4F16C0882311F096E9A9
:103EB00011C0772321F09EE8872F762F05C0662357
:103EC00071F096E8862F70E060E02AF09A95660F10
:103ED000771F881FDAF7880F9695879597F90895C9
:103EE000990F0008550FAA0BE0E8FEEF161617060B
:103EF000E807F907C0F012161306E407F50798F073
:103F0000621B730B840B950B39F40A2661F0232B8B
:103F1000242B252B21F408950A2609F4A140A69507
:103F20008FEF811D811D089597F99F6780E870E0EC
:103F300060E008959FEF80EC089500240A9416161F
:103F4000170618060906089500240A941216130687
:103F5000140605060895092E0394000C11F4882315
:103F600052F0BB0F40F4BF2B11F460FF04C06F5F31
:103F70007F4F8F4F9F4F089557FD9058440F551F07
:103F800059F05F3F71F04795880F97FB991F61F0DB
:103F90009F3F79F087950895121613061406551F52
:103FA000F2CF4695F1DF08C0161617061806991FBE
:103FB000F1CF86957105610508940895E894BB27B3
:103FC00066277727CB0197F908958ADF08F48FEFEA
:103FD00008950BD0C0CFB1DF28F0B6DF18F09523DD
:103FE00009F0A2CFA7CF1124EACFC6DFA0F3959F97
:103FF000D1F3950F50E0551F629FF001729FBB27D0
:10400000F00DB11D639FAA27F00DB11DAA1F649F7B
:104010006627B00DA11D661F829F2227B00DA11D2E
:10402000621F739FB00DA11D621F839FA00D611DB4
:10403000221F749F3327A00D611D231F849F600DD5
:10404000211D822F762F6A2F11249F5750408AF00E
:10405000E1F088234AF0EE0FFF1FBB1F661F771F9A
:10406000881F91505040A9F79E3F510570F05CCFDA
:10407000A6CF5F3FECF3983EDCF386957795679586
:10408000B795F795E7959F5FC1F7FE2B880F911DB8
:104090009695879597F90895FA01EE0FFF1F3096D0
:1040A0002105310599F16115710561F48038BFE38F
:1040B0009B0749F168949038810561F08038BFEF23
:1040C0009B0741F0992342F5FF3FE10531052105AA
:1040D00011F1E8940894E795D901AA2329F4AB2FAC
:1040E000BE2FF85FD0F310C0FF5F70F4A695E0F725
:1040F000F73950F019F0FF3A38F49F779F930CD0BE
:104100000F9007FC905808953EF014CF60E070E0E7
:1041100080E89FE308954FE79F775F934F933F9326
:104120002F9306D12F913F914F915F9152DF56C04F
:1041300011F40EF4FFCE7EC027DFD0F39923D9F31C
:10414000CEF39F57550B87FF85D056959795B0E0D6
:1041500020F4660F771F881FBB1F1F930F93002447
:104160009001A0018001F001A0E80E0F1F1F0A1EA0
:10417000511D601B710B8009B50B48F4600F711F56
:10418000801DB51F0E1B1F0B0A0A510907C02E0FF9
:104190003F1F4A1F0E0F1F1F0A1E511D660F771F5C
:1041A000881FBB1FA695F795E795F8F60617170722
:1041B00008065B07211D311D411D0F911F91B9019B
:1041C000842F9158880F9695879508959B01AC018F
:1041D00000CF19F40EF0A8CEF1CEACCED5DEC8F3E8
:1041E0009638C0F707F80F92E8942BE33AEA48EBC9
:1041F0005FE7FDDE0F920F920F924DB75EB70F9201
:10420000D7D0E4EEF0E02DD04F915F91EF91FF9188
:10421000E595EE1FFF1F49F0FE57E0684427EE0FBB
:10422000441FFA95E1F74195550B49D00F9007FED1
:104230003DC008959F3F49F0915028F486957795A9
:104240006795B7959F5F80389F4F880F96958795A4
:1042500097F9089591505040660F771F881FD2F745
:104260000895DF93CF931F930F93FF92EF92DF9206
:104270007B018C01689405C0DA2EEF01B6DEFE01E9
:10428000E894A5912591359145915591AEF3EF01B3
:10429000FFDCFE019701A801DA9479F7DF90EF9037
:1042A000FF900F911F91CF91DF9108959B01AC0179
:1042B00060E070E080E89FE342CD36CEBBCF64DEA5
:1042C000E8F39923D9F3940F511DBBF3915050405B
:1042D00094F059F0882332F0660F771F881F9150B1
:1042E0005040C1F79E3F510544F7880F911D9695A8
:1042F000879597F908955F3FACF0983E9CF0BB27F7
:10430000869577956795B79508F4B1609395C1F751
:10431000BB0F58F711F460FFE8CF6F5F7F4F8F4FEF
:104320009F4FE3CF4CCE0EF085CF04CE6894FCCDEA
:104330002BDEC8F39923D1F3C6F3DF93CF931F93FA
:104340000F93FF92C92FDD2788232AF02197660F4C
:10435000771F881FDAF720E030E040E85FEB9FE34B
:10436000883920F0803E30F021968F7780DCECE0B9
:10437000F1E003C07CDCE9E3F1E073DF8B01BE0117
:10438000EC01FB2E6F5771097595771F880B990B00
:104390006CDD28E132E741E35FE327DEAF2D9801D2
:1043A000AE01FF900F911F91CF91DF9171DCD3CDC2
:1043B000FA01DC01AA0FBB1F9B01AC01BF5728F417
:1043C00022273327442750781FC0B75188F4AB2FDA
:1043D0000024469537952795011CA395D2F300201C
:1043E00069F0220F331F441FB395DAF30DD03ECC92
:1043F00061307105A0E88A07B94630F49B01AC0131
:104400006627772788279078309621F0208331839C
:10441000428353830895AA1BBB1B51E107C0AA1F07
:10442000BB1FA617B70710F0A61BB70B881F991F55
:104430005A95A9F780959095BC01CD01089597FBF9
:10444000092E07260AD077FD04D0E5DF06D000202C
:104450001AF4709561957F4F0895F6F790958195C0
:104460009F4F0895A1E21A2EAA1BBB1BFD010DC090
:10447000AA1FBB1FEE1FFF1FA217B307E407F50714
:1044800020F0A21BB30BE40BF50B661F771F881FF0
:10449000991F1A9469F760957095809590959B0186
:1044A000AC01BD01CF01089597FB092E05260ED062
:1044B00057FD04D0D7DF0AD0001C38F45095409542
:1044C000309521953F4F4F4F5F4F0895F6F79095E8
:1044D0008095709561957F4F8F4F9F4F0895F89409
:0244E000FFCF0C
:1044E20064006400620061005E005B0057005200DD
:1044F2004D0047004000390032002A0022001A0015
:10450200110009000000F7FFEFFFE6FFDEFFD6FF14
:10451200CEFFC7FFC0FFB9FFB3FFAEFFA9FFA5FFE4
:10452200A2FF9FFF9EFF9CFF9CFF9CFF9EFF9FFFA1
:10453200A2FFA5FFA9FFAEFFB3FFB9FFC0FFC7FFF0
:10454200CEFFD6FFDEFFE6FFEFFFF7FF0000090018
:1045520011001A0022002A003200390040004700F0
:104562004D00520057005B005E0061006200640073
:024572006400E3
:00000001FF
