:100000000C94F6000C9413010C9413010C9413013E
:100010000C9413010C9413010C9413010C94130110
:100020000C9413010C9413010C9413010C94130100
:100030000C9413010C94611F0C948E1F0C94801D62
:100040000C94DA1E0C94AE180C94071F0C94341FF9
:100050000C94401D0C94801E0C94AD1E0C94ED1C51
:100060000C9413010C9457230C9413010C94B42496
:100070000C9413010C946E270C9413010C94BB1F69
:100080000C94E81F0C9415200C9442200C94C01D75
:100090000C9432230C9413010C948F240C948C2B0D
:1000A0000C9413010C946F200C949C200C94C92088
:1000B0000C94F6200C94001E0C9423210C945021D7
:1000C0000C947D210C94AA210C94401E0C940D23B9
:1000D0000C9413010C946A240C94E8220C941301E0
:1000E0000C94452407634236B79BD8A71A39685643
:1000F00018AEBAAB558C1D3CB7CC5763BD6DEDFD4A
:10010000753EF6177231BF000000803F0800000006
:10011000BE922449123EABAAAA2ABECDCCCC4C3EFC
:1001200000000080BEABAAAAAA3E00000000BF00EB
:100130000000803F0000000000084178D3BB4387E7
:10014000D1133D190E3CC3BD4282AD2B3E68EC82FB
:1001500076BED98FE1A93E4C80EFFFBE01C4FF7F80
:100160003F000000000044454154480A000A0025B1
:10017000640025640A00496E697469616C697A617A
:1001800074696F6E20436F6D706C657465200D0A25
:10019000002E000D0A53797374656D205761726DDE
:1001A00065642055700057520A0057520A0000003B
:1001B00001000800400000010004000001000800E8
:1001C000200040008000000100044241445F766549
:1001D00063742063616C6C656421003031323334A8
:1001E00035363738394142434445460011241FBE55
:1001F000CFEFD1E2DEBFCDBF12E0A0E0B2E0ECE68F
:10020000F2E602C005900D92A83DB107D9F712E1C0
:10021000A8EDB2E001C01D92A83CB107E1F70E9431
:10022000500F0C94B82C0C94D721893049F480914C
:100230008000826080938000809180008E7F0EC05D
:100240008A3021F480918000826003C08091800018
:100250008D7F8093800080918000816080938000FA
:1002600010928B0010928A000895893049F4809191
:10027000B00082608093B0008091B0008E7F0EC08D
:100280008A3021F48091B000826003C08091B00078
:100290008D7F8093B0008091B00081608093B0002A
:1002A0001092B4000895893049F4809190008260E2
:1002B00080939000809190008E7F0EC08A3021F450
:1002C00080919000826003C0809190008D7F809328
:1002D000900080919000816080939000109299002E
:1002E000109298000895893049F4809191008260BD
:1002F00080939100809191008E7F0EC08A3021F40E
:1003000080919100826003C0809191008D7F8093E5
:1003100091008091910081608093910010929B00E8
:1003200010929A000895893049F480919200826079
:1003300080939200809192008E7F0EC08A3021F4CB
:1003400080919200826003C0809192008D7F8093A3
:1003500092008091920081608093920010929D00A3
:1003600010929C000895893049F48091A000826029
:100370008093A0008091A0008E7F0EC08A3021F46F
:100380008091A000826003C08091A0008D7F809347
:10039000A0008091A00081608093A0001092A9002D
:1003A0001092A8000895893049F48091A1008260DC
:1003B0008093A1008091A1008E7F0EC08A3021F42D
:1003C0008091A100826003C08091A1008D7F809305
:1003D000A1008091A10081608093A1001092AB00E8
:1003E0001092AA000895893049F48091A00082609B
:1003F0008093A0008091A0008E7F0EC08A3021F4EF
:100400008091A000826003C08091A0008D7F8093C6
:10041000A0008091A00081608093A0001092AD00A8
:100420001092AC000895E0E8F0E020812E7F208358
:10043000208122602083E1E8F0E020812860208391
:100440002081206120839093870080938600109202
:1004500089001092880010928B0010928A001092EE
:100460008D0010928C000895E0E9F0E020812E7F4D
:100470002083208122602083E1E9F0E02081286050
:1004800020832081206120839093970080939600A1
:10049000109299001092980010929B0010929A006E
:1004A00010929D0010929C000895E0EAF0E02081F7
:1004B0002E7F2083208122602083E1EAF0E02081EA
:1004C000286020832081206120839093A70080935F
:1004D000A6001092A9001092A8001092AB001092F2
:1004E000AA001092AD001092AC000895E0E8F0E090
:1004F00080818062808380818F7E80830895E0EB9D
:10050000F0E080818062808380818F7E8083089587
:10051000E0E9F0E080818068808380818F7B808348
:100520000895E0E9F0E080818062808380818F7EA1
:1005300080830895E0E9F0E0808188608083808195
:100540008B7F80830895E0EAF0E08081806880837B
:1005500080818F7B80830895E0EAF0E08081806273
:10056000808380818F7E80830895E0EAF0E080813F
:100570008860808380818B7F80830895E0E8F0E04D
:1005800080818F7D808380818F7E80830895E0EBE2
:10059000F0E080818F7D808380818F7E80830895CD
:1005A000E0E9F0E080818F77808380818F7B80839A
:1005B0000895E0E9F0E080818F7D808380818F7EE7
:1005C00080830895E0E9F0E08081877F80838081E7
:1005D0008B7F80830895E0EAF0E080818F778083CD
:1005E00080818F7B80830895E0EAF0E080818F7DB9
:1005F000808380818F7E80830895E0EAF0E08081AF
:10060000877F808380818B7F80830895E0E8F0E09E
:1006100080818D7F808380818E7F808380818F7DAC
:10062000808380818F7E80830895E0EBF0E080817D
:100630008D7F808380818E7F808380818F7D80838A
:1006400080818F7E80830895E0E9F0E080818D7F56
:10065000808380818E7F808380818F77808380817B
:100660008F7B808380818F7D808380818F7E80835C
:100670008081877F808380818B7F80830895E0EAFB
:10068000F0E080818D7F808380818E7F8083808178
:100690008F77808380818F7B808380818F7D808333
:1006A00080818F7E80838081877F808380818B7F24
:1006B0008083089590938B0080938A00089580939F
:1006C000B4000895909399008093980008959093B2
:1006D0009B0080939A00089590939D0080939C00C6
:1006E00008959093A9008093A80008959093AB007B
:1006F0008093AA0008959093AD008093AC00089574
:1007000010BA11BA10920701109208019FEF91B927
:1007100080E484B997B9589A599A83EF8AB98EEFD1
:100720008DB9A59A9D988093010180930401089545
:1007300008952E9A08952E98089522B330E085E00A
:10074000369527958A95E1F7209530952170307080
:10075000C901089597FD10C025E030E040E050E069
:100760000E941931DA01C901880F991F825C9D4FDF
:10077000FC012081318117C025E030E040E050E0ED
:100780000E941931DA01C901885B9F4FAF4FBF4FFB
:10079000880F991F825C9D4FFC01808191812227E7
:1007A0003327281B390BC90108956A5570408040D2
:1007B000904097FD10C025E030E040E050E00E94FE
:1007C0001931DA01C901880F991F825C9D4FFC0124
:1007D0002081318117C025E030E040E050E00E94E8
:1007E0001931DA01C901885B9F4FAF4FBF4F880FA6
:1007F000991F825C9D4FFC018081918122273327C4
:10080000281B390BC9010895CF92DF92EF92FF9216
:100810000F931F936B017C018AE5C816D104E10494
:10082000F104A1F186EAC8168FEFD8068FEFE8062B
:100830008FEFF80659F18EE0C81681E0D80680E007
:10084000E80680E0F80611F182EFC8168EEFD806B0
:100850008FEFE8068FEFF806C9F0C701B6010E94D6
:10086000D5038C01C701B6010E94AA03BC01C801CF
:100870000E94E430CB019B0173E0220F331F7A9575
:10088000E1F7880F991F280F391F02C020E030E0E0
:10089000C9011F910F91FF90EF90DF90CF900895C5
:1008A0008AE00E9473018AE00E9453018AE00E945C
:1008B000B3018AE00E94D3010895982F80538A30B3
:1008C00038F08151863010F0892F0895892F875391
:1008D0000895FC019081218142815381892F8053A9
:1008E0008A3010F4982F05C0892F8154863008F47F
:1008F0009753822F80538A3010F4282F05C0822FFF
:100900008154863008F42753842F80538A3010F4A2
:10091000482F05C0842F8154863008F44753852F13
:1009200080538A3010F4582F05C0852F81548630AB
:1009300008F4575330E0892F90E0A4E0880F991F06
:10094000AA95E1F7282B392BF4E0220F331FFA95F3
:10095000E1F7842F90E0822B932BE4E0880F991F1E
:10096000EA95E1F7252F30E0282B392BC9010895AE
:10097000FF920F931F93FC0190812181628173810B
:1009800014810581F680E781892F80538A3010F425
:10099000982F05C0892F8154863008F49753822FF1
:1009A00080538A3010F4282F05C0822F815486305E
:1009B00008F42753862F80538A3010F4682F05C01F
:1009C000862F8154863008F46753872F80538A30EE
:1009D00010F4782F05C0872F8154863008F47753A0
:1009E000812F80538A3010F4182F05C0812F815435
:1009F000863008F41753802F80538A3010F4082F64
:100A000005C0802F8154863008F407538F2D805302
:100A10008A3010F4F82E06C08F2D8154863010F4E1
:100A200089ECF80E8E2F80538A3010F4E82F05C021
:100A30008E2F8154863008F4E75330E040E050E0D8
:100A4000892F90E0A0E0B0E0F4E0880F991FAA1F82
:100A5000BB1FFA95D1F7282B392B4A2B5B2BA4E02F
:100A6000220F331F441F551FAA95D1F7862F90E000
:100A7000A0E0B0E0822B932BA42BB52BF4E0880FE1
:100A8000991FAA1FBB1FFA95D1F7272F30E040E02E
:100A900050E0282B392B4A2B5B2B64E0220F331FAD
:100AA000441F551F6A95D1F7812F90E0A0E0B0E078
:100AB000822B932BA42BB52B24E0880F991FAA1F00
:100AC000BB1F2A95D1F7202F30E040E050E0282BC3
:100AD000392B4A2B5B2B04E0220F331F441F551F79
:100AE0000A95D1F78F2D90E0A0E0B0E0822B932BF8
:100AF000A42BB52B14E0880F991FAA1FBB1F1A95B2
:100B0000D1F72E2F30E040E050E0282B392B4A2B34
:100B10005B2BB901CA011F910F91FF9008959C01B1
:100B2000853291051CF024E230E006C08FEF2C3DA9
:100B3000380714F42CED3FEF0FB6F8940F92B9017B
:100B4000882777FD8095982F0E94DE2D28E430E5D8
:100B50004CEF5EEB0E94922E2FE135E449E353E423
:100B60000E94DB2C0E94AB2D70939B0060939A0037
:100B70000F900FBE08959C01853291051CF024E270
:100B800030E006C08FEF2C3D380714F42CED3FEF1A
:100B90000FB6F8940F92B901882777FD8095982FAA
:100BA0000E94DE2D21E137EC4AE05FEB0E94922E9D
:100BB00026EF38E64CE353E40E94DB2C0E94AB2D79
:100BC00070939900609398000F900FBE0895982F2E
:100BD0008A3010F4905D04C08A50873008F4995C24
:100BE000892F0895982F8F3F09F479C08A3021F416
:100BF00081E08093210333C080912103882391F009
:100C0000963531F481E080931E031092200307C0D3
:100C1000943441F481E080931D0310921F031092DD
:100C20002103089580911E03882359F080912003A9
:100C3000E82FF0E0E75EFC4F90838F5F8093200306
:100C40000EC080911D03882351F080911F03E82F6F
:100C5000F0E0EF5EFC4F90838F5F80931F038091E5
:100C600020038430E9F489E193E00E946904AA2713
:100C700097FDA095BA2FBC01CD010E94DE2D20E08A
:100C800030E040E85EE30E94922E0E94AB2D70930C
:100C9000E3026093E20210921E0310922003089573
:100CA00080911F03883051F581E193E00E94B804E0
:100CB0000E94DE2D20E030E040E85EE30E94922EAC
:100CC0000E94AB2D6093E4027093E5028093E602EC
:100CD0009093E70210921D0310921F03089500D015
:100CE0000F9281E0EDB7FEB7818386EA91E09383AE
:100CF00082830E94A1290F900F900F900895982F42
:100D00008F3F09F479C08A3021F481E08093320367
:100D100033C080913203882391F0963531F481E01D
:100D200080932F031092310307C0943441F481E083
:100D300080932E0310923003109232030895809115
:100D40002F03882359F080913103E82FF0E0E65D0E
:100D5000FC4F90838F5F809331030EC080912E03F0
:100D6000882351F080913003E82FF0E0EE5DFC4FD6
:100D700090838F5F80933003809131038430E9F456
:100D80008AE293E00E946904AA2797FDA095BA2FF2
:100D9000BC01CD010E94DE2D20E030E040E85EE3A2
:100DA0000E94922E0E94AB2D7093EF026093EE0290
:100DB00010922F03109231030895809130038830F0
:100DC00051F582E293E00E94B8040E94DE2D20E0FB
:100DD00030E040E85EE30E94922E0E94AB2D6093CB
:100DE000F0027093F1028093F2029093F30210925A
:100DF0002E0310923003089500D00F9281E0EDB7DA
:100E0000FEB781838AEA91E0938382830E94A129BD
:100E10000F900F900F900895EF92FF920F931F93F2
:100E2000DF93CF9300D0CDB7DEB78E010F5F1F4F9A
:100E3000AAE5EA2EF12C1092FF021092FE02C801E0
:100E400060E177E20E949715F092FF02E092FE02C5
:100E5000C80160E177E20E949715EDCF8F929F92D3
:100E6000AF92BF92CF92DF92EF92FF920F931F93B8
:100E7000DF93CF9300D0CDB7DEB780E090E0A0E065
:100E8000B0E08093D8029093D902A093DA02B09395
:100E9000DB0280E090E0A8ECB1E48093DC02909368
:100EA000DD02A093DE02B093DF028E010F5F1F4FC1
:100EB000C80160E177E20E9497154801C40168EE1D
:100EC00073E00E949715E090DC02F090DD02009143
:100ED000DE021091DF02A090D802B090D902C0903B
:100EE000DA02D090DB02C801B701A60195010E9489
:100EF000DA2C9B01AC0160E070E080E89FE30E9487
:100F0000432DA80197010E94922E9B01AC01C601BE
:100F1000B5010E94DB2C6093D8027093D9028093B4
:100F2000DA029093DB0220E030E048EC51E40E94CA
:100F30008E2E181664F480E090E0A8ECB1E4809363
:100F4000D8029093D902A093DA02B093DB026091A9
:100F5000D8027091D9028091DA029091DB0220E0F0
:100F600030E040E050E00E943F2D88230CF0A6CFF7
:100F700080E090E0A0E0B0E08093D8029093D902A6
:100F8000A093DA02B093DB0299CF0F931F93DF9304
:100F9000CF9300D0CDB7DEB78E010F5F1F4F2E98D5
:100FA000C80162E370E00E9497152E9AC80162E3BF
:100FB00070E00E949715F3CF0F931F93DF93CF93A9
:100FC00000D0CDB7DEB78E010F5F1F4F109AC8015A
:100FD00062E370E00E9497151098C80162E370E028
:100FE0000E949715F3CF6F927F928F929F92AF924C
:100FF000BF92CF92DF92EF92FF920F931F93DF93F6
:10100000CF9300D0CDB7DEB78091900080688093F9
:101010009000809190008F7B809390008824992489
:101020003E010894611C711CE090D802F090D90236
:101030000091DA021091DB026091E0027091E1020E
:10104000882777FD8095982F0E94DE2D9B01AC01AB
:10105000C801B7010E94DA2C0E94AB2D5B016C0124
:101060006091EE027091EF02709561957F4F882735
:1010700077FD8095982F0E94DE2D9B01AC01C80161
:10108000B7010E94DA2C0E94AB2D6B01B6018827B4
:1010900077FD8095982F0E94DE2D20E030E040E81B
:1010A0005EE30E94922E7B018C01B401882777FDBC
:1010B0008095982F0E94DE2D20E030E040E05EE336
:1010C0000E94922E9B01AC01C801B7010E94DB2C4B
:1010D0000E94AB2D6A0D7B1D653271051CF064E228
:1010E00070E006C08FEF6C3D780714F46CED7FEF75
:1010F0000FB6F8940F9288279927861B970B0E94AA
:10110000BB050F900FBE8C0C9D1CC30162E370E009
:101110000E94971589CF4F925F926F927F928F9224
:101120009F92AF92BF92CF92DF92EF92FF920F9376
:101130001F93DF93CF9300D0CDB7DEB7809190009F
:10114000806280939000809190008F7E80939000C9
:10115000662477242E010894411C511C6091E00202
:101160007091E102882777FD8095982F0E94DE2DEF
:101170002091D8023091D9024091DA025091DB02DD
:101180000E94DB2C0E94AB2D7B018C018091E2023E
:101190009091E3024701881A990AB401882777FDE4
:1011A0008095982F0E94DE2D20E030E040E85EE33D
:1011B0000E94922E5B016C01B301882777FD809518
:1011C000982F0E94DE2D20E030E040E05EE30E9498
:1011D000922E9B01AC01C601B5010E94DB2C0E943E
:1011E000AB2DCB018E0D9F1D680C791C85329105AE
:1011F0001CF084E290E006C02FEF8C3D920714F4BF
:101200008CED9FEF0FB6F8940F920E948F050F9010
:101210000FBEC20162E370E00E9497159FCFDF927C
:10122000EF92FF920F931F930E94D51B6091EE02E5
:101230007091EF02709561957F4F2091E20230919D
:10124000E302621B730B882777FD8095982F0E941D
:10125000DE2D26E636E646E851E40E94432D7B016A
:101260008C010E94761BD6B42FEF30E040E050E0B6
:101270000E94B1306D0D711D811D911D0E94DC2DEC
:101280002FE632E143E85EE30E94922E20E030E058
:101290004AE754E40E94432D9B01AC01C801B70109
:1012A0000E94922E9B01AC016091FA027091FB02A8
:1012B0008091FC029091FD020E94DB2C6093FA0267
:1012C0007093FB028093FC029093FD02ADCFFF92DE
:1012D0000F931F93CF93DF93EB010E9496228FE031
:1012E000F82EFC2289E08F1518F090E3F90E06C065
:1012F0008F2D8A50873010F487E3F80ECE0104E07A
:10130000959587950A95E1F7082F0F700A3010F42C
:10131000005D05C0802F8A50873008F4095C8D2F4E
:10132000992787FD9A95182F1F701A3010F4105DB9
:1013300005C0812F8A50873008F4195CC0E1DC02B7
:10134000C12DDD0B1124CE018F70682F8A3010F46F
:10135000605D04C08A50873008F4695C862F0E9463
:101360009622812F0E949622802F0E9496228F2DF6
:101370000E9496228AE00E949622DF91CF911F91CF
:101380000F91FF900895AF92BF92CF92DF92EF92AC
:10139000FF920F931F936091FA027091FB0280916C
:1013A000FC029091FD0220E030E044E353E40E940F
:1013B000922E2BED3FE049E450E40E94432D5B0167
:1013C0006C016093491270934A1280934B12909370
:1013D0004C1220E030E040E05FE30E94922E7B015F
:1013E0008C016091FE027091FF02882777FD809545
:1013F000982F0E94DE2D20E030E040E05FE30E9465
:10140000922E9B01AC01C801B7010E94DB2C2091F8
:1014100004033091050340910603509107030E9495
:10142000DB2C0E94AB2D7093E1026093E00280916F
:10143000E2029091E3022091EE023091EF02821BD2
:10144000930B62E070E00E94E430882777FD80957E
:10145000982F0E94DE2D60934D1270934E12809350
:101460004F12909350128091F0029091F102A0914E
:10147000F202B091F302E090F402F090F502E81A63
:10148000F90A8093F4029093F502A093F602B093C8
:10149000F7028091E4029091E502A091E602B091FA
:1014A000E7022091E8023091E9028C01021B130B44
:1014B0008093E8029093E902A093EA02B093EB02D2
:1014C0001092ED021092EC021092F9021092F802C2
:1014D000C601B5010E94AB2D9B01AC0188E4B901A6
:1014E0000E94670960914D1270914E1280914F12C7
:1014F000909150120E94AB2D9B01AC0186E5B90181
:101500000E9467090E0D1F1DB801660F771F660F39
:10151000771F600F711F83E50E9467093CCF7F92A0
:101520008F929F92AF92BF92CF92DF92EF92FF92F3
:101530000F931F93DF93CF9300D0CDB7DEB7809189
:10154000A00080628093A0008091A0008F7E809395
:10155000A0008091A00080688093A0008091A000EE
:101560008F7B8093A0000AE710E04CEC842E912C36
:101570005E010894A11CB11C772473943FE6C32E2E
:1015800031E0D32E2DE6E22E21E0F22E84E0003071
:10159000180710F000E010E00FB6F8940F921093C7
:1015A000A9000093A8009092AB008092AA000F902F
:1015B0000FBE6091D0027091D102C5010E949715B3
:1015C0000E944E25803719F40F5F1F4F04C08C36E0
:1015D00011F40150104000D000D00F92EDB7FEB7CB
:1015E0003196ADB7BEB711967C92D282C182148378
:1015F00003830E94A1290F900F90EDB7FEB771826F
:10160000F382E2820E94A1290F5F1F4F0F900F907B
:101610000F90BCCF1F93CF93DF9311E0C2E7D1E0CF
:101620000E944E25803731F48091D0029091D102F2
:10163000019607C08C3649F48091D0029091D10276
:1016400001979093D1028093D00200D000D00F92E6
:10165000EDB7FEB73196ADB7BEB711961C93D283E6
:10166000C1838091D0029091D102948383830E94A0
:10167000A1290F900F900F900F900F90D1CFAA2714
:1016800097FDA095BA2FBC01CD010E94DE2D2EEE54
:101690003CE74FE45FEB0E94F52E9B01AC01CA01D1
:1016A000B90122E538ED48E354E40E94922E0E94ED
:1016B000AB2DCB010895AA2797FDA095BA2FBC01A9
:1016C000CD010E94DE2D2BE531EB4FE75FEB0E9451
:1016D000F52E9B01AC01CA01B9012DEC3CE04DEAAD
:1016E00054E40E94922E0E94AB2DCB0108952F92BC
:1016F0003F924F925F926F927F928F929F92AF92A2
:10170000BF92CF92DF92EF92FF920F931F93DF93DE
:10171000CF93CDB7DEB72D970FB6F894DEBF0FBECF
:10172000CDBF0F2EF0E0EF2EF0E0FF2EF0E00F2FF8
:10173000F0E01F2FF02D57016801EA86FB860C8729
:101740001D873701480117012801198293C082E0E3
:101750000E94672790E00E943F0BAA2797FDA09563
:10176000BA2FBC01CD010E94DE2D20E030E040E226
:1017700051E40E94432D9B01AC01C801B7010E94B6
:10178000DB2C7B018C0183E00E94672790E00E94A4
:101790005B0BAA2797FDA095BA2FBC01CD010E9433
:1017A000DE2D20E030E040E251E40E94432D9B0119
:1017B000AC016A857B858C859D850E94DB2C6A87C0
:1017C0007B878C879D8784E00E94672790E00E943A
:1017D0005B0BAA2797FDA095BA2FBC01CD010E94F3
:1017E000DE2D20E030E040E251E40E94432D9B01D9
:1017F000AC01C601B5010E94DB2C5B016C0185E0E8
:101800000E94672790E00E943F0BAA2797FDA095B2
:10181000BA2FBC01CD010E94DE2D20E030E040E275
:1018200051E40E94432D9B01AC01C201B1010E9411
:10183000DB2C1B012C0186E00E94672790E00E94B0
:101840003F0BAA2797FDA095BA2FBC01CD010E949E
:10185000DE2D20E030E040E251E40E94432D9B0168
:10186000AC01C401B3010E94DB2C3B014C01898116
:101870008F5F898399819A3008F469CFC801B701D5
:1018800020E030E040E251E40E94DA2C9B01AC0100
:101890000E94922E7B018C01C601B50120E030E050
:1018A00040E251E40E94DA2C9B01AC010E94922E8E
:1018B0005B016C01C401B30120E030E040E251E47F
:1018C0000E94DA2C9B01AC010E94922E3B014C013C
:1018D000C201B10120E030E040E251E40E94DA2C84
:1018E0009B01AC010E94922E6E837F83888799872B
:1018F000C801B70120E030E040E050E00E943F2DF9
:101900008823A1F060E070E08AE794E4A8019701E1
:101910000E94432D6A837B838C839D8320E030E08B
:1019200044EB52E40E948E2E18162CF480E090E0D6
:10193000A4EBB2E410C06A817B818C819D8120E0A0
:1019400030E044EB52EC0E943F2D882344F480E0C9
:1019500090E0A4EBB2EC8A839B83AC83BD83C60189
:10196000B50120E030E040E050E00E943F2D8823A8
:1019700091F060E070E08AE794E4A60195010E948E
:10198000432D7B018C0120E030E044EB52E40E94C7
:101990008E2E18165CF40F2EF0E0EF2EF0E0FF2EE6
:1019A000F4EB0F2FF2E41F2FF02D14C0C801B70184
:1019B00020E030E044EB52EC0E943F2D882354F4A9
:1019C0000F2EF0E0EF2EF0E0FF2EF4EB0F2FF2ECF5
:1019D0001F2FF02DC401B30120E030E040E050E0C3
:1019E0000E943F2D882391F060E070E08AE794E444
:1019F000A40193010E94432D1B012C0120E030E043
:101A000044EB52E40E948E2E18165CF40F2EF0E088
:101A10002F2EF0E03F2EF4EB4F2EF2E45F2EF02D50
:101A200014C0C201B10120E030E044EB52EC0E944E
:101A30003F2D882354F40F2EF0E02F2EF0E03F2EA0
:101A4000F4EB4F2EF2EC5F2EF02D6E817F818885B6
:101A5000998520E030E040E050E00E943F2D88234F
:101A6000A1F060E070E08AE794E42E813F81488530
:101A700059850E94432D5B016C0120E030E044EB6E
:101A800052E40E948E2E18165CF40F2EF0E0AF2E5A
:101A9000F0E0BF2EF4EBCF2EF2E4DF2EF02D14C0D9
:101AA000C601B50120E030E044EB52EC0E943F2D2E
:101AB000882354F40F2EF0E0AF2EF0E0BF2EF4EBAD
:101AC000CF2EF2ECDF2EF02D6A857B858C859D85EF
:101AD00020E030E040E251E40E94DA2C9B01AC01AE
:101AE00060E070E080E292E40E94432D3B014C01F3
:101AF0006A857B858C859D8520E030E040E252E45C
:101B00000E94432D0E94452F2091DC023091DD027E
:101B10004091DE025091DF020E94922E20E030E0E0
:101B200040E85FE30E94DB2C6093DC027093DD02EF
:101B30008093DE029093DF02C401B30120E030E025
:101B400040E85FE30E943F2D882354F40F2EF0E01D
:101B50006F2EF0E07F2EF0E88F2EFFE39F2EF02D0A
:101B6000C801B7012A813B814C815D810E94DA2C3A
:101B70007B018C01C601B501A20191010E94DA2C02
:101B80009B01AC01C801B7010E94DB2C9B01AC0199
:101B9000C401B3010E94922E609304037093050365
:101BA000809306039093070320E030E044EB52E477
:101BB0000E948E2E181664F480E090E0A4EBB2E44C
:101BC0008093040390930503A0930603B093070347
:101BD00060910403709105038091060390910703BF
:101BE00020E030E044EB52EC0E943F2D87FF0CC018
:101BF00080E090E0A4EBB2EC8093040390930503A3
:101C0000A0930603B09307030F2EF0E0EF2EF0E051
:101C1000FF2EF0E00F2FF0E01F2FF02D570168018D
:101C2000EA86FB860C871D873701480117012801CA
:101C300019828DCD1F93182F1F77812F0E948C2220
:101C40001A3021F481E08093100361C08091100369
:101C5000882391F0123531F481E080930D031092C6
:101C60000F0307C01D3441F481E080930C031092F0
:101C70000E03109210037CC080910D03882311F194
:101C8000812F80538A3010F4182F05C0812F815482
:101C9000863008F41753812F90E020910A03309189
:101CA0000B0364E0220F331F6A95E1F7822B932B1D
:101CB00090930B0380930A0380910F038F5F8093AF
:101CC0000F0325C080910C03882309F1812F8053D5
:101CD0008A3010F4182F05C0812F8154863008F403
:101CE0001753812F90E0209108033091090354E0AD
:101CF000220F331F5A95E1F7822B932B9093090300
:101D00008093080380910E038F5F80930E03809170
:101D10000F03843089F480910A0390910B03909310
:101D2000FF028093FE0210920D0310920F03109297
:101D30000B0310920A031CC080910E038430C1F47F
:101D40008091080390910903AA2797FDA095BA2FC7
:101D50008093000390930103A0930203B0930303C5
:101D600010920C0310920E031092090310920803B4
:101D70001F9108950F931F93CF93DF930E943926ED
:101D800080E040E056E960E070E00E94132281E0CC
:101D900040E052EC61E070E00E94132282E040E0FB
:101DA00056E960E070E00E94132283E040E056E9CB
:101DB00060E070E00E9413228CE892E20E947D278E
:101DC0000E94800382E062EF75E00E94082280E0BA
:101DD0006FE776E00E94082283E06AE17EE00E94DD
:101DE00008222E9800D00F9281E0EDB7FEB78183D4
:101DF00083E991E0938382830E94A1290F900F9041
:101E00000F9085E00E941F1C84E00E943F1C83E02D
:101E10000E944F1C83E00E94611C83E00E94731C9F
:101E20000E94F22685E00E94172781E00E941E276B
:101E300010E001E0C1E9D1E0812F0E94672700D0C6
:101E40000F92EDB7FEB70183D383C2830E94A1290D
:101E50001F5F0F900F900F90103171F72E9A00D0E6
:101E60000F92EDB7FEB7018386E791E093838283FB
:101E70000E94A1290F900F900F900E94D51B0E94E5
:101E8000DF1B0E94EC1B0E94F71B0E94041C0E9497
:101E9000111C0E945004DF91CF911F910F91089562
:101EA000AF92BF92CF92DF92EF92FF920F93CF93B8
:101EB000DF930E94BA0E8CED97E060E072E044E69A
:101EC00050E020E030E001E0EE24FF24CC24DD24CB
:101ED000AA24BB240E94811685EC97E067E072E09B
:101EE00044E650E020E030E00E9481168EE297E068
:101EF0006EE072E044E650E020E030E00E9481169F
:101F000083EC99E066E172E044EF51E020E030E0DC
:101F10000E9481168FE099E06FE172E044EF51E09A
:101F200020E030E00E9481168FE89AE068E272E0DB
:101F300048EC50E020E030E00E9481168BE898E009
:101F400060E372E044EF51E020E030E002E00E9404
:101F5000811683EF97E067E372E044EF51E020E001
:101F600030E00E9481160E94A51701E0C6E6D1E08C
:101F700000D00F92EDB7FEB70183D383C2830E94D6
:101F8000A1290F900F900F90F3CFFC019C012D5FC2
:101F90003F4F328321838FEF9FEF94838383368378
:101FA00025833087278310820895FC0111861086CF
:101FB0000895CF93DF93AC01DB01EC0129813A81D5
:101FC000F9018281938113969C938E931297898154
:101FD0009A8115969C938E9314970280F381E02D3D
:101FE00075836483E9017B836A83FA017283618369
:101FF00019965C934E93189780818F5F8083DF9151
:10200000CF910895CF93DF939C01EB0148815981D3
:102010008FEF4F3F580721F4F901A781B08510C019
:10202000D901139604C012960D90BC91A02D129662
:10203000ED91FC911397808191814817590798F78A
:102040001296ED91FC911397FB83EA83D583C483A9
:10205000BD83AC831396DC93CE9312973987288780
:10206000F90180818F5F8083DF91CF910895CF93B5
:10207000DF93DC011296ED91FC91139714968D91EC
:102080009C911597958384831496CD91DC91159737
:10209000FB83EA831896ED91FC91199781819281D7
:1020A0008A179B0711F4D283C18319961C921E9242
:1020B0001897808181508083DF91CF910895FC0132
:1020C0000FB6F8940F92828D0F900FBE0895FC0109
:1020D000828D0895FC01828D90E0882309F491E0BF
:1020E000892F0895FC01928D20E0838D981709F4C3
:1020F00021E0822F08950F931F938C01FC018081B2
:1021000091810E94D41AC8010E94D41A1F910F9184
:1021100008950F931F93CF93DF93EC01FB018A0186
:102120008A8D882381F14881598141155105A9F093
:102130008C8D2E813F81280F311D3F832E838A8114
:102140009B812817390710F05F834E834C8D6E8179
:102150007F81CF0150E00E94BB2C8A8D81508A8FF5
:102160008D8D8F3F69F48885882361F0CE010896B4
:102170000E94E913882331F081E0F801808303C0D5
:102180008F5F8D8F81E0DF91CF911F910F91089527
:10219000CF93DF93EC01842F4C8D4423A1F188234E
:1021A000B1F48C819D8150E00E94BB2C8C8D2C81E0
:1021B0003D81280F311D3D832C838A819B81281707
:1021C000390708F1888199819D838C831CC08E8199
:1021D0009F8150E00E94BB2C8C8D90E044275527B6
:1021E000481B590B8E819F81840F951F9F838E837F
:1021F000288139818217930730F48A819B81840F6B
:10220000951F9F838E838A8D8F5F8A8FDF91CF91F9
:1022100008950F931F93CF93DF93EC018A019A8D5A
:102220008B8D981710F080E017C0CE01422F0E94CE
:10223000C8108E8D8F3F69F48989882361F0CE01A3
:1022400041960E94E913882331F081E0F8018083F0
:1022500003C08F5F8E8F81E0DF91CF911F910F912F
:1022600008950F931F93CF93DF93EC010FB6F8946B
:102270000F928C010F5E1F4F0DC08989882369F072
:10228000C8010E94E913882311F00E94E5138E8D86
:1022900081508E8F8E8D181684F38FEF8E8F0F9056
:1022A0000FBE0FB6F8940F928E01085F1F4F0DC03E
:1022B0008885882369F0C8010E94E913882311F0FA
:1022C0000E94E5138D8D81508D8F8D8D181684F3AE
:1022D0008FEF8D8F0F900FBEDF91CF911F910F91D8
:1022E00008957F928F929F92AF92BF92CF92DF928A
:1022F000EF92FF920F931F93DF93CF9300D000D004
:102300000F92CDB7DEB78C01962E872E5D834C835E
:10231000722E91E1C92ED12CC00ED11E20E07E017B
:102320000894E11CF11C84E0A82EB12CAC0EBD1E5B
:1023300001C021E00FB6F8940F92F801828D882336
:1023400009F43EC0E680F780408151814115510576
:10235000B1F0848D9701280F311D37832683828148
:1023600093812817390710F057834683F801448D6D
:1023700066817781892D982D50E00E94BB2C7720B3
:1023800071F4F801828D8150828F80858823A1F0BD
:10239000C80108960E94E913813071F40BC0F8015E
:1023A000F782E6828189882339F0C6010E94E91309
:1023B000882311F00E94B1180F900FBE81E04AC02F
:1023C0008C819D81892B19F40F900FBE42C022236E
:1023D00019F4C7010E94A0130F900FBE0E9444136E
:1023E0000FB6F8940F92F801858D8F3F09F4158E82
:1023F000F801868D8F3F09F4168E0F900FBEC7012E
:10240000B5010E94AB138823F9F40FB6F8940F922C
:10241000F801828D0F900FBE882381F46C817D813D
:10242000C6010E94A214C8010E9431110E94DB144F
:10243000882309F07ECF0E94B1187BCFC8010E948B
:1024400031110E94DB1475CFC8010E9431110E9426
:10245000DB1480E00F900F900F900F900F90CF91B2
:10246000DF911F910F91FF90EF90DF90CF90BF9081
:10247000AF909F908F907F9008957F928F929F92C0
:10248000AF92BF92CF92DF92EF92FF920F931F9382
:10249000DF93CF9300D000D00F92CDB7DEB78C0181
:1024A0006B015D834C83722E48E0E42EF12CE80E24
:1024B000F91E20E05E010894A11CB11C34E0832EBB
:1024C000912C8C0E9D1E01C021E00FB6F8940F9246
:1024D000F801928D838D9817A8F4C801B601472D95
:1024E0000E94C810F8018189882341F0C8014196F3
:1024F0000E94E913813011F40E94B1180F900FBEB1
:1025000081E04CC08C819D81892B19F40F900FBE06
:1025100044C0222319F4C5010E94A0130F900FBEDE
:102520000E9444130FB6F8940F92F801858D8F3FE7
:1025300009F4158EF801868D8F3F09F4168E0F90E1
:102540000FBEC501B4010E94AB13882309F50FB675
:10255000F8940F92F801928D0F900FBEF801838DC1
:10256000981781F46C817D81C7010E94A214C80173
:102570000E9431110E94DB14882309F0A5CF0E942C
:10258000B118A2CFC8010E9431110E94DB149CCF68
:10259000C8010E9431110E94DB1480E00F900F905F
:1025A0000F900F900F90CF91DF911F910F91FF909F
:1025B000EF90DF90CF90BF90AF909F908F907F90E3
:1025C00008958F929F92AF92BF92CF92DF92EF9237
:1025D000FF920F931F93CF93DF93982E862E88231D
:1025E00009F442C08FE190E00E94E41A8C01EC01F2
:1025F0000097E1F1C92CDD24A82CBB24AC9C700110
:10260000AD9CF00CBC9CF00C1124C70101960E94FB
:10261000E41A9C0199838883009719F1E80EF91E4A
:10262000FB82EA821A8E9D838C830894C108D108AC
:10263000CA9CC001CB9C900DDA9C900D1124280FF0
:10264000391F3F832E839B8E8C8E8FEF8D8F8E8FC5
:10265000C80108960E94C50FC80141960E94C50F87
:1026600005C0C8010E94D41AC0E0D0E0CE01DF91BD
:10267000CF911F910F91FF90EF90DF90CF90BF907F
:10268000AF909F908F900895809139038F5F8093D2
:10269000390308950FB6F8940F92209137033091C3
:1026A00038030F900FBEC901089520913703309170
:1026B0003803C901089580913C030895809139033E
:1026C000882351F081E080933503089580913A0387
:1026D000815080933A0301C099E0E0913A03E99F69
:1026E000F0011124EF5BFC4F8081882379F39091F6
:1026F0003A0389E0989FD0011124AF5BBC4F11963B
:10270000ED91FC9112970280F381E02D1296FC93DB
:10271000EE931197CD010396E817F90731F4828102
:10272000938112969C938E9311971196ED91FC9143
:102730001297868197819093340380933303089591
:10274000FC01809136038083809137039091380398
:10275000928381830895FC01DB010FB6F8940F92F8
:10276000909136038081981749F02091370330917A
:102770003803818192812817390718F58091370332
:1027800090913803218132814D915C911197821B88
:10279000930B84179507A8F4809137039091380321
:1027A000281B390B240F351F2D933C938091360342
:1027B000808380913703909138039283818380E0F6
:1027C00001C081E00F900FBE089581E08093350332
:1027D00008950F931F93CF93DF93FC01808188238B
:1027E00019F4C0E0D0E005C00580F681E02DC68177
:1027F000D7818E01045F1F4FC8010E94371080915E
:1028000039038823A1F48E010E5F1F4FC8010E9477
:1028100037109E8980913A03891710F490933A03F8
:1028200089E0989FC00111248F5B9C4F02C08BE709
:1028300093E0B8010E94D90FE0913303F091340383
:1028400020E09E898689981708F021E0822FDF9189
:10285000CF911F910F910895FF920F931F93CF93E4
:10286000DF9380913903882309F061C08091370399
:1028700090913803019690933803809337038091A9
:10288000370390913803892BE9F580917703909174
:1028900078032091790330917A0330937803209361
:1028A000770390937A0380937903809136038F5F47
:1028B0008093360327C020913703309138038A81F3
:1028C0009B8128173907C0F18E010E5F1F4FC80189
:1028D0000E9437108C899D89892B21F0CE010C969E
:1028E0000E9437109E8980913A03891710F49093C3
:1028F0003A039F9DC00111248F5B9C4FB8010E9439
:10290000D90F02C089E0F82EE0917703F0917803A7
:102910008081882389F0E0917703F0917803058026
:10292000F681E02DC681D781209729F605C08091D8
:102930003B038F5F80933B03DF91CF911F910F91FA
:10294000FF9008950F931F938B0160913303709153
:102950003403645F7F4F0E94021080913303909193
:10296000340302960E943710809137039091380308
:10297000800F911FE0913303F0913403938382839E
:1029800020913703309138038217930728F4809100
:10299000790390917A0304C0809177039091780332
:1029A00060913303709134036E5F7F4F0E94021079
:1029B0001F910F910895CF92DF92FF920F931F9373
:1029C000DF93CF930F92CDB7DEB70FB6F8940F9287
:1029D0008091390381508093390380913903882392
:1029E00009F05BC080913C03882309F456C019822A
:1029F00099E0F92E27C0C6010C960E943710860177
:102A00000E5F1F4FC8010E943710D60156969C9149
:102A100080913A03891710F490933A039F9DC00167
:102A200011248F5B9C4FB8010E94D90FE0913303B2
:102A3000F0913403D60156969C918689981710F030
:102A4000B1E0B98380917B03882349F0E091800352
:102A5000F0918103C680D780C114D10461F68091C2
:102A60003B03882341F40CC00E942C1480913B034B
:102A7000815080933B0380913B038823A9F707C0D3
:102A8000E981E13021F080913503813031F41092F9
:102A900035030E94B11881E001C080E00F900FBEA5
:102AA0000F90CF91DF911F910F91FF90DF90CF900A
:102AB00008950F931F939C010097A1F18091390312
:102AC0008F5F809339030091370310913803020F11
:102AD000131F809133039091340302960E943710A4
:102AE000E0913303F0913403138302838091370321
:102AF000909138030817190728F480917903909171
:102B00007A0304C080917703909178036091330336
:102B1000709134036E5F7F4F0E9402100E94DB149D
:102B2000882311F40E94B1181F910F910895CF933B
:102B3000DF93FC01EB01809139038F5F80933903B0
:102B400020813181C20FD31F8091370390913803C8
:102B50008217930728F4C217D30728F020E00CC08F
:102B6000C217D30740F0809137039091380320E0DB
:102B70008C179D0708F421E0D183C083222329F11B
:102B8000809133039091340302960E943710E091B4
:102B90003303F0913403D383C28380913703909140
:102BA0003803C817D90728F48091790390917A03E4
:102BB00004C0809177039091780360913303709102
:102BC00034036E5F7F4F0E9402100E94DB14882343
:102BD00011F40E94B118DF91CF910895EF92FF9206
:102BE0000F931F93CF93DF938C010FB6F8940F923E
:102BF00080913303909134030817190719F400E00A
:102C000010E003C00115110529F4C0913303D091E0
:102C1000340301C0E80122E0E22EF12CEC0EFD1E8F
:102C2000C7010E9437108C899D89892B21F0CE0124
:102C30000C960E94371084E893E0B7010E94D90FE8
:102C400080913E038F5F80933E0380913F038F5FAF
:102C500080933F030F900FBE80913D03882321F0A6
:102C6000012B11F40E94B118DF91CF911F910F91A8
:102C7000FF90EF900895F89410923D030E9452182F
:102C800008951F93CF93DF9380913E03882391F1A2
:102C9000809139038F5F80933903109184030E94E0
:102CA000DB14112339F10FB6F8940F92809184034D
:102CB000882319F4C0E0D0E006C0E0918903F091C8
:102CC0008A03C681D781CE0102960E943710809177
:102CD0003C03815080933C0380913E03815080935C
:102CE0003E030F900FBE8F89988D0E94D41ACE019B
:102CF0000E94D41A80914103823030F20E94B118B0
:102D0000C3CF2F923F925F926F927F928F929F924A
:102D1000AF92BF92CF92DF92EF92FF920F931F93E9
:102D2000DF93CF9300D000D0CDB7DEB79A838983ED
:102D30004B015A011901502E370181E290E00E94A7
:102D4000E41A8B839C838B819C81892B89F0C1142D
:102D5000D10421F4C5010E94E41A6C01EB81FC81CD
:102D6000D08EC78AC114D10429F4CF010E94D41A8D
:102D70008FEFD5C0C60165EA70E0A5010E94C42CA2
:102D80000894A108B108EB81FC81E788F08CEA0C7B
:102D9000FB1CCF014996B40148E050E00E94CB2CC7
:102DA000EB81FC8110A2052DF3E0F51508F403E09A
:102DB000EB81FC81068B42E0C42ED12CCE0EDF1EAF
:102DC000C6010E94D50F8B819C810C960E94D50F65
:102DD0008B819C81FC019187808784E090E0801B3F
:102DE000910995878487F38BE28BC70169817A818A
:102DF000A1010E94D017EB81FC8191838083611433
:102E0000710421F0CF01F301918380830FB6F89410
:102E10000F9280913C038F5F80933C03809133033A
:102E200090913403892BB9F5EB81FC81F093340345
:102E3000E093330380913C038130F1F581E493E02A
:102E40000E94C50F8AE493E00E94C50F83E593E0DA
:102E50000E94C50F8CE593E00E94C50F35E6E32E76
:102E600033E0F32EC7010E94C50F0EE613E0C80140
:102E70000E94C50F8BE793E00E94C50F84E893E0A2
:102E80000E94C50FF0927803E092770310937A03C3
:102E90000093790311C080913D03882369F4E09188
:102EA0003303F09134038689581630F08B819C816E
:102EB0009093340380933303EB81FC819689809156
:102EC0004003891710F49093400380913F038F5F74
:102ED00080933F03EB81FC81968980913A038917A7
:102EE00010F490933A03EB81FC81868929E0829F5C
:102EF000C00111248F5B9C4FB6010E94D90F0F9027
:102F00000FBE80913D03882349F0E0913303F09197
:102F100034038689851510F40E94B11881E00F9062
:102F20000F900F900F90CF91DF911F910F91FF9015
:102F3000EF90DF90CF90BF90AF909F908F907F9059
:102F40006F905F903F902F900895AF92BF92CF9275
:102F5000DF92EF92FF920F9381E496E162ED72E0CF
:102F600045E550E020E030E000E0EE24FF24CC24F2
:102F7000DD24AA24BB240E948116813049F4F894F0
:102F800080933D0310923803109237030E94181863
:102F90000F91FF90EF90DF90CF90BF90AF9008958A
:102FA000FC0191E1908322E2229383E38293629376
:102FB0007293129280E88293129282E0829383E06D
:102FC000829384E0829385E0829386E0829387E017
:102FD000829388E0829389E0829380E18293929346
:102FE00082E1829383E1829384E1829385E18293FB
:102FF00086E1829387E1829388E1829389E18293DB
:1030000080E2829381E28293229383E282934293CD
:10301000529386E2829387E2829388E2829389E2E6
:10302000829380E3829381E382933197CF01089565
:103030001092890089EF809388008BE08093810053
:10304000EFE6F0E0808182608083A0913303B0914D
:103050003403CD91CDBFDD91DEBFFF91EF91DF91C4
:10306000CF91BF91AF919F918F917F916F915F9120
:103070004F913F912F911F910F91FF90EF90DF9013
:10308000CF90BF90AF909F908F907F906F905F9008
:103090004F903F902F901F900F900FBE0F9008956C
:1030A00081E0089508950F920FB6F8940F921F9241
:1030B00011242F923F924F925F926F927F928F9244
:1030C0009F92AF92BF92CF92DF92EF92FF920F93B7
:1030D0001F932F933F934F935F936F937F938F93A0
:1030E0009F93AF93BF93CF93DF93EF93FF93A09101
:1030F0003303B09134030DB60D920EB60D920E94BB
:103100002C140E945E13A0913303B0913403CD912F
:10311000CDBFDD91DEBFFF91EF91DF91CF91BF91E8
:10312000AF919F918F917F916F915F914F913F915F
:103130002F911F910F91FF90EF90DF90CF90BF9054
:10314000AF909F908F907F906F905F904F903F9047
:103150002F901F900F900FBE0F9008950E9453184C
:1031600018950F920FB6F8940F921F9211242F9278
:103170003F924F925F926F927F928F929F92AF9207
:10318000BF92CF92DF92EF92FF920F931F932F93F4
:103190003F934F935F936F937F938F939F93AF93DF
:1031A000BF93CF93DF93EF93FF93A0913303B0913D
:1031B00034030DB60D920EB60D920E945E13A091CF
:1031C0003303B0913403CD91CDBFDD91DEBFFF91CC
:1031D000EF91DF91CF91BF91AF919F918F917F91AF
:1031E0006F915F914F913F912F911F910F91FF90A0
:1031F000EF90DF90CF90BF90AF909F908F907F9097
:103200006F905F904F903F902F901F900F900FBE48
:103210000F9008950F931F93CF93DF93FC0180814C
:10322000882319F4C0E0D0E005C00580F681E02DC8
:10323000C681D7818E01045F1F4FC8010E943710DD
:103240008EEB93E0B8010E94D90F20E0E0918D034E
:10325000F0918E039E898689981708F021E0822FCD
:10326000DF91CF911F910F910895FF920F931F93BC
:10327000CF93DF9399E0F92E28C0F8948091BE0394
:10328000882319F4C0E0D0E006C0E091C303F091B8
:10329000C403C681D781CE010C960E943710789462
:1032A0008E010E5F1F4FC8010E9437109E898091CA
:1032B0008F03891710F490938F039F9DC0011124F1
:1032C0008A569C4FB8010E94D90F8091BE03882373
:1032D000A1F60E944A132091900330919103821B22
:1032E000930B909393038093920389E0F82E54C03C
:1032F000019690939503809394032150304030932E
:10330000930320939203892BC9F52091BA0330913E
:10331000BB038091BC039091BD039093BB0380934A
:10332000BA033093BD032093BC0328C020919403BB
:10333000309195038A819B812817390768F1F894A9
:103340008E010E5F1F4FC8010E9437108C899D8926
:10335000892B21F0CE010C960E94371078949E891B
:1033600080918F03891710F490938F039F9DC00164
:1033700011248A569C4FB8010E94D90FE091BA03DC
:10338000F091BB038081882339F00580F681E02D20
:10339000C681D781209751F62091920330919303F3
:1033A00080919403909195032115310509F0A0CFE8
:1033B000909391038093900390918F0329E006C02E
:1033C000992319F410928F0332C09150929FD0012B
:1033D0001124AA56BC4F8C91882391F390938F03AC
:1033E0001196ED91FC9112970280F381E02D1296D7
:1033F000FC93EE931197CD010396E817F90731F48A
:103400008281938112969C938E9311971196ED91E0
:10341000FC9112970680F781E02DF0938E03E093E4
:103420008D0320813181CF016789F9010995DF91F1
:10343000CF911F910F91FF9008950F931F93CF93FA
:10344000DF93EB010091940310919503080F191F6E
:1034500080918D0390918E0302960E943710E09127
:103460008D03F0918E0313830283809194039091D6
:103470009503BF016E5F7F4F0817190728F48091ED
:10348000BC039091BD0304C08091BA039091BB032B
:103490000E940210209749F060918D0370918E0375
:1034A000645F7F4FCE010E940210DF91CF911F9188
:1034B0000F910895AF92BF92CF92DF92EF92FF9259
:1034C0000F931F93CF93DF936C01B62EA42E8AE146
:1034D00090E00E94E41AEC01009711F48FEF59C0BC
:1034E00080918D0390918E03892B21F5D0938E03CB
:1034F000C0938D0386E993E00E94C50F8FE993E0A6
:103500000E94C50F28EAE22E23E0F22EC7010E9496
:10351000C50F01EB13E0C8010E94C50F8EEB93E0CD
:103520000E94C50FF092BB03E092BA031093BD0353
:103530000093BC03EB2CBB2011F0EE24E394198E16
:10354000188EEE8AAF8AFE01C192D1928F01CF010F
:103550000E94D50FCE010C960E94D50FD987C8873F
:10356000DB8BCA8B84E090E08E1991099D878C8754
:103570009E8980918F03891710F490938F0389E0BF
:10358000989FC00111248A569C4FB8010E94D90F00
:1035900081E0DF91CF911F910F91FF90EF90DF902D
:1035A000CF90BF90AF90089508951092C8031092E5
:1035B000C703089528EB3BE08091C7039091C803AF
:1035C000281B390BC90108950F931F93CF93DF93E5
:1035D0008C010E9444138091C7039091C803980105
:1035E000280F391F4BE0283B340758F48217930704
:1035F00040F4EC01C753DC4F3093C8032093C7035A
:1036000002C0C0E0D0E00E94DB14CE01DF91CF9178
:103610001F910F910895E82FF0E0E770F070EE0F22
:10362000FF1FE255FE4F25913491C9010895E82FFF
:10363000F0E0E770F070EE0FFF1FE654FE4F2591AB
:103640003491C901089585B5E82FF0E0E770F07076
:10365000EE0FFF1FE255FE4F25913491C9010895E9
:1036600080918100E82FF0E0E770F070EE0FFF1F0F
:10367000E255FE4F25913491C90108958091B10022
:10368000E82FF0E0E770F070EE0FFF1FE654FE4FFA
:1036900025913491C901089580919100E82FF0E0BF
:1036A000E770F070EE0FFF1FE255FE4F2591349149
:1036B000C90108958091A100E82FF0E0E770F07053
:1036C000EE0FFF1FE255FE4F25913491C901089579
:1036D00080912101E82FF0E0E770F070EE0FFF1FFE
:1036E000E255FE4F25913491C9010895209163124E
:1036F000309164124091651250916612B901CA016D
:10370000089520915F1230916012409161125091A2
:103710006212B901CA0108952091671230916812AE
:103720004091691250916A12B901CA01089520911D
:103730006F12309170124091711250917212B90152
:10374000CA01089520915B1230915C1240915D1284
:1037500050915E12B901CA010895209173123091FF
:1037600074124091751250917612B901CA010895F0
:1037700086B508952091840030918500C90108958F
:103780008091B20008952091940030919500C90174
:1037900008952091A4003091A500C90108952091B9
:1037A000240130912501C9010895109263121092ED
:1037B0006412109265121092661216BC089510924F
:1037C0005F121092601210926112109262121092A7
:1037D000850010928400089510926712109268126A
:1037E0001092691210926A121092B200089510920B
:1037F0006F12109270121092711210927212109237
:10380000950010929400089510925B1210925C1231
:1038100010925D1210925E121092A5001092A400F8
:1038200008951092731210927412109275121092E1
:10383000761210922501109224010895089585BDF5
:1038400081E080936E0010926312109264121092C5
:1038500065121092661216BC08958093810081E073
:1038600080936F0010925F1210926012109261129A
:103870001092621210928500109284000895809335
:10388000B10081E08093700010926712109268126C
:103890001092691210926A121092B20008958093E9
:1038A000910081E08093710010926F12109270125B
:1038B0001092711210927212109295001092940050
:1038C00008958093A10081E08093720010925B12B2
:1038D00010925C1210925D1210925E121092A5006E
:1038E0001092A40008958093210181E080937300D9
:1038F0001092731210927412109275121092761226
:1039000010922501109224010895E82FF0E0EE0FA7
:10391000FF1FEF57F04F718360830895E82FF0E0A9
:10392000EE0FFF1FEF57F04F11821082089501979D
:10393000F1F70895AF92BF92CF92DF92EF92FF928C
:103940000F931F93A0E0B0E0BC01CD010E94DC2DDD
:103950005B016C0120E030E04AE755E40E94922EC2
:103960007B018C0120E030E040E85FE30E943F2DC6
:1039700088231CF461E070E024C0C801B70120E096
:103980003FEF4FE757E40E948E2E1816B4F4C6019D
:10399000B50120E030E040E251E40E94922E0E9406
:1039A000B02D80E991E005C0FC013197F1F761503D
:1039B000704061157105C1F707C0C801B7010E94C9
:1039C000B02DCB010197F1F71F910F91FF90EF9070
:1039D000DF90CF90BF90AF9008951F920F920FB6D7
:1039E0000F9211242F933F934F935F936F937F9385
:1039F0008F939F93AF93BF93EF93FF938091631245
:103A000090916412A0916512B09166120196A11D69
:103A1000B11D8093631290936412A0936512B093CA
:103A2000661280916B1290916C12A0916D12B09100
:103A30006E120196A11DB11D80936B1290936C12B2
:103A4000A0936D12B0936E128091850F9091860FA6
:103A5000892B29F0E091850FF091860F0995FF9150
:103A6000EF91BF91AF919F918F917F916F915F91F6
:103A70004F913F912F910F900FBE0F901F9018956F
:103A80001F920F920FB60F9211242F933F934F93D3
:103A90005F936F937F938F939F93AF93BF93EF93B6
:103AA000FF9380915F1290916012A0916112B0918A
:103AB00062120196A11DB11D80935F129093601256
:103AC000A0936112B093621280918F0F9091900F2A
:103AD000892B29F0E0918F0FF091900F0995FF91BC
:103AE000EF91BF91AF919F918F917F916F915F9176
:103AF0004F913F912F910F900FBE0F901F901895EF
:103B00001F920F920FB60F9211242F933F934F9352
:103B10005F936F937F938F939F93AF93BF93EF9335
:103B2000FF938091671290916812A0916912B091F1
:103B30006A120196A11DB11D8093671290936812BD
:103B4000A0936912B0936A128091950F9091960F8D
:103B5000892B29F0E091950FF091960F0995FF912F
:103B6000EF91BF91AF919F918F917F916F915F91F5
:103B70004F913F912F910F900FBE0F901F9018956E
:103B80001F920F920FB60F9211242F933F934F93D2
:103B90005F936F937F938F939F93AF93BF93EF93B5
:103BA000FF9380916F1290917012A0917112B09159
:103BB00072120196A11DB11D80936F129093701225
:103BC000A0937112B093721280919F0F9091A00FE9
:103BD000892B29F0E0919F0FF091A00F0995FF919B
:103BE000EF91BF91AF919F918F917F916F915F9175
:103BF0004F913F912F910F900FBE0F901F901895EE
:103C00001F920F920FB60F9211242F933F934F9351
:103C10005F936F937F938F939F93AF93BF93EF9334
:103C2000FF9380915B1290915C12A0915D12B09114
:103C30005E120196A11DB11D80935B1290935C12E0
:103C4000A0935D12B0935E128091A90F9091AA0F7C
:103C5000892B29F0E091A90FF091AA0F0995FF9106
:103C6000EF91BF91AF919F918F917F916F915F91F4
:103C70004F913F912F910F900FBE0F901F9018956D
:103C80001F920F920FB60F9211242F933F934F93D1
:103C90005F936F937F938F939F93AF93BF93EF93B4
:103CA000FF938091731290917412A0917512B0914C
:103CB00076120196A11DB11D809373129093741218
:103CC000A0937512B09376128091B30F9091B40FB8
:103CD000892B29F0E091B30FF091B40F0995FF9172
:103CE000EF91BF91AF919F918F917F916F915F9174
:103CF0004F913F912F910F900FBE0F901F901895ED
:103D00001F920F920FB60F9211242F933F934F9350
:103D10005F936F937F938F939F93AF93BF93EF9333
:103D2000FF938091810F9091820F892B29F0E09170
:103D3000810FF091820F0995FF91EF91BF91AF91A3
:103D40009F918F917F916F915F914F913F912F91B3
:103D50000F900FBE0F901F9018951F920F920FB6E5
:103D60000F9211242F933F934F935F936F937F9301
:103D70008F939F93AF93BF93EF93FF938091830FA4
:103D80009091840F892B29F0E091830FF091840F9B
:103D90000995FF91EF91BF91AF919F918F917F9185
:103DA0006F915F914F913F912F910F900FBE0F90A8
:103DB0001F9018951F920F920FB60F9211242F93F8
:103DC0003F934F935F936F937F938F939F93AF93A3
:103DD000BF93EF93FF938091870F9091880F892B6A
:103DE00029F0E091870FF091880F0995FF91EF91ED
:103DF000BF91AF919F918F917F916F915F914F9103
:103E00003F912F910F900FBE0F901F9018951F920A
:103E10000F920FB60F9211242F933F934F935F93FE
:103E20006F937F938F939F93AF93BF93EF93FF9382
:103E300080918B0F90918C0F892B29F0E0918B0F43
:103E4000F0918C0F0995FF91EF91BF91AF919F91E8
:103E50008F917F916F915F914F913F912F910F9033
:103E60000FBE0F901F9018951F920F920FB60F92D2
:103E700011242F933F934F935F936F937F938F936F
:103E80009F93AF93BF93EF93FF9380918D0F90918A
:103E90008E0F892B29F0E0918D0FF0918E0F0995EF
:103EA000FF91EF91BF91AF919F918F917F916F9112
:103EB0005F914F913F912F910F900FBE0F901F90E8
:103EC00018951F920F920FB60F9211242F933F93C4
:103ED0004F935F936F937F938F939F93AF93BF9312
:103EE000EF93FF938091910F9091920F892B29F07E
:103EF000E091910FF091920F0995FF91EF91BF9191
:103F0000AF919F918F917F916F915F914F913F9171
:103F10002F910F900FBE0F901F9018951F920F9228
:103F20000FB60F9211242F933F934F935F936F938C
:103F30007F938F939F93AF93BF93EF93FF93809162
:103F4000930F9091940F892B29F0E091930FF091AA
:103F5000940F0995FF91EF91BF91AF919F918F9130
:103F60007F916F915F914F913F912F910F900FBE75
:103F70000F901F9018951F920F920FB60F92112459
:103F80002F933F934F935F936F937F938F939F9361
:103F9000AF93BF93EF93FF938091970F9091980FFA
:103FA000892B29F0E091970FF091980F0995FF91D7
:103FB000EF91BF91AF919F918F917F916F915F91A1
:103FC0004F913F912F910F900FBE0F901F9018951A
:103FD0001F920F920FB60F9211242F933F934F937E
:103FE0005F936F937F938F939F93AF93BF93EF9361
:103FF000FF938091990F90919A0F892B29F0E0916E
:10400000990FF0919A0F0995FF91EF91BF91AF91A0
:104010009F918F917F916F915F914F913F912F91E0
:104020000F900FBE0F901F9018951F920F920FB612
:104030000F9211242F933F934F935F936F937F932E
:104040008F939F93AF93BF93EF93FF9380919B0FB9
:1040500090919C0F892B29F0E0919B0FF0919C0F80
:104060000995FF91EF91BF91AF919F918F917F91B2
:104070006F915F914F913F912F910F900FBE0F90D5
:104080001F9018951F920F920FB60F9211242F9325
:104090003F934F935F936F937F938F939F93AF93D0
:1040A000BF93EF93FF9380919D0F90919E0F892B6B
:1040B00029F0E0919D0FF0919E0F0995FF91EF91EE
:1040C000BF91AF919F918F917F916F915F914F9130
:1040D0003F912F910F900FBE0F901F9018951F9238
:1040E0000F920FB60F9211242F933F934F935F932C
:1040F0006F937F938F939F93AF93BF93EF93FF93B0
:104100008091A10F9091A20F892B29F0E091A10F2E
:10411000F091A20F0995FF91EF91BF91AF919F91FF
:104120008F917F916F915F914F913F912F910F9060
:104130000FBE0F901F9018951F920F920FB60F92FF
:1041400011242F933F934F935F936F937F938F939C
:104150009F93AF93BF93EF93FF938091A30F9091A1
:10416000A40F892B29F0E091A30FF091A40F0995DA
:10417000FF91EF91BF91AF919F918F917F916F913F
:104180005F914F913F912F910F900FBE0F901F9015
:1041900018951F920F920FB60F9211242F933F93F1
:1041A0004F935F936F937F938F939F93AF93BF933F
:1041B000EF93FF938091A50F9091A60F892B29F083
:1041C000E091A50FF091A60F0995FF91EF91BF9196
:1041D000AF919F918F917F916F915F914F913F919F
:1041E0002F910F900FBE0F901F9018951F920F9256
:1041F0000FB60F9211242F933F934F935F936F93BA
:104200007F938F939F93AF93BF93EF93FF9380918F
:10421000A70F9091A80F892B29F0E091A70FF0919B
:10422000A80F0995FF91EF91BF91AF919F918F9149
:104230007F916F915F914F913F912F910F900FBEA2
:104240000F901F9018951F920F920FB60F92112486
:104250002F933F934F935F936F937F938F939F938E
:10426000AF93BF93EF93FF938091AB0F9091AC0FFF
:10427000892B29F0E091AB0FF091AC0F0995FF91DC
:10428000EF91BF91AF919F918F917F916F915F91CE
:104290004F913F912F910F900FBE0F901F90189547
:1042A0001F920F920FB60F9211242F933F934F93AB
:1042B0005F936F937F938F939F93AF93BF93EF938E
:1042C000FF938091AD0F9091AE0F892B29F0E09173
:1042D000AD0FF091AE0F0995FF91EF91BF91AF91A6
:1042E0009F918F917F916F915F914F913F912F910E
:1042F0000F900FBE0F901F9018951F920F920FB640
:104300000F9211242F933F934F935F936F937F935B
:104310008F939F93AF93BF93EF93FF938091AF0FD2
:104320009091B00F892B29F0E091AF0FF091B00F71
:104330000995FF91EF91BF91AF919F918F917F91DF
:104340006F915F914F913F912F910F900FBE0F9002
:104350001F9018951F920F920FB60F9211242F9352
:104360003F934F935F936F937F938F939F93AF93FD
:10437000BF93EF93FF938091B10F9091B20F892B70
:1043800029F0E091B10FF091B20F0995FF91EF91F3
:10439000BF91AF919F918F917F916F915F914F915D
:1043A0003F912F910F900FBE0F901F9018951F9265
:1043B0000F920FB60F9211242F933F934F935F9359
:1043C0006F937F938F939F93AF93BF93EF93FF93DD
:1043D00000D00F9281E0EDB7FEB781838AEC91E0C7
:1043E000938382830E94A1290F900F900F90FF91D9
:1043F000EF91BF91AF919F918F917F916F915F915D
:104400004F913F912F910F900FBE0F901F901895D5
:10441000843040F4E82FF0E0EE0FFF1FEB50FE4E2B
:104420007183608308951F93182F9A01AB01CA010D
:10443000B90160587B47814E9F4FF3E0660F771FAD
:10444000881F991FFA95D1F7E4E0220F331F441F0C
:10445000551FEA95D1F70E94F730215030401330B4
:1044600029F4209334013093350112C0123029F41D
:104470002093D4003093D5000BC0113029F4209341
:10448000CC003093CD0004C02093C4003093C5000D
:104490001F910895282F30E0A3E0220F331FAA9523
:1044A000E1F725583D4EC9010895282F30E0B3E0CB
:1044B000220F331FBA95E1F721563D4EC9010895E9
:1044C000E82F833039F48091300185FFFCCF609371
:1044D000360118C0823039F48091D00085FFFCCFBE
:1044E0006093D6000FC0813039F48091C80085FFF9
:1044F000FCCF6093CE0006C08091C00085FFFCCF4A
:104500006093C600F0E0E958FD4E10820895682FD0
:1045100080E00E9460220895682F81E00E9460225E
:104520000895682F82E00E9460220895682F83E03A
:104530000E946022089520E0E82FF0E083E0EE0F73
:10454000FF1F8A95E1F7E158FD4E80819181892B0B
:1045500009F421E0822F0895CF93DF93833019F47B
:10456000609136010CC0823019F46091D60007C00A
:10457000813019F46091CE0002C06091C600282FEE
:1045800030E0E901CC0FDD1FFE01EB50FE4E8081D3
:104590009181892B31F00190F081E02D862F0995D2
:1045A00014C093E0220F331F9A95E1F7C901855893
:1045B0009D4E0E94B826882341F4FE01E154FD4E31
:1045C00080819181019691838083DF91CF910895BD
:1045D0001F920F920FB60F9211242F933F934F9378
:1045E0005F936F937F938F939F93AF93BF93EF935B
:1045F000FF9383E00E94AC22FF91EF91BF91AF91B6
:104600009F918F917F916F915F914F913F912F91EA
:104610000F900FBE0F901F9018951F920F920FB61C
:104620000F9211242F933F934F935F936F937F9338
:104630008F939F93AF93BF93EF93FF9382E00E947A
:10464000AC22FF91EF91BF91AF919F918F917F919C
:104650006F915F914F913F912F910F900FBE0F90EF
:104660001F9018951F920F920FB60F9211242F933F
:104670003F934F935F936F937F938F939F93AF93EA
:10468000BF93EF93FF9381E00E94AC22FF91EF91E3
:10469000BF91AF919F918F917F916F915F914F915A
:1046A0003F912F910F900FBE0F901F9018951F9262
:1046B0000F920FB60F9211242F933F934F935F9356
:1046C0006F937F938F939F93AF93BF93EF93FF93DA
:1046D00080E00E94AC22FF91EF91BF91AF919F913A
:1046E0008F917F916F915F914F913F912F910F909B
:1046F0000FBE0F901F9018958F929F92AF92BF920E
:10470000CF92DF92EF92FF920F931F93CF93DF939D
:10471000882EDB01C82EDD24F60113E0EE0FFF1F0B
:104720001A95E1F7ED55FD4E20813181240F351F9B
:10473000F60173E0EE0FFF1F7A95E1F7EF55FD4E9E
:10474000808191812817390770F54115510559F17C
:104750009C90760163E0EE0CFF1C6A95E1F78FE90F
:1047600092E1E80EF91E8D01C0E0D0E05A010894F4
:10477000A108B10806C0C701F80160810E94B826EF
:1047800021960F5F1F4FCA15DB05A8F38BE992E155
:10479000C80ED91E8FEFF6018083882D692D0E94E7
:1047A00060228FEF01C080E0DF91CF911F910F91C8
:1047B000FF90EF90DF90CF90BF90AF909F908F9041
:1047C000089590E023E0880F991F2A95E1F781561C
:1047D0009D4E0E94B8260895682F87EB92E10E94B3
:1047E000B8260895682F8FEA92E10E94B8260895AE
:1047F000682F87EA92E10E94B8260895682F8FE912
:1048000092E10E94B8260895CF93DF93282FA82F16
:10481000B0E0ED01C556DD4E8881882379F1FD01B8
:1048200033E0EE0FFF1F3A95E1F7ED55FD4E808125
:104830009181892B11F1233039F487EB92E10E94A9
:104840004F26809336011EC0223039F48FEA92E160
:104850000E944F268093D60015C0213039F487EA94
:1048600092E10E944F268093CE000CC08FE992E126
:104870000E944F268093C60005C01882A958BD4EDD
:104880008FEF8C93DF91CF9108951F920F920FB607
:104890000F9211242F933F934F935F936F937F93C6
:1048A0008F939F93AF93BF93EF93FF9383E00E9407
:1048B0000424FF91EF91BF91AF919F918F917F91D0
:1048C0006F915F914F913F912F910F900FBE0F907D
:1048D0001F9018951F920F920FB60F9211242F93CD
:1048E0003F934F935F936F937F938F939F93AF9378
:1048F000BF93EF93FF9382E00E940424FF91EF9116
:10490000BF91AF919F918F917F916F915F914F91E7
:104910003F912F910F900FBE0F901F9018951F92EF
:104920000F920FB60F9211242F933F934F935F93E3
:104930006F937F938F939F93AF93BF93EF93FF9367
:1049400081E00E940424FF91EF91BF91AF919F916C
:104950008F917F916F915F914F913F912F910F9028
:104960000FBE0F901F9018951F920F920FB60F92C7
:1049700011242F933F934F935F936F937F938F9364
:104980009F93AF93BF93EF93FF9380E00E94042423
:10499000FF91EF91BF91AF919F918F917F916F9117
:1049A0005F914F913F912F910F900FBE0F901F90ED
:1049B00018951F93182F90E0FC01E556FD4E2FEF40
:1049C000208343E0880F991F4A95E1F781569D4E59
:1049D0000E944F26682F812F0E9460221F91089508
:1049E000CF93DF93EB01282F30E0F90173E0EE0F56
:1049F000FF1F7A95E1F7E358FD4E80819181892B65
:104A0000C9F0F90163E0EE0FFF1F6A95E1F7E15885
:104A1000FD4E80819181892B69F053E0220F331F75
:104A20005A95E1F7C90185589D4E0E944F2688830B
:104A30008FEF01C080E0DF91CF910895DF93CF9396
:104A40000F92CDB7DEB783E0BE016F5F7F4F0E944C
:104A5000F024882319F42FEF3FEF03C08981282F1A
:104A600030E0C9010F90CF91DF910895DF93CF938C
:104A70000F92CDB7DEB782E0BE016F5F7F4F0E941D
:104A8000F024882319F42FEF3FEF03C08981282FEA
:104A900030E0C9010F90CF91DF910895DF93CF935C
:104AA0000F92CDB7DEB781E0BE016F5F7F4F0E94EE
:104AB000F024882319F42FEF3FEF03C08981282FBA
:104AC00030E0C9010F90CF91DF910895DF93CF932C
:104AD0000F92CDB7DEB780E0BE016F5F7F4F0E94BF
:104AE000F024882319F42FEF3FEF03C08981282F8A
:104AF00030E0C9010F90CF91DF91089590E0E3E09D
:104B0000880F991FEA95E1F785589D4E0E94EB2684
:104B1000089583E992E165E671E140E850E00E9482
:104B2000422687EB92E165EE71E140E150E00E94A0
:104B3000422608950E9489251092FC111092FB11C3
:104B400088ED8093310183E040E855E260E070E059
:104B50000E9413228FEF80937A1210929E1210926D
:104B6000C6121092C512789408958BE892E165ED13
:104B700070E140E850E00E9442268FEA92E165E54C
:104B800071E140E150E00E94422608950E94B5255F
:104B90001092FA111092F91188ED8093D10082E001
:104BA00040E855E260E070E00E9413228FEF8093AE
:104BB000791210929D121092C4121092C31278941E
:104BC000089583E892E165E470E140E850E00E94D6
:104BD000422687EA92E165EC70E140E150E00E94F4
:104BE000422608950E94E1251092F8111092F711C3
:104BF00088ED8093C90081E040E855E260E070E014
:104C00000E9413228FEF8093781210929C121092C0
:104C1000C2121092C112789408958BE792E165EB6D
:104C20007FE040E850E00E9442268FE992E165E390
:104C300070E140E150E00E94422608950E940D2656
:104C40001092F6111092F51188ED8093C10080E06A
:104C500040E855E260E070E00E9413228FEF8093FD
:104C6000771210929B121092C0121092BF12789479
:104C700008950E941E260E94F2250E94C6250E94C9
:104C80009A250895FC018FB7F8947183608353834C
:104C9000428317821682158214828FBF0895DC0129
:104CA0004FB7F89414968D919C911597892B11F418
:104CB000E0E025C016968D919C911797ED91FC919F
:104CC0001197E80FF91FE081019617969C938E9338
:104CD000169712962D913C9113978217930730F0F7
:104CE000821B930B17969C938E93169714968D9117
:104CF0009C911597019715969C938E9314974FBF8F
:104D00008E2F0895FC014FB7F89484819581681720
:104D10007907B0F486819781860F971F97838683E2
:104D2000228133818217930720F0821B930B978394
:104D3000868384819581861B970B9583848302C02B
:104D4000158214824FBF0895FC01CB012FB7F89450
:104D50002FBF2681378162817381820F931F0E944A
:104D6000D0300190F081E02DE80FF91F8081089587
:104D70001F93CF93DF93EC01162F4FB7F8942C813C
:104D80003D816A817B812617370798F48E819F8148
:104D9000820F931F0E94D030E881F981E80FF91F3C
:104DA00010838C819D8101969D838C834FBF8FEFF3
:104DB00002C04FBF80E0DF91CF911F910895FC01A9
:104DC0008FB7F8948FBF2281338184819581281B0E
:104DD000390BC9010895FC018FB7F894158214822C
:104DE0008FBF0895AAE7B0E08C9180688C938C9176
:104DF0008F7D8C938C91887F86608C93ECE7F0E0BC
:104E000080818F738064808380818F7D80838C918B
:104E100088608C931092C71278940895EAE7F0E0C6
:104E20008081877F808380818F7780830895EAE700
:104E3000F0E09081987F982B90830895ECE7F0E064
:104E400090818295880F880F807C9F73982B908328
:104E50000895ECE7F0E090818F71907E892B80833C
:104E60000895EAE7F0E0808180618083808180643A
:104E70008083089580917A0080740895982F10920D
:104E8000C712883020F080917B00886003C0809139
:104E90007B00877F80937B0080917C009770887F68
:104EA000892B80937C0080917A00806180937A00C6
:104EB00080917A00806480937A0080917A0086FDE8
:104EC000FCCF2091780030917900C90108950E94AB
:104ED0003E27969587959695879508951F920F92F0
:104EE0000FB60F9211248F938FEF8093C7128F917B
:104EF0000F900FBE0F901F9018959093FE11809306
:104F0000FD1108951F93182F8A3031F4E091FD119F
:104F1000F091FE118DE00995E091FD11F091FE11E7
:104F2000812F09951F910895CF93DF93EC0100978E
:104F300021F406C021960E94822788818823D1F718
:104F4000DF91CF910895EF92FF920F931F93CF932C
:104F5000DF938C017A010097E9F020E030E026171A
:104F6000370738F4F80181918F012F5F3F4F882375
:104F7000B1F7C0E0D0E00BC0F8018081882319F0C0
:104F80000F5F1F4F01C080E20E9482272196CE153D
:104F9000DF0590F3DF91CF911F910F91FF90EF907C
:104FA0000895CF93DF93EC01009719F407C00E9496
:104FB0008227FE01219684918823C9F7DF91CF9142
:104FC00008958AE00E9482270895E82FF0E0EF70AC
:104FD000F070E552FE4FE4918E2F0E9482270895D3
:104FE0001F93182F82958F700E94E527812F0E94B2
:104FF000E5271F9108951F93182F892F0E94F027EE
:10500000812F0E94F0271F910895EF92FF920F9336
:105010001F937B018C01C801AA27BB270E94FB2795
:10502000C7010E94FB271F910F91FF90EF900895F9
:105030002F923F924F925F926F927F928F929F92A8
:10504000AF92BF92CF92DF92EF92FF920F931F9396
:10505000DF93CF93CDB7DEB7A3970FB6F894DEBF3B
:105060000FBECDBF6AA3242E2BA3370148014423D2
:1050700051F017FF08C0EE24FF248701E618F70857
:105080000809190902C0840173012AA1215090E086
:10509000211091E0291B29A318A2A82EBB24CC24FF
:1050A000DD24C801B701A60195010E94F730FB017C
:1050B000EF70F070E552FE4F64916F8FC801B70139
:1050C000A60195010E94F730C901DA017C018D012A
:1050D0009EE1492E512C4C0E5D1E39A025C0E114D5
:1050E000F10401051105C9F0C801B701A601950138
:1050F0000E94F730FB01EF70F070E552FE4F6491B3
:10510000F2016083C801B701A60195010E94F73042
:10511000C901DA017C018D0103C02BA1F2012083BA
:105120003A940894410851083320C9F6CE014F96AD
:105130008C01E9A10E1B11092220F1F097FE05C098
:105140008DE2F80182938F0117C0C80101976114A5
:1051500071048104910419F08C018BE202C08C016E
:1051600080E2F801808308C0F80181918F010E94DC
:105170008227FAA1F150FAA32AA12223A9F7A39624
:105180000FB6F894DEBF0FBECDBFCF91DF911F9158
:105190000F91FF90EF90DF90CF90BF90AF909F90D6
:1051A0008F907F906F905F904F903F902F900895D9
:1051B0004F925F926F927F928F929F92AF92BF9227
:1051C000CF92DF92EF92FF920F931F93CF93DF93D3
:1051D000482E5A016B01CB01BA0120E030E040E0DB
:1051E00050E00E948E2E18161CF43501460106C0B0
:1051F0003501460197FA909497F890940F2EF0E0BD
:10520000EF2EF0E0FF2EF0E80F2FFFE31F2FF02D21
:105210005524C401B301A80197010E94432D20E049
:1052200030E040E251E40E943F2D87FD0EC0C801EE
:10523000B70120E030E040E251E40E94922E7B0171
:105240008C0153948FE0581621F7C601B50120E078
:1052500030E040E050E00E943F2D882314F48DE2BE
:1052600001C08BE20E948227DD24AA2456C0C4011B
:10527000B301A80197010E94432D0E94B02DB62EC4
:10528000D62ACD2DD0E0CC24DD24C801B70120E002
:1052900030E040E85FE30E943F2D882319F421E0CD
:1052A000C22ED12CCC29DD29CD2B39F08B2D805D60
:1052B0000E948227DD24DA9404C080E20E948227C3
:1052C000DD24C801B70120E030E040E85FE30E9440
:1052D0003F2D882319F48EE20E9482276B2D70E007
:1052E000882777FD8095982F0E94DE2DA8019701D1
:1052F0000E94922E9B01AC01C401B3010E94DA2CE2
:105300003B014C01C801B70120E030E040E251E42C
:105310000E94432D7B018C01A394A41408F4A7CF11
:10532000DF91CF911F910F91FF90EF90DF90CF9081
:10533000BF90AF909F908F907F906F905F904F90B5
:1053400008957F928F929F92AF92BF92CF92DF92F9
:10535000EF92FF920F931F93DF93CF93CDB7DEB7FA
:105360007888C988DA8863E1E62EF12CEC0EFD1E00
:1053700014C0882381F480E090E0CF91DF911F91E9
:105380000F91FF90EF90DF90CF90BF90AF909F90E4
:105390008F907F9008950E94822796012F5F3F4F44
:1053A000772021F0F6016901849103C0F601808124
:1053B00069018532F1F62F5F3F4F772021F0F6012A
:1053C0006901849103C0F60180816901843629F066
:1053D000883781F08336F9F606C000E117E25AE01B
:1053E000A52EB12C0CC0F701808122E030E0E20E46
:1053F000F31ED1CF00E010E140E1A42EB12C32E049
:10540000832E912C8E0C9F1CF701E080F180843656
:10541000B1F4F7FE11C0F094E194F108F3948DE239
:105420000E94822709C0C8016AE070E00E94D03063
:105430008B016230710518F0E016F106A0F3C70188
:10544000B8010E94D030862F0E94E527C701B8011D
:105450000E94D0307C01C801B5010E94D0308B0180
:105460006115710561F7740198CF2091B9002E7F05
:105470002093B9002091B9002D7F2093B9009C01A1
:1054800040E050E060E87EE380E090E00E94193167
:10549000203130F0822F90E0409795958795282F06
:1054A0002093B8000895589A599A10924612109273
:1054B0004512109248121092471284E690E00E9422
:1054C000352AECEBF0E08081846080831092FF113C
:1054D0008081816080838081806480837894089556
:1054E00090E0611191E08E7F982B9093BA0008951F
:1054F000909346128093451208959093481280939A
:1055000047120895ECEBF0E080818F70806A808311
:105510000895ECEBF0E080818F70806D80830895BA
:105520008091BC0087FFFCCF08958093BB00ECEB1B
:10553000F0E080818F70806880830895882329F04F
:105540008091BC008F70806C04C08091BC008F7013
:1055500080688093BC0008958091BB00089580917D
:10556000B9000895982F8091FF118823E1F782E018
:105570008093FF119E7F90930012A1E0B2E1FA01A7
:1055800002C081918D938E2F841B8617D0F31092C9
:105590002112609322128091BC008F70806A8093E8
:1055A000BC000895982F8091FF118823E1F783E0D4
:1055B0008093FF11916090930012109243126093B8
:1055C00044128091BC008F70806A8093BC008091EF
:1055D000FF118823E1F7A3E2B2E1FA0102C08D9145
:1055E00081938E2F841B8617D0F30895982FFA018C
:1055F0008091BC008E7F8093BC008091BC008F7036
:10560000806A8093BC008091BC0087FFFCCF9E7FA6
:105610009093BB008091BC008F7080688093BC0029
:105620008091BC0087FFFCCF8091B900883189F060
:1056300091E012C080818093BB008091BC008F708C
:1056400080688093BC008091BC0087FFFCCF3196BE
:105650006150662379F790E08091BC008F70806D77
:105660008093BC008091BC0084FFFCCF8091BC0083
:1056700081608093BC00892F0895982FFA01809152
:10568000BC008E7F8093BC008091BC008F70806ACC
:105690008093BC008091BC0087FFFCCF9160909309
:1056A000BB008091BC008F7080688093BC008091AB
:1056B000BC0087FFFCCF8091B900803481F091E07D
:1056C0001EC08091BC008F70806C8093BC00809164
:1056D000BC0087FFFCCF8091BB008193615062309A
:1056E00080F78091BC008F7080688093BC008091AF
:1056F000BC0087FFFCCF8091BB00808390E080914D
:10570000BC008F70806D8093BC008091BC00816074
:105710008093BC00892F08951F920F920FB60F92AD
:1057200011242F933F934F935F936F937F938F93A6
:105730009F93AF93BF93EF93FF938091B900887FBE
:10574000803609F4A0C0813670F5883209F45FC054
:10575000893298F4803109F457C0813138F48823B4
:1057600009F4EAC0883009F0EFC04EC0883109F46E
:105770004EC0803209F0E8C0DFC0803409F477C041
:10578000813438F4803309F4D7C0883309F0DCC0A1
:105790005DC0803509F45FC0883509F44AC088349B
:1057A00009F0D2C0C9C0883909F4BAC08939B0F447
:1057B000883709F468C0893738F4883609F463C03B
:1057C000803709F0C1C05FC0883809F4A9C08039AA
:1057D00009F45FC0803809F0B7C05BC0803B09F4B2
:1057E00079C0813B38F4803A09F462C0883A09F004
:1057F000ABC070C0803C09F49AC0883C09F497C0E3
:10580000883B09F0A1C077C0809100120FC0909131
:10581000211280912212981708F08EC0E92FF0E033
:10582000EF5FFD4E80819F5F909321128093BB00BC
:1058300077C0809143129091BB00E82FF0E0ED5DBE
:10584000FD4E90838F5F8093431276C08091BC00A1
:105850008F70806875C0809143129091BB00E82FD3
:10586000F0E0ED5DFD4E90838F5F809343122091B9
:10587000431230E08091441290E0019728173907D5
:105880000CF04EC048C085E08093FF111092431287
:1058900042C0809143129091BB00E82FF0E0ED5D93
:1058A000FD4E90838F5F809343128032C8F533C0E2
:1058B0008091BC008F70806C8093BC00E091451299
:1058C000F09146123097F1F18091431263E272E158
:1058D000099538C084E08093FF11E0914712F09160
:1058E0004812309731F080E261E072E109958093CF
:1058F00022121092211290912112E92FF0E0EF5F15
:10590000FD4E80818093BB009F5F90932112809118
:105910002212981728F48091BC008F70806C04C00C
:105920008091BC008F7080688093BC000DC0809116
:10593000BC008F70806C04C08091BC008F70806D43
:105940008093BC001092FF11FF91EF91BF91AF9136
:105950009F918F917F916F915F914F913F912F9187
:105960000F900FBE0F901F9018958091FF11089512
:10597000F8940C943431FB01DC0102C001900D92CB
:1059800041505040D8F70895DC0101C06D9341505B
:105990005040E0F70895FB01DC014150504048F0D1
:1059A00001900D920020C9F701C01D924150504056
:1059B000E0F708955058BB27AA270ED075C166D1CD
:1059C00030F06BD120F031F49F3F11F41EF45BC135
:1059D0000EF4E095E7FB51C1E92F77D180F3BA17B8
:1059E000620773078407950718F071F49EF58FC15D
:1059F0000EF4E0950B2EBA2FA02D0B01B9019001EA
:105A00000C01CA01A0011124FF27591B99F0593F2D
:105A100050F4503E68F11A16F040A22F232F342F75
:105A20004427585FF3CF469537952795A795F040C3
:105A30005395C9F77EF41F16BA0B620B730B840BD8
:105A4000BAF09150A1F0FF0FBB1F661F771F881F90
:105A5000C2F70EC0BA0F621F731F841F48F48795E8
:105A600077956795B795F7959E3F08F0B3CF9395D7
:105A7000880F08F09927EE0F979587950895D9D04C
:105A800008F481E008950CD00FC107D140F0FED09A
:105A900030F021F45F3F19F0F0C0511139C1F3C06B
:105AA00014D198F39923C9F35523B1F3951B550BE2
:105AB000BB27AA2762177307840738F09F5F5F4FE1
:105AC000220F331F441FAA1FA9F333D00E2E3AF022
:105AD000E0E830D091505040E695001CCAF729D03C
