:100000000C9434000C9451000C9451000C94510049
:100010000C9451000C9451000C9451000C9451001C
:100020000C9451000C9451000C9451000C9451000C
:100030000C9451000C9451000C9451000C945100FC
:100040000C9451000C9451000C9451000C945100EC
:100050000C9451000C9451000C9451000C945100DC
:100060000C9451000C94510011241FBECFEFD8E026
:10007000DEBFCDBF11E0A0E0B1E0ECECF0E002C0EB
:1000800005900D92A030B107D9F711E0A0E0B1E0E2
:1000900001C01D92A130B107E1F70E9459000C94F4
:1000A00061000C94000083EC85B98FE084B90000F6
:1000B000089583EC85B98FE084B9000080E090E07A
:0C00C0000895F8940C946400F894FFCFAD
:00000001FF
