:100000000C9472000C948F000C948F000C948F0051
:100010000C948F000C948F000C948F000C948F0024
:100020000C948F000C948F000C948F000C948F0014
:100030000C948F000C948F000C948F000C948F0004
:100040000C948F000C941B0D0C948F000C948F005B
:100050000C948F000C948F000C948F000C948F00E4
:100060000C948F000C948F000C948F000C948F00D4
:100070000C948F000C948F000C948F000C948F00C4
:100080000C948F000C948F000C948F000C948F00B4
:100090000C948F000C948F000C948F000C948F00A4
:1000A0000C948F000C948F000C948F000C948F0094
:1000B0000C948F000C948F000C948F000C948F0084
:1000C0000C948F000C948F000C948F000C948F0074
:1000D0000C948F000C948F000C948F000C948F0064
:1000E0000C948F0011241FBECFEFD1E2DEBFCDBF35
:1000F00012E0A0E0B2E0EAEFFFE102C005900D924D
:10010000A83AB107D9F719E0A8EAB2E001C01D92F8
:10011000AA31B107E1F70E94D5030C94FB0F0C94B0
:100120000000893049F480918000826080938000D3
:10013000809180008E7F0EC08A3021F480918000F3
:10014000826003C0809180008D7F809380008091C9
:10015000800081608093800010928B0010928A0052
:100160000895893049F48091B00082608093B00096
:100170008091B0008E7F0EC08A3021F48091B00053
:10018000826003C08091B0008D7F8093B000809129
:10019000B00081608093B0001092B400089589305F
:1001A00049F480919000826080939000809190004B
:1001B0008E7F0EC08A3021F480919000826003C04F
:1001C000809190008D7F809390008091900081605D
:1001D00080939000109299001092980008958930B1
:1001E00049F4809191008260809391008091910008
:1001F0008E7F0EC08A3021F480919100826003C00E
:10020000809191008D7F8093910080919100816019
:100210008093910010929B0010929A00089589306B
:1002200049F48091920082608093920080919200C4
:100230008E7F0EC08A3021F480919200826003C0CC
:10024000809192008D7F80939200809192008160D6
:100250008093920010929D0010929C000895893026
:1002600049F48091A00082608093A0008091A0005A
:100270008E7F0EC08A3021F48091A000826003C07E
:100280008091A0008D7F8093A0008091A00081606C
:100290008093A0001092A9001092A80008958930C0
:1002A00049F48091A10082608093A1008091A10017
:1002B0008E7F0EC08A3021F48091A100826003C03D
:1002C0008091A1008D7F8093A1008091A100816029
:1002D0008093A1001092AB001092AA00089589307B
:1002E00049F48091A00082608093A0008091A000DA
:1002F0008E7F0EC08A3021F48091A000826003C0FE
:100300008091A0008D7F8093A0008091A0008160EB
:100310008093A0001092AD001092AC000895E0E828
:10032000F0E020812E7F2083208122602083E1E87D
:10033000F0E0208128602083208120612083909339
:100340008700809386001092890010928800109296
:100350008B0010928A0010928D0010928C000895EC
:10036000E0E9F0E020812E7F20832081226020833D
:10037000E1E9F0E020812860208320812061208352
:100380009093970080939600109299001092980095
:1003900010929B0010929A0010929D0010929C0067
:1003A0000895E0EAF0E020812E7F20832081226002
:1003B0002083E1EAF0E02081286020832081206111
:1003C00020839093A7008093A6001092A90010921A
:1003D000A8001092AB001092AA001092AD001092EB
:1003E000AC000895E0E8F0E0808180628083808145
:1003F0008F7E80830895E0EBF0E0808180628083CF
:1004000080818F7E80830895E0E9F0E080818068BC
:10041000808380818F7B80830895E0E9F0E0808194
:100420008062808380818F7E80830895E0E9F0E0A0
:1004300080818860808380818B7F80830895E0EA5B
:10044000F0E080818068808380818F7B8083089545
:10045000E0EAF0E080818062808380818F7E80830B
:100460000895E0EAF0E080818860808380818B7F5E
:1004700080830895E0E8F0E080818F7D8083808133
:100480008F7E80830895E0EBF0E080818F7D808314
:1004900080818F7E80830895E0E9F0E080818F770E
:1004A000808380818F7B80830895E0E9F0E0808104
:1004B0008F7D808380818F7E80830895E0E9F0E0E6
:1004C0008081877F808380818B7F80830895E0EAAD
:1004D000F0E080818F77808380818F7B8083089597
:1004E000E0EAF0E080818F7D808380818F7E808351
:1004F0000895E0EAF0E08081877F808380818B7FB0
:1005000080830895E0E8F0E080818D7F80838081A2
:100510008E7F808380818F7D808380818F7E8083AA
:100520000895E0EBF0E080818D7F808380818E7F75
:10053000808380818F7D808380818F7E80830895FA
:10054000E0E9F0E080818D7F808380818E7F8083F1
:1005500080818F77808380818F7B808380818F7D76
:10056000808380818F7E80838081877F808380816C
:100570008B7F80830895E0EAF0E080818D7F808327
:1005800080818E7F808380818F77808380818F7B45
:10059000808380818F7D808380818F7E8083808136
:1005A000877F808380818B7F8083089590938B00E9
:1005B00080938A0008958093B400089590939900E1
:1005C00080939800089590939B0080939A000895DB
:1005D00090939D0080939C0008959093A900809330
:1005E000A80008959093AB008093AA00089590937B
:1005F000AD008093AC00089510BA11BA10920701B3
:10060000109208019FEF91B980E484B997B9589A84
:10061000599A83EF8AB98EEF8DB9A59A9D988093E8
:10062000010180930401089508952E9A08952E984B
:10063000089522B330E085E0369527958A95E1F755
:100640002095309521703070C901089597FD10C034
:1006500025E030E040E050E00E94AA0FDA01C90135
:10066000880F991F805F9D4FFC012081318117C049
:1006700025E030E040E050E00E94AA0FDA01C90115
:10068000885B9F4FAF4FBF4F880F991F805F9D4F73
:10069000FC018081918122273327281B390BC90156
:1006A00008956A5570408040904097FD10C025E045
:1006B00030E040E050E00E94AA0FDA01C901880F43
:1006C000991F805F9D4FFC012081318117C025E07B
:1006D00030E040E050E00E94AA0FDA01C901885BD7
:1006E0009F4FAF4FBF4F880F991F805F9D4FFC01F9
:1006F0008081918122273327281B390BC901089556
:10070000CF92DF92EF92FF920F931F936B017C01C8
:100710008AE5C816D104E104F104A1F186EAC816FD
:100720008FEFD8068FEFE8068FEFF80659F18EE0CD
:10073000C81681E0D80680E0E80680E0F80611F1EE
:1007400082EFC8168EEFD8068FEFE8068FEFF80617
:10075000C9F0C701B6010E9451038C01C701B6015F
:100760000E942603BC01C8010E94970FCB019B0188
:1007700073E0220F331F7A95E1F7880F991F280F36
:10078000391F02C020E030E0C9011F910F91FF9096
:10079000EF90DF90CF9008958FE70FB6F8940F9207
:1007A0008093B4000F900FBEF8CFAF92BF92CF925C
:1007B000DF92EF92FF920F930E94FC0284E08093FD
:1007C000B10081E0809370001092B20088E00E9436
:1007D000B1008091B00080628093B0008091B00041
:1007E0008F7E8093B0002E9A8FE78093B4008CE2C6
:1007F00094E060E072E04AE050E020E030E001E0A8
:10080000EE24FF24CC24DD24AA24BB240E94EE0A7B
:100810008BE194E067E072E04AE050E020E030E0F5
:100820000E94EE0A0E94120C109AFECF8AEF90E00E
:100830000E94C609FBCF109A8AEF90E00E94C60979
:10084000FACF2E988AE090E00E94C6092E9A84EF93
:1008500091E00E94C609F5CF2E988AEF90E00E94A1
:10086000C609FACFFC019C012D5F3F4F32832183E3
:100870008FEF9FEF9483838336832583308727838D
:1008800010820895FC01118610860895CF93DF939E
:10089000AC01DB01EC0129813A81F901828193816C
:1008A00013969C938E93129789819A8115969C93A7
:1008B0008E9314970280F381E02D75836483E901A0
:1008C0007B836A83FA017283618319965C934E93EA
:1008D000189780818F5F8083DF91CF910895CF93A8
:1008E000DF939C01EB01488159818FEF4F3F5807FF
:1008F00021F4F901A781B08510C0D901139604C075
:1009000012960D90BC91A02D1296ED91FC9113972B
:10091000808191814817590798F71296ED91FC91C3
:100920001397FB83EA83D583C483BD83AC8313967B
:10093000DC93CE93129739872887F90180818F5FE6
:100940008083DF91CF910895CF93DF93DC011296DE
:10095000ED91FC91139714968D919C911597958329
:1009600084831496CD91DC911597FB83EA831896C6
:10097000ED91FC911997818192818A179B0711F45F
:10098000D283C18319961C921E9218978081815040
:100990008083DF91CF910895FC010FB6F8940F92F8
:1009A000828D0F900FBE0895FC01828D0895FC0189
:1009B000828D90E0882309F491E0892F0895FC014D
:1009C000928D20E0838D981709F421E0822F0895FD
:1009D0000F931F938C01FC01808191810E94410F34
:1009E000C8010E94410F1F910F9108950F931F930B
:1009F000CF93DF93EC01FB018A018A8D882381F17B
:100A00004881598141155105A9F08C8D2E813F8176
:100A1000280F311D3F832E838A819B812817390738
:100A200010F05F834E834C8D6E817F81CF0150E04B
:100A30000E94780F8A8D81508A8F8D8D8F3F69F447
:100A40008885882361F0CE0108960E945608882385
:100A500031F081E0F801808303C08F5F8D8F81E0EA
:100A6000DF91CF911F910F910895CF93DF93EC0108
:100A7000842F4C8D4423A1F18823B1F48C819D8176
:100A800050E00E94780F8C8D2C813D81280F311D04
:100A90003D832C838A819B812817390708F188813F
:100AA00099819D838C831CC08E819F8150E00E9420
:100AB000780F8C8D90E044275527481B590B8E8169
:100AC0009F81840F951F9F838E8328813981821790
:100AD000930730F48A819B81840F951F9F838E83B7
:100AE0008A8D8F5F8A8FDF91CF9108950F931F9327
:100AF000CF93DF93EC018A019A8D8B8D981710F0BC
:100B000080E017C0CE01422F0E9435058E8D8F3FA9
:100B100069F48989882361F0CE0141960E945608C4
:100B2000882331F081E0F801808303C08F5F8E8FCE
:100B300081E0DF91CF911F910F9108950F931F9343
:100B4000CF93DF93EC010FB6F8940F928C010F5EF8
:100B50001F4F0DC08989882369F0C8010E9456087B
:100B6000882311F00E9452088E8D81508E8F8E8DB9
:100B7000181684F38FEF8E8F0F900FBE0FB6F89478
:100B80000F928E01085F1F4F0DC08885882369F082
:100B9000C8010E945608882311F00E9452088D8DCA
:100BA00081508D8F8D8D181684F38FEF8D8F0F9060
:100BB0000FBEDF91CF911F910F9108957F928F9279
:100BC0009F92AF92BF92CF92DF92EF92FF920F93DC
:100BD0001F93DF93CF9300D000D00F92CDB7DEB735
:100BE0008C01962E872E5D834C83722E91E1C92E47
:100BF000D12CC00ED11E20E07E010894E11CF11C16
:100C000084E0A82EB12CAC0EBD1E01C021E00FB6B1
:100C1000F8940F92F801828D882309F43EC0E68093
:100C2000F7804081518141155105B1F0848D9701C4
:100C3000280F311D37832683828193812817390736
:100C400010F057834683F801448D66817781892DA2
:100C5000982D50E00E94780F772071F4F801828D72
:100C60008150828F80858823A1F0C80108960E9458
:100C70005608813071F40BC0F801F782E682818951
:100C8000882339F0C6010E945608882311F00E947B
:100C90001E0D0F900FBE81E04AC08C819D81892B73
:100CA00019F40F900FBE42C0222319F4C7010E940D
:100CB0000D080F900FBE0E94B1070FB6F8940F9267
:100CC000F801858D8F3F09F4158EF801868D8F3FD1
:100CD00009F4168E0F900FBEC701B5010E941808C7
:100CE0008823F9F40FB6F8940F92F801828D0F90D3
:100CF0000FBE882381F46C817D81C6010E940F099B
:100D0000C8010E949E050E944809882309F07ECFF1
:100D10000E941E0D7BCFC8010E949E050E944809BB
:100D200075CFC8010E949E050E94480980E00F907F
:100D30000F900F900F900F90CF91DF911F910F9117
:100D4000FF90EF90DF90CF90BF90AF909F908F90EB
:100D50007F9008957F928F929F92AF92BF92CF9291
:100D6000DF92EF92FF920F931F93DF93CF9300D008
:100D700000D00F92CDB7DEB78C016B015D834C8341
:100D8000722E48E0E42EF12CE80EF91E20E05E0100
:100D90000894A11CB11C34E0832E912C8C0E9D1E56
:100DA00001C021E00FB6F8940F92F801928D838D67
:100DB0009817A8F4C801B601472D0E943505F8011F
:100DC0008189882341F0C80141960E9456088130EC
:100DD00011F40E941E0D0F900FBE81E04CC08C815B
:100DE0009D81892B19F40F900FBE44C0222319F462
:100DF000C5010E940D080F900FBE0E94B1070FB6EB
:100E0000F8940F92F801858D8F3F09F4158EF80143
:100E1000868D8F3F09F4168E0F900FBEC501B40169
:100E20000E941808882309F50FB6F8940F92F8016C
:100E3000928D0F900FBEF801838D981781F46C810D
:100E40007D81C7010E940F09C8010E949E050E9472
:100E50004809882309F0A5CF0E941E0DA2CFC80122
:100E60000E949E050E9448099CCFC8010E949E05D1
:100E70000E94480980E00F900F900F900F900F9004
:100E8000CF91DF911F910F91FF90EF90DF90CF9066
:100E9000BF90AF909F908F907F9008958F929F9278
:100EA000AF92BF92CF92DF92EF92FF920F931F9378
:100EB000CF93DF93982E862E882309F442C08FE1CA
:100EC00090E00E94510F8C01EC010097E1F1C92CD8
:100ED000DD24A82CBB24AC9C7001AD9CF00CBC9C08
:100EE000F00C1124C70101960E94510F9C019983B7
:100EF0008883009719F1E80EF91EFB82EA821A8EA8
:100F00009D838C830894C108D108CA9CC001CB9CE6
:100F1000900DDA9C900D1124280F391F3F832E83EA
:100F20009B8E8C8E8FEF8D8F8E8FC80108960E94BE
:100F30003204C80141960E94320405C0C8010E94D3
:100F4000410FC0E0D0E0CE01DF91CF911F910F9112
:100F5000FF90EF90DF90CF90BF90AF909F908F90D9
:100F600008958091AE028F5F8093AE0208950FB610
:100F7000F8940F922091AC023091AD020F900FBE09
:100F8000C90108952091AC023091AD02C9010895C4
:100F90008091B10208958091AE02882351F081E0E2
:100FA0008093AA0208958091AF0281508093AF028E
:100FB00001C099E0E091AF02E99FF0011124EA54E9
:100FC000FD4F8081882379F39091AF0289E0989F4B
:100FD000D0011124AA54BD4F1196ED91FC911297A6
:100FE0000280F381E02D1296FC93EE931197CD01D0
:100FF0000396E817F90731F48281938112969C9346
:101000008E9311971196ED91FC911297868197819D
:101010009093A9028093A8020895FC018091AB02ED
:1010200080838091AC029091AD0292838183089578
:10103000FC01DB010FB6F8940F929091AB02808116
:10104000981749F02091AC023091AD0281819281D4
:101050002817390718F58091AC029091AD022181D3
:1010600032814D915C911197821B930B84179507E8
:10107000A8F48091AC029091AD02281B390B240F8B
:10108000351F2D933C938091AB0280838091AC02FD
:101090009091AD029283818380E001C081E00F9046
:1010A0000FBE089581E08093AA0208950F931F93C5
:1010B000CF93DF93FC018081882319F4C0E0D0E056
:1010C00005C00580F681E02DC681D7818E01045FC1
:1010D0001F4FC8010E94A4048091AE028823A1F48E
:1010E0008E010E5F1F4FC8010E94A4049E8980914B
:1010F000AF02891710F49093AF0289E0989FC00166
:1011000011248A549D4F02C080EF92E0B8010E94E2
:101110004604E091A802F091A90220E09E89868908
:10112000981708F021E0822FDF91CF911F910F9146
:101130000895FF920F931F93CF93DF938091AE0298
:10114000882309F061C08091AC029091AD020196B4
:101150009093AD028093AC028091AC029091AD026D
:10116000892BE9F58091EC029091ED022091EE023D
:101170003091EF023093ED022093EC029093EF0256
:101180008093EE028091AB028F5F8093AB0227C009
:101190002091AC023091AD028A819B8128173907DA
:1011A000C0F18E010E5F1F4FC8010E94A4048C89FC
:1011B0009D89892B21F0CE010C960E94A4049E8962
:1011C0008091AF02891710F49093AF029F9DC001E8
:1011D00011248A549D4FB8010E94460402C089E040
:1011E000F82EE091EC02F091ED028081882389F0E5
:1011F000E091EC02F091ED020580F681E02DC681D0
:10120000D781209729F605C08091B0028F5F809327
:10121000B002DF91CF911F910F91FF9008950F932E
:101220001F938B016091A8027091A902645F7F4FA8
:101230000E946F048091A8029091A90202960E94D8
:10124000A4048091AC029091AD02800F911FE091B7
:10125000A802F091A902938382832091AC0230917D
:10126000AD028217930728F48091EE029091EF026D
:1012700004C08091EC029091ED026091A8027091FF
:10128000A9026E5F7F4F0E946F041F910F91089516
:10129000CF92DF92FF920F931F93DF93CF930F9222
:1012A000CDB7DEB70FB6F8940F928091AE028150A1
:1012B0008093AE028091AE02882309F05BC08091DA
:1012C000B102882309F456C0198299E0F92E27C08B
:1012D000C6010C960E94A40486010E5F1F4FC80130
:1012E0000E94A404D60156969C918091AF02891762
:1012F00010F49093AF029F9DC00111248A549D4F1A
:10130000B8010E944604E091A802F091A902D6011A
:1013100056969C918689981710F0B1E0B983809118
:10132000F002882349F0E091F502F091F602C680C0
:10133000D780C114D10461F68091B002882341F4B2
:101340000CC00E9499088091B00281508093B00235
:101350008091B0028823A9F707C0E981E13021F02C
:101360008091AA02813031F41092AA020E941E0DCF
:1013700081E001C080E00F900FBE0F90CF91DF9110
:101380001F910F91FF90DF90CF9008950F931F93BF
:101390009C010097A1F18091AE028F5F8093AE0215
:1013A0000091AC021091AD02020F131F8091A802B0
:1013B0009091A90202960E94A404E091A802F091E3
:1013C000A902138302838091AC029091AD020817A9
:1013D000190728F48091EE029091EF0204C08091E9
:1013E000EC029091ED026091A8027091A9026E5FEB
:1013F0007F4F0E946F040E944809882311F40E94C5
:101400001E0D1F910F910895CF93DF93FC01EB0107
:101410008091AE028F5F8093AE0220813181C20F36
:10142000D31F8091AC029091AD028217930728F4EC
:10143000C217D30728F020E00CC0C217D30740F032
:101440008091AC029091AD0220E08C179D0708F4CA
:1014500021E0D183C083222329F18091A8029091B9
:10146000A90202960E94A404E091A802F091A902A8
:10147000D383C2838091AC029091AD02C817D90783
:1014800028F48091EE029091EF0204C08091EC026A
:101490009091ED026091A8027091A9026E5F7F4F5A
:1014A0000E946F040E944809882311F40E941E0DB7
:1014B000DF91CF910895EF92FF920F931F93CF93F7
:1014C000DF938C010FB6F8940F928091A80290914F
:1014D000A9020817190719F400E010E003C001156C
:1014E000110529F4C091A802D091A90201C0E80118
:1014F00022E0E22EF12CEC0EFD1EC7010E94A40496
:101500008C899D89892B21F0CE010C960E94A40420
:1015100089EF92E0B7010E9446048091B3028F5F89
:101520008093B3028091B4028F5F8093B4020F90D6
:101530000FBE8091B202882321F0012B11F40E948A
:101540001E0DDF91CF911F910F91FF90EF900895A5
:10155000F8941092B2020E94BF0C08951F93CF938B
:10156000DF938091B302882391F18091AE028F5F67
:101570008093AE021091F9020E944809112339F1BB
:101580000FB6F8940F928091F902882319F4C0E005
:10159000D0E006C0E091FE02F091FF02C681D78143
:1015A000CE0102960E94A4048091B10281508093E2
:1015B000B1028091B30281508093B3020F900FBEAD
:1015C0008F89988D0E94410FCE010E94410F80911A
:1015D000B602823030F20E941E0DC3CF2F923F928E
:1015E0005F926F927F928F929F92AF92BF92CF92B3
:1015F000DF92EF92FF920F931F93DF93CF9300D070
:1016000000D0CDB7DEB79A8389834B015A01190107
:10161000502E370181E290E00E94510F8B839C8312
:101620008B819C81892B89F0C114D10421F4C501DF
:101630000E94510F6C01EB81FC81D08EC78AC114CE
:10164000D10429F4CF010E94410F8FEFD5C0C6010C
:1016500065EA70E0A5010E94810F0894A108B10815
:10166000EB81FC81E788F08CEA0CFB1CCF014996EA
:10167000B40148E050E00E94880FEB81FC8110A289
:10168000052DF3E0F51508F403E0EB81FC81068BF2
:1016900042E0C42ED12CCE0EDF1EC6010E944204B1
:1016A0008B819C810C960E9442048B819C81FC0161
:1016B0009187808784E090E0801B910995878487DB
:1016C000F38BE28BC70169817A81A1010E943D0CF5
:1016D000EB81FC81918380836114710421F0CF013F
:1016E000F301918380830FB6F8940F928091B10239
:1016F0008F5F8093B1028091A8029091A902892BFB
:10170000B9F5EB81FC81F093A902E093A8028091E6
:10171000B1028130F1F586EB92E00E9432048FEB4A
:1017200092E00E94320488EC92E00E94320481ED43
:1017300092E00E9432043AEDE32E32E0F32EC7012C
:101740000E94320403EE12E0C8010E94320480EFCE
:1017500092E00E94320489EF92E00E943204F092FB
:10176000ED02E092EC021093EF020093EE0211C042
:101770008091B202882369F4E091A802F091A90255
:101780008689581630F08B819C819093A9028093B2
:10179000A802EB81FC8196898091B502891710F42B
:1017A0009093B5028091B4028F5F8093B402EB8175
:1017B000FC8196898091AF02891710F49093AF0253
:1017C000EB81FC81868929E0829FC00111248A5423
:1017D0009D4FB6010E9446040F900FBE8091B20249
:1017E000882349F0E091A802F091A9028689851525
:1017F00010F40E941E0D81E00F900F900F900F903B
:10180000CF91DF911F910F91FF90EF90DF90CF90DC
:10181000BF90AF909F908F907F906F905F903F9020
:101820002F900895AF92BF92CF92DF92EF92FF92E6
:101830000F938EEA9AE062EA72E045E550E020E01C
:1018400030E000E0EE24FF24CC24DD24AA24BB24D5
:101850000E94EE0A813049F4F8948093B20210920B
:10186000AD021092AC020E94850C0F91FF90EF9098
:10187000DF90CF90BF90AF900895FC0191E19083ED
:1018800022E2229383E3829362937293129280E81E
:101890008293129282E0829383E0829384E0829327
:1018A00085E0829386E0829387E0829388E082934A
:1018B00089E0829380E18293929382E1829383E133
:1018C000829384E1829385E1829386E1829387E12A
:1018D000829388E1829389E1829380E2829381E21C
:1018E0008293229383E282934293529386E282937D
:1018F00087E2829388E2829389E2829380E38293F3
:1019000081E382933197CF0108951092890089EF86
:10191000809388008BE080938100EFE6F0E0808187
:1019200080618083A091A802B091A902CD91CDBF22
:10193000DD91DEBFFF91EF91DF91CF91BF91AF912C
:101940009F918F917F916F915F914F913F912F91D7
:101950001F910F91FF90EF90DF90CF90BF90AF90CD
:101960009F908F907F906F905F904F903F902F90BF
:101970001F900F900FBE0F90089581E00895089575
:101980000F920FB6F8940F921F9211242F923F924C
:101990004F925F926F927F928F929F92AF92BF927F
:1019A000CF92DF92EF92FF920F931F932F933F936B
:1019B0004F935F936F937F938F939F93AF93BF9357
:1019C000CF93DF93EF93FF93A091A802B091A90268
:1019D0000DB60D920EB60D920E9499080E94CB078B
:1019E000A091A802B091A902CD91CDBFDD91DEBF3B
:1019F000FF91EF91DF91CF91BF91AF919F918F9127
:101A00007F916F915F914F913F912F911F910F9116
:101A1000FF90EF90DF90CF90BF90AF909F908F900E
:101A20007F906F905F904F903F902F901F900F90FE
:101A30000FBE0F9008950E94C00C18950F920FB61C
:101A4000F8940F921F9211242F923F924F925F921F
:101A50006F927F928F929F92AF92BF92CF92DF92BE
:101A6000EF92FF920F931F932F933F934F935F93A8
:101A70006F937F938F939F93AF93BF93CF93DF9396
:101A8000EF93FF93A091A802B091A9020DB60D9219
:101A90000EB60D920E94CB07A091A802B091A902A8
:101AA000CD91CDBFDD91DEBFFF91EF91DF91CF9161
:101AB000BF91AF919F918F917F916F915F914F9166
:101AC0003F912F911F910F91FF90EF90DF90CF905A
:101AD000BF90AF909F908F907F906F905F904F904E
:101AE0003F902F901F900F900FBE0F9008950F936F
:101AF0001F93CF93DF93FC018081882319F4C0E00A
:101B0000D0E005C00580F681E02DC681D7818E0129
:101B1000045F1F4FC8010E94A40483E393E0B8014F
:101B20000E94460420E0E0910203F09103039E89A5
:101B30008689981708F021E0822FDF91CF911F91BD
:101B40000F910895FF920F931F93CF93DF9399E026
:101B5000F92E28C0F89480913303882319F4C0E04B
:101B6000D0E006C0E0913803F0913903C681D781F7
:101B7000CE010C960E94A40478948E010E5F1F4F34
:101B8000C8010E94A4049E8980910403891710F45F
:101B9000909304039F9DC0011124855F9C4FB80161
:101BA0000E944604809133038823A1F60E94B70760
:101BB0002091050330910603821B930B9093080339
:101BC0008093070389E0F82E54C0019690930A038E
:101BD000809309032150304030930803209307037A
:101BE000892BC9F520912F03309130038091310367
:101BF000909132039093300380932F0330933203FC
:101C00002093310328C02091090330910A038A816F
:101C10009B812817390768F1F8948E010E5F1F4FDA
:101C2000C8010E94A4048C899D89892B21F0CE01D2
:101C30000C960E94A40478949E89809104038917CD
:101C400010F4909304039F9DC0011124855F9C4F65
:101C5000B8010E944604E0912F03F0913003808187
:101C6000882339F00580F681E02DC681D781209741
:101C700051F6209107033091080380910903909158
:101C80000A032115310509F0A0CF90930603809334
:101C900005039091040329E006C0992319F41092DA
:101CA000040332C09150929FD0011124A55FBC4F14
:101CB0008C91882391F3909304031196ED91FC91FC
:101CC00012970280F381E02D1296FC93EE93119708
:101CD000CD010396E817F90731F4828193811296BA
:101CE0009C938E9311971196ED91FC91129706801B
:101CF000F781E02DF0930303E0930203208131810B
:101D0000CF016789F9010995DF91CF911F910F915B
:101D1000FF9008950F931F93CF93DF93EB010091F2
:101D2000090310910A03080F191F80910203909173
:101D3000030302960E94A404E0910203F0910303BE
:101D4000138302838091090390910A03BF016E5FA0
:101D50007F4F0817190728F48091310390913203BF
:101D600004C080912F03909130030E946F0420974C
:101D700049F06091020370910303645F7F4FCE01CD
:101D80000E946F04DF91CF911F910F910895AF9240
:101D9000BF92CF92DF92EF92FF920F931F93CF9358
:101DA000DF936C01B62EA42E8AE190E00E94510FC1
:101DB000EC01009711F48FEF59C0809102039091CC
:101DC0000303892B21F5D0930303C09302038BE017
:101DD00093E00E94320484E193E00E9432042DE1FA
:101DE000E22E23E0F22EC7010E94320406E213E045
:101DF000C8010E94320483E393E00E943204F0920F
:101E00003003E0922F031093320300933103EB2C45
:101E1000BB2011F0EE24E394198E188EEE8AAF8A5F
:101E2000FE01C192D1928F01CF010E944204CE01E6
:101E30000C960E944204D987C887DB8BCA8B84E04A
:101E400090E08E1991099D878C879E89809104036B
:101E5000891710F49093040389E0989FC00111241E
:101E6000855F9C4FB8010E94460481E0DF91CF91CD
:101E70001F910F91FF90EF90DF90CF90BF90AF90A8
:101E80000895089510923D0310923C0308952CED9F
:101E900035E080913C0390913D03281B390BC9012B
:101EA00008950F931F93CF93DF938C010E94B10786
:101EB00080913C0390913D039801280F391F45E024
:101EC0002C3D340758F48217930740F4EC01C25CB0
:101ED000DC4F30933D0320933C0302C0C0E0D0E0D0
:101EE0000E944809CE01DF91CF911F910F91089573
:101EF000FB01DC0102C001900D9241505040D8F727
:101F00000895DC0101C06D9341505040E0F7089501
:101F1000FB01DC014150504048F001900D9200203F
:101F2000C9F701C01D9241505040E0F7089597FB5A
:101F3000092E07260AD077FD04D027D006D000202E
:101F40001AF4709561957F4F0895F6F790958195F5
:101F50009F4F089597FB092E05260ED057FD04D0FC
:101F600028D00AD0001C38F4509540953095219522
:101F70003F4F4F4F5F4F0895F6F7909580957095BE
:101F800061957F4F8F4F9F4F0895AA1BBB1B51E157
:101F900007C0AA1FBB1FA617B70710F0A61BB70BD9
:101FA000881F991F5A95A9F780959095BC01CD017E
:101FB0000895A1E21A2EAA1BBB1BFD010DC0AA1F8A
:101FC000BB1FEE1FFF1FA217B307E407F50720F0A2
:101FD000A21BB30BE40BF50B661F771F881F991F1D
:101FE0001A9469F760957095809590959B01AC0166
:0A1FF000BD01CF010895F894FFCF62
:101FFA004C4544204F4E004C69676874206F6E0050
:10200A0064006400620061005E005B0057005200D9
:10201A004D0047004000390032002A0022001A0011
:10202A00110009000000F7FFEFFFE6FFDEFFD6FF11
:10203A00CEFFC7FFC0FFB9FFB3FFAEFFA9FFA5FFE1
:10204A00A2FF9FFF9EFF9CFF9CFF9CFF9EFF9FFF9E
:10205A00A2FFA5FFA9FFAEFFB3FFB9FFC0FFC7FFED
:10206A00CEFFD6FFDEFFE6FFEFFFF7FF0000090015
:10207A0011001A0022002A003200390040004700ED
:10208A004D00520057005B005E0061006200640070
:08209A00640049444C450000BC
:00000001FF
