:100000000C94A9000C94C6000C94C6000C94C60075
:100010000C94C6000C94C6000C94C6000C94C60048
:100020000C94C6000C94C6000C94C6000C94C60038
:100030000C94C6000C946E140C949B140C948D12AA
:100040000C94E7130C94BB0D0C9414140C944114F1
:100050000C944D120C948D130C94BA130C94FA1149
:100060000C94C6000C9464180C94C6000C94C1192E
:100070000C94C6000C947B1C0C94C6000C94C81401
:100080000C94F5140C9422150C944F150C94CD126D
:100090000C943F180C94C6000C949C190C94992055
:1000A0000C94C6000C947C150C94A9150C94D615D0
:1000B0000C9403160C940D130C9430160C945D16CE
:1000C0000C948A160C94B7160C944D130C941A18B1
:1000D0000C94C6000C9477190C94F5170C94C60078
:1000E0000C945219496E697469616C697A6174691A
:1000F0006F6E20436F6D706C657465200D0A002E65
:10010000000D0A53797374656D205761726D6564D3
:1001100020557000000001000800400000010004AC
:1001200000000100080020004000800000010004E1
:100130004241445F766563742063616C6C65642141
:100140000030313233343536373839414243444553
:10015000460011241FBECFEFD1E2DEBFCDBF12E0BB
:10016000A0E0B2E0E6ECF8E402C005900D92A43BFA
:10017000B107D9F71FE1A4EBB2E001C01D92A73E81
:10018000B107E1F70E94C6040C94C5210C94E41653
:10019000893049F480918000826080938000809152
:1001A00080008E7F0EC08A3021F4809180008260B2
:1001B00003C0809180008D7F8093800080918000BB
:1001C00081608093800010928B0010928A000895C5
:1001D000893049F48091B00082608093B0008091B2
:1001E000B0008E7F0EC08A3021F48091B000826012
:1001F00003C08091B0008D7F8093B0008091B000EB
:1002000081608093B0001092B4000895893049F461
:1002100080919000826080939000809190008E7F0A
:100220000EC08A3021F480919000826003C08091DA
:1002300090008D7F809390008091900081608093EA
:10024000900010929900109298000895893049F416
:1002500080919100826080939100809191008E7FC7
:100260000EC08A3021F480919100826003C0809199
:1002700091008D7F809391008091910081608093A7
:10028000910010929B0010929A000895893049F4D1
:1002900080919200826080939200809192008E7F84
:1002A0000EC08A3021F480919200826003C0809158
:1002B00092008D7F80939200809192008160809364
:1002C000920010929D0010929C000895893049F48C
:1002D0008091A00082608093A0008091A0008E7F1A
:1002E0000EC08A3021F48091A000826003C080910A
:1002F000A0008D7F8093A0008091A00081608093FA
:10030000A0001092A9001092A8000895893049F425
:100310008091A10082608093A1008091A1008E7FD6
:100320000EC08A3021F48091A100826003C08091C8
:10033000A1008D7F8093A1008091A10081608093B6
:10034000A1001092AB001092AA000895893049F4E0
:100350008091A00082608093A0008091A0008E7F99
:100360000EC08A3021F48091A000826003C0809189
:10037000A0008D7F8093A0008091A0008160809379
:10038000A0001092AD001092AC000895E0E8F0E0FB
:1003900020812E7F2083208122602083E1E8F0E00D
:1003A0002081286020832081206120839093870012
:1003B00080938600109289001092880010928B0022
:1003C00010928A0010928D0010928C000895E0E93E
:1003D000F0E020812E7F2083208122602083E1E9CC
:1003E000F0E0208128602083208120612083909389
:1003F00097008093960010929900109298001092A6
:100400009B0010929A0010929D0010929C000895FB
:10041000E0EAF0E020812E7F20832081226020838B
:10042000E1EAF0E0208128602083208120612083A0
:100430009093A7008093A6001092A9001092A800A4
:100440001092AB001092AA001092AD001092AC0076
:100450000895E0E8F0E080818062808380818F7E73
:1004600080830895E0EBF0E080818062808380816A
:100470008F7E80830895E0E9F0E08081806880834A
:1004800080818F7B80830895E0E9F0E08081806245
:10049000808380818F7E80830895E0E9F0E0808111
:1004A0008860808380818B7F80830895E0EAF0E01C
:1004B00080818068808380818F7B80830895E0EADB
:1004C000F0E080818062808380818F7E80830895C8
:1004D000E0EAF0E080818860808380818B7F808388
:1004E0000895E0E8F0E080818F7D808380818F7EB9
:1004F00080830895E0EBF0E080818F7D80838081B0
:100500008F7E80830895E0E9F0E080818F7780839B
:1005100080818F7B80830895E0E9F0E080818F7D8A
:10052000808380818F7E80830895E0E9F0E0808180
:10053000877F808380818B7F80830895E0EAF0E06D
:1005400080818F77808380818F7B80830895E0EA2C
:10055000F0E080818F7D808380818F7E808308950D
:10056000E0EAF0E08081877F808380818B7F8083D9
:100570000895E0E8F0E080818D7F808380818E7F28
:10058000808380818F7D808380818F7E80830895AA
:10059000E0EBF0E080818D7F808380818E7F80839F
:1005A00080818F7D808380818F7E80830895E0E9C4
:1005B000F0E080818D7F808380818E7F8083808149
:1005C0008F77808380818F7B808380818F7D808304
:1005D00080818F7E80838081877F808380818B7FF5
:1005E00080830895E0EAF0E080818D7F80838081C0
:1005F0008E7F808380818F77808380818F7B8083D3
:1006000080818F7D808380818F7E80838081877FC2
:10061000808380818B7F8083089590938B0080936B
:100620008A0008958093B400089590939900809370
:100630009800089590939B0080939A00089590935A
:100640009D0080939C0008959093A9008093A8003A
:1006500008959093AB008093AA0008959093AD0005
:100660008093AC00089510BA11BA1092070110924D
:1006700008019FEF91B980E484B997B9589A599AC3
:1006800083EF8AB98EEF8DB9A59A9D988093010169
:1006900080930401089508952E9A08952E98089540
:1006A00022B330E085E0369527958A95E1F72095CD
:1006B000309521703070C901089597FD10C025E074
:1006C00030E040E050E00E944624DA01C901880F82
:1006D000991F835E9D4FFC012081318117C025E069
:1006E00030E040E050E00E944624DA01C901885B16
:1006F0009F4FAF4FBF4F880F991F835E9D4FFC01E7
:100700008081918122273327281B390BC901089545
:100710006A5570408040904097FD10C025E030E061
:1007200040E050E00E944624DA01C901880F991F79
:10073000835E9D4FFC012081318117C025E030E0B0
:1007400040E050E00E944624DA01C901885B9F4FD7
:10075000AF4FBF4F880F991F835E9D4FFC01808173
:10076000918122273327281B390BC9010895CF9285
:10077000DF92EF92FF920F931F936B017C018AE54A
:10078000C816D104E104F104A1F186EAC8168FEF7E
:10079000D8068FEFE8068FEFF80659F18EE0C816FD
:1007A00081E0D80680E0E80680E0F80611F182EFEB
:1007B000C8168EEFD8068FEFE8068FEFF806C9F05F
:1007C000C701B6010E9488038C01C701B6010E94CF
:1007D0005D03BC01C8010E941124CB019B0173E0A1
:1007E000220F331F7A95E1F7880F991F280F391FC1
:1007F00002C020E030E0C9011F910F91FF90EF90FF
:10080000DF90CF900895EF92FF921F93CF93DF93E5
:100810008BE10E94A3178BE10E94A3178BE10E943A
:10082000A317E0E0EE2EE2E0FE2EC0E1D2E00E944F
:100830005B1A182F0E94A3171734C9F78E2D0E9438
:10084000A31783E040E251EA67E070E00E942017BE
:100850008BE10E94A3178BE10E94A3178BE10E94FA
:10086000A31781E040E251EA67E070E00E942017A0
:100870008C2F0E949917DBCF0F931F93CF93DF9399
:100880000E94461B80E040E056E960E070E00E9474
:10089000201781E040E052EC61E070E00E942017F8
:1008A00082E040E052EC61E070E00E94201783E0BB
:1008B00040E052EC61E070E00E94201789E997E186
:1008C0000E948A1C0E94330383E069EC74E00E945A
:1008D00015172E9800D00F9281E0EDB7FEB78183F7
:1008E00081E091E0938382830E94AE1E0F900F906F
:1008F0000F9085E00E942C1184E00E944C1183E04F
:100900000E945C1183E00E946E1183E00E948011BE
:100910000E94FF1B85E00E94241C81E00E942B1C8A
:1009200010E001E0CFEFD0E0812F0E94741C00D0D6
:100930000F92EDB7FEB70183D383C2830E94AE1E30
:100940001F5F0F900F900F90103171F72E9A00D00B
:100950000F92EDB7FEB7018384EE90E0938382831C
:100960000E94AE1E0F900F900F900E94E2100E9406
:10097000EC100E94F9100E9404110E9411110E94B3
:100980001E11DF91CF911F910F9108950E943C0499
:10099000FFCF1F93182F0E949917812F0E949E1737
:1009A0001F910895FC019C012D5F3F4F32832183ED
:1009B0008FEF9FEF9483838336832583308727834C
:1009C00010820895FC01118610860895CF93DF935D
:1009D000AC01DB01EC0129813A81F901828193812B
:1009E00013969C938E93129789819A8115969C9366
:1009F0008E9314970280F381E02D75836483E9015F
:100A00007B836A83FA017283618319965C934E93A8
:100A1000189780818F5F8083DF91CF910895CF9366
:100A2000DF939C01EB01488159818FEF4F3F5807BD
:100A300021F4F901A781B08510C0D901139604C033
:100A400012960D90BC91A02D1296ED91FC911397EA
:100A5000808191814817590798F71296ED91FC9182
:100A60001397FB83EA83D583C483BD83AC8313963A
:100A7000DC93CE93129739872887F90180818F5FA5
:100A80008083DF91CF910895CF93DF93DC0112969D
:100A9000ED91FC91139714968D919C9115979583E8
:100AA00084831496CD91DC911597FB83EA83189685
:100AB000ED91FC911997818192818A179B0711F41E
:100AC000D283C18319961C921E92189780818150FF
:100AD0008083DF91CF910895FC010FB6F8940F92B7
:100AE000828D0F900FBE0895FC01828D0895FC0148
:100AF000828D90E0882309F491E0892F0895FC010C
:100B0000928D20E0838D981709F421E0822F0895BB
:100B10000F931F938C01FC01808191810E94E10F52
:100B2000C8010E94E10F1F910F9108950F931F9329
:100B3000CF93DF93EC01FB018A018A8D882381F139
:100B40004881598141155105A9F08C8D2E813F8135
:100B5000280F311D3F832E838A819B8128173907F7
:100B600010F05F834E834C8D6E817F81CF0150E00A
:100B70000E94C8218A8D81508A8F8D8D8F3F69F4A4
:100B80008885882361F0CE0108960E94F6088823A4
:100B900031F081E0F801808303C08F5F8D8F81E0A9
:100BA000DF91CF911F910F910895CF93DF93EC01C7
:100BB000842F4C8D4423A1F18823B1F48C819D8135
:100BC00050E00E94C8218C8D2C813D81280F311D61
:100BD0003D832C838A819B812817390708F18881FE
:100BE00099819D838C831CC08E819F8150E00E94DF
:100BF000C8218C8D90E044275527481B590B8E81C6
:100C00009F81840F951F9F838E832881398182174E
:100C1000930730F48A819B81840F951F9F838E8375
:100C20008A8D8F5F8A8FDF91CF9108950F931F93E5
:100C3000CF93DF93EC018A019A8D8B8D981710F07A
:100C400080E017C0CE01422F0E94D5058E8D8F3FC8
:100C500069F48989882361F0CE0141960E94F608E3
:100C6000882331F081E0F801808303C08F5F8E8F8D
:100C700081E0DF91CF911F910F9108950F931F9302
:100C8000CF93DF93EC010FB6F8940F928C010F5EB7
:100C90001F4F0DC08989882369F0C8010E94F6089A
:100CA000882311F00E94F2088E8D81508E8F8E8DD8
:100CB000181684F38FEF8E8F0F900FBE0FB6F89437
:100CC0000F928E01085F1F4F0DC08885882369F041
:100CD000C8010E94F608882311F00E94F2088D8D49
:100CE00081508D8F8D8D181684F38FEF8D8F0F901F
:100CF0000FBEDF91CF911F910F9108957F928F9238
:100D00009F92AF92BF92CF92DF92EF92FF920F939A
:100D10001F93DF93CF9300D000D00F92CDB7DEB7F3
:100D20008C01962E872E5D834C83722E91E1C92E05
:100D3000D12CC00ED11E20E07E010894E11CF11CD4
:100D400084E0A82EB12CAC0EBD1E01C021E00FB670
:100D5000F8940F92F801828D882309F43EC0E68052
:100D6000F7804081518141155105B1F0848D970183
:100D7000280F311D378326838281938128173907F5
:100D800010F057834683F801448D66817781892D61
:100D9000982D50E00E94C821772071F4F801828DCF
:100DA0008150828F80858823A1F0C80108960E9417
:100DB000F608813071F40BC0F801F782E682818970
:100DC000882339F0C6010E94F608882311F00E949A
:100DD000BE0D0F900FBE81E04AC08C819D81892B92
:100DE00019F40F900FBE42C0222319F4C7010E94CC
:100DF000AD080F900FBE0E9451080FB6F8940F92E5
:100E0000F801858D8F3F09F4158EF801868D8F3F8F
:100E100009F4168E0F900FBEC701B5010E94B808E5
:100E20008823F9F40FB6F8940F92F801828D0F9091
:100E30000FBE882381F46C817D81C6010E94AF09B9
:100E4000C8010E943E060E94E809882309F07ECF6F
:100E50000E94BE0D7BCFC8010E943E060E94E80999
:100E600075CFC8010E943E060E94E80980E00F90FD
:100E70000F900F900F900F90CF91DF911F910F91D6
:100E8000FF90EF90DF90CF90BF90AF909F908F90AA
:100E90007F9008957F928F929F92AF92BF92CF9250
:100EA000DF92EF92FF920F931F93DF93CF9300D0C7
:100EB00000D00F92CDB7DEB78C016B015D834C8300
:100EC000722E48E0E42EF12CE80EF91E20E05E01BF
:100ED0000894A11CB11C34E0832E912C8C0E9D1E15
:100EE00001C021E00FB6F8940F92F801928D838D26
:100EF0009817A8F4C801B601472D0E94D505F8013E
:100F00008189882341F0C80141960E94F60881300A
:100F100011F40E94BE0D0F900FBE81E04CC08C8179
:100F20009D81892B19F40F900FBE44C0222319F420
:100F3000C5010E94AD080F900FBE0E9451080FB668
:100F4000F8940F92F801858D8F3F09F4158EF80102
:100F5000868D8F3F09F4168E0F900FBEC501B40128
:100F60000E94B808882309F50FB6F8940F92F8018B
:100F7000928D0F900FBEF801838D981781F46C81CC
:100F80007D81C7010E94AF09C8010E943E060E94F0
:100F9000E809882309F0A5CF0E94BE0DA2CFC801A1
:100FA0000E943E060E94E8099CCFC8010E943E06AE
:100FB0000E94E80980E00F900F900F900F900F9023
:100FC000CF91DF911F910F91FF90EF90DF90CF9025
:100FD000BF90AF909F908F907F9008958F929F9237
:100FE000AF92BF92CF92DF92EF92FF920F931F9337
:100FF000CF93DF93982E862E882309F442C08FE189
:1010000090E00E94F10F8C01EC010097E1F1C92CF6
:10101000DD24A82CBB24AC9C7001AD9CF00CBC9CC6
:10102000F00C1124C70101960E94F10F9C019983D5
:101030008883009719F1E80EF91EFB82EA821A8E66
:101040009D838C830894C108D108CA9CC001CB9CA5
:10105000900DDA9C900D1124280F391F3F832E83A9
:101060009B8E8C8E8FEF8D8F8E8FC80108960E947D
:10107000D204C80141960E94D20405C0C8010E9452
:10108000E10FC0E0D0E0CE01DF91CF911F910F9131
:10109000FF90EF90DF90CF90BF90AF909F908F9098
:1010A00008958091BC028F5F8093BC0208950FB6B3
:1010B000F8940F922091BA023091BB020F900FBEAC
:1010C000C90108952091BA023091BB02C901089567
:1010D0008091BF0208958091BC02882351F081E085
:1010E0008093B80208958091BD0281508093BD0223
:1010F00001C099E0E091BD02E99FF0011124EC5399
:10110000FD4F8081882379F39091BD0289E0989FFB
:10111000D0011124AC53BD4F1196ED91FC91129763
:101120000280F381E02D1296FC93EE931197CD018E
:101130000396E817F90731F48281938112969C9304
:101140008E9311971196ED91FC911297868197815C
:101150009093B7028093B6020895FC018091B90282
:1011600080838091BA029091BB029283818308951B
:10117000FC01DB010FB6F8940F929091B9028081C7
:10118000981749F02091BA023091BB028181928177
:101190002817390718F58091BA029091BB02218176
:1011A00032814D915C911197821B930B84179507A7
:1011B000A8F48091BA029091BB02281B390B240F2E
:1011C000351F2D933C938091B90280838091BA02A0
:1011D0009091BB029283818380E001C081E00F90F7
:1011E0000FBE089581E08093B80208950F931F9376
:1011F000CF93DF93FC018081882319F4C0E0D0E015
:1012000005C00580F681E02DC681D7818E01045F7F
:101210001F4FC8010E9444058091BC028823A1F49D
:101220008E010E5F1F4FC8010E9444059E89809168
:10123000BD02891710F49093BD0289E0989FC00108
:1012400011248C539D4F02C08EEF92E0B8010E9492
:10125000E604E091B602F091B70220E09E8986890B
:10126000981708F021E0822FDF91CF911F910F9105
:101270000895FF920F931F93CF93DF938091BC0249
:10128000882309F061C08091BA029091BB02019657
:101290009093BB028093BA028091BA029091BB02F4
:1012A000892BE9F58091FA029091FB022091FC02D2
:1012B0003091FD023093FB022093FA029093FD02DD
:1012C0008093FC028091B9028F5F8093B90227C09E
:1012D0002091BA023091BB028A819B81281739077D
:1012E000C0F18E010E5F1F4FC8010E9444058C891A
:1012F0009D89892B21F0CE010C960E9444059E8980
:101300008091BD02891710F49093BD029F9DC0018A
:1013100011248C539D4FB8010E94E60402C089E05D
:10132000F82EE091FA02F091FB028081882389F087
:10133000E091FA02F091FB020580F681E02DC68172
:10134000D781209729F605C08091BE028F5F8093D8
:10135000BE02DF91CF911F910F91FF9008950F93DF
:101360001F938B016091B6027091B702645F7F4F4B
:101370000E940F058091B6029091B70202960E94DA
:1013800044058091BA029091BB02800F911FE091B9
:10139000B602F091B702938382832091BA02309112
:1013A000BB028217930728F48091FC029091FD0202
:1013B00004C08091FA029091FB026091B602709194
:1013C000B7026E5F7F4F0E940F051F910F91089526
:1013D000CF92DF92FF920F931F93DF93CF930F92E1
:1013E000CDB7DEB70FB6F8940F928091BC02815052
:1013F0008093BC028091BC02882309F05BC080917D
:10140000BF02882309F456C0198299E0F92E27C03B
:10141000C6010C960E94440586010E5F1F4FC8014D
:101420000E944405D60156969C918091BD02891771
:1014300010F49093BD029F9DC00111248C539D4FC9
:10144000B8010E94E604E091B602F091B702D6011D
:1014500056969C918689981710F0B1E0B9838091D7
:10146000FE02882349F0E0910303F0910403C68053
:10147000D780C114D10461F68091BE02882341F463
:101480000CC00E9439098091BE0281508093BE0237
:101490008091BE028823A9F707C0E981E13021F0DD
:1014A0008091B802813031F41092B8020E94BE0DD2
:1014B00081E001C080E00F900FBE0F90CF91DF91CF
:1014C0001F910F91FF90DF90CF9008950F931F937E
:1014D0009C010097A1F18091BC028F5F8093BC02B8
:1014E0000091BA021091BB02020F131F8091B60245
:1014F0009091B70202960E944405E091B602F091E5
:10150000B702138302838091BA029091BB0208173D
:10151000190728F48091FC029091FD0204C080918B
:10152000FA029091FB026091B6027091B7026E5F71
:101530007F4F0E940F050E94E809882311F40E9442
:10154000BE0D1F910F910895CF93DF93FC01EB0126
:101550008091BC028F5F8093BC0220813181C20FD9
:10156000D31F8091BA029091BB028217930728F48F
:10157000C217D30728F020E00CC0C217D30740F0F1
:101580008091BA029091BB0220E08C179D0708F46D
:1015900021E0D183C083222329F18091B60290916A
:1015A000B70202960E944405E091B602F091B7029C
:1015B000D383C2838091BA029091BB02C817D90726
:1015C00028F48091FC029091FD0204C08091FA02FF
:1015D0009091FB026091B6027091B7026E5F7F4FEF
:1015E0000E940F050E94E809882311F40E94BE0D95
:1015F000DF91CF910895EF92FF920F931F93CF93B6
:10160000DF938C010FB6F8940F928091B6029091FF
:10161000B7020817190719F400E010E003C001151C
:10162000110529F4C091B602D091B70201C0E801BA
:1016300022E0E22EF12CEC0EFD1EC7010E944405B3
:101640008C899D89892B21F0CE010C960E9444053E
:1016500087E093E0B7010E94E6048091C1028F5FAA
:101660008093C1028091C2028F5F8093C2020F906B
:101670000FBE8091C002882321F0012B11F40E943B
:10168000BE0DDF91CF911F910F91FF90EF900895C4
:10169000F8941092C0020E945F0D08951F93CF939B
:1016A000DF938091C102882391F18091BC028F5F0A
:1016B0008093BC02109107030E94E809112339F1BD
:1016C0000FB6F8940F9280910703882319F4C0E0B5
:1016D000D0E006C0E0910C03F0910D03C681D781E4
:1016E000CE0102960E9444058091BF0281508093F2
:1016F000BF028091C10281508093C1020F900FBE42
:101700008F89988D0E94E10FCE010E94E10F809198
:10171000C402823030F20E94BE0DC3CF2F923F929E
:101720005F926F927F928F929F92AF92BF92CF9271
:10173000DF92EF92FF920F931F93DF93CF9300D02E
:1017400000D0CDB7DEB79A8389834B015A011901C6
:10175000502E370181E290E00E94F10F8B839C8331
:101760008B819C81892B89F0C114D10421F4C5019E
:101770000E94F10F6C01EB81FC81D08EC78AC114ED
:10178000D10429F4CF010E94E10F8FEFD5C0C6012B
:1017900065EA70E0A5010E94D1210894A108B10872
:1017A000EB81FC81E788F08CEA0CFB1CCF014996A9
:1017B000B40148E050E00E94D821EB81FC8110A2E6
:1017C000052DF3E0F51508F403E0EB81FC81068BB1
:1017D00042E0C42ED12CCE0EDF1EC6010E94E204D0
:1017E0008B819C810C960E94E2048B819C81FC0180
:1017F0009187808784E090E0801B9109958784879A
:10180000F38BE28BC70169817A81A1010E94DD0C13
:10181000EB81FC81918380836114710421F0CF01FD
:10182000F301918380830FB6F8940F928091BF02E9
:101830008F5F8093BF028091B6029091B702892B8F
:10184000B9F5EB81FC81F093B702E093B602809189
:10185000BF028130F1F584EC92E00E94D2048DEC5D
:1018600092E00E94D20486ED92E00E94D2048FEDB5
:1018700092E00E94D20438EEE32E32E0F32EC7014C
:101880000E94D20401EF12E0C8010E94D2048EEF40
:1018900092E00E94D20487E093E00E94D204F0928A
:1018A000FB02E092FA021093FD020093FC0211C0C9
:1018B0008091C002882369F4E091B602F091B702EA
:1018C0008689581630F08B819C819093B702809363
:1018D000B602EB81FC8196898091C302891710F4CE
:1018E0009093C3028091C2028F5F8093C202EB810A
:1018F000FC8196898091BD02891710F49093BD02F6
:10190000EB81FC81868929E0829FC00111248C53E0
:101910009D4FB6010E94E6040F900FBE8091C00259
:10192000882349F0E091B602F091B70286898515C7
:1019300010F40E94BE0D81E00F900F900F900F9059
:10194000CF91DF911F910F91FF90EF90DF90CF909B
:10195000BF90AF909F908F907F906F905F903F90DF
:101960002F900895AF92BF92CF92DF92EF92FF92A5
:101970000F938EE49BE06FEA72E045E550E020E0D3
:1019800030E000E0EE24FF24CC24DD24AA24BB2494
:101990000E948E0B813049F4F8948093C00210921B
:1019A000BB021092BA020E94250D0F91FF90EF909A
:1019B000DF90CF90BF90AF900895FC0191E19083AC
:1019C00022E2229383E3829362937293129280E8DD
:1019D0008293129282E0829383E0829384E08293E6
:1019E00085E0829386E0829387E0829388E0829309
:1019F00089E0829380E18293929382E1829383E1F2
:101A0000829384E1829385E1829386E1829387E1E8
:101A1000829388E1829389E1829380E2829381E2DA
:101A20008293229383E282934293529386E282933B
:101A300087E2829388E2829389E2829380E38293B1
:101A400081E382933197CF0108951092890089EF45
:101A5000809388008BE080938100EFE6F0E0808146
:101A600082608083A091B602B091B702CD91CDBFC4
:101A7000DD91DEBFFF91EF91DF91CF91BF91AF91EB
:101A80009F918F917F916F915F914F913F912F9196
:101A90001F910F91FF90EF90DF90CF90BF90AF908C
:101AA0009F908F907F906F905F904F903F902F907E
:101AB0001F900F900FBE0F90089581E00895089534
:101AC0000F920FB6F8940F921F9211242F923F920B
:101AD0004F925F926F927F928F929F92AF92BF923E
:101AE000CF92DF92EF92FF920F931F932F933F932A
:101AF0004F935F936F937F938F939F93AF93BF9316
:101B0000CF93DF93EF93FF93A091B602B091B7020A
:101B10000DB60D920EB60D920E9439090E946B0807
:101B2000A091B602B091B702CD91CDBFDD91DEBFDD
:101B3000FF91EF91DF91CF91BF91AF919F918F91E5
:101B40007F916F915F914F913F912F911F910F91D5
:101B5000FF90EF90DF90CF90BF90AF909F908F90CD
:101B60007F906F905F904F903F902F901F900F90BD
:101B70000FBE0F9008950E94600D18950F920FB63A
:101B8000F8940F921F9211242F923F924F925F92DE
:101B90006F927F928F929F92AF92BF92CF92DF927D
:101BA000EF92FF920F931F932F933F934F935F9367
:101BB0006F937F938F939F93AF93BF93CF93DF9355
:101BC000EF93FF93A091B602B091B7020DB60D92BC
:101BD0000EB60D920E946B08A091B602B091B702AA
:101BE000CD91CDBFDD91DEBFFF91EF91DF91CF9120
:101BF000BF91AF919F918F917F916F915F914F9125
:101C00003F912F911F910F91FF90EF90DF90CF9018
:101C1000BF90AF909F908F907F906F905F904F900C
:101C20003F902F901F900F900FBE0F9008950F932D
:101C30001F93CF93DF93FC018081882319F4C0E0C8
:101C4000D0E005C00580F681E02DC681D7818E01E8
:101C5000045F1F4FC8010E94440581E493E0B8016E
:101C60000E94E60420E0E0911003F09111039E89A8
:101C70008689981708F021E0822FDF91CF911F917C
:101C80000F910895FF920F931F93CF93DF9399E0E5
:101C9000F92E28C0F89480914103882319F4C0E0FC
:101CA000D0E006C0E0914603F0914703C681D7819A
:101CB000CE010C960E94440578948E010E5F1F4F52
:101CC000C8010E9444059E8980911203891710F46F
:101CD000909312039F9DC0011124875E9C4FB80111
:101CE0000E94E604809141038823A1F60E945708D0
:101CF0002091130330911403821B930B90931603CE
:101D00008093150389E0F82E54C001969093180330
:101D1000809317032150304030931603209315030E
:101D2000892BC9F520913D0330913E0380913F03FB
:101D30009091400390933E0380933D033093400382
:101D400020933F0328C020911703309118038A8104
:101D50009B812817390768F1F8948E010E5F1F4F99
:101D6000C8010E9444058C899D89892B21F0CE01F0
:101D70000C960E94440578949E89809112038917DD
:101D800010F4909312039F9DC0011124875E9C4F15
:101D9000B8010E94E604E0913D03F0913E0380818A
:101DA000882339F00580F681E02DC681D781209700
:101DB00051F62091150330911603809117039091ED
:101DC00018032115310509F0A0CF909314038093D7
:101DD00013039091120329E006C0992319F410927D
:101DE000120332C09150929FD0011124A75EBC4FC4
:101DF0008C91882391F3909312031196ED91FC91AD
:101E000012970280F381E02D1296FC93EE931197C6
:101E1000CD010396E817F90731F482819381129678
:101E20009C938E9311971196ED91FC9112970680D9
:101E3000F781E02DF0931103E093100320813181AD
:101E4000CF016789F9010995DF91CF911F910F911A
:101E5000FF9008950F931F93CF93DF93EB010091B1
:101E6000170310911803080F191F80911003909108
:101E7000110302960E944405E0911003F0911103B2
:101E8000138302838091170390911803BF016E5F43
:101E90007F4F0817190728F480913F039091400362
:101EA00004C080913D0390913E030E940F0520974E
:101EB00049F06091100370911103645F7F4FCE0170
:101EC0000E940F05DF91CF911F910F910895AF925E
:101ED000BF92CF92DF92EF92FF920F931F93CF9317
:101EE000DF936C01B62EA42E8AE190E00E94F10FE0
:101EF000EC01009711F48FEF59C08091100390917D
:101F00001103892B21F5D0931103C093100389E1AC
:101F100093E00E94D20482E293E00E94D2042BE27A
:101F2000E22E23E0F22EC7010E94D20404E313E064
:101F3000C8010E94D20481E493E00E94D204F0928E
:101F40003E03E0923D031093400300933F03EB2CCC
:101F5000BB2011F0EE24E394198E188EEE8AAF8A1E
:101F6000FE01C192D1928F01CF010E94E204CE0105
:101F70000C960E94E204D987C887DB8BCA8B84E069
:101F800090E08E1991099D878C879E89809112031C
:101F9000891710F49093120389E0989FC0011124CF
:101FA000875E9C4FB8010E94E60481E0DF91CF91EB
:101FB0001F910F91FF90EF90DF90CF90BF90AF9067
:101FC0000895089510924B0310924A03089528EB48
:101FD0003BE080914A0390914B03281B390BC901C8
:101FE00008950F931F93CF93DF938C010E945108A4
:101FF00080914A0390914B039801280F391F4BE0C1
:10200000283B340758F48217930740F4EC01C45B73
:10201000DC4F30934B0320934A0302C0C0E0D0E072
:102020000E94E809CE01DF91CF911F910F91089591
:10203000E82FF0E0E770F070EE0FFF1FEC5EFE4F50
:1020400025913491C9010895E82FF0E0E770F07010
:10205000EE0FFF1FE05EFE4F25913491C9010895F8
:1020600085B5E82FF0E0E770F070EE0FFF1FEC5E33
:10207000FE4F25913491C901089580918100E82F88
:10208000F0E0E770F070EE0FFF1FEC5EFE4F259161
:102090003491C90108958091B100E82FF0E0E77014
:1020A000F070EE0FFF1FE05EFE4F25913491C901E5
:1020B000089580919100E82FF0E0E770F070EE0F46
:1020C000FF1FEC5EFE4F25913491C9010895809168
:1020D000A100E82FF0E0E770F070EE0FFF1FEC5E5C
:1020E000FE4F25913491C901089580912101E82F77
:1020F000F0E0E770F070EE0FFF1FEC5EFE4F2591F1
:102100003491C90108952091821F3091831F40911D
:10211000841F5091851FB901CA01089520917E1F27
:1021200030917F1F4091801F5091811FB901CA01DA
:1021300008952091861F3091871F4091881F5091EC
:10214000891FB901CA01089520918E1F30918F1FF8
:102150004091901F5091911FB901CA01089520919B
:102160007A1F30917B1F40917C1F50917D1FB901D8
:10217000CA0108952091921F3091931F4091941F9E
:102180005091951FB901CA01089586B5089520910F
:10219000840030918500C90108958091B2000895AE
:1021A0002091940030919500C90108952091A400D8
:1021B0003091A500C9010895209124013091250195
:1021C000C90108951092821F1092831F1092841FDC
:1021D0001092851F16BC089510927E1F10927F1FCB
:1021E0001092801F1092811F10928500109284001F
:1021F00008951092861F1092871F1092881F1092C8
:10220000891F1092B200089510928E1F10928F1F96
:102210001092901F1092911F1092950010929400AE
:10222000089510927A1F10927B1F10927C1F1092BB
:102230007D1F1092A5001092A40008951092921F85
:102240001092931F1092941F1092951F10922501C7
:10225000109224010895089585BD81E080936E0059
:102260001092821F1092831F1092841F1092851F5C
:1022700016BC08958093810081E080936F001092D6
:102280007E1F10927F1F1092801F1092811F10924C
:1022900085001092840008958093B10081E08093BE
:1022A00070001092861F1092871F1092881F109244
:1022B000891F1092B20008958093910081E080936D
:1022C000710010928E1F10928F1F1092901F10920B
:1022D000911F109295001092940008958093A10090
:1022E00081E08093720010927A1F10927B1F1092EF
:1022F0007C1F10927D1F1092A5001092A4000895DB
:102300008093210181E0809373001092921F1092BC
:10231000931F1092941F1092951F109225011092F6
:1023200024010895E82FF0E0EE0FFF1FEC5FF04F5F
:10233000718360830895E82FF0E0EE0FFF1FEC5FDC
:10234000F04F1182108208950197F1F70895AF922E
:10235000BF92CF92DF92EF92FF920F931F93A0E074
:10236000B0E0BC01CD010E94E4225B016C0120E0E1
:1023700030E04AE755E40E949A237B018C0120E07B
:1023800030E040E85FE30E944C2288231CF461E0C7
:1023900070E024C0C801B70120E03FEF4FE757E4E9
:1023A0000E9496231816B4F4C601B50120E030E06F
:1023B00040E251E40E949A230E94B82280E991E011
:1023C00005C0FC013197F1F761507040611571054E
:1023D000C1F707C0C801B7010E94B822CB0101971D
:1023E000F1F71F910F91FF90EF90DF90CF90BF908A
:1023F000AF9008951F920F920FB60F9211242F9352
:102400003F934F935F936F937F938F939F93AF937C
:10241000BF93EF93FF938091821F9091831FA091B0
:10242000841FB091851F0196A11DB11D8093821F4D
:102430009093831FA093841FB093851F80918A1F60
:1024400090918B1FA0918C1FB0918D1F0196A11DA3
:10245000B11D80938A1F90938B1FA0938C1FB09304
:102460008D1F8091080F9091090F892B29F0E09121
:10247000080FF091090F0995FF91EF91BF91AF916E
:102480009F918F917F916F915F914F913F912F918C
:102490000F900FBE0F901F9018951F920F920FB6BE
:1024A0000F9211242F933F934F935F936F937F93DA
:1024B0008F939F93AF93BF93EF93FF9380917E1F72
:1024C00090917F1FA091801FB091811F0196A11D47
:1024D000B11D80937E1F90937F1FA093801FB093A8
:1024E000811F8091120F9091130F892B29F0E09199
:1024F000120FF091130F0995FF91EF91BF91AF91DA
:102500009F918F917F916F915F914F913F912F910B
:102510000F900FBE0F901F9018951F920F920FB63D
:102520000F9211242F933F934F935F936F937F9359
:102530008F939F93AF93BF93EF93FF938091861FE9
:102540009091871FA091881FB091891F0196A11DAE
:10255000B11D8093861F9093871FA093881FB0930F
:10256000891F8091180F9091190F892B29F0E09104
:10257000180FF091190F0995FF91EF91BF91AF914D
:102580009F918F917F916F915F914F913F912F918B
:102590000F900FBE0F901F9018951F920F920FB6BD
:1025A0000F9211242F933F934F935F936F937F93D9
:1025B0008F939F93AF93BF93EF93FF9380918E1F61
:1025C00090918F1FA091901FB091911F0196A11D16
:1025D000B11D80938E1F90938F1FA093901FB09377
:1025E000911F8091220F9091230F892B29F0E09168
:1025F000220FF091230F0995FF91EF91BF91AF91B9
:102600009F918F917F916F915F914F913F912F910A
:102610000F900FBE0F901F9018951F920F920FB63C
:102620000F9211242F933F934F935F936F937F9358
:102630008F939F93AF93BF93EF93FF9380917A1FF4
:1026400090917B1FA0917C1FB0917D1F0196A11DD1
:10265000B11D80937A1F90937B1FA0937C1FB09332
:102660007D1F80912C0F90912D0F892B29F0E091E7
:102670002C0FF0912D0F0995FF91EF91BF91AF9124
:102680009F918F917F916F915F914F913F912F918A
:102690000F900FBE0F901F9018951F920F920FB6BC
:1026A0000F9211242F933F934F935F936F937F93D8
:1026B0008F939F93AF93BF93EF93FF938091921F5C
:1026C0009091931FA091941FB091951F0196A11D09
:1026D000B11D8093921F9093931FA093941FB0936A
:1026E000951F8091360F9091370F892B29F0E0913B
:1026F000360FF091370F0995FF91EF91BF91AF9190
:102700009F918F917F916F915F914F913F912F9109
:102710000F900FBE0F901F9018951F920F920FB63B
:102720000F9211242F933F934F935F936F937F9357
:102730008F939F93AF93BF93EF93FF938091040F79
:102740009091050F892B29F0E091040FF091050F6E
:102750000995FF91EF91BF91AF919F918F917F91DB
:102760006F915F914F913F912F910F900FBE0F90FE
:102770001F9018951F920F920FB60F9211242F934E
:102780003F934F935F936F937F938F939F93AF93F9
:10279000BF93EF93FF938091060F9091070F892BC2
:1027A00029F0E091060FF091070F0995FF91EF9145
:1027B000BF91AF919F918F917F916F915F914F9159
:1027C0003F912F910F900FBE0F901F9018951F9261
:1027D0000F920FB60F9211242F933F934F935F9355
:1027E0006F937F938F939F93AF93BF93EF93FF93D9
:1027F00080910A0F90910B0F892B29F0E0910A0F1D
:10280000F0910B0F0995FF91EF91BF91AF919F91BF
:102810008F917F916F915F914F913F912F910F9089
:102820000FBE0F901F9018951F920F920FB60F9228
:1028300011242F933F934F935F936F937F938F93C5
:102840009F93AF93BF93EF93FF9380910E0F90915F
:102850000F0F892B29F0E0910E0FF0910F0F0995C2
:10286000FF91EF91BF91AF919F918F917F916F9168
:102870005F914F913F912F910F900FBE0F901F903E
:1028800018951F920F920FB60F9211242F933F931A
:102890004F935F936F937F938F939F93AF93BF9368
:1028A000EF93FF938091100F9091110F892B29F0D6
:1028B000E091100FF091110F0995FF91EF91BF91E9
:1028C000AF919F918F917F916F915F914F913F91C8
:1028D0002F910F900FBE0F901F9018951F920F927F
:1028E0000FB60F9211242F933F934F935F936F93E3
:1028F0007F938F939F93AF93BF93EF93FF938091B9
:10290000140F9091150F892B29F0E091140FF0917D
:10291000150F0995FF91EF91BF91AF919F918F9105
:102920007F916F915F914F913F912F910F900FBECB
:102930000F901F9018951F920F920FB60F921124AF
:102940002F933F934F935F936F937F938F939F93B7
:10295000AF93BF93EF93FF938091160F9091170F52
:10296000892B29F0E091160FF091170F0995FF912F
:10297000EF91BF91AF919F918F917F916F915F91F7
:102980004F913F912F910F900FBE0F901F90189570
:102990001F920F920FB60F9211242F933F934F93D4
:1029A0005F936F937F938F939F93AF93BF93EF93B7
:1029B000FF9380911A0F90911B0F892B29F0E091C2
:1029C0001A0FF0911B0F0995FF91EF91BF91AF91F5
:1029D0009F918F917F916F915F914F913F912F9137
:1029E0000F900FBE0F901F9018951F920F920FB669
:1029F0000F9211242F933F934F935F936F937F9385
:102A00008F939F93AF93BF93EF93FF9380911C0F8E
:102A100090911D0F892B29F0E0911C0FF0911D0F53
:102A20000995FF91EF91BF91AF919F918F917F9108
:102A30006F915F914F913F912F910F900FBE0F902B
:102A40001F9018951F920F920FB60F9211242F937B
:102A50003F934F935F936F937F938F939F93AF9326
:102A6000BF93EF93FF9380911E0F90911F0F892BBF
:102A700029F0E0911E0FF0911F0F0995FF91EF9142
:102A8000BF91AF919F918F917F916F915F914F9186
:102A90003F912F910F900FBE0F901F9018951F928E
:102AA0000F920FB60F9211242F933F934F935F9382
:102AB0006F937F938F939F93AF93BF93EF93FF9306
:102AC0008091200F9091210F892B29F0E091200F08
:102AD000F091210F0995FF91EF91BF91AF919F91D7
:102AE0008F917F916F915F914F913F912F910F90B7
:102AF0000FBE0F901F9018951F920F920FB60F9256
:102B000011242F933F934F935F936F937F938F93F2
:102B10009F93AF93BF93EF93FF938091240F909176
:102B2000250F892B29F0E091240FF091250F0995AD
:102B3000FF91EF91BF91AF919F918F917F916F9195
:102B40005F914F913F912F910F900FBE0F901F906B
:102B500018951F920F920FB60F9211242F933F9347
:102B60004F935F936F937F938F939F93AF93BF9395
:102B7000EF93FF938091260F9091270F892B29F0D7
:102B8000E091260FF091270F0995FF91EF91BF91EA
:102B9000AF919F918F917F916F915F914F913F91F5
:102BA0002F910F900FBE0F901F9018951F920F92AC
:102BB0000FB60F9211242F933F934F935F936F9310
:102BC0007F938F939F93AF93BF93EF93FF938091E6
:102BD000280F9091290F892B29F0E091280FF0916F
:102BE000290F0995FF91EF91BF91AF919F918F911F
:102BF0007F916F915F914F913F912F910F900FBEF9
:102C00000F901F9018951F920F920FB60F921124DC
:102C10002F933F934F935F936F937F938F939F93E4
:102C2000AF93BF93EF93FF9380912A0F90912B0F57
:102C3000892B29F0E0912A0FF0912B0F0995FF9134
:102C4000EF91BF91AF919F918F917F916F915F9124
:102C50004F913F912F910F900FBE0F901F9018959D
:102C60001F920F920FB60F9211242F933F934F9301
:102C70005F936F937F938F939F93AF93BF93EF93E4
:102C8000FF9380912E0F90912F0F892B29F0E091C7
:102C90002E0FF0912F0F0995FF91EF91BF91AF91FA
:102CA0009F918F917F916F915F914F913F912F9164
:102CB0000F900FBE0F901F9018951F920F920FB696
:102CC0000F9211242F933F934F935F936F937F93B2
:102CD0008F939F93AF93BF93EF93FF938091300FA8
:102CE0009091310F892B29F0E091300FF091310F45
:102CF0000995FF91EF91BF91AF919F918F917F9136
:102D00006F915F914F913F912F910F900FBE0F9058
:102D10001F9018951F920F920FB60F9211242F93A8
:102D20003F934F935F936F937F938F939F93AF9353
:102D3000BF93EF93FF938091320F9091330F892BC4
:102D400029F0E091320FF091330F0995FF91EF9147
:102D5000BF91AF919F918F917F916F915F914F91B3
:102D60003F912F910F900FBE0F901F9018951F92BB
:102D70000F920FB60F9211242F933F934F935F93AF
:102D80006F937F938F939F93AF93BF93EF93FF9333
:102D90008091340F9091350F892B29F0E091340FF9
:102DA000F091350F0995FF91EF91BF91AF919F91F0
:102DB0008F917F916F915F914F913F912F910F90E4
:102DC0000FBE0F901F9018951F920F920FB60F9283
:102DD00011242F933F934F935F936F937F938F9320
:102DE0009F93AF93BF93EF93FF9300D00F9281E037
:102DF000EDB7FEB7818380E391E0938382830E94E5
:102E0000AE1E0F900F900F90FF91EF91BF91AF9179
:102E10009F918F917F916F915F914F913F912F91F2
:102E20000F900FBE0F901F901895843040F4E82F3C
:102E3000F0E0EE0FFF1FE858FE4E718360830895A7
:102E40001F93182F9A01AB01CA01B90160587B4743
:102E5000814E9F4FF3E0660F771F881F991FFA95E9
:102E6000D1F7E4E0220F331F441F551FEA95D1F735
:102E70000E94242421503040133029F4209334013F
:102E80003093350112C0123029F42093D4003093CE
:102E9000D5000BC0113029F42093CC003093CD0025
:102EA00004C02093C4003093C5001F910895282FBB
:102EB00030E0A3E0220F331FAA95E1F72656304EEB
:102EC000C9010895282F30E0B3E0220F331FBA95CF
:102ED000E1F72254304EC9010895E82F833039F4C8
:102EE0008091300185FFFCCF6093360118C082309D
:102EF00039F48091D00085FFFCCF6093D6000FC0DD
:102F0000813039F48091C80085FFFCCF6093CE00FA
:102F100006C08091C00085FFFCCF6093C600F0E042
:102F2000EA56F04E10820895682F80E00E946D17D7
:102F30000895682F81E00E946D170895682F82E040
:102F40000E946D170895682F83E00E946D17089501
:102F500020E0E82FF0E083E0EE0FFF1F8A95E1F715
:102F6000E256F04E80819181892B09F421E0822F75
:102F70000895CF93DF93833019F4609136010CC02C
:102F8000823019F46091D60007C0813019F4609145
:102F9000CE0002C06091C600282F30E0E901CC0FBE
:102FA000DD1FFE01E858FE4E80819181892B31F0B2
:102FB0000190F081E02D862F099514C093E0220F37
:102FC000331F9A95E1F7C9018656904E0E94C51BA2
:102FD000882341F4FE01E252F04E808191810196F6
:102FE00091838083DF91CF9108951F920F920FB646
:102FF0000F9211242F933F934F935F936F937F937F
:103000008F939F93AF93BF93EF93FF9383E00E94BF
:10301000B917FF91EF91BF91AF919F918F917F91E0
:103020006F915F914F913F912F910F900FBE0F9035
:103030001F9018951F920F920FB60F9211242F9385
:103040003F934F935F936F937F938F939F93AF9330
:10305000BF93EF93FF9382E00E94B917FF91EF9126
:10306000BF91AF919F918F917F916F915F914F91A0
:103070003F912F910F900FBE0F901F9018951F92A8
:103080000F920FB60F9211242F933F934F935F939C
:103090006F937F938F939F93AF93BF93EF93FF9320
:1030A00081E00E94B917FF91EF91BF91AF919F917D
:1030B0008F917F916F915F914F913F912F910F90E1
:1030C0000FBE0F901F9018951F920F920FB60F9280
:1030D00011242F933F934F935F936F937F938F931D
:1030E0009F93AF93BF93EF93FF9380E00E94B91734
:1030F000FF91EF91BF91AF919F918F917F916F91D0
:103100005F914F913F912F910F900FBE0F901F90A5
:1031100018958F929F92AF92BF92CF92DF92EF92CB
:10312000FF920F931F93CF93DF93882EDB01C82E5E
:10313000DD24F60113E0EE0FFF1F1A95E1F7EE53C1
:10314000F04E20813181240F351FF60173E0EE0F20
:10315000FF1F7A95E1F7E054F04E808191812817A6
:10316000390770F54115510559F19C90760163E0DE
:10317000EE0CFF1C6A95E1F78EEB9FE1E80EF91E5D
:103180008D01C0E0D0E05A010894A108B10806C042
:10319000C701F80160810E94C51B21960F5F1F4F78
:1031A000CA15DB05A8F38AEB9FE1C80ED91E8FEF85
:1031B000F6018083882D692D0E946D178FEF01C065
:1031C00080E0DF91CF911F910F91FF90EF90DF9002
:1031D000CF90BF90AF909F908F90089590E023E0A4
:1031E000880F991F2A95E1F78254904E0E94C51BC3
:1031F0000895682F86ED9FE10E94C51B0895682FF2
:103200008EEC9FE10E94C51B0895682F86EC9FE11C
:103210000E94C51B0895682F8EEB9FE10E94C51B7D
:103220000895CF93DF93282FA82FB0E0ED01C65467
:10323000D04E8881882379F1FD0133E0EE0FFF1F26
:103240003A95E1F7EE53F04E80819181892B11F18F
:10325000233039F486ED9FE10E945C1B8093360198
:103260001EC0223039F48EEC9FE10E945C1B8093DB
:10327000D60015C0213039F486EC9FE10E945C1B1A
:103280008093CE000CC08EEB9FE10E945C1B80936C
:10329000C60005C01882AA56B04E8FEF8C93DF91FE
:1032A000CF9108951F920F920FB60F9211242F9372
:1032B0003F934F935F936F937F938F939F93AF93BE
:1032C000BF93EF93FF9383E00E941119FF91EF9159
:1032D000BF91AF919F918F917F916F915F914F912E
:1032E0003F912F910F900FBE0F901F9018951F9236
:1032F0000F920FB60F9211242F933F934F935F932A
:103300006F937F938F939F93AF93BF93EF93FF93AD
:1033100082E00E941119FF91EF91BF91AF919F91AF
:103320008F917F916F915F914F913F912F910F906E
:103330000FBE0F901F9018951F920F920FB60F920D
:1033400011242F933F934F935F936F937F938F93AA
:103350009F93AF93BF93EF93FF9381E00E94111966
:10336000FF91EF91BF91AF919F918F917F916F915D
:103370005F914F913F912F910F900FBE0F901F9033
:1033800018951F920F920FB60F9211242F933F930F
:103390004F935F936F937F938F939F93AF93BF935D
:1033A000EF93FF9380E00E941119FF91EF91BF917D
:1033B000AF919F918F917F916F915F914F913F91CD
:1033C0002F910F900FBE0F901F9018951F93182FDD
:1033D00090E0FC01E654F04E2FEF208343E0880F8D
:1033E000991F4A95E1F78254904E0E945C1B682F0A
:1033F000812F0E946D171F910895CF93DF93EB01EA
:10340000282F30E0F90173E0EE0FFF1F7A95E1F706
:10341000E456F04E80819181892BC9F0F90163E077
:10342000EE0FFF1F6A95E1F7E256F04E8081918121
:10343000892B69F053E0220F331F5A95E1F7C90138
:103440008656904E0E945C1B88838FEF01C080E0FF
:10345000DF91CF910895DF93CF930F92CDB7DEB771
:1034600083E0BE016F5F7F4F0E94FD19882319F42E
:103470002FEF3FEF03C08981282F30E0C9010F9063
:10348000CF91DF910895DF93CF930F92CDB7DEB741
:1034900082E0BE016F5F7F4F0E94FD19882319F4FF
:1034A0002FEF3FEF03C08981282F30E0C9010F9033
:1034B000CF91DF910895DF93CF930F92CDB7DEB711
:1034C00081E0BE016F5F7F4F0E94FD19882319F4D0
:1034D0002FEF3FEF03C08981282F30E0C9010F9003
:1034E000CF91DF910895DF93CF930F92CDB7DEB7E1
:1034F00080E0BE016F5F7F4F0E94FD19882319F4A1
:103500002FEF3FEF03C08981282F30E0C9010F90D2
:10351000CF91DF91089590E0E3E0880F991FEA953D
:10352000E1F78656904E0E94F81B089582EB9FE1CA
:1035300068EE70E140E850E00E944F1B86ED9FE18D
:1035400068E671E140E150E00E944F1B08950E943F
:10355000961A10927F1110927E1188ED809331019E
:1035600083E040E855E260E070E00E9420178FEFB2
:103570008093991F1092BD1F1092E51F1092E41FB7
:10358000789408958AEA9FE168E570E140E850E0A8
:103590000E944F1B8EEC9FE168ED70E140E150E02E
:1035A0000E944F1B08950E94C21A10927D11109222
:1035B0007C1188ED8093D10082E040E855E260E024
:1035C00070E00E9420178FEF8093981F1092BC1F0D
:1035D0001092E31F1092E21F7894089582EA9FE10F
:1035E00068EC7FE040E850E00E944F1B86EC9FE1D2
:1035F00068E470E140E150E00E944F1B08950E9492
:10360000EE1A10927B1110927A1188ED8093C90006
:1036100081E040E855E260E070E00E9420178FEF03
:103620008093971F1092BB1F1092E11F1092E01F12
:10363000789408958AE99FE168E37FE040E850E0EC
:103640000E944F1B8EEB9FE168EB7FE040E150E072
:103650000E944F1B08950E941A1B1092791110921C
:10366000781188ED8093C10080E040E855E260E089
:1036700070E00E9420178FEF8093961F1092BA1F60
:103680001092DF1F1092DE1F789408950E942B1B6A
:103690000E94FF1A0E94D31A0E94A71A0895FC01E3
:1036A0008FB7F894718360835383428317821682A5
:1036B000158214828FBF0895DC014FB7F8941496D9
:1036C0008D919C911597892B11F4E0E025C01696F9
:1036D0008D919C911797ED91FC911197E80FF91F2F
:1036E000E081019617969C938E93169712962D91D2
:1036F0003C9113978217930730F0821B930B179618
:103700009C938E93169714968D919C911597019783
:1037100015969C938E9314974FBF8E2F0895FC019E
:103720004FB7F8948481958168177907B0F4868142
:103730009781860F971F9783868322813381821713
:10374000930720F0821B930B978386838481958156
:10375000861B970B9583848302C0158214824FBF0A
:103760000895FC01CB012FB7F8942FBF2681378134
:1037700062817381820F931F0E94FD230190F0816B
:10378000E02DE80FF91F808108951F93CF93DF93F9
:10379000EC01162F4FB7F8942C813D816A817B8113
:1037A0002617370798F48E819F81820F931F0E94FE
:1037B000FD23E881F981E80FF91F10838C819D8139
:1037C00001969D838C834FBF8FEF02C04FBF80E077
:1037D000DF91CF911F910895FC018FB7F8948FBFAF
:1037E0002281338184819581281B390BC901089579
:1037F000FC018FB7F894158214828FBF0895AAE751
:10380000B0E08C9180688C938C918F7D8C938C919F
:10381000887F86608C93ECE7F0E080818F73806412
:10382000808380818F7D80838C9188608C931092BF
:10383000E61F78940895EAE7F0E08081877F80832F
:1038400080818F7780830895EAE7F0E09081987F08
:10385000982B90830895ECE7F0E090818295880F93
:10386000880F807C9F73982B90830895ECE7F0E09D
:1038700090818F71907E892B80830895EAE7F0E034
:1038800080818061808380818064808308958091BD
:103890007A0080740895982F1092E61F883020F0E7
:1038A00080917B00886003C080917B00877F80933C
:1038B0007B0080917C009770887F892B80937C00AF
:1038C00080917A00806180937A0080917A00806490
:1038D00080937A0080917A0086FDFCCF2091780059
:1038E00030917900C90108950E944B1C96958795E7
:1038F0009695879508951F920F920FB60F921124F7
:103900008F938FEF8093E61F8F910F900FBE0F90D4
:103910001F901895909381118093801108951F93A3
:10392000182F8A3031F4E0918011F09181118DE0EF
:103930000995E0918011F0918111812F09951F91D6
:103940000895CF93DF93EC01009721F406C02196F0
:103950000E948F1C88818823D1F7DF91CF91089531
:10396000EF92FF920F931F93CF93DF938C017A0115
:103970000097E9F020E030E02617370738F4F80127
:1039800081918F012F5F3F4F8823B1F7C0E0D0E0D6
:103990000BC0F8018081882319F00F5F1F4F01C011
:1039A00080E20E948F1C2196CE15DF0590F3DF91F7
:1039B000CF911F910F91FF90EF900895CF93DF93D8
:1039C000EC01009719F407C00E948F1CFE0121969C
:1039D00084918823C9F7DF91CF9108958AE00E94EE
:1039E0008F1C0895E82FF0E0EF70F070EF5BFE4F52
:1039F000E4918E2F0E948F1C08951F93182F82959B
:103A00008F700E94F21C812F0E94F21C1F9108955A
:103A10001F93182F892F0E94FD1C812F0E94FD1CCF
:103A20001F910895EF92FF920F931F937B018C01DA
:103A3000C801AA27BB270E94081DC7010E94081DB4
:103A40001F910F91FF90EF9008952F923F924F9208
:103A50005F926F927F928F929F92AF92BF92CF921E
:103A6000DF92EF92FF920F931F93DF93CF93CDB727
:103A7000DEB7A3970FB6F894DEBF0FBECDBF6AA323
:103A8000242E2BA337014801442351F017FF08C00F
:103A9000EE24FF248701E618F7080809190902C077
:103AA000840173012AA1215090E0211091E0291B8B
:103AB00029A318A2A82EBB24CC24DD24C801B70159
:103AC000A60195010E942424FB01EF70F070EF5BCA
:103AD000FE4F64916F8FC801B701A60195010E9446
:103AE0002424C901DA017C018D019EE1492E512C6B
:103AF0004C0E5D1E39A025C0E114F104010511052D
:103B0000C9F0C801B701A60195010E942424FB0158
:103B1000EF70F070EF5BFE4F6491F2016083C801BB
:103B2000B701A60195010E942424C901DA017C0194
:103B30008D0103C02BA1F20120833A94089441081F
:103B400051083320C9F6CE014F968C01E9A10E1B16
:103B500011092220F1F097FE05C08DE2F801829351
:103B60008F0117C0C8010197611471048104910489
:103B700019F08C018BE202C08C0180E2F801808395
:103B800008C0F80181918F010E948F1CFAA1F150A9
:103B9000FAA32AA12223A9F7A3960FB6F894DEBFB1
:103BA0000FBECDBFCF91DF911F910F91FF90EF908E
:103BB000DF90CF90BF90AF909F908F907F906F904D
:103BC0005F904F903F902F9008954F925F926F9229
:103BD0007F928F929F92AF92BF92CF92DF92EF929D
:103BE000FF920F931F93CF93DF93482E5A016B01DF
:103BF000CB01BA0120E030E040E050E00E94962383
:103C000018161CF43501460106C03501460197FA25
:103C1000909497F890940F2EF0E0EF2EF0E0FF2EA6
:103C2000F0E80F2FFFE31F2FF02D5524C401B3013F
:103C3000A80197010E94502220E030E040E251E4C8
:103C40000E944C2287FD0EC0C801B70120E030E081
:103C500040E251E40E949A237B018C0153948FE04F
:103C6000581621F7C601B50120E030E040E050E0F1
:103C70000E944C22882314F48DE201C08BE20E9442
:103C80008F1CDD24AA2456C0C401B301A8019701EA
:103C90000E9450220E94B822B62ED62ACD2DD0E006
:103CA000CC24DD24C801B70120E030E040E85FE328
:103CB0000E944C22882319F421E0C22ED12CCC2959
:103CC000DD29CD2B39F08B2D805D0E948F1CDD24EA
:103CD000DA9404C080E20E948F1CDD24C801B70181
:103CE00020E030E040E85FE30E944C22882319F492
:103CF0008EE20E948F1C6B2D70E0882777FD8095E7
:103D0000982F0E94E622A80197010E949A239B0106
:103D1000AC01C401B3010E94E7213B014C01C80181
:103D2000B70120E030E040E251E40E9450227B01E4
:103D30008C01A394A41408F4A7CFDF91CF911F9115
:103D40000F91FF90EF90DF90CF90BF90AF909F903A
:103D50008F907F906F905F904F9008957F928F9299
:103D60009F92AF92BF92CF92DF92EF92FF920F930A
:103D70001F93DF93CF93CDB7DEB77888C988DA88F1
:103D800063E1E62EF12CEC0EFD1E14C0882381F4B5
:103D900080E090E0CF91DF911F910F91FF90EF9025
:103DA000DF90CF90BF90AF909F908F907F900895BD
:103DB0000E948F1C96012F5F3F4F772021F0F60164
:103DC0006901849103C0F601808169018532F1F6B1
:103DD0002F5F3F4F772021F0F6016901849103C0E6
:103DE000F60180816901843629F0883781F08336B5
:103DF000F9F606C000E117E25AE0A52EB12C0CC07E
:103E0000F701808122E030E0E20EF31ED1CF00E026
:103E100010E140E1A42EB12C32E0832E912C8E0CC7
:103E20009F1CF701E080F1808436B1F4F7FE11C0E9
:103E3000F094E194F108F3948DE20E948F1C09C084
:103E4000C8016AE070E00E94FD238B0162307105B9
:103E500018F0E016F106A0F3C701B8010E94FD2397
:103E6000862F0E94F21CC701B8010E94FD237C012D
:103E7000C801B5010E94FD238B016115710561F731
:103E8000740198CF2091B9002E7F2093B900209122
:103E9000B9002D7F2093B9009C0140E050E060E81C
:103EA0007EE380E090E00E944624203130F0822FB3
:103EB00090E0409795958795282F2093B800089516
:103EC000589A599A1092C9111092C8111092CB1198
:103ED0001092CA1184E690E00E94421FECEBF0E0E1
:103EE00080818460808310928211808181608083D0
:103EF0008081806480837894089590E0611191E0DE
:103F00008E7F982B9093BA0008959093C911809357
:103F1000C81108959093CB118093CA110895ECEBCA
:103F2000F0E080818F70806A80830895ECEBF0E090
:103F300080818F70806D808308958091BC0087FFA1
:103F4000FCCF08958093BB00ECEBF0E080818F7094
:103F5000806880830895882329F08091BC008F7049
:103F6000806C04C08091BC008F7080688093BC001E
:103F700008958091BB0008958091B9000895982F0D
:103F8000809182118823E1F782E0809382119E7FE5
:103F900090938311A4E8B1E1FA0102C081918D935D
:103FA0008E2F841B8617D0F31092A4116093A51155
:103FB0008091BC008F70806A8093BC000895982F18
:103FC000809182118823E1F783E0809382119160D0
:103FD000909383111092C6116093C7118091BC0019
:103FE0008F70806A8093BC00809182118823E1F7F2
:103FF000A6EAB1E1FA0102C08D9181938E2F841B54
:104000008617D0F30895982FFA018091BC008E7F17
:104010008093BC008091BC008F70806A8093BC004C
:104020008091BC0087FFFCCF9E7F9093BB00809166
:10403000BC008F7080688093BC008091BC0087FFBB
:10404000FCCF8091B900883189F091E012C0808165
:104050008093BB008091BC008F7080688093BC000F
:104060008091BC0087FFFCCF31966150662379F7C1
:1040700090E08091BC008F70806D8093BC00809137
:10408000BC0084FFFCCF8091BC0081608093BC00A9
:10409000892F0895982FFA018091BC008E7F80931C
:1040A000BC008091BC008F70806A8093BC008091BE
:1040B000BC0087FFFCCF91609093BB008091BC0057
:1040C0008F7080688093BC008091BC0087FFFCCF1C
:1040D0008091B900803481F091E01EC08091BC00D5
:1040E0008F70806C8093BC008091BC0087FFFCCFF8
:1040F0008091BB0081936150623080F78091BC0059
:104100008F7080688093BC008091BC0087FFFCCFDB
:104110008091BB00808390E08091BC008F70806DA7
:104120008093BC008091BC0081608093BC00892F8B
:1041300008951F920F920FB60F9211242F933F9361
:104140004F935F936F937F938F939F93AF93BF939F
:10415000EF93FF938091B900887F803609F4A0C067
:10416000813670F5883209F45FC0893298F4803165
:1041700009F457C0813138F4882309F4EAC0883043
:1041800009F0EFC04EC0883109F44EC0803209F00A
:10419000E8C0DFC0803409F477C0813438F480335C
:1041A00009F4D7C0883309F0DCC05DC0803509F45C
:1041B0005FC0883509F44AC0883409F0D2C0C9C04C
:1041C000883909F4BAC08939B0F4883709F468C06D
:1041D000893738F4883609F463C0803709F0C1C0E4
:1041E0005FC0883809F4A9C0803909F45FC08038FD
:1041F00009F0B7C05BC0803B09F479C0813B38F45B
:10420000803A09F462C0883A09F0ABC070C0803CC3
:1042100009F49AC0883C09F497C0883B09F0A1C012
:1042200077C0809183110FC09091A4118091A51146
:10423000981708F08EC0E92FF0E0EC57FE4E808111
:104240009F5F9093A4118093BB0077C08091C611AB
:104250009091BB00E82FF0E0EA55FE4E90838F5F0F
:104260008093C61176C08091BC008F70806875C045
:104270008091C6119091BB00E82FF0E0EA55FE4E08
:1042800090838F5F8093C6112091C61130E080919A
:10429000C71190E00197281739070CF04EC048C0AD
:1042A00085E0809382111092C61142C08091C611A0
:1042B0009091BB00E82FF0E0EA55FE4E90838F5FAF
:1042C0008093C6118032C8F533C08091BC008F70D6
:1042D000806C8093BC00E091C811F091C9113097B7
:1042E000F1F18091C61166EA71E1099538C084E068
:1042F00080938211E091CA11F091CB11309731F087
:1043000080E264E871E109958093A5111092A411EF
:104310009091A411E92FF0E0EC57FE4E808180933C
:10432000BB009F5F9093A4118091A511981728F46A
:104330008091BC008F70806C04C08091BC008F7035
:1043400080688093BC000DC08091BC008F70806C31
:1043500004C08091BC008F70806D8093BC0010926F
:104360008211FF91EF91BF91AF919F918F917F91BA
:104370006F915F914F913F912F910F900FBE0F90D2
:104380001F901895809182110895F8940C946124DF
:10439000FB01DC0102C001900D9241505040D8F762
:1043A0000895DC0101C06D9341505040E0F708953D
:1043B000FB01DC014150504048F001900D9200207B
:1043C000C9F701C01D9241505040E0F70895505880
:1043D000BB27AA270ED070C161D130F066D120F082
:1043E00031F49F3F11F41EF456C10EF4E095E7FB43
:1043F0004CC1E92F72D180F3BA17620773078407A3
:10440000950718F071F49EF58AC10EF4E0950B2E15
:10441000BA2FA02D0B01B90190010C01CA01A00116
:104420001124FF27591B99F0593F50F4503E68F171
:104430001A16F040A22F232F342F4427585FF3CFB2
:10444000469537952795A795F0405395C9F77EF483
:104450001F16BA0B620B730B840BBAF09150A1F0CC
:10446000FF0FBB1F661F771F881FC2F70EC0BA0F52
:10447000621F731F841F48F4879577956795B795DA
:10448000F7959E3F08F0B3CF9395880F08F09927D2
:10449000EE0F979587950895D4D008F481E008959C
:1044A0000CD00AC102D140F0F9D030F021F45F3FC6
:1044B00019F0EBC0511134C1EEC00FD198F399231C
:1044C000C9F35523B1F3951B550BBB27AA276217D8
:1044D0007307840738F09F5F5F4F220F331F441F1D
:1044E000AA1FA9F333D00E2E3AF0E0E830D0915055
:1044F0005040E695001CCAF729D0FE2F27D0660F42
:10450000771F881FBB1F261737074807AB07B0E880
:1045100009F0BB0B802DBF01FF2793585F4F2AF096
:104520009E3F510568F0B1C0FBC05F3FECF3983E81
:10453000DCF3869577956795B795F7959F5FC9F7F3
:10454000880F911D9695879597F90895E1E0660F7C
:10455000771F881FBB1F621773078407BA0720F0F5
:10456000621B730B840BBA0BEE1F88F7E09508955E
:10457000BCD088F09F5790F0B92F9927B751A0F081
:10458000D1F0660F771F881F991F1AF0BA95C9F7E7
:1045900012C0B13081F0C3D0B1E00895C0C0672F20
:1045A000782F8827B85F39F0B93FCCF38695779597
:1045B0006795B395D9F73EF4909580957095619580
:1045C0007F4F8F4F9F4F0895E89409C097FB3EF4AB
:1045D00090958095709561957F4F8F4F9F4F992350
:1045E000A9F0F92F96E9BB279395F69587957795CE
:1045F0006795B795F111F8CFFAF4BB0F11F460FF8E
:104600001BC06F5F7F4F8F4F9F4F16C0882311F0E5
:1046100096E911C0772321F09EE8872F762F05C0F9
:10462000662371F096E8862F70E060E02AF09A9594
:10463000660F771F881FDAF7880F9695879597F989
:104640000895990F0008550FAA0BE0E8FEEF161623
:104650001706E807F907C0F012161306E407F50776
:1046600098F0621B730B840B950B39F40A2661F0EA
:10467000232B242B252B21F408950A2609F4A1408D
:10468000A6958FEF811D811D089597F99F6780E89A
:1046900070E060E008959FEF80EC089500240A9494
:1046A0001616170618060906089500240A9412160D
:1046B0001306140605060895092E0394000C11F440
:1046C000882352F0BB0F40F4BF2B11F460FF04C0ED
:1046D0006F5F7F4F8F4F9F4F089557FD9058440F46
:1046E000551F59F05F3F71F04795880F97FB991F51
:1046F00061F09F3F79F0879508951216130614060E
:10470000551FF2CF4695F1DF08C01616170618069A
:10471000991FF1CF86957105610508940895E89475
:10472000BB2766277727CB0197F908958ADF08F41E
:104730008FEF08950BD0C0CFB1DF28F0B6DF18F0AF
:10474000952309F0A2CFA7CF1124EACFC6DFA0F3AB
:10475000959FD1F3950F50E0551F629FF001729F16
:10476000BB27F00DB11D639FAA27F00DB11DAA1F35
:10477000649F6627B00DA11D661F829F2227B00D82
:10478000A11D621F739FB00DA11D621F839FA00D0D
:10479000611D221F749F3327A00D611D231F849F5D
:1047A000600D211D822F762F6A2F11249F575040B4
:1047B0008AF0E1F088234AF0EE0FFF1FBB1F661F4F
:1047C000771F881F91505040A9F79E3F510570F008
:1047D0005CCFA6CF5F3FECF3983EDCF386957795F0
:1047E0006795B795F795E7959F5FC1F7FE2B880F03
:1047F000911D9695879597F90895AA1BBB1B51E1CA
:1048000007C0AA1FBB1FA617B70710F0A61BB70B40
:10481000881F991F5A95A9F780959095BC01CD01E5
:10482000089597FB092E07260AD077FD04D0E5DF0F
:1048300006D000201AF4709561957F4F0895F6F721
:10484000909581959F4F0895A1E21A2EAA1BBB1B3C
:10485000FD010DC0AA1FBB1FEE1FFF1FA217B3074C
:10486000E407F50720F0A21BB30BE40BF50B661F62
:10487000771F881F991F1A9469F760957095809526
:1048800090959B01AC01BD01CF01089597FB092EC6
:1048900005260ED057FD04D0D7DF0AD0001C38F40F
:1048A00050954095309521953F4F4F4F5F4F08955C
:1048B000F6F790958095709561957F4F8F4F9F4F3C
:0648C0000895F894FFCFFB
:1048C60053657442617564203530303030300A00EB
:1048D600426175642053657420354B0A0064006498
:1048E60000620061005E005B00570052004D004709
:1048F600004000390032002A0022001A0011000987
:10490600000000F7FFEFFFE6FFDEFFD6FFCEFFC792
:10491600FFC0FFB9FFB3FFAEFFA9FFA5FFA2FF9F30
:10492600FF9EFF9CFF9CFF9CFF9EFF9FFFA2FFA593
:10493600FFA9FFAEFFB3FFB9FFC0FFC7FFCEFFD68B
:10494600FFDEFFE6FFEFFFF7FF0000090011001A88
:104956000022002A0032003900400047004D005274
:104966000057005B005E006100620064006400495D
:04497600444C450068
:00000001FF
