S01000006163635F746573742E73726563CE
S11300000C9430020C9458020C9458020C9458022C
S11300100C9458020C9458020C9458020C945802F4
S11300200C9458020C9458020C9458020C945802E4
S11300300C9458020C94E6030C9412040C94BA0326
S11300400C940A030C9436030C9462030C948E03F0
S11300500C94DE020C9486020C94B2020C945A02A4
S11300600C9458020C9458020C9458020C945802A4
S11300700C9458020C94CD200C9458020C946A04ED
S11300800C9496040C94C2040C94EE040C943E0458
S11300900C9418070C9458020C94EC060C94580217
S11300A00C9458020C9446050C9472050C949E050D
S11300B00C94CA050C941A050C9422060C944E0652
S11300C00C947A060C94A6060C94F6050C9458022B
S11300D00C9458020C9458020C9458020C94580234
S11300E00C945802036EDB363D9A9999993DABAA5C
S11300F0AA2A3E000000803F072C7AA5BA6CC5905E
S1130100DA3B9365FC8BBC53F810FD3C5692834D4F
S1130110BD879D3AB63DCBC9BF5BBE73DA0FC93FFD
S11301202500240023002B002A0029002E002D0086
S11301302C003400330032000201010100012001CF
S1130140402601042601082C01082C01102C012052
S11301502C01803201203801083801103801203880
S113016001400000000000000000000000003E010B
S11301708102006E000247003500024400060000C0
S11301808502006E00044800350004440004530155
S11301909402016F0002880036000280000600000D
S11301A09802016F00048A003600048000043E01B6
S11301B09C02016F00088C003600088000020000D9
S11301C0AB0202700002B300370002B00006000068
S11301D0AF0202700004B400370004B000045F01F1
S11301E0BE02037100029800380002900006470125
S11301F0C202037100049A003800049000044A010A
S1130200C602037100089C003800089000024D01EA
S1130210D50204720002A800390002A000065601AB
S1130220D90204720004AA00390004A00004590190
S1130230DD0204720008AC00390008A000025C0171
S1130240EC020573000228013A00022001060000B6
S1130250F002057300042A013A000420010400009E
S1130260F402057300082C013A0008200102000082
S11302707602460045000000023388440001440031
S11302800245000800000170016E00013500010004
S11302900000000100000100000100008902840048
S11302A08100FF0003FFDF8000018000028100085D
S11302B081001090016F000136000186006F00205C
S11302C03600208100400000A002B200B10000FF0F
S11302D0023388B00001B00002B10008000001C080
S11302E0017000013700010000000001000001005E
S11302F000010000B30294009100FF0003FFDF90AF
S11303000001900002910008910010E001710001C9
S113031038000196007100203800209100405001FF
S1130320CA02A400A100FF0003FFDFA00001A00097
S113033002A10008A100101002720001390001A6F8
S113034000720020390020A100400000E1022401D5
S11303502101FF0003FFDF20010120010221010828
S113036021011040027300013A00012601730020AC
S11303703A0020210140000088134D65616E3A2047
S11303800056617269616E63653A2000457869744C
S1130390696E672063616C63207661720A00456E42
S11303A0746572696E672063616C63207661720A9A
S11303B00045786974696E672063616C63206D65BC
S11303C0616E0A00456E746572696E672063616CC4
S11303D063206D65616E0A002564000000DA0E1466
S11303E0001400820F6B0FC8001400303132333414
S11303F03536373839414243444546000000010050
S11304000800400000010004000001000800200072
S113041040008000000100040001FFFF0203FFFF11
S1130420FFFFFF05FFFFFF070001FFFF02035573F6
S11304306572204572726F723A25640A00576562CC
S1130440626F744C6962204572726F723A25640A55
S1130450007C1F32207020072039201D2000DC2062
S113046011241FBECFEFD1E2DEBFCDBF12E0A0E06A
S1130470B2E0E0EBFCE402C005900D92AC36B107AB
S1130480D9F713E0ACE6B2E001C01D92A834B1077D
S1130490E1F714E0C0E6D4E004C02297FE010E9414
S11304A05226CE35D107C9F70E94CD120C94D92219
S11304B00C9400001F920F920FB60F9211242F93E9
S11304C03F934F935F936F937F938F939F93AF93D8
S11304D0BF93EF93FF93DF93CF93CDB7DEB780E75E
S11304E092E00E948617CF91DF91FF91EF91BF9127
S11304F0AF919F918F917F916F915F914F913F91B8
S11305002F910F900FBE0F901F9018951F920F926E
S11305100FB60F9211242F933F934F935F936F93D2
S11305207F938F939F93AF93BF93EF93FF93DF9347
S1130530CF93CDB7DEB780E791E00E94A417CF91A7
S1130540DF91FF91EF91BF91AF919F918F917F9137
S11305506F915F914F913F912F910F900FBE0F902C
S11305601F9018951F920F920FB60F9211242F937C
S11305703F934F935F936F937F938F939F93AF9327
S1130580BF93EF93FF93DF93CF93CDB7DEB780E8AC
S113059091E00E94A417CF91DF91FF91EF91BF9159
S11305A0AF919F918F917F916F915F914F913F9107
S11305B02F910F900FBE0F901F9018951F920F92BE
S11305C00FB60F9211242F933F934F935F936F9322
S11305D07F938F939F93AF93BF93EF93FF93DF9397
S11305E0CF93CDB7DEB78CE992E00E948617CF9106
S11305F0DF91FF91EF91BF91AF919F918F917F9187
S11306006F915F914F913F912F910F900FBE0F907B
S11306101F9018951F920F920FB60F9211242F93CB
S11306203F934F935F936F937F938F939F93AF9376
S1130630BF93EF93FF93DF93CF93CDB7DEB78CE9EE
S113064092E00E949517CF91DF91FF91EF91BF91B6
S1130650AF919F918F917F916F915F914F913F9156
S11306602F910F900FBE0F901F9018951F920F920D
S11306700FB60F9211242F933F934F935F936F9371
S11306807F938F939F93AF93BF93EF93FF93DF93E6
S1130690CF93CDB7DEB780E991E00E94A417CF9144
S11306A0DF91FF91EF91BF91AF919F918F917F91D6
S11306B06F915F914F913F912F910F900FBE0F90CB
S11306C01F9018951F920F920FB60F9211242F931B
S11306D03F934F935F936F937F938F939F93AF93C6
S11306E0BF93EF93FF93DF93CF93CDB7DEB780EA49
S11306F091E00E94A417CF91DF91FF91EF91BF91F8
S1130700AF919F918F917F916F915F914F913F91A5
S11307102F910F900FBE0F901F9018951F920F925C
S11307200FB60F9211242F933F934F935F936F93C0
S11307307F938F939F93AF93BF93EF93FF93DF9335
S1130740CF93CDB7DEB780EB91E00E94A417CF9191
S1130750DF91FF91EF91BF91AF919F918F917F9125
S11307606F915F914F913F912F910F900FBE0F901A
S11307701F9018951F920F920FB60F9211242F936A
S11307803F934F935F936F937F938F939F93AF9315
S1130790BF93EF93FF93DF93CF93CDB7DEB788EC8E
S11307A092E00E948617CF91DF91FF91EF91BF9164
S11307B0AF919F918F917F916F915F914F913F91F5
S11307C02F910F900FBE0F901F9018951F920F92AC
S11307D00FB60F9211242F933F934F935F936F9310
S11307E07F938F939F93AF93BF93EF93FF93DF9385
S11307F0CF93CDB7DEB780EC91E00E94A417CF91E0
S1130800DF91FF91EF91BF91AF919F918F917F9174
S11308106F915F914F913F912F910F900FBE0F9069
S11308201F9018951F920F920FB60F9211242F93B9
S11308303F934F935F936F937F938F939F93AF9364
S1130840BF93EF93FF93DF93CF93CDB7DEB780EDE4
S113085091E00E94A417CF91DF91FF91EF91BF9196
S1130860AF919F918F917F916F915F914F913F9144
S11308702F910F900FBE0F901F9018951F920F92FB
S11308800FB60F9211242F933F934F935F936F935F
S11308907F938F939F93AF93BF93EF93FF93DF93D4
S11308A0CF93CDB7DEB784EF92E00E948617CF9145
S11308B0DF91FF91EF91BF91AF919F918F917F91C4
S11308C06F915F914F913F912F910F900FBE0F90B9
S11308D01F9018951F920F920FB60F9211242F9309
S11308E03F934F935F936F937F938F939F93AF93B4
S11308F0BF93EF93FF93DF93CF93CDB7DEB784EF2E
S113090092E00E949517CF91DF91FF91EF91BF91F3
S1130910AF919F918F917F916F915F914F913F9193
S11309202F910F900FBE0F901F9018951F920F924A
S11309300FB60F9211242F933F934F935F936F93AE
S11309407F938F939F93AF93BF93EF93FF93DF9323
S1130950CF93CDB7DEB780EE91E00E94A417CF917C
S1130960DF91FF91EF91BF91AF919F918F917F9113
S11309706F915F914F913F912F910F900FBE0F9008
S11309801F9018951F920F920FB60F9211242F9358
S11309903F934F935F936F937F938F939F93AF9303
S11309A0BF93EF93FF93DF93CF93CDB7DEB780EF81
S11309B091E00E94A417CF91DF91FF91EF91BF9135
S11309C0AF919F918F917F916F915F914F913F91E3
S11309D02F910F900FBE0F901F9018951F920F929A
S11309E00FB60F9211242F933F934F935F936F93FE
S11309F07F938F939F93AF93BF93EF93FF93DF9373
S1130A00CF93CDB7DEB780E092E00E94A417CF91D8
S1130A10DF91FF91EF91BF91AF919F918F917F9162
S1130A206F915F914F913F912F910F900FBE0F9057
S1130A301F9018951F920F920FB60F9211242F93A7
S1130A403F934F935F936F937F938F939F93AF9352
S1130A50BF93EF93FF93DF93CF93CDB7DEB780E2DD
S1130A6093E00E948617CF91DF91FF91EF91BF91A0
S1130A70AF919F918F917F916F915F914F913F9132
S1130A802F910F900FBE0F901F9018951F920F92E9
S1130A900FB60F9211242F933F934F935F936F934D
S1130AA07F938F939F93AF93BF93EF93FF93DF93C2
S1130AB0CF93CDB7DEB780E293E00E949517CF9134
S1130AC0DF91FF91EF91BF91AF919F918F917F91B2
S1130AD06F915F914F913F912F910F900FBE0F90A7
S1130AE01F9018951F920F920FB60F9211242F93F7
S1130AF03F934F935F936F937F938F939F93AF93A2
S1130B00BF93EF93FF93DF93CF93CDB7DEB780E12D
S1130B1092E00E94A417CF91DF91FF91EF91BF91D2
S1130B20AF919F918F917F916F915F914F913F9181
S1130B302F910F900FBE0F901F9018951F920F9238
S1130B400FB60F9211242F933F934F935F936F939C
S1130B507F938F939F93AF93BF93EF93FF93DF9311
S1130B60CF93CDB7DEB780E292E00E94A417CF9175
S1130B70DF91FF91EF91BF91AF919F918F917F9101
S1130B806F915F914F913F912F910F900FBE0F90F6
S1130B901F9018951F920F920FB60F9211242F9346
S1130BA03F934F935F936F937F938F939F93AF93F1
S1130BB0BF93EF93FF93DF93CF93CDB7DEB780E37B
S1130BC092E00E94A417CF91DF91FF91EF91BF9122
S1130BD0AF919F918F917F916F915F914F913F91D1
S1130BE02F910F900FBE0F901F9018951F920F9288
S1130BF00FB60F9211242F933F934F935F936F93EC
S1130C007F938F939F93AF93BF93EF93FF93DF9360
S1130C10CF93CDB7DEB78CE493E00E948617CF91D3
S1130C20DF91FF91EF91BF91AF919F918F917F9150
S1130C306F915F914F913F912F910F900FBE0F9045
S1130C401F9018951F920F920FB60F9211242F9395
S1130C503F934F935F936F937F938F939F93AF9340
S1130C60BF93EF93FF93DF93CF93CDB7DEB78CE4BD
S1130C7093E00E949517CF91DF91FF91EF91BF917F
S1130C80AF919F918F917F916F915F914F913F9120
S1130C902F910F900FBE0F901F9018951F920F92D7
S1130CA00FB60F9211242F933F934F935F936F933B
S1130CB07F938F939F93AF93BF93EF93FF93DF93B0
S1130CC0CF93CDB7DEB780E492E00E94A417CF9112
S1130CD0DF91FF91EF91BF91AF919F918F917F91A0
S1130CE06F915F914F913F912F910F900FBE0F9095
S1130CF01F9018951F920F920FB60F9211242F93E5
S1130D003F934F935F936F937F938F939F93AF938F
S1130D10BF93EF93FF93DF93CF93CDB7DEB780E517
S1130D2092E00E94A417CF91DF91FF91EF91BF91C0
S1130D30AF919F918F917F916F915F914F913F916F
S1130D402F910F900FBE0F901F9018951F920F9226
S1130D500FB60F9211242F933F934F935F936F938A
S1130D607F938F939F93AF93BF93EF93FF93DF93FF
S1130D70CF93CDB7DEB780E692E00E94A417CF915F
S1130D80DF91FF91EF91BF91AF919F918F917F91EF
S1130D906F915F914F913F912F910F900FBE0F90E4
S1130DA01F901895DF93CF930F92CDB7DEB7898349
S1130DB08BE092E069810E9428110F90CF91DF911E
S1130DC00895DF93CF93CDB7DEB78BE092E00E9416
S1130DD07911CF91DF9108951F920F920FB60F9260
S1130DE011242F933F934F935F936F937F938F932C
S1130DF09F93AF93BF93EF93FF93DF93CF93CDB7BD
S1130E00DEB78BE092E00E949F11CF91DF91FF91BA
S1130E10EF91BF91AF919F918F917F916F915F916E
S1130E204F913F912F910F900FBE0F901F901895E7
S1130E301F920F920FB60F9211242F933F934F934B
S1130E405F936F937F938F939F93AF93BF93EF932E
S1130E50FF93DF93CF93CDB7DEB780912B029091B0
S1130E602C02FC0120818BE092E0622F0E94D211BF
S1130E70CF91DF91FF91EF91BF91AF919F918F91AE
S1130E807F916F915F914F913F912F910F900FBE82
S1130E900F901F901895DF93CF93CDB7DEB781E302
S1130EA092E00E94660782ED96E00E94B51782EDFB
S1130EB096E00E94AC148BE092E040E052EC61E0DA
S1130EC070E00E94EF10CF91DF910895DF93CF93EC
S1130ED000D0CDB7DEB79A838983E981FA81808116
S1130EE091816FEF0E94B1130F900F90CF91DF911A
S1130EF00895DF93CF93CDB7DEB783E392E00E94EA
S1130F0010108FE492E00E941010CF91DF910895A9
S1130F10DF93CF93CDB7DEB78EE391E060E00E941C
S1130F209407CF91DF910895DF93CF9300D00F9270
S1130F30CDB7DEB79A8389836B8389819A81909335
S1130F403A03809339038B818170982F917080913B
S1130F503B038E7F892B80933B0380913B038D7FE2
S1130F6080933B0389E393E00E94BC070F900F90AA
S1130F700F90CF91DF910895DF93CF9300D0CDB739
S1130F80DEB79A83898389819A816FEF0E948914DD
S1130F900F900F90CF91DF910895DF93CF93CDB74A
S1130FA0DEB7CF91DF910895DF93CF93CDB7DEB74E
S1130FB00E94790783E392E069EE7BEF44EF53E00C
S1130FC00E94FF0ECF91DF910895EF92FF920F934D
S1130FD01F93DF93CF93CDB7DEB728970FB6F8945E
S1130FE0DEBF0FBECDBF83E392E00E94BA0F8091B3
S1130FF03A0290913B02AA2797FDA095BA2FBC0113
S1131000CD010E94F723DC01CB018D839E83AF8346
S1131010B88780E090E0A0E8BFE389839A83AB833C
S1131020BC8378C083E392E00E94BA0F80913A02B5
S113103090913B02AA2797FDA095BA2FBC01CD0140
S11310400E94F723DC01CB018D839E83AF83B88795
S113105060E070E080E89FE329813A814B815C8104
S11310600E945C23DC01CB01BC01CD012D813E81BA
S11310704F8158850E940225DC01CB017C018D0142
S113108069817A818B819C8120E030E040E85FE3D4
S11310900E94DC22DC01CB01BC01CD0129813A8113
S11310A04B815C810E945C23DC01CB0120913403E1
S11310B0309135034091360350913703BC01CD0183
S11310C00E940225DC01CB019C01AD01C801B701DE
S11310D00E94DD22DC01CB0180933403909335031D
S11310E0A0933603B093370369E170E080E090E0A9
S11310F00E94B41E69817A818B819C8120E030E05A
S113110040E85FE30E94DD22DC01CB0189839A83FE
S1131110AB83BC8369817A818B819C8120E030E43C
S11311204CE156E40E94582388230CF47BCF2AE731
S113113033E000D00F92EDB7FEB7319681E08083A3
S1131140328321830E94CF150F900F900F9020912E
S1131150340330913503409136035091370385E0D1
S113116090E0BA01A9010E9406150E94F71428967E
S11311700FB6F894DEBF0FBECDBFCF91DF911F91A4
S11311800F91FF90EF900895EF92FF920F931F93AA
S1131190DF93CF93CDB7DEB728970FB6F894DEBFB1
S11311A00FBECDBF83E392E00E94BA0F80913A0252
S11311B090913B02AA2797FDA095BA2FBC01CD01BF
S11311C00E94F723DC01CB018D839E83AF83B88714
S11311D080E090E0A0E8BFE389839A83AB83BC837B
S11311E0A2C080913A0290913B02AA2797FDA09554
S11311F0BA2FBC01CD010E94F723DC01CB018D8302
S11312009E83AF83B88760E070E080E89FE3298124
S11312103A814B815C810E945C23DC01CB017C011F
S11312208D018091340390913503A0913603B091E0
S11312303703BC01CD012D813E814F8158850E9429
S1131240DC22DC01CB019C01AD01C801B7010E9485
S11312500225DC01CB017C018D0180913403909146
S11312603503A0913603B0913703BC01CD012D8124
S11312703E814F8158850E94DC22DC01CB019C0118
S1131280AD01C801B7010E940225DC01CB017C013C
S11312908D0169817A818B819C8120E030E040E876
S11312A05FE30E94DC22DC01CB01BC01CD0129817A
S11312B03A814B815C810E945C23DC01CB0120914B
S11312C06202309163024091640250916502BC0154
S11312D0CD010E940225DC01CB019C01AD01C801B6
S11312E0B7010E94DD22DC01CB018093620290935E
S11312F06302A0936402B093650262E370E080E04D
S113130090E00E94B41E69817A818B819C8120E0E7
S113131030E040E85FE30E94DD22DC01CB018983F9
S11313209A83AB83BC8369817A818B819C8120E021
S113133030E44CE955E40E94582388230CF451CF3F
S113134021E833E000D00F92EDB7FEB7319681E08B
S11313508083328321830E94CF150F900F900F90CA
S113136020916202309163024091640250916502BF
S113137085E090E0BA01A9010E9406150E94F714C5
S113138028960FB6F894DEBF0FBECDBFCF91DF9184
S11313901F910F91FF90EF900895DF93CF9300D0AA
S11313A000D0CDB7DEB769837A838B839C8368EEE4
S11313B073E080E090E00E949E1E24EC33E000D0B5
S11313C00F92EDB7FEB7319681E08083328321839B
S11313D00E94CF150F900F900F900E94E50721EB0C
S11313E033E000D00F92EDB7FEB7319681E08083F1
S11313F0328321830E94CF150F900F900F902EE916
S113140033E000D00F92EDB7FEB7319681E08083D0
S1131410328321830E94CF150F900F900F900E946A
S1131420C4082CE833E000D00F92EDB7FEB7319634
S113143081E08083328321830E94CF150F900F9027
S11314400F9068EE73E080E090E00E949E1E80E0C2
S113145090E0A0E0B0E0BC01CD010F900F900F90A0
S11314600F90CF91DF910895EF92FF920F931F9306
S1131470DF93CF93CDB7DEB7A8970FB6F894DEBF4E
S11314800FBECDBF83E392E00E94BA0F8FE492E0D7
S11314900E94BA0F80E090E0A8ECB2E489A39AA37A
S11314A0ABA3BCA380913A0290913B02AA2797FD7B
S11314B0A095BA2FBC01CD010E94F723DC01CB011A
S11314C0BC01CD0120E030E04AE754E40E945C23F3
S11314D0DC01CB01BC01CD010E944123DC01CB0125
S11314E0BC01CD0120E030E044E353E40E94022536
S11314F0DC01CB01BC01CD012BED3FE049E450E41C
S11315000E945C23DC01CB018D8F9E8FAF8FB8A32B
S11315108D8D9E8DAF8DB8A18D8B9E8BAF8BB88F2B
S11315208D899E89AF89B88D898B9A8BAB8BBC8B47
S11315300E942919DC01CB018D879E87AF87B88B68
S113154080E090E0A0E0B0E089839A83AB83BC8321
S11315504CC18091580290915902AA2797FDA095F9
S1131560BA2FBC01CD010E94F723DC01CB01898F86
S11315709A8FAB8FBC8F69A17AA18BA19CA12FE616
S113158032E143E85AE30E94DD22DC01CB0189A366
S11315909AA3ABA3BCA30E942919DC01CB018987C0
S11315A09A87AB87BC8729853A854B855C858D8571
S11315B09E85AF85B88979018A01E81AF90A0A0B70
S11315C01B0BD801C701BC01CD010E94F523DC012E
S11315D0CB018D839E83AF83B8878D819E81AF813C
S11315E0B885BC01CD012DEB37E346E855E30F2E5A
S11315F0F0E0EF2EF0E0FF2EF0E00F2FF0E01F2FD1
S1131600F02D0E943224DC01CB01BC01CD01298DD7
S11316103A8D4B8D5C8D0E940225DC01CB019C012F
S1131620AD016D897E898F89988D0E94DD22DC0150
S1131630CB018D8B9E8BAF8BB88F83E392E00E949E
S1131640BA0F0E942919DC01CB018D879E87AF87D1
S1131650B88B8FE492E00E94BA0F80913A02909185
S11316603B02AA2797FDA095BA2FBC01CD010E9489
S1131670F723DC01CB01BC01CD0120E030E04AE7D7
S113168054E40E945C23DC01CB01BC01CD010E9427
S11316904123DC01CB01BC01CD0120E030E044E377
S11316A053E40E940225DC01CB01BC01CD012BEDEA
S11316B03FE049E450E40E945C23DC01CB018D8FC0
S11316C09E8FAF8FB8A38091620290916302A09124
S11316D06402B0916502BC01CD0129A13AA14BA1DC
S11316E05CA10E94DD22DC01CB019C01AD0169A15A
S11316F07AA18BA19CA10E945C23DC01CB018DA368
S11317009EA3AFA3B8A76D8D7E8D8F8D98A12989D7
S11317103A894B895C890E94DC22DC01CB01BC0143
S1131720CD012DA13EA14FA158A50E940225DC01A7
S1131730CB019C01AD0169897A898B899C890E94BE
S1131740DD22DC01CB01898B9A8BAB8BBC8B6D8D3D
S11317507E8D8F8D98A12D893E894F89588D0E9449
S1131760DC22DC01CB01BC01CD012DA13EA14FA1A6
S113177058A50E940225DC01CB019C01AD016D89B5
S11317807E898F89988D0E94DD22DC01CB018D8BAF
S11317909E8BAF8BB88F60E070E080E89FE32DA153
S11317A03EA14FA158A50E94DC22DC01CB019C0183
S11317B0AD0169A17AA18BA19CA10E940225DC0143
S11317C0CB0189A39AA3ABA3BCA369817A818B8142
S11317D09C8120E030E040E85FE30E94DD22DC01F0
S11317E0CB0189839A83AB83BC8369817A818B81A2
S11317F09C8120E030E048EC52E40E945823882386
S11318000CF4A7CE6D897E898F89988D0E94C4239C
S1131810DC01CB01A8960FB6F894DEBF0FBECDBF96
S1131820CF91DF911F910F91FF90EF900895EF9268
S1131830FF920F931F93DF93CF93CDB7DEB7A89793
S11318400FB6F894DEBF0FBECDBF83E392E00E94D3
S1131850BA0F8FE492E00E94BA0F80E090E0A8EC07
S1131860B2E48D8F9E8FAF8FB8A380913A0290918E
S11318703B02AA2797FDA095BA2FBC01CD010E9477
S1131880F723DC01CB01BC01CD0120E030E04AE7C5
S113189054E40E945C23DC01CB01BC01CD010E9415
S11318A04123DC01CB01BC01CD0120E030E044E365
S11318B053E40E940225DC01CB01BC01CD012BEDD8
S11318C03FE049E450E40E945C23DC01CB01898FB2
S11318D09A8FAB8FBC8F8091580290915902AA279E
S11318E097FDA095BA2FBC01CD010E94F723DC011E
S11318F0CB018D8B9E8BAF8BB88F898D9A8DAB8DE1
S1131900BC8D898B9A8BAB8BBC8B0E942919DC0113
S1131910CB018D879E87AF87B88B80E090E0A0E0F5
S1131920B0E089839A83AB83BC8356C1809158020B
S113193090915902AA2797FDA095BA2FBC01CD0119
S11319400E94F723DC01CB018D8B9E8BAF8BB88F6C
S11319506D8D7E8D8F8D98A12FE632E143E85AE399
S11319600E94DD22DC01CB018D8F9E8FAF8FB8A347
S11319700E942919DC01CB0189879A87AB87BC8730
S113198029853A854B855C858D859E85AF85B8898B
S113199079018A01E81AF90A0A0B1B0BD801C7015D
S11319A0BC01CD010E94F523DC01CB018D839E8314
S11319B0AF83B8878D819E81AF81B885BC01CD018D
S11319C02DEB37E346E855E30F2EF0E0EF2EF0E081
S11319D0FF2EF0E00F2FF0E01F2FF02D0E94322495
S11319E0DC01CB01BC01CD012D893E894F89588D85
S11319F00E940225DC01CB019C01AD0169897A8931
S1131A008B899C890E94DD22DC01CB01898B9A8B16
S1131A10AB8BBC8B83E392E00E94BA0F0E9429191E
S1131A20DC01CB018D879E87AF87B88B8FE492E072
S1131A300E94BA0F80913A0290913B02AA2797FD27
S1131A40A095BA2FBC01CD010E94F723DC01CB0184
S1131A50BC01CD0120E030E04AE754E40E945C235D
S1131A60DC01CB01BC01CD010E944123DC01CB018F
S1131A70BC01CD0120E030E044E353E40E940225A0
S1131A80DC01CB01BC01CD012BED3FE049E450E486
S1131A900E945C23DC01CB01898F9A8FAB8FBC8FB2
S1131AA080E090E0A0E8BFE389A39AA3ABA3BCA322
S1131AB069A17AA18BA19CA12D8D3E8D4F8D58A13A
S1131AC00E940225DC01CB017C018D0189A19AA130
S1131AD0ABA1BCA1BC01CD010E94B325DC01CB01AB
S1131AE0BC01CD012D8D3E8D4F8D58A10E94022544
S1131AF0DC01CB01209162023091630240916402C7
S1131B0050916502BC01CD010E94DD22DC01CB01B4
S1131B109C01AD01C801B7010E945C23DC01CB012B
S1131B208DA39EA3AFA3B8A7698D7A8D8B8D9C8D51
S1131B3029893A894B895C890E94DC22DC01CB012A
S1131B40BC01CD012DA13EA14FA158A50E940225A3
S1131B50DC01CB019C01AD0169897A898B899C895F
S1131B600E94DD22DC01CB01898B9A8BAB8BBC8B71
S1131B7069A17AA18BA19CA12DA13EA14FA158A539
S1131B800E940225DC01CB019C01AD0160E070E004
S1131B9080E89FE30E94DC22DC01CB019C01AD01C3
S1131BA06D8D7E8D8F8D98A10E940225DC01CB0165
S1131BB08D8F9E8FAF8FB8A369817A818B819C8131
S1131BC020E030E040E85FE30E94DD22DC01CB014D
S1131BD089839A83AB83BC8369817A818B819C815D
S1131BE020E030E048EC52E40E94582388230CF4AF
S1131BF09DCE69897A898B899C890E94C423DC01E2
S1131C00CB01A8960FB6F894DEBF0FBECDBFCF911F
S1131C10DF911F910F91FF90EF9008950F931F9301
S1131C20DF93CF93CDB7DEB728970FB6F894DEBF16
S1131C300FBECDBF69837A838B839C832D833E83C0
S1131C404F83588781E392E00E94960E81E392E0ED
S1131C500E94B00E08ED13E00E94170C9C0100D006
S1131C6000D00F92EDB7FEB7319681E080831283E6
S1131C700183348323830E94CF150F900F900F901C
S1131C800F900F900E94E1068093380380913803EF
S1131C908037D9F48091620290916302A09164022A
S1131CA0B0916502BC01CD0120E030E040E251E496
S1131CB00E94DD22DC01CB018093620290936302D7
S1131CC0A0936402B09365021EC0809138038C36E1
S1131CD0D1F48091620290916302A0916402B09168
S1131CE06502BC01CD0120E030E040E251E40E94F5
S1131CF0DC22DC01CB018093620290936302A09307
S1131D006402B09365020E94F71480E090E0A0E0C2
S1131D10B0E0BC01CD0128960FB6F894DEBF0FBE2B
S1131D20CDBFCF91DF911F910F910895DF93CF9392
S1131D3000D00F92CDB7DEB79A838983E981FA8107
S1131D40808191810E949C131B82882311F481E07D
S1131D508B838B810F900F900F90CF91DF9108951B
S1131D60DF93CF9300D0CDB7DEB79A838983E9811F
S1131D70FA81808191810E949C130F900F90CF91E2
S1131D80DF9108950E94FA1182579640AA2797FD81
S1131D90A095BA2FBC01CD0128EE33E040E050E01D
S1131DA00E94CD252AE431E040E050E00E9435262F
S1131DB0C9010895FF920F931F93F92E082F192F2D
S1131DC0F801818D0E94C20EBC01802F9F2D0E94BC
S1131DD0430FF801828D0E94C20EBC01802F9F2DFB
S1131DE00E942A0FF801838D0E94C20EBC01802F2D
S1131DF09F2D0E94110F1F910F91FF900895FC01D8
S1131E0076876587508B47870895FC01728B618BB9
S1131E10548B438B0895FC01768B658B508F478BD5
S1131E200895EF92FF920F931F937C01CB01F7016A
S1131E30658976894789508D28E13CEF08EE13E0E7
S1131E400E941413F701948783871F910F91FF90C9
S1131E50EF900895EF92FF920F931F937C01CB01B3
S1131E60F701618972894389548928E13CEF08EEBE
S1131E7013E00E941413F701928781871F910F9139
S1131E80FF90EF900895EF92FF920F931F937C01C0
S1131E90CB01F701658576854785508928E13CEFBC
S1131EA008EE13E00E941413F701908787831F91B3
S1131EB00F91FF90EF9008950F931F938B010E9451
S1131EC0FA11801B910B62E070E00E940026CB01A6
S1131ED01F910F9108950F931F938C01FC01678547
S1131EE0708985850E945C0FF801908787836189DA
S1131EF0728986850E945C0FF801928781871F9101
S1131F000F910895FF920F931F93CF93DF93EC01EA
S1131F10188A1F861A8A198AFF240F8518898D85C5
S1131F200E94FA11080F191F188B0F8709891A8943
S1131F308E850E94FA119C01200F311F3A8B298B48
S1131F40F39488E0F81649F78F85988943E09695CD
S1131F5087954A95E1F7988B8F8783E03695279587
S1131F608A95E1F73A8B298BDF91CF911F910F91DD
S1131F70FF900895CF92DF92EF92FF920F931F93F9
S1131F80CF93DF93EC01088119818E81882351F46A
S1131F90F80185919491892B29F084EE0E943019DF
S1131FA080E035C00E9429196B017C01F801369646
S1131FB06591749161157105E9F080E090E028EE77
S1131FC033E040E050E00E94CD259B01AC018091BC
S1131FD0410390914203892B29F4CA01B9010E945B
S1131FE0B41E08C06A817B818C819D810E94CF1EB2
S1131FF0882369F0C8010296FC0125913491CE0131
S1132000F9010995CA82DB82EC82FD828FEFDF91B0
S1132010CF911F910F91FF90EF90DF90CF90089593
S1132020CF92DF92EF92FF920F931F93CF93DF93A0
S1132030EC018E818823B1F588819981FC01C590DA
S1132040D490C114D10461F1FC013496659174916A
S11320506115710511F180914103909142039B0137
S113206040E050E0892B29F4CA01B9010E949E1E68
S113207014C0CA01B90128EE33E040E050E00E94E8
S1132080CD257B018C0160E070E080E090E0A80148
S113209097010E94CF1E8823B1F3CE01F601099562
S11320A08FEF8E83DF91CF911F910F91FF90EF906F
S11320B0DF90CF900895DC0117968D919C9118972D
S11320C00296FC0125913491CD01F90109950895F9
S11320D0CF93DF93EC018E818E7F8E83EC89FD8913
S11320E0309721F08E899F896FEF0995EF81F885EC
S11320F03896259134912115310519F0CE01F90155
S11321000995DF91CF910895CF93DF93EC018E81F0
S113211081608E83EF81F8853A962591349121155B
S1132120310519F0CE01F9010995EC89FD89309743
S113213021F08E899F8960E00995DF91CF91089500
S1132140DC0117968D919C911897FC01259134918F
S1132150CD01F90109950895DC011796ED91FC91E3
S113216018973696259134919FB7789416968C914A
S1132170169780FFFBCF9FBFCD01F9010995089504
S1132180DC01ED91FC911197309759F02FB7F89439
S113219084819581892B11F080E001C08FEF2FBFDE
S11321A008952FB7F89419968D919C911A978F5F83
S11321B09F4F11F080E001C08FEF2FBF0895FC0105
S11321C080819181009719F00E94931208952FB78E
S11321D0F8948FEF9FEF928781872FBF0895EF9236
S11321E0FF920F931F93CF93DF93EC017A018B013E
S11321F0F8948B89882381F02B853C858D859E8579
S11322002817390721F0C90160E00E94B1138D85B8
S11322109E856FEF0E94B1138E8181608E838E81C3
S11322208B7F8E838E818D7F8E838F81988504969C
S1132230FC0125913491CE01B801A701F90109955A
S11322407894DF91CF911F910F91FF90EF900895B3
S11322500F931F93CF93DF93EC01062F8A819B8109
S1132260892B19F419C00E949C128A819B810E94B7
S11322708B128823C1F71FB7F8948E8181FD04C0A7
S11322808E8182608E830DC08A819B81602F0E9423
S113229047120EC00E949C128E8180FFFBCF1FB795
S11322A0F894CE010E946810CE01602F0E945B104A
S11322B01FBF802FDF91CF911F910F910895EF924F
S11322C0FF920F931F93CF93DF937C018B01EA015D
S11322D007C0F80161918F01C7010E94281121975D
S11322E02097B9F7DF91CF911F910F91FF90EF9055
S11322F00895DF93CF930F92CDB7DEB7FC018081B1
S11323009181009771F0BE016F5F7F4F0E941A1296
S1132310882319F44FEF5FEF0DC08981482F50E0F7
S113232009C02FB7F894418552858FEF9FEF9287AC
S113233081872FBFCA010F90CF91DF910895EF924B
S1132340FF921F93DF93CF930F92CDB7DEB77C013B
S1132350FC01868181FF19C01FB7F894F7018281BF
S11323609381BE016F5F7F4F0E941A12882329F068
S1132370C70169810E945B100DC0C7010E948410CF
S1132380F70186818D7F868305C01FB7F894C70146
S11323900E9484101FBF0F90CF91DF911F91FF9077
S11323A0EF900895CF93DF93EC018C819D81892B6D
S11323B029F0EC81FD81862F099519C088819981C6
S11323C0009729F00E944712882389F40AC089855E
S11323D09A858F5F9F4F29F4862F90E09A8789878B
S11323E006C08E8184608E8385EF0E943019DF9150
S11323F0CF9108950F931F930E949D20E8E7F3E087
S11324000591149160E070E04FEF53E020E030E07C
S11324100E945B131F910F910895FC018FB7F894EC
S113242071836083538342831582148217821682D8
S11324308FBF0895CF93DF93EC01DB012FB7F8949E
S1132440009701F18A819B81892BE1F08C819D8128
S1132450892BC1F0E881F9818E819F81E80FF91FF2
S113246080818C938E819F816A817B8101960E94F9
S1132470EC259F838E838C819D8101979D838C8322
S11324808FEF01C080E02FBFDF91CF9108951F939C
S1132490CF93DF93EC01462F1FB7F8942C813D8135
S11324A06A817B812617370710F080E011C08E8186
S11324B09F81820F931F0E94EC25E881F981E80F28
S11324C0F91F40838C819D8101969D838C838FEFBE
S11324D01FBFDF91CF911F910895FC014FB7F8946E
S11324E0009719F420E030E006C022813381848112
S11324F09581281B390B4FBFC9010895FC018FB783
S1132500F894309719F420E030E002C0248135813A
S11325108FBFC90108950E946D12892B11F080E0CC
S113252008958FEF0895FC01009729F08FB7F89470
S1132530158214828FBF08958FB77894000000002D
S1132540000000000000000000008FBF08959C01FF
S1132550FC01A591B4912E5F3F4FF90194918C91A8
S1132560892B8C9308959C01FC01A591B4912E5F55
S11325703F4FF90194918C91892309F08FEF0895CD
S11325809C01FC01A591B4912E5F3F4FF9019491F8
S11325908C91909589238C9308956F927F928F925A
S11325A09F92AF92BF92CF92DF92EF92FF920F93DE
S11325B01F930E94CD070E9488070E946C1C0E94F2
S11325C04B070E94D4070E94031D0E9429195B0136
S11325D06C010E94CD097B018C01662477244301A0
S11325E00E949C12E114F1040105110519F40AC0BA
S11325F00E949C12C601B501A80197010E94CF1E3A
S11326008823B1F30E9429195B016C010894611CB1
S1132610711C811C911CC401B301A60195010E9487
S11326200E0E7B018C01DCCF4F925F926F927F92F2
S11326308F929F92AF92BF92CF92DF92EF92FF92CE
S11326400F931F932B013A0159017801E21AF30AFF
S11326500027F7FC0095102F9C01261B370B4427FD
S113266037FD4095542FC801B7010E94CD25641849
S11326707508882477FC8094982CA40193010E9407
S11326803526C901DA01CC24B7FCC094DC2CA80E91
S1132690B91ECA1EDB1EC5011F910F91FF90EF905A
S11326A0DF90CF90BF90AF909F908F907F906F906E
S11326B05F904F9008954F925F926F927F928F92A6
S11326C09F92AF92BF92CF92DF92EF92FF920F93BD
S11326D01F932B015A0139017801E21AF30A00E031
S11326E010E09C01261B370B442737FD4095542FDF
S11326F0C801B7010E94CD25A418B508CC24B7FCA5
S1132700C094DC2CA60195010E94352688249924C6
S1132710260D371D481D591DC9011F910F91FF90AA
S1132720EF90DF90CF90BF90AF909F908F907F906D
S11327306F905F904F9008959C01009781F0FC0189
S1132740859194910496FC01A591B4912E5F3F4F1D
S1132750F90194918C91892311F08FEF089580E011
S11327600895CF93DF939C010097F9F0FC01459104
S11327705491CA010296FC01A591B491FA01C59144
S1132780D4912E5F3F4FF90194913FB7F8948C9107
S1132790292F209582238C93662319F08881892B15
S11327A002C08881822388833FBFDF91CF9108953F
S11327B0CF93DF939C010097F9F0FC01459154916C
S11327C0CA010296FC01C591D491FA01A591B49174
S11327D02E5F3F4FF90124913FB7F894662319F017
S11327E08C91822B04C08C91922F909589238C9389
S11327F08881822B88833FBFDF91CF9108959C010C
S1132800009781F0FC01859194910296FC01A591B9
S1132810B4912E5F3F4FF90194918C91892311F06B
S11328208FEF089580E00895CF93DF939C01009784
S1132830E1F0FC0185919491FC01A591B49102967B
S1132840FC01C591D4912E5F3F4FF90124918881F9
S1132850822341F09FB7F8948C9182278C939FBF79
S1132860000003C087EF0E943019DF91CF910895D3
S1132870CF93DF939C010097E9F0FC01859194913B
S1132880FC01A591B4910296FC01C591D4912E5FEF
S11328903F4FF90124918881822349F09FB7F8942E
S11328A08C91209582238C939FBF000003C087EFF7
S11328B00E943019DF91CF910895CF93DF939C014B
S11328C00097E1F0FC0185919491FC01A591B491EC
S11328D00296FC01C591D4912E5F3F4FF9012491DA
S11328E08881822341F09FB7F8948C91822B8C933A
S11328F09FBF000003C087EF0E943019DF91CF9182
S11329000895662319F00E945D1408950E943814F6
S113291008951F93CF93DF93EC01162F888199813B
S11329200097A9F03A8130FD05C020E0662309F440
S113293021E0122F31FD06C0612F0E94D8138A8135
S113294082608A8388819981612F0E948114DF913A
S1132950CF911F910895089520916A0230916B02DE
S113296090936B0280936A02C90108951F93182FF4
S11329708A3031F4E0916A02F0916B028DE009959E
S1132980E0916A02F0916B02812F09951F910895DD
S11329901F93CF93DF93182FEB0104C0812F0E9464
S11329A0B61421972097D1F7DF91CF911F91089505
S11329B0CF93DF93EC01009721F406C021960E9487
S11329C0B61488818823D1F7DF91CF910895CF93EE
S11329D0DF93EC01009719F407C00E94B614FE01BE
S11329E0219684918823C9F7DF91CF9108958AE0D5
S11329F00E94B6140895E82FF0E0EF70F070E551EE
S1132A00FC4FE4918E2F0E94B61408954F925F926A
S1132A106F927F928F929F92AF92BF92CF92DF92EA
S1132A20EF92FF920F931F93CF93DF93482E5A0197
S1132A306B01CB01BA0120E030E040E050E00E949D
S1132A40FE2418161CF43501460106C03501460162
S1132A5097FA909497F8909455240F2EF0E0EF2E67
S1132A60F0E0FF2EF0E80F2FFFE31F2FF02DC4013D
S1132A70B301A80197010E945C2320E030E040E20A
S1132A8051E40E94582387FD0EC0C801B70120E01D
S1132A9030E040E251E40E9402257B018C01539412
S1132AA08FE0581621F7C601B50120E030E040E080
S1132AB050E00E945823882314F48DE201C08BE275
S1132AC00E94B614DD24AA2456C0C401B301A8018F
S1132AD097010E945C230E94C923B62ED62ACD2DCD
S1132AE0D0E0CC24DD24C801B70120E030E040E888
S1132AF05FE30E945823882319F481E0C82ED12C67
S1132B00CC29DD29CD2B39F08B2D805D0E94B614A4
S1132B10DD24DA9404C080E20E94B614DD24C801E6
S1132B20B70120E030E040E85FE30E9458238823A7
S1132B3019F48EE20E94B6146B2D70E0882777FD9D
S1132B408095982F0E94F723A80197010E940225DF
S1132B509B01AC01C401B3010E94DC223B014C0186
S1132B60C801B70120E030E040E251E40E945C2358
S1132B707B018C01A394A41408F4A7CFDF91CF9117
S1132B801F910F91FF90EF90DF90CF90BF90AF9087
S1132B909F908F907F906F905F904F9008957F9259
S1132BA08F929F92AF92BF92CF92DF92EF92FF9259
S1132BB00F931F93DF93CF930F92CDB7DEB779882E
S1132BC0CA88DB8864E1E62EF12CEC0EFD1E17C0EA
S1132BD0882389F480E090E00F90CF91DF911F91DA
S1132BE00F91FF90EF90DF90CF90BF90AF909F90A8
S1132BF08F907F9008950E94B61457017501960135
S1132C002F5F3F4F772021F0F6016901849103C0C3
S1132C10F601808169018532D9F62F5F3F4F772015
S1132C2021F0F6016901949103C0F60190816901D4
S1132C309337A1F0943738F49336D9F0943641F0B1
S1132C40953209F525C0953719F09837E1F422C07B
S1132C5000E117E25AE0852E912C21C042E0A42E17
S1132C60B12CAE0CBF1CF701808191810E94D81455
S1132C70C5CF32E0A32EB12CAE0CBF1CF70180816E
S1132C800E94B614BBCF85E299830E94B614998141
S1132C90892FB1CF00E010E120E1822E912C82E057
S1132CA0A82EB12CAE0CBF1CF701E080F180943645
S1132CB051F4F7FE14C0F094E194F108F3948DE21A
S1132CC00E94B6140CC0953769F409C0C8016AE0C3
S1132CD070E00E94EC258B016230710518F0E0165B
S1132CE0F106A0F3C701B8010E94EC25862F0E94CB
S1132CF0FB14C701B8010E94EC257C01C801B40192
S1132D000E94EC258B016115710561F777CFEF9275
S1132D10FF920F931F937A012091040230910502D0
S1132D2040E050E00E94CD2500E010E0A8019701AA
S1132D300E941326CA01B9011F910F91FF90EF90D1
S1132D400895613023E0720720E0820720E09207B3
S1132D5048F423E030E040E050E00E9413262A9536
S1132D60F1F708959B01AC0182E05695479537959C
S1132D7027958A95D1F7DA01C901203060E036073A
S1132D8061E0460760E0560720F08FEF9FEFA0E078
S1132D90B0E0FC013197F1F7A0E0B0E0281B390B5B
S1132DA04A0B5B0B41F7089508958091FC029091C2
S1132DB0FD02A091FE02B091FF020196A11DB11D7A
S1132DC08093FC029093FD02A093FE02B093FF0255
S1132DD00895FC013796E491EE2321F426E08CEF6C
S1132DE093E003C028E088E094E0422F4150242F70
S1132DF0332727FD3095220F331F280F391F0EC0AC
S1132E00F90185919491225030408617970729F44F
S1132E10242F332727FD309505C0415047FFF0CFBD
S1132E202FEF3FEFC90108950F931F93CF93DF93C3
S1132E308C0124E06130720710F060E074E0EB0173
S1132E406115710521F4C1E0D0E001C02196C801EB
S1132E50BE010E94E9168F5F9F4FC1F3CE01DF913F
S1132E60CF911F910F9108959C010296FC01A591A9
S1132E70B4912A5F3F4FF9018491882319F02D9171
S1132E803C9103C08C91282F30E0C90108959C0126
S1132E900B96FC01A591B491235F3F4FF901249156
S1132EA070E0022E02C0660F771F0A94E2F781E0F9
S1132EB090E002C0880F991F2A95E2F7282F220F6D
S1132EC0282B9C91822F862320952923822B8C9357
S1132ED008959C010B96FC01A591B491235F3F4F8B
S1132EE0F901449121E030E0042E02C0220F331F87
S1132EF00A94E2F7822F880F822B2C91822390E090
S1132F0002C0959587954A95E2F70895FC01A5912D
S1132F10B4911296ED91FC911397309729F0149681
S1132F206D917C91159709950895FC01A591B49133
S1132F301696ED91FC911797309729F018966D919C
S1132F407C91199709950895FC01A591B491ED918F
S1132F50FC911197309729F012966D917C911397FB
S1132F600995089580913C030895909340038093BC
S1132F703F0308958F929F92AF92BF92CF92DF92B8
S1132F80EF92FF920F931F93CF93DF93982E892E86
S1132F905A016B01C82FD92F8981882341F4888174
S1132FA0181614F4888102C08881819589838881E8
S1132FB087FD08C0E0E2EE2EE1EAFE2EE7E00E2FE8
S1132FC0112D07C070E9E72E70EDF72E73E0072F7F
S1132FD0112D8A8180FF1DC08091390390913A039D
S1132FE00E94FF13882329F089E393E060E00E94A4
S1132FF089148981815089838981882339F460E81F
S1133000E62E64E8F62E6EE1062F112D8A818E7F5E
S11330100FC08091390390913A030E94FF138823D3
S113302029F089E393E06FEF0E9489148A8181601B
S11330308A838AEB97E1692D782DA60195010E9478
S11330403522DF91CF911F910F91FF90EF90DF9088
S1133050CF90BF90AF909F908F900895DF92EF92A2
S1133060FF920F931F93CF93DF939C01EB01FC011D
S1133070A591B4911A968C91398328832115310531
S113308039F41A821B821C821D821F821E82B1C0E7
S1133090843039F0893029F08B3019F08F3009F001
S11330A048C0F901779665917491DFB6F894A2E06F
S11330B0EA2EF12CE20EF31EF701A591B4918901D9
S11330C00A5F1F4FF8018491882319F04D915C9198
S11330D003C08C91482F50E08091410390914203AA
S11330E02817390729F080E090E0A0E0B0E008C09C
S11330F08091FC029091FD02A091FE02B091FF022A
S11331008A839B83AC83BD83F701A591B491F801B5
S11331108491882319F08D919C9102C08C9190E048
S11331209F838E838417950708F449C0CB010896C2
S113313042C0DFB6F894F2E0EF2EF12CE20EF31E5B
S1133140F701A591B49189010A5F1F4FF801849199
S1133150882319F04D915C9103C08C91482F50E065
S113316080914103909142032817390729F080E0A8
S113317090E0A0E0B0E008C08091FC029091FD02D4
S1133180A091FE02B091FF028A839B83AC83BD832E
S1133190F701A591B491F8018491882319F08D91D8
S11331A09C9102C08C9190E09F838E838417950735
S11331B030F0C9014C960E94B3128823C9F08A8169
S11331C09B81AC81BD810196A11DB11D8A839B8326
S11331D0AC83BD83F701A591B491F8018491882350
S11331E019F08D919C9102C08C9190E09F838E8305
S11331F0DFBEDF91CF911F910F91FF90EF90DF9091
S11332000895BC0180914103909142030E942E18BD
S113321008950F931F93DF93CF93CDB7DEB728970D
S11332200FB6F894DEBF0FBECDBF8E010F5F1F4FE8
S1133230B8010E942E18C8010E947D1A28960FB664
S1133240F894DEBF0FBECDBFCF91DF911F910F91D8
S1133250089580914103909142030E9409190895B1
S1133260DF92EF92FF920F931F93D82E80913C032D
S1133270882309F05BC0D0923C038091390390917C
S11332803A03892B99F08091410390914203892B51
S113329069F00E9429199B01AC018AEB97E16CE368
S11332A073E0EE24FF2487010E94352280913F03BE
S11332B0909140030097D1F10E94AC148C012D2D04
S11332C0332727FD3095D7FE16C000D000D00F92CB
S11332D0EDB7FEB7319681E0ADB7BEB711968C93CA
S11332E08DE394E09283818388279927821B930B33
S11332F09483838311C000D000D00F92EDB7FEB742
S1133300319681E0ADB7BEB711968C938EE294E00E
S113331092838183348323830E94CF150F900F906F
S11333200F900F900F90C8010E94AC141F910F9141
S1133330FF90EF90DF900895CF93DF93EC012296F6
S1133340FE01949122978CE2989FF0011124E85891
S1133350FD4FE491EE2371F0CE0103960E94C0125A
S1133360CE0160E00E944717FE01A591B4911D9221
S11333701C9203C08DEF0E943019DF91CF91089504
S1133380CF93DF939C012E5F3F4FF901849122502C
S113339030409CE2899FA001112440595D4F485F51
S11333A05F4FFA018491485050408823C1F0C9010D
S11333B00696FC01C591D491FA013696E491EE2368
S11333C019F0798368830EC06F3F710531F028F0DE
S11333D08EEF0E9430196FEF70E0688303C08DEFA9
S11333E00E943019DF91CF9108959C012E5F3F4FC9
S11333F0F9018491225030409CE2899FA00111245C
S113340040595D4F485F5F4FFA01849148505040E6
S1133410882389F0C9010696FC01A591B491FA01AB
S11334203696E491EE2319F02D913C9109C08C91CC
S1133430282F30E005C08DEF0E9430192FEF30E0C7
S1133440C9010895CF93DF93EC010496FC01A59183
S1133450B4918C9190E087709070892B09F441C0ED
S1133460FE01A591B4911A968C91873039F1883078
S113347070F4833019F1843028F48130C9F082303B
S1133480D0F413C08530A1F08630A8F41AC08B3074
S1133490C1F08C3018F48930E1F413C08E30C9F0D7
S11334A08F3079F08C30E9F414C02FEF3FEF1BC05C
S11334B02FEF30E018C02FEF31E015C02FEF33E0CD
S11334C012C0FE017796859194910E94F5199C0192
S11334D00AC0CE014F96FC01A591B4912D913C9167
S11334E002C020E030E02696FE018491882309F48E
S11334F03070C901DF91CF9108956F927F928F92BE
S11335009F92AF92BF92CF92DF92EF92FF920F936E
S11335101F93CF93DF938C01FC01808191810E94E2
S1133520221A3C0188249924F80120813181809158
S1133530410390914203A280B380C480D580C681A8
S1133540D7812817390701F5E090F802F090F902C5
S11335500091FA021091FB02C801B701A60195017E
S11335600E94CD255B016C01BE0180E090E0A801C2
S113357097010E94CD25A40193010E9413262A0DD0
S11335803B1D4C1D5D1D14C00894611C711C811CE5
S1133590911CC401B301A60195010E94CD259B0194
S11335A0AC01CE01A0E0B0E0280F391F4A1F5B1F19
S11335B0B901CA01DF91CF911F910F91FF90EF9054
S11335C0DF90CF90BF90AF909F908F907F906F903F
S11335D008954F925F926F927F928F929F92AF92D3
S11335E0BF92CF92DF92EF92FF920F931F93CF93EC
S11335F0DF938C010A5F1F4FF8018491065010403D
S1133600882331F42FEFA22EB12CC12CD12C06C06B
S11336109FEFA92E9FEFB92EC12CD12CC1E0D0E091
S113362081E0482E512CEE24FF243B018824992468
S1133630C801BE010E94E9168F5F9F4F59F0C40173
S1133640B301AE010E948716A616B706C806D906AE
S113365070F42E01CC0FDD1F0894E11CF11C2BE04B
S1133660E216F10429F788EF0E943019E201CE0135
S1133670DF91CF911F910F91FF90EF90DF90CF904A
S1133680BF90AF909F908F907F906F905F904F907E
S11336900895DF92EF92FF920F931F93CF93DF93DE
S11336A0EC017B01FC01349605911491DFB6F8948A
S11336B00E94E916AC018FEF4F3F580769F0FE01F5
S11336C0A591B491ED92FC92F8018081887F80836A
S11336D08081842B808303C08AEF0E943019DFBE6F
S11336E0DF91CF911F910F91FF90EF90DF9008959C
S11336F07F928F929F92AF92BF92CF92DF92EF927E
S1133700FF920F931F93CF93DF93EC01FC0132964A
S113371005911491FC01859094907FB6F8940496D9
S1133720FC01A591B4918C91887F8C9339E1A32EEF
S1133730B12CAC0EBD1EC5010E94C012F80110824E
S1133740F40160817181CE010E94491B2896FE011B
S1133750E4902F96FF2400E010E0FE01C590D49081
S1133760679709C0C601800F911F08960E94A7128F
S1133770F394005F1F4FFE14A8F3CE014C960E94F1
S1133780A712F40182819381892B19F0C5010E944B
S1133790A7127FBEDF91CF911F910F91FF90EF9001
S11337A0DF90CF90BF90AF909F908F907F900895BF
S11337B0DF92EF92FF920F931F93CF93DF938C01CD
S11337C0662341F0FC01A591B4911A968C91861759
S11337D009F47AC0F80139962591349181E090E09A
S11337E0062E02C0880F991F0A94E2F782239323BE
S11337F0892B09F466C0F801A591B4911A966C93CB
S1133800FFED2F3F3F0711F4D62E13C088E8233372
S1133810380731F4E62FF0E0E85EFB4FD49009C09E
S11338202333310509F04DC0E62FF0E0E85DFB4F8E
S1133830D490EFEFDE1609F444C0C8010496FC01ED
S1133840A591B4918C91887F8C93E8012B96EE24FA
S1133850FF24E881F98185919491892B99F0D0FE18
S113386004C0CE010E94A71203C0CE010E94C01260
S11338700894E11CF11CF4E0EF16F10419F0D6945D
S11338802396E7CF085F1F4FF801F490FA94015F85
S11338901F4FF801C591D491075110400CC08F2DD2
S11338A090E044E0880F991F4A95E1F78C0F9D1F23
S11338B00E949C19FA94F7FEF2CFC8010E94781B6B
S11338C003C086EF0E943019DF91CF911F910F91B1
S11338D0FF90EF90DF900895DF92EF92FF920F93A5
S11338E01F93F894FF24E0900A025CE2D52E1CC0DA
S11338F0FD9C8001112400591D4FC80160E070E057
S113390040E050E00E94441FC8010E94F21EC8011A
S113391060E00E94D81BC8010496FC01A591B491F3
S11339208C91887F8C93F394FE1410F378941F91F8
S11339300F91FF90EF90DF9008958F929F92AF9236
S1133940BF92CF92DF92EF92FF920F931F93CF9388
S1133950DF938C016B015A0149010E5F1F4FF8017F
S11339608491025010409CE2899FE0011124C059C7
S1133970DD4F2896FE01849128978823A1F1F80150
S1133980E590F4906115710541F0F7018081918112
S1133990892B19F08BEF0E943019CE01FE01A591FD
S11339A0B4916D917C910E94491BE8012396CE014C
S11339B00E94C012C801B5010E94C019F701D1824A
S11339C0C08293828282C80108960E94A712C11401
S11339D0D10461F0F4EDCF16F6E1DF0639F0CE0143
S11339E00E94A71203C08DEF0E943019DF91CF917E
S11339F01F910F91FF90EF90DF90CF90BF90AF9009
S1133A009F908F9008952F923F924F925F926F9262
S1133A107F928F929F92AF92BF92CF92DF92EF925A
S1133A20FF920F931F93DF93CF9300D000D0CDB7B5
S1133A30DEB7109242031092410300910A02015032
S1133A408CE208026001112420E732E0C20ED31E8A
S1133A50AA24BB24222433241A82198252C0C60108
S1133A600496FC01A591B4918C9190E087709070BC
S1133A70892B09F041C0DBC028E030E0C20ED31E20
S1133A80F601849128EF3FEFC20ED31E8230A0F1DD
S1133A903FEF2316310469F060F086E090E0C80E31
S1133AA0D91EF60184912AEF3FEFC20ED31E88235C
S1133AB019F1C6016CE070E00E94E91AF82EE92EB3
S1133AC06CE070E080E090E04F2D5E2D0E94871640
S1133AD09B01AC01A114B10441F0C101A0E0B0E02C
S1133AE082179307A407B50738F4190156018F2DDF
S1133AF09E2D9C013A832983015084ED9FEFC80ECB
S1133B00D91E07FFACCFA114B10409F487C0E6E0C5
S1133B10F0E0AE0EBF1EF50184912AEF3FEFA20E36
S1133B20B31E882331F4EFEFCE2ED12CE12CF12CEF
S1133B3006C07FEFC72E7FEFD72EE12CF12C6CE06F
S1133B40862E912C21016624772461E070E080E0C8
S1133B5090E049815A810E9487166F5F7F4F8F4F93
S1133B609F4F640D751D861D971D6C157D058E0573
S1133B709F0528F5C40101969C838B83C5016B8145
S1133B807C810E94E91A8C01EB81FC81BF0180E0F9
S1133B9090E0A8010E94871629813A810217130731
S1133BA071F4C616D706E806F90648F04616570615
S1133BB06806790620F41B018B809C80C3CFB092E9
S1133BC04203A0924103B40180E090E028EE33E088
S1133BD040E050E00E94CD256093F8027093F90212
S1133BE08093FA029093FB02C50169817A810E9455
S1133BF0491B809141039091420364E00E94D81BC9
S1133C00E0914103F091420377968591949165ED9B
S1133C1076E1A10120E030E00E949D1C80913C03EC
S1133C20882361F010923C030E94301907C0F6010A
S1133C3039968591949184FD1FCF5ECF0F900F909C
S1133C400F900F90CF91DF911F910F91FF90EF9004
S1133C50DF90CF90BF90AF909F908F907F906F90A8
S1133C605F904F903F902F9008958F929F92AF92C4
S1133C70BF92CF92DF92EF92FF920F931F93CF9355
S1133C80DF936B017C0149015A01E8010E94291963
S1133C906C197D098E099F0986169706A806B90630
S1133CA050F4681979098A099B09688379838A839E
S1133CB09B838FEF09C0861A970AA80AB90A8882DB
S1133CC09982AA82BB8280E0DF91CF911F910F91EC
S1133CD0FF90EF90DF90CF90BF90AF909F908F9028
S1133CE00895AF92BF92CF92DF92EF92FF920F931B
S1133CF01F935B016C010E9429197B018C0101C097
S1133D0000000E9429196E197F09800B910B6A1516
S1133D107B058C059D05A0F31F910F91FF90EF90FB
S1133D20DF90CF90BF90AF90089528EE33E040E04D
S1133D3050E00E94CD250E94711E08959B01AC01A4
S1133D408091410390914203892B29F0CA01B90162
S1133D500E94951E0895CA01B90141E050E00E94F5
S1133D6087160E94A11608959B01AC01809141031E
S1133D7090914203892B51F02536310541055105B7
S1133D8028F0CA01B9010E94711E0895CA01B9013F
S1133D9048EE53E00E9487160E94A1160895AF9240
S1133DA0BF92CF92DF92EF92FF920F931F937B010A
S1133DB08C0159016A010E9429196E197F09800B2F
S1133DC0910B6A157B058C059D0510F480E001C0FC
S1133DD08FEF1F910F91FF90EF90DF90CF90BF90E6
S1133DE0AF900895EF92FF920F931F938C01FC0103
S1133DF0E590F49081960E94C012C80184960E94B6
S1133E00A712F701178216821F910F91FF90EF906E
S1133E100895AF92BF92CF92DF92EF92FF920F93E9
S1133E201F93CF93DF938C017B016A01B22EFC01B7
S1133E30C591D4918E819F81892B19F08AEE0E94BD
S1133E403019AFB6F894FF82EE82D986C886C801CD
S1133E508796BB2019F00E94A71202C00E94C012CC
S1133E60C80184960E94A712C80181960E94A712D5
S1133E70AFBEDF91CF911F910F91FF90EF90DF9034
S1133E80CF90BF90AF900895DF92EF92FF920F937F
S1133E901F93CF93DF93EC018B017A01DFB6F89483
S1133EA06115710561F0FC01A591B49112968D9193
S1133EB09C911397892B19F08CEF0E943019CE0135
S1133EC0FE01A591B49113961C930E931297159627
S1133ED0FC92EE9214974996012B19F00E94A712B6
S1133EE002C00E94C012DFBEDF91CF911F910F91DB
S1133EF0FF90EF90DF900895BF92CF92DF92EF9200
S1133F00FF920F931F93CF93DF937A018B01EC0100
S1133F10BFB6F8944F3F8FEF58078FEF68078FEFC6
S1133F20780721F4A1E0CA2ED12C24C0CB01BA0118
S1133F30F3E0660F771F881F991FFA95D1F7209138
S1133F400002309101024091020250910302620F7B
S1133F50731F841F951FA8019701E4E0220F331FEC
S1133F60441F551FEA95D1F70E941326690108944E
S1133F70C108D1089CA19923C9F1E88DF98D8081EC
S1133F809095892380838FEFE8168FEFF8068FEFE3
S1133F9008078FEF180719F421E030E01DC032E064
S1133FA0EE0CFF1C001F111F3A95D1F7609100021F
S1133FB07091010280910202909103026E0D7F1DA7
S1133FC0801F911FEE0CFF1C001F111FA8019701F9
S1133FD00E941326215030402C153D0538F0E88D01
S1133FE0F98D80819CA1892B80836901EC8DFD8DE5
S1133FF0C082EE8DFF8DD082BFBEDF91CF911F9125
S11340000F91FF90EF90DF90CF90BF900895DC0167
S11340105A96ED91FC915B97808187728083949688
S11340209C919497992341F05896ED91FC9159975E
S113403080819095892380830895DC0153968C9127
S11340405397882371F05A96ED91FC915B97808188
S1134050877B80835A96ED91FC915B978081806980
S113406080830895DC019096ED91FC919197608393
S11340700895DC0153968C915397882371F05A96D6
S1134080ED91FC915B9780818F7680835A96ED91B8
S1134090FC915B978081886480830895DC015A9643
S11340A0ED91FC915B97662319F080818F7702C0B4
S11340B08081806880830895DC015896ED91FC919D
S11340C05997808187FD03C02FEF3FEF07C090967B
S11340D0ED91FC9191978081282F30E0C9010895DA
S11340E0CF93DF93EC010E94A0108B89882311F0F9
S11340F020E90CC08B859C85892B11F020E901C037
S113410020E08D859E85892B09F02864EA8DFB8D3E
S11341102083DF91CF910895EAE7F0E08081877FE3
S1134120808380818F7780830895EAE7F0E090812F
S11341308770987F892B80830895982F85FF04C00A
S113414080917B00886003C080917B00877F80938F
S11341507B0080917C009F71807E892B80937C0002
S11341601092430380917A00806180937A00809159
S11341707A00806480937A0080917A0086FDFCCF77
S11341802091780030917900C90108950E949D2002
S1134190969587959695879508951F920F920FB6D9
S11341A00F9211248F938FEF809343038F910F907D
S11341B00FBE0F901F901895EF92FF920F931F93CD
S11341C0CF93DF9380917A00806880937A00809106
S11341D07A008F7D80937A0080917A00887F866050
S11341E080937A0080917C008F73806480937C003C
S11341F080917C008F7D80937C0080917A00886020
S113420080937A008FEF80934303789480913002F7
S1134210C82FD0E0219700E010E07E010FC0C70155
S1134220801B910B089724F09E01285E822F01C009
S11342308C2F0E949D2021970F5F1F4F3FEFCF3F90
S1134240D30769F7DF91CF911F910F91FF90EF9002
S113425008952F923F924F925F926F927F928F9226
S11342609F92AF92BF92CF92DF92EF92FF920F9301
S11342701F93DF93CF93CDB7DEB729970FB6F8948A
S1134280DEBF0FBECDBF998788870E949C192FB7C8
S11342902F8378948FEF8093470310924603809185
S11342A00802A82FB0E01197BE83AD83EDE0F0E0E3
S11342B0AE9F5001AF9FB00CBE9FB00C112420E004
S11342C033E0A20EB31E2224332421015AC0D501A7
S11342D08C91882309F44CC019966D907D908D9033
S11342E09C901C971596CD90DD90ED90FC901897BE
S11342F0C401B301A70196018E010F5F1F4F0E94F5
S1134300351E882319F1D5011196ED91FC91129770
S113431013968D919C9114971C9220914403309193
S11343204503215030403093450320934403C60C89
S1134330D71CE81CF91C09811A812B813C81B70127
S1134340A6010995BFEFB093460312C021143104AE
S11343504104510449F089819A81AB81BC81821561
S11343609305A405B50520F429803A804B805C8030
S1134370ED81FE813197FE83ED8323EF3FEFA20EA3
S1134380B31E8D819E818F5F9F4F09F0A0CF8091D6
S11343904603882309F081CF109247038091440398
S11343A090914503181619060CF044C0F09041038F
S11343B0E0904203EF2DFE2D059114912091060209
S11343C03091070240E050E0C201B1010E94CD25C6
S11343D0F8012081318140E050E00E941326590108
S11343E06A018F2D9E2D0E94221A7C0100E010E0AC
S11343F0AE14BF04C006D10610F486017501809185
S11344004103909142030E94221A8C01809141033E
S1134410909142030E9434178E0D9F1DB8010E9493
S1134420EC25AC018885998569E271E220E030E0F1
S11344300E949D1CFF81FFBF29960FB6F894DEBF32
S11344400FBECDBFCF91DF911F910F91FF90EF90E1
S1134450DF90CF90BF90AF909F908F907F906F90A0
S11344605F904F903F902F9008952F923F924F92DC
S11344705F926F927F928F929F92AF92BF92CF92F0
S1134480DF92EF92FF920F931F93DF93CF9300D0AD
S113449000D0CDB7DEB71C012B0149015A016701D9
S11344A0780188EEC81683E0D80680E0E80680E04C
S11344B0F80638F4809147038823C1F18FEF809385
S11344C046036FB7F89480910802482F50E0A0E0AB
S11344D0B3E020E030E020C0FD018C911D968823DC
S11344E0C9F48FEF80833282218254824382818691
S11344F09286A386B486C582D682E782F0868091AE
S1134500440390914503019690934503809344039B
S11345108FEF06C02F5F3F4F24173507ECF280E082
S11345206FBF882359F58FEF0E9430193E0108941C
S1134530611C711CC501B401A701960183010E948D
S1134540351E8823B9F3C80CD91CEA1CFB1C09814D
S11345501A812B813C81C201B701A601F1010995A1
S113456011C0E0914103F0914203779685919491B3
S1134570409660E070E00E94292104C080914703C6
S1134580882379F30F900F900F900F90CF91DF91C4
S11345901F910F91FF90EF90DF90CF90BF90AF905D
S11345A09F908F907F906F905F904F903F902F904F
S11345B00895F8940C9456265058BB27AA270ED079
S11345C0E3C1D4D130F0D9D120F031F49F3F11F4BC
S11345D01EF493C10EF4E095E7FB89C1E92FE5D100
S11345E080F3BA17620773078407950718F071F40C
S11345F09EF5FDC10EF4E0950B2EBA2FA02D0B01F4
S1134600B90190010C01CA01A0011124FF27591B13
S113461099F0593F50F4503E68F11A16F040A22F19
S1134620232F342F4427585FF3CF4695379527958A
S1134630A795F0405395C9F77EF41F16BA0B620B89
S1134640730B840BBAF09150A1F0FF0FBB1F661FD0
S1134650771F881FC2F70EC0BA0F621F731F841F13
S113466048F4879577956795B795F7959E3F08F039
S1134670B3CF9395880F08F09927EE0F97958795F8
S113468008959F939F77EEE389379E0720F4E4EE25
S1134690F0E05BD109C0ECD09058A2EA2AED3FE0EB
S11346A049EC5FE39BDF70D10F9007FC90580895AD
S11346B0FAD008F481E008950CD066C15ED140F0D0
S11346C055D130F021F45F3F19F011C1511190C15F
S11346D014C16BD198F39923C9F35523B1F3951BF6
S11346E0550BBB27AA2762177307840738F09F5F0F
S11346F05F4F220F331F441FAA1FA9F333D00E2E7E
S11347003AF0E0E830D091505040E695001CCAF7EA
S113471029D0FE2F27D0660F771F881FBB1F2617AF
S113472037074807AB07B0E809F0BB0B802DBF0182
S1134730FF2793585F4F2AF09E3F510568F0D7C07A
S113474057C15F3FECF3983EDCF386957795679508
S1134750B795F7959F5FC9F7880F911D9695879533
S113476097F90895E1E0660F771F881FBB1F621752
S113477073078407BA0720F0621B730B840BBA0B10
S1134780EE1F88F7E095089504D06894B11130C104
S1134790089513D188F09F5790F0B92F9927B751F6
S11347A0A0F0D1F0660F771F881F991F1AF0BA95F1
S11347B0C9F712C0B13081F01AD1B1E0089517C120
S11347C0672F782F8827B85F39F0B93FCCF38695E7
S11347D077956795B395D9F73EF490958095709544
S11347E061957F4F8F4F9F4F0895E89409C097FBC1
S11347F03EF490958095709561957F4F8F4F9F4FB4
S11348009923A9F0F92F96E9BB279395F6958795F7
S113481077956795B795F111F8CFFAF4BB0F11F4BA
S113482060FF1BC06F5F7F4F8F4F9F4F16C0882361
S113483011F096E911C0772321F09EE8872F762F97
S113484005C0662371F096E8862F70E060E02AF0D8
S11348509A95660F771F881FDAF7880F96958795C4
S113486097F90895DBD09701A801AA27B7DE8CC079
S1134870DF93CF931F930F938B01EC01E8EFF0E0EC
S11348803FD082D09801AE018B01EC0160E070E072
S113489080E89FE391DE1DD19801AE010F911F9135
S11348A0CF91DF91BBC0990F0008550FAA0BE0E828
S11348B0FEEF16161706E807F907C0F012161306DE
S11348C0E407F50798F0621B730B840B950B39F41E
S11348D00A2661F0232B242B252B21F408950A2684
S11348E009F4A140A6958FEF811D811D089597F9C4
S11348F09F6780E870E060E008959FEF80EC089582
S1134900DF93CF931F930F93FF92EF92DF927B017C
S11349108C01689405C0DA2EEF0180D0FE01E89482
S1134920A5912591359145915591AEF3EF0156DE50
S1134930FE019701A801DA9479F7DF90EF90FF90D8
S11349400F911F91CF91DF9108959F938F937F9340
S11349506F93FF93EF939B01AC0154D0EF91FF91C0
S1134960CFDF2F913F914F915F914CC000240A9467
S11349701616170618060906089500240A94121636
S11349801306140605060895092E0394000C11F469
S1134990882352F0BB0F40F4BF2B11F460FF04C016
S11349A06F5F7F4F8F4F9F4F089557FD9058440F6F
S11349B0551F59F05F3F71F04795880F97FB991F7A
S11349C061F09F3F79F08795089512161306140637
S11349D0551FF2CF4695F1DF08C0161617061806C4
S11349E0991FF1CF86957105610508940895E8949F
S11349F0BB2766277727CB0197F9089554DF08F47E
S1134A008FEF08950BD0C0CFB1DF28F0B6DF18F0D8
S1134A10952309F06CCF71CF1124EACFC6DFA0F340
S1134A20959FD1F3950F50E0551F629FF001729F3F
S1134A30BB27F00DB11D639FAA27F00DB11DAA1F5E
S1134A40649F6627B00DA11D661F829F2227B00DAB
S1134A50A11D621F739FB00DA11D621F839FA00D36
S1134A60611D221F749F3327A00D611D231F849F86
S1134A70600D211D822F762F6A2F11249F575040DD
S1134A808AF0E1F088234AF0EE0FFF1FBB1F661F78
S1134A90771F881F91505040A9F79E3F510570F031
S1134AA026CFA6CF5F3FECF3983EDCF3869577954F
S1134AB06795B795F795E7959F5FC1F7FE2B880F2C
S1134AC0911D9695879597F9089511F40EF415CFD5
S1134AD04DC073DFD0F39923D9F3CEF39F57550B11
S1134AE087FF54D056959795B0E020F4660F771F52
S1134AF0881FBB1F1F930F9300249001A001800106
S1134B00F001A0E80E0F1F1F0A1E511D601B710B40
S1134B108009B50B48F4600F711F801DB51F0E1B73
S1134B201F0B0A0A510907C02E0F3F1F4A1F0E0F01
S1134B301F1F0A1E511D660F771F881FBB1FA695D6
S1134B40F795E795F8F60617170708065B07211D82
S1134B50311D411D0F911F91B901842F9158880F68
S1134B609695879508959B01AC014CCF9F3F49F0E2
S1134B70915028F4869577956795B7959F5F80380F
S1134B809F4F880F9695879597F9089591505040B7
S1134B90660F771F881FD2F70895629FD001739F15
S1134BA0F001829FE00DF11D649FE00DF11D929FC5
S1134BB0F00D839FF00D749FF00D659FF00D992704
S1134BC0729FB00DE11DF91F639FB00DE11DF91F28
S1134BD0BD01CF0111240895AA1BBB1B51E107C0DD
S1134BE0AA1FBB1FA617B70710F0A61BB70B881F79
S1134BF0991F5A95A9F780959095BC01CD01089508
S1134C0097FB092E07260AD077FD04D0E5DF06D0EE
S1134C1000201AF4709561957F4F0895F6F79095EA
S1134C2081959F4F0895A1E21A2EAA1BBB1BFD017B
S1134C300DC0AA1FBB1FEE1FFF1FA217B307E40777
S1134C40F50720F0A21BB30BE40BF50B661F771FCF
S1134C50881F991F1A9469F76095709580959095AF
S1134C609B01AC01BD01CF01089597FB092E0526D8
S1134C700ED057FD04D0D7DF0AD0001C38F450956D
S1134C804095309521953F4F4F4F5F4F0895F6F76C
S1134C9090958095709561957F4F8F4F9F4F0895A4
S1134CA0EE0FFF1F0590F491E02D0994F894FFCFC7
S1134CB00024F400803E10000407060000000000F9
S1134CC000005104FFFF41014401E106D206000047
S1134CD0000000C800C900CC00CD00CE00000002D6
S1134CE0105301DB0300000000000000000000007E
S1134CF018FCE80318FCE80318FCE803000102E3CD
S1134D000300000000000000000000000304000095
S10F4D10000000008E420083007DAB1404
S9030000FC
