:100000000C9472000C948F000C948F000C948F0051
:100010000C948F000C948F000C948F000C948F0024
:100020000C948F000C948F000C948F000C948F0014
:100030000C948F000C948F000C948F000C948F0004
:100040000C948F000C9485110C948F000C948F00ED
:100050000C948F000C948F000C948F000C948F00E4
:100060000C948F000C948F000C948F000C948F00D4
:100070000C948F000C948F000C948F000C948F00C4
:100080000C948F000C948F000C948F000C948F00B4
:100090000C948F000C948F000C948F000C948F00A4
:1000A0000C948F000C948F000C948F000C948F0094
:1000B0000C948F000C948F000C948F000C948F0084
:1000C0000C948F000C948F000C948F000C948F0074
:1000D0000C948F000C948F000C948F000C948F0064
:1000E0000C948F0011241FBECFEFD1E2DEBFCDBF35
:1000F00012E0A0E0B2E0ECECF4E202C005900D9258
:10010000A23BB107D9F719E0A2EBB2E001C01D9202
:10011000A532B107E1F70E94D3030C9464120C944A
:100120000000893049F480918000826080938000D3
:10013000809180008E7F0EC08A3021F480918000F3
:10014000826003C0809180008D7F809380008091C9
:10015000800081608093800010928B0010928A0052
:100160000895893049F48091B00082608093B00096
:100170008091B0008E7F0EC08A3021F48091B00053
:10018000826003C08091B0008D7F8093B000809129
:10019000B00081608093B0001092B400089589305F
:1001A00049F480919000826080939000809190004B
:1001B0008E7F0EC08A3021F480919000826003C04F
:1001C000809190008D7F809390008091900081605D
:1001D00080939000109299001092980008958930B1
:1001E00049F4809191008260809391008091910008
:1001F0008E7F0EC08A3021F480919100826003C00E
:10020000809191008D7F8093910080919100816019
:100210008093910010929B0010929A00089589306B
:1002200049F48091920082608093920080919200C4
:100230008E7F0EC08A3021F480919200826003C0CC
:10024000809192008D7F80939200809192008160D6
:100250008093920010929D0010929C000895893026
:1002600049F48091A00082608093A0008091A0005A
:100270008E7F0EC08A3021F48091A000826003C07E
:100280008091A0008D7F8093A0008091A00081606C
:100290008093A0001092A9001092A80008958930C0
:1002A00049F48091A10082608093A1008091A10017
:1002B0008E7F0EC08A3021F48091A100826003C03D
:1002C0008091A1008D7F8093A1008091A100816029
:1002D0008093A1001092AB001092AA00089589307B
:1002E00049F48091A00082608093A0008091A000DA
:1002F0008E7F0EC08A3021F48091A000826003C0FE
:100300008091A0008D7F8093A0008091A0008160EB
:100310008093A0001092AD001092AC000895E0E828
:10032000F0E020812E7F2083208122602083E1E87D
:10033000F0E0208128602083208120612083909339
:100340008700809386001092890010928800109296
:100350008B0010928A0010928D0010928C000895EC
:10036000E0E9F0E020812E7F20832081226020833D
:10037000E1E9F0E020812860208320812061208352
:100380009093970080939600109299001092980095
:1003900010929B0010929A0010929D0010929C0067
:1003A0000895E0EAF0E020812E7F20832081226002
:1003B0002083E1EAF0E02081286020832081206111
:1003C00020839093A7008093A6001092A90010921A
:1003D000A8001092AB001092AA001092AD001092EB
:1003E000AC000895E0E8F0E0808180628083808145
:1003F0008F7E80830895E0EBF0E0808180628083CF
:1004000080818F7E80830895E0E9F0E080818068BC
:10041000808380818F7B80830895E0E9F0E0808194
:100420008062808380818F7E80830895E0E9F0E0A0
:1004300080818860808380818B7F80830895E0EA5B
:10044000F0E080818068808380818F7B8083089545
:10045000E0EAF0E080818062808380818F7E80830B
:100460000895E0EAF0E080818860808380818B7F5E
:1004700080830895E0E8F0E080818F7D8083808133
:100480008F7E80830895E0EBF0E080818F7D808314
:1004900080818F7E80830895E0E9F0E080818F770E
:1004A000808380818F7B80830895E0E9F0E0808104
:1004B0008F7D808380818F7E80830895E0E9F0E0E6
:1004C0008081877F808380818B7F80830895E0EAAD
:1004D000F0E080818F77808380818F7B8083089597
:1004E000E0EAF0E080818F7D808380818F7E808351
:1004F0000895E0EAF0E08081877F808380818B7FB0
:1005000080830895E0E8F0E080818D7F80838081A2
:100510008E7F808380818F7D808380818F7E8083AA
:100520000895E0EBF0E080818D7F808380818E7F75
:10053000808380818F7D808380818F7E80830895FA
:10054000E0E9F0E080818D7F808380818E7F8083F1
:1005500080818F77808380818F7B808380818F7D76
:10056000808380818F7E80838081877F808380816C
:100570008B7F80830895E0EAF0E080818D7F808327
:1005800080818E7F808380818F77808380818F7B45
:10059000808380818F7D808380818F7E8083808136
:1005A000877F808380818B7F8083089590938B00E9
:1005B00080938A0008958093B400089590939900E1
:1005C00080939800089590939B0080939A000895DB
:1005D00090939D0080939C0008959093A900809330
:1005E000A80008959093AB008093AA00089590937B
:1005F000AD008093AC00089510BA11BA10920701B3
:10060000109208019FEF91B980E484B997B9589A84
:10061000599A83EF8AB98EEF8DB9A59A9D988093E8
:10062000010180930401089508952E9A08952E984B
:10063000089522B330E085E0369527958A95E1F755
:100640002095309521703070C901089597FD10C034
:1006500025E030E040E050E00E941312DA01C901C9
:10066000880F991F815F9D4FFC012081318117C048
:1006700025E030E040E050E00E941312DA01C901A9
:10068000885B9F4FAF4FBF4F880F991F815F9D4F72
:10069000FC018081918122273327281B390BC90156
:1006A00008956A5570408040904097FD10C025E045
:1006B00030E040E050E00E941312DA01C901880FD7
:1006C000991F815F9D4FFC012081318117C025E07A
:1006D00030E040E050E00E941312DA01C901885B6B
:1006E0009F4FAF4FBF4F880F991F815F9D4FFC01F8
:1006F0008081918122273327281B390BC901089556
:10070000CF92DF92EF92FF920F931F936B017C01C8
:100710008AE5C816D104E104F104A1F186EAC816FD
:100720008FEFD8068FEFE8068FEFF80659F18EE0CD
:10073000C81681E0D80680E0E80680E0F80611F1EE
:1007400082EFC8168EEFD8068FEFE8068FEFF80617
:10075000C9F0C701B6010E9451038C01C701B6015F
:100760000E942603BC01C8010E940012CB019B011C
:1007700073E0220F331F7A95E1F7880F991F280F36
:10078000391F02C020E030E0C9011F910F91FF9096
:10079000EF90DF90CF9008952E98FECF2E9AFECF47
:1007A0000E94D10E0895AF92BF92CF92DF92EF9246
:1007B000FF920F9380E090E02E98019627E280311F
:1007C0009207D1F78CEC93E060E072E044E650E0F1
:1007D00020E030E001E0EE24FF24CC24DD24AA2434
:1007E000BB240E9407098EEC93E067E072E044E6C8
:1007F00050E020E030E00E9407090E94250A80E0D6
:1008000090E00F91FF90EF90DF90CF90BF90AF906E
:1008100008958FEF8093A10281B98091A10282B9DE
:1008200008951F93282F8830E8F481E090E002C0FB
:10083000880F991F2A95E2F7182F0E94CE05809104
:10084000A102812329F08091A1021095182303C0F1
:100850008091A102182B1093A1028091A10282B96C
:100860000E945F071F9108950F931F93282F062F53
:100870008830D8F481E090E002C0880F991F2A9553
:10088000E2F7182F0E94CE05013029F48091A102D1
:100890001095182303C08091A102182B1093A10278
:1008A0008091A10282B90E945F071F910F91089564
:1008B00090E08091B202882309F491E0892F089595
:1008C000F5E00F2EF6E01F2EF7E02F2EF8E03F2E7A
:1008D000F9E04F2EFAE05F2EFBE06F2EFCE07F2E5A
:1008E000FDE08F2EFEE09F2EFFE0AF2EF0E1BF2E49
:1008F000F1E1CF2EF2E1DF2EF3E1EF2EF4E1FF2E56
:1009000005E116E127E138E149E15AE16BE17CE1DB
:100910008DE19EE1AFE1B0E2E1E2F5E0F01100929D
:10092000B202F6E0F1110092B202F7E0F211009289
:10093000B202F8E0F3110092B202F9E0F411009271
:10094000B202FAE0F5110092B202FBE0F611009259
:10095000B202FCE0F7110092B202FDE0F811009241
:10096000B202FEE0F9110092B202FFE0FA11009229
:10097000B202F0E1FB110092B202F1E1FC1100922F
:10098000B202F2E1FD110092B202F3E1FE11009217
:10099000B202F4E1FF110092B202F5E1F01300920D
:1009A000B202F6E1F1130092B202F7E1F213009203
:1009B000B202F8E1F3130092B202F9E1F4130092EB
:1009C000B202FAE1F5130092B202FBE1F6130092D3
:1009D000B202FCE1F7130092B202FDE1F8130092BB
:1009E000B202FEE1F9130092B202FFE1FA130092A3
:1009F000B202F0E2FB130092B202F1E2FE130092A7
:100A0000B2025ECFF1E00F2EF2E01F2EF3E02F2EA8
:100A1000F4E03F2EF5E04F2EF6E05F2EF7E06F2E6C
:100A2000F8E07F2EF9E08F2EFAE09F2EFBE0AF2E4C
:100A3000FCE0BF2EFDE0CF2EFEE0DF2EFFE0EF2E2C
:100A4000F0E1FF2E01E112E123E134E145E156E15D
:100A500067E178E189E19AE1ABE1BCE1EDE1F1E048
:100A6000F0110092B202F2E0F1110092B202F3E052
:100A7000F2110092B202F4E0F3110092B202F5E03A
:100A8000F4110092B202F6E0F5110092B202F7E022
:100A9000F6110092B202F8E0F7110092B202F9E00A
:100AA000F8110092B202FAE0F9110092B202FBE0F2
:100AB000FA110092B202FCE0FB110092B202FDE0DA
:100AC000FC110092B202FEE0FD110092B202FFE0C2
:100AD000FE110092B202F0E1FF110092B202F1E1C8
:100AE000F0130092B202F2E1F1130092B202F3E1CC
:100AF000F2130092B202F4E1F3130092B202F5E1B4
:100B0000F4130092B202F6E1F5130092B202F7E19B
:100B1000F6130092B202F8E1F7130092B202F9E183
:100B2000F8130092B202FAE1F9130092B202FBE16B
:100B3000FA130092B202FCE1FB130092B202FDE153
:100B4000FE130092B2025ECFAF92BF92CF92DF92BD
:100B5000EF92FF920F9380E694E062EA72E045E53F
:100B600050E020E030E000E0EE24FF24CC24DD243F
:100B7000AA24BB240E94070982E095E067EA72E09C
:100B800045E550E020E030E00E9407090F91FF901A
:100B9000EF90DF90CF90BF90AF9008958091B90211
:100BA0008F5F8093B90208950FB6F8940F92209149
:100BB000B7023091B8020F900FBEC901089580911D
:100BC000BC0208958091B902882351F081E080939E
:100BD000B50208958091BA0281508093BA0201C093
:100BE00099E0E091BA02E99FF0011124EF53FD4F23
:100BF0008081882379F39091BA0289E0989FD0018F
:100C00001124AF53BD4F1196ED91FC9112970280C4
:100C1000F381E02D1296FC93EE931197CD0103968C
:100C2000E817F90731F48281938112969C938E9391
:100C300011971196ED91FC9112978681978190936F
:100C4000B4028093B3020895FC018091B6028083C0
:100C50008091B7029091B802928381830895FC013C
:100C6000DB010FB6F8940F929091B602808198172D
:100C700049F02091B7023091B80281819281281702
:100C8000390718F58091B7029091B802218132811D
:100C90004D915C911197821B930B84179507A8F4D3
:100CA0008091B7029091B802281B390B240F351F91
:100CB0002D933C938091B60280838091B7029091EE
:100CC000B8029283818380E001C081E00F900FBE63
:100CD000089581E08093B50208950F931F93CF93F9
:100CE000DF93FC018081882319F4C0E0D0E005C0C7
:100CF0000580F681E02DC681D7818E01045F1F4FEC
:100D0000C8010E947E0E8091B9028823A1F48E0151
:100D10000E5F1F4FC8010E947E0E9E898091BA020D
:100D2000891710F49093BA0289E0989FC0011124AA
:100D30008F539D4F02C08BEF92E0B8010E94200EAE
:100D4000E091B302F091B40220E09E898689981761
:100D500008F021E0822FDF91CF911F910F9108952C
:100D6000FF920F931F93CF93DF938091B902882353
:100D700009F061C08091B7029091B80201969093FA
:100D8000B8028093B7028091B7029091B802892B84
:100D9000E9F58091F7029091F8022091F9023091E3
:100DA000FA023093F8022093F7029093FA028093AC
:100DB000F9028091B6028F5F8093B60227C020911E
:100DC000B7023091B8028A819B8128173907C0F198
:100DD0008E010E5F1F4FC8010E947E0E8C899D8977
:100DE000892B21F0CE010C960E947E0E9E89809167
:100DF000BA02891710F49093BA029F9DC001112482
:100E00008F539D4FB8010E94200E02C089E0F82E3A
:100E1000E091F702F091F8028081882389F0E09157
:100E2000F702F091F8020580F681E02DC681D781A6
:100E3000209729F605C08091BB028F5F8093BB028B
:100E4000DF91CF911F910F91FF9008950F931F9302
:100E50008B016091B3027091B402645F7F4F0E9476
:100E6000490E8091B3029091B40202960E947E0EC8
:100E70008091B7029091B802800F911FE091B30268
:100E8000F091B402938382832091B7023091B8022B
:100E90008217930728F48091F9029091FA0204C016
:100EA0008091F7029091F8026091B3027091B402C0
:100EB0006E5F7F4F0E94490E1F910F910895CF9250
:100EC000DF92FF920F931F93DF93CF930F92CDB7D3
:100ED000DEB70FB6F8940F928091B90281508093DB
:100EE000B9028091B902882309F05BC08091BC02ED
:100EF000882309F456C0198299E0F92E27C0C6014B
:100F00000C960E947E0E86010E5F1F4FC8010E9444
:100F10007E0ED60156969C918091BA02891710F4E4
:100F20009093BA029F9DC00111248F539D4FB80129
:100F30000E94200EE091B302F091B402D6015696C1
:100F40009C918689981710F0B1E0B9838091FB02DB
:100F5000882349F0E0910003F0910103C680D78017
:100F6000C114D10461F68091BB02882341F40CC006
:100F70000E94B0068091BB0281508093BB02809199
:100F8000BB028823A9F707C0E981E13021F08091F5
:100F9000B502813031F41092B5020E94881181E0CF
:100FA00001C080E00F900FBE0F90CF91DF911F9195
:100FB0000F91FF90DF90CF9008950F931F939C01A6
:100FC0000097A1F18091B9028F5F8093B9020091DF
:100FD000B7021091B802020F131F8091B3029091D3
:100FE000B40202960E947E0EE091B302F091B40228
:100FF000138302838091B7029091B80208171907F2
:1010000028F48091F9029091FA0204C08091F702CD
:101010009091F8026091B3027091B4026E5F7F4FBD
:101020000E94490E0E945F07882311F40E948811D4
:101030001F910F910895CF93DF93FC01EB018091F5
:10104000B9028F5F8093B90220813181C20FD31F13
:101050008091B7029091B8028217930728F4C217C3
:10106000D30728F020E00CC0C217D30740F08091CE
:10107000B7029091B80220E08C179D0708F421E098
:10108000D183C083222329F18091B3029091B402CD
:1010900002960E947E0EE091B302F091B402D383D7
:1010A000C2838091B7029091B802C817D90728F47B
:1010B0008091F9029091FA0204C08091F702909118
:1010C000F8026091B3027091B4026E5F7F4F0E948C
:1010D000490E0E945F07882311F40E948811DF9156
:1010E000CF910895EF92FF920F931F93CF93DF93C9
:1010F0008C010FB6F8940F928091B3029091B402D4
:101100000817190719F400E010E003C001151105D4
:1011100029F4C091B302D091B40201C0E80122E0E9
:10112000E22EF12CEC0EFD1EC7010E947E0E8C8972
:101130009D89892B21F0CE010C960E947E0E84E0C1
:1011400093E0B7010E94200E8091BE028F5F8093D2
:10115000BE028091BF028F5F8093BF020F900FBECF
:101160008091BD02882321F0012B11F40E94881187
:10117000DF91CF911F910F91FF90EF900895F89418
:101180001092BD020E94291108951F93CF93DF93FF
:101190008091BE02882391F18091B9028F5F809384
:1011A000B902109104030E945F07112339F10FB6B1
:1011B000F8940F9280910403882319F4C0E0D0E0E2
:1011C00006C0E0910903F0910A03C681D781CE01E0
:1011D00002960E947E0E8091BC0281508093BC02D8
:1011E0008091BE0281508093BE020F900FBE8F8906
:1011F000988D0E947010CE010E9470108091C102E3
:10120000823010F00E9488110E94D003C1CF2F922B
:101210003F924F925F927F928F929F92AF92BF9236
:10122000CF92DF92EF92FF920F931F93DF93CF93B2
:1012300000D000D0CDB7DEB71C014B015A01290107
:10124000702EFA82E98281E290E00E9480108B8306
:101250009C838B819C81892B89F0C114D10421F45A
:10126000C5010E9480106C01EB81FC81D08EC78A81
:10127000C114D10429F4CF010E9470108FEFCFC0A8
:10128000C60165EA70E0A5010E94EA110894A10870
:10129000B108EB81FC81E788F08CEA0CFB1CCF01E4
:1012A0004996B40148E050E00E94F111EB81FC81C5
:1012B00010A2072DF3E0F71508F403E0EB81FC81A1
:1012C000068B42E0C42ED12CCE0EDF1EC6010E943A
:1012D0001C0E8B819C810C960E941C0E8B819C8124
:1012E000FC019187808784E090E0801B91099587BD
:1012F0008487F38BE28BC701B101A2010E94A71082
:10130000EB81FC81918380830FB6F8940F928091DA
:10131000BC028F5F8093BC028091BC02813089F552
:10132000F093B402E093B30281EC92E00E940C0EC1
:101330008AEC92E00E940C0E83ED92E00E940C0E6B
:101340008CED92E00E940C0E35EEE32E32E0F32E8F
:10135000C7010E940C0E0EEE12E0C8010E940C0E96
:101360008BEF92E00E940C0E84E093E00E940C0E42
:10137000F092F802E092F7021093FA020093F90259
:1013800011C08091BD02882369F4E091B302F0910D
:10139000B4028689781630F08B819C819093B402D8
:1013A0008093B302EB81FC8196898091C0028917FA
:1013B00010F49093C0028091BF028F5F8093BF02B0
:1013C000EB81FC8196898091BA02891710F4909381
:1013D000BA02EB81FC81868929E0829FC001112439
:1013E0008F539D4FB6010E94200E0F900FBE898132
:1013F0009A81892B31F08B819C81E981FA819183DB
:1014000080838091BD02882349F0E091B302F0917E
:10141000B4028689871510F40E94881181E00F902C
:101420000F900F900F90CF91DF911F910F91FF9030
:10143000EF90DF90CF90BF90AF909F908F907F9074
:101440005F904F903F902F900895AF92BF92CF92B0
:10145000DF92EF92FF920F9385EC98E06CEA72E0D6
:1014600045E550E020E030E000E0EE24FF24CC240D
:10147000DD24AA24BB240E940709813049F4F89492
:101480008093BD021092B8021092B7020E94EF1032
:101490000F91FF90EF90DF90CF90BF90AF900895A5
:1014A000FC010FB6F8940F92828D0F900FBE089535
:1014B000FC01828D0895FC01828D90E0882309F45F
:1014C00091E0892F0895FC01928D20E0838D98177B
:1014D00009F421E0822F0895CF93DF93EC01842F4C
:1014E0004C8D4423A1F18823B1F48C819D8150E07F
:1014F0000E94E1118C8D2C813D81280F311D3D838F
:101500002C838A819B812817390708F1888199816A
:101510009D838C831CC08E819F8150E00E94E111CD
:101520008C8D90E044275527481B590B8E819F8155
:10153000840F951F9F838E8328813981821793079B
:1015400030F48A819B81840F951F9F838E838A8DBF
:101550008F5F8A8FDF91CF9108950F931F93CF9361
:10156000DF93EC01FB018A018A8D882361F18C8D68
:101570002E813F81280F311D3F832E838A819B81DD
:101580002817390720F0888199819F838E838A8D5F
:1015900081508A8F4C8D6E817F81CF0150E00E94F7
:1015A000E111F8018081882369F48885882351F04E
:1015B000CE0108960E94A60E882321F081E0F80152
:1015C000808301C081E0DF91CF911F910F91089539
:1015D0001F93CF93DF93EC01142F9A8D8B8D981767
:1015E00088F4CE0140E00E946C0A112359F48989E5
:1015F000882341F0CE0141960E94A60E482F81110A
:1016000041E0142F812FDF91CF911F910895CF9347
:10161000DF93EC01FB01F8948A8D882371F4411566
:10162000510541F06196CA01BE010E94B90F78943C
:101630008CEF30C0789480E02DC078940000F8944E
:101640008A8D882331F18C8D2E813F81280F311DA9
:101650003F832E838A819B812817390720F0888158
:1016600099819F838E838A8D81508A8F4C8D6E8164
:101670007F81CF0150E00E94E1118885882341F0ED
:10168000CE0108960E94A60E882311F08BEF01C0B0
:1016900081E07894DF91CF910895CF93DF93EC01AF
:1016A000F8940FB6F8940F928A8D9B8D0F900FBE11
:1016B000891771F44115510541F02896CA01BE0100
:1016C0000E94B90F78948CEF1CC0789480E019C008
:1016D00078940000F8948A8D891710F080E010C08B
:1016E000CE0140E00E946C0A8989882341F0CE0136
:1016F00041960E94A60E882311F08BEF01C081E075
:101700007894DF91CF9108950F931F938C01FC0182
:10171000808191810E947010C8010E9470101F91F9
:101720000F9108950F931F93CF93DF93EC01FB016B
:101730008A018A8D882381F148815981411551059B
:10174000A9F08C8D2E813F81280F311D3F832E8380
:101750008A819B812817390710F05F834E834C8D57
:101760006E817F81CF0150E00E94E1118A8D81500E
:101770008A8F8D8D8F3F69F48885882361F0CE0133
:1017800008960E946D06882331F081E0F80180837D
:1017900003C08F5F8D8F81E0DF91CF911F910F91FB
:1017A00008950F931F93CF93DF93EC018A019A8DD5
:1017B0008B8D981710F080E017C0CE01422F0E9449
:1017C0006C0A8E8D8F3F69F48989882361F0CE0180
:1017D00041960E946D06882331F081E0F8018083F4
:1017E00003C08F5F8E8F81E0DF91CF911F910F91AA
:1017F00008950F931F93CF93DF93EC010FB6F894E6
:101800000F928C010F5E1F4F0DC08989882369F0EC
:10181000C8010E946D06882311F00E9469068E8D12
:1018200081508E8F8E8D181684F38FEF8E8F0F90D0
:101830000FBE0FB6F8940F928E01085F1F4F0DC0B8
:101840008885882369F0C8010E946D06882311F0FD
:101850000E9469068D8D81508D8F8D8D181684F3B1
:101860008FEF8D8F0F900FBEDF91CF911F910F9152
:1018700008957F928F929F92AF92BF92CF92DF9204
:10188000EF92FF920F931F93DF93CF9300D000D07E
:101890000F92CDB7DEB78C01962E872E5D834C83D9
:1018A000722E91E1C92ED12CC00ED11E20E07E01F6
:1018B0000894E11CF11C84E0A82EB12CAC0EBD1ED6
:1018C00001C021E00FB6F8940F92F801828D8823B1
:1018D00009F43EC0E680F7804081518141155105F1
:1018E000B1F0848D9701280F311D378326838281C3
:1018F00093812817390710F057834683F801448DE8
:1019000066817781892D982D50E00E94E111772022
:1019100071F4F801828D8150828F80858823A1F037
:10192000C80108960E946D06813071F40BC0F80161
:10193000F782E6828189882339F0C6010E946D060C
:10194000882311F00E9488110F900FBE81E04AC0D9
:101950008C819D81892B19F40F900FBE42C02223E8
:1019600019F4C7010E9424060F900FBE0E94CE05F5
:101970000FB6F8940F92F801858D8F3F09F4158EFC
:10198000F801868D8F3F09F4168E0F900FBEC701A8
:10199000B5010E942F068823F9F40FB6F8940F9230
:1019A000F801828D0F900FBE882381F46C817D81B8
:1019B000C6010E942607C8010E94F90B0E945F071A
:1019C000882309F07ECF0E9488117BCFC8010E9436
:1019D000F90B0E945F0775CFC8010E94F90B0E94A6
:1019E0005F0780E00F900F900F900F900F90CF91B6
:1019F000DF911F910F91FF90EF90DF90CF90BF90FC
:101A0000AF909F908F907F9008957F928F929F923A
:101A1000AF92BF92CF92DF92EF92FF920F931F93FC
:101A2000DF93CF9300D000D00F92CDB7DEB78C01FB
:101A30006B015D834C83722E48E0E42EF12CE80E9E
:101A4000F91E20E05E010894A11CB11C34E0832E35
:101A5000912C8C0E9D1E01C021E00FB6F8940F92C0
:101A6000F801928D838D9817A8F4C801B601472D0F
:101A70000E946C0AF8018189882341F0C8014196CF
:101A80000E946D06813011F40E9488110F900FBEE4
:101A900081E04CC08C819D81892B19F40F900FBE81
:101AA00044C0222319F4C5010E9424060F900FBEE2
:101AB0000E94CE050FB6F8940F92F801858D8F3FE6
:101AC00009F4158EF801868D8F3F09F4168E0F905C
:101AD0000FBEC501B4010E942F06882309F50FB679
:101AE000F8940F92F801928D0F900FBEF801838D3C
:101AF000981781F46C817D81C7010E942607C80177
:101B00000E94F90B0E945F07882309F0A5CF0E946D
:101B10008811A2CFC8010E94F90B0E945F079CCFD9
:101B2000C8010E94F90B0E945F0780E00F900F90A0
:101B30000F900F900F90CF91DF911F910F91FF9019
:101B4000EF90DF90CF90BF90AF909F908F907F905D
:101B500008958F929F92AF92BF92CF92DF92EF92B1
:101B6000FF920F931F93CF93DF93982E862E882397
:101B700009F442C08FE190E00E9480108C01EC01DA
:101B80000097E1F1C92CDD24A82CBB24AC9C70018A
:101B9000AD9CF00CBC9CF00C1124C70101960E9476
:101BA00080109C0199838883009719F1E80EF91E33
:101BB000FB82EA821A8E9D838C830894C108D10827
:101BC000CA9CC001CB9C900DDA9C900D1124280F6B
:101BD000391F3F832E839B8E8C8E8FEF8D8F8E8F40
:101BE000C80108960E940C0EC80141960E940C0E76
:101BF00005C0C8010E947010C0E0D0E0CE01DF91A6
:101C0000CF911F910F91FF90EF90DF90CF90BF90F9
:101C1000AF909F908F900895FC019C012D5F3F4FE6
:101C2000328321838FEF9FEF9483838336832583D1
:101C30003087278310820895FC011186108608954D
:101C4000CF93DF93AC01DB01EC0129813A81F901EB
:101C50008281938113969C938E93129789819A81A6
:101C600015969C938E9314970280F381E02D7583D3
:101C70006483E9017B836A83FA0172836183199625
:101C80005C934E93189780818F5F8083DF91CF9113
:101C90000895CF93DF939C01EB01488159818FEF29
:101CA0004F3F580721F4F901A781B08510C0D90131
:101CB000139604C012960D90BC91A02D1296ED9132
:101CC000FC911397808191814817590798F71296D4
:101CD000ED91FC911397FB83EA83D583C483BD8385
:101CE000AC831396DC93CE93129739872887F9013A
:101CF00080818F5F8083DF91CF910895CF93DF93B1
:101D0000DC011296ED91FC91139714968D919C91A4
:101D10001597958384831496CD91DC911597FB8359
:101D2000EA831896ED91FC911997818192818A1727
:101D30009B0711F4D283C18319961C921E921897A7
:101D4000808181508083DF91CF9108950F931F93FD
:101D5000CF93DF93FC018081882319F4C0E0D0E0A9
:101D600005C00580F681E02DC681D7818E01045F14
:101D70001F4FC8010E947E0E8EE393E0B8010E94BF
:101D8000200E20E0E0910D03F0910E039E898689DC
:101D9000981708F021E0822FDF91CF911F910F91CA
:101DA0000895FF920F931F93CF93DF9399E0F92E3D
:101DB00028C0F89480913E03882319F4C0E0D0E055
:101DC00006C0E0914303F0914403C681D781CE0160
:101DD0000C960E947E0E78948E010E5F1F4FC801F4
:101DE0000E947E0E9E8980910F03891710F49093B4
:101DF0000F039F9DC00111248A5E9C4FB8010E9471
:101E0000200E80913E038823A1F60E94D4052091E4
:101E1000100330911103821B930B90931303809353
:101E2000120389E0F82E54C0019690931503809315
:101E30001403215030403093130320931203892B55
:101E4000C9F520913A0330913B0380913C03909176
:101E50003D0390933B0380933A0330933D032093DB
:101E60003C0328C020911403309115038A819B8183
:101E70002817390768F1F8948E010E5F1F4FC801CB
:101E80000E947E0E8C899D89892B21F0CE010C96B3
:101E90000E947E0E78949E8980910F03891710F41A
:101EA00090930F039F9DC00111248A5E9C4FB8013F
:101EB0000E94200EE0913A03F0913B038081882339
:101EC00039F00580F681E02DC681D781209751F643
:101ED0002091120330911303809114039091150304
:101EE0002115310509F0A0CF9093110380931003C1
:101EF00090910F0329E006C0992319F410920F0363
:101F000032C09150929FD0011124AA5EBC4F8C9197
:101F1000882391F390930F031196ED91FC91129702
:101F20000280F381E02D1296FC93EE931197CD0180
:101F30000396E817F90731F48281938112969C93F6
:101F40008E9311971196ED91FC9112970680F7816F
:101F5000E02DF0930E03E0930D0320813181CF013A
:101F60006789F9010995DF91CF911F910F91FF903A
:101F700008950F931F93CF93DF93EB010091140308
:101F800010911503080F191F80910D0390910E03F6
:101F900002960E947E0EE0910D03F0910E031383D2
:101FA00002838091140390911503BF016E5F7F4FF0
:101FB0000817190728F480913C0390913D0304C051
:101FC00080913A0390913B030E94490E209749F07B
:101FD00060910D0370910E03645F7F4FCE010E94EC
:101FE000490EDF91CF911F910F910895AF92BF924B
:101FF000CF92DF92EF92FF920F931F93CF93DF93D5
:102000006C01B62EA42E8AE190E00E948010EC01B3
:10201000009711F48FEF59C080910D0390910E033A
:10202000892B21F5D0930E03C0930D0386E193E035
:102030000E940C0E8FE193E00E940C0E28E2E22E2B
:1020400023E0F22EC7010E940C0E01E313E0C80149
:102050000E940C0E8EE393E00E940C0EF0923B0364
:10206000E0923A0310933D0300933C03EB2CBB201A
:1020700011F0EE24E394198E188EEE8AAF8AFE01D9
:10208000C192D1928F01CF010E941C0ECE010C96FD
:102090000E941C0ED987C887DB8BCA8B84E090E036
:1020A0008E1991099D878C879E8980910F038917CE
:1020B00010F490930F0389E0989FC00111248A5E69
:1020C0009C4FB8010E94200E81E0DF91CF911F91BB
:1020D0000F91FF90EF90DF90CF90BF90AF90089559
:1020E0000895109248031092470308952CED35E0AF
:1020F0008091470390914803281B390BC90108952B
:102100000F931F93CF93DF938C010E94CE05809194
:102110004703909148039801280F391F45E02C3D53
:10212000340758F48217930740F4EC01C75BDC4F87
:10213000309348032093470302C0C0E0D0E00E94E0
:102140005F07CE01DF91CF911F910F910895FC01A0
:1021500091E1908322E2229383E3829362937293CC
:10216000129280E88293129282E0829383E08293BB
:1021700084E0829385E0829386E0829387E0829375
:1021800088E0829389E0829380E18293929382E156
:10219000829383E1829384E1829385E1829386E155
:1021A000829387E1829388E1829389E1829380E23E
:1021B000829381E28293229383E2829342935293A9
:1021C00086E2829387E2829388E2829389E2829315
:1021D00080E3829381E382933197CF010895109237
:1021E000890089EF809388008BE080938100EEE680
:1021F000F0E0808180618083A091B302B091B4024D
:10220000CD91CDBFDD91DEBFFF91EF91DF91CF91F9
:10221000BF91AF919F918F917F916F915F914F91FE
:102220003F912F911F910F91FF90EF90DF90CF90F2
:10223000BF90AF909F908F907F906F905F904F90E6
:102240003F902F901F900F900FBE0F90089581E048
:10225000089508950F920FB6F8940F921F921124CB
:102260002F923F924F925F926F927F928F929F92A6
:10227000AF92BF92CF92DF92EF92FF920F931F9394
:102280002F933F934F935F936F937F938F939F937E
:10229000AF93BF93CF93DF93EF93FF93A091B302DC
:1022A000B091B4020DB60D920EB60D920E94B0061A
:1022B0000E94E205A091B302B091B402CD91CDBFCE
:1022C000DD91DEBFFF91EF91DF91CF91BF91AF9193
:1022D0009F918F917F916F915F914F913F912F913E
:1022E0001F910F91FF90EF90DF90CF90BF90AF9034
:1022F0009F908F907F906F905F904F903F902F9026
:102300001F900F900FBE0F9008950E942A111895EC
:102310000F920FB6F8940F921F9211242F923F92B2
:102320004F925F926F927F928F929F92AF92BF92E5
:10233000CF92DF92EF92FF920F931F932F933F93D1
:102340004F935F936F937F938F939F93AF93BF93BD
:10235000CF93DF93EF93FF93A091B302B091B402B8
:102360000DB60D920EB60D920E94E205A091B30239
:10237000B091B402CD91CDBFDD91DEBFFF91EF9161
:10238000DF91CF91BF91AF919F918F917F916F918D
:102390005F914F913F912F911F910F91FF90EF907F
:1023A000DF90CF90BF90AF909F908F907F906F9075
:1023B0005F904F903F902F901F900F900FBE0F9007
:1023C0000895FB01DC0102C001900D924150504084
:1023D000D8F70895DC0101C06D9341505040E0F7FB
:1023E0000895FB01DC014150504048F001900D92EE
:1023F0000020C9F701C01D9241505040E0F70895F8
:1024000097FB092E07260AD077FD04D027D006D0E7
:1024100000201AF4709561957F4F0895F6F7909516
:1024200081959F4F089597FB092E05260ED057FDE5
:1024300004D028D00AD0001C38F45095409530952F
:1024400021953F4F4F4F5F4F0895F6F79095809538
:10245000709561957F4F8F4F9F4F0895AA1BBB1BAF
:1024600051E107C0AA1FBB1FA617B70710F0A61B94
:10247000B70B881F991F5A95A9F780959095BC01B5
:10248000CD010895A1E21A2EAA1BBB1BFD010DC0B0
:10249000AA1FBB1FEE1FFF1FA217B307E407F50714
:1024A00020F0A21BB30BE40BF50B661F771F881FF0
:1024B000991F1A9469F760957095809590959B0186
:0C24C000AC01BD01CF010895F894FFCFDE
:1024CC004C4544204F4E004C4544204F464600643A
:1024DC00006400620061005E005B00570052004D1A
:1024EC000047004000390032002A0022001A001177
:1024FC000009000000F7FFEFFFE6FFDEFFD6FFCE7E
:10250C00FFC7FFC0FFB9FFB3FFAEFFA9FFA5FFA236
:10251C00FF9FFF9EFF9CFF9CFF9CFF9EFF9FFFA2C7
:10252C00FFA5FFA9FFAEFFB3FFB9FFC0FFC7FFCEEA
:10253C00FFD6FFDEFFE6FFEFFFF7FF0000090011FB
:10254C00001A0022002A0032003900400047004DDA
:10255C0000520057005B005E006100620064006482
:10256C0000FF5265673100526567320049444C45A3
:02257C0000005D
:00000001FF
