:100000000C9428000C9445000C9445000C94450079
:100010000C9445000C9445000C9445000C94E00BA6
:100020000C9445000C9445000C9445000C9445003C
:100030000C9445000C9445000C9445000C9445002C
:100040000C9445000C9445000C9445000C9445001C
:1000500011241FBECFE5D8E0DEBFCDBF10E0A0E683
:10006000B0E0E2EBF9E102C005900D92AA36B107CB
:10007000D9F716E0AAE6B0E001C01D92A03EB10794
:10008000E1F70E9447000C94D70C0C940000AF924B
:10009000BF92CF92DF92EF92FF920F938CE690E0A7
:1000A00060E670E04AE050E020E030E001E0EE245D
:1000B000FF24CC24DD24AA24BB240E94DC0988E789
:1000C00090E062E670E04AE050E020E030E00E941C
:1000D000DC090E94000BFFCF8091DC069091DD06C9
:1000E00001969093DD068093DC060E945F0CF4CFAE
:1000F0008091DE069091DF0601969093DF06809353
:10010000DE060E945F0CF4CF0F931F93CF93DF9313
:10011000FC018081882319F4C0E0D0E005C005808F
:10012000F681E02DC681D7818E01045F1F4FC80183
:100130000E94C0028BE990E0B8010E94620220E0B8
:10014000E0916A00F0916B009E898689981708F00B
:1001500021E0822FDF91CF911F910F910895FF929F
:100160000F931F93CF93DF9399E0F92E28C0F89453
:1001700080919B00882319F4C0E0D0E006C0E09194
:10018000A000F091A100C681D781CE010C960E94FB
:10019000C00278948E010E5F1F4FC8010E94C002FA
:1001A0009E8980916C00891710F490936C009F9D3C
:1001B000C00111248D589F4FB8010E9462028091A6
:1001C0009B008823A1F60E94AA0620916D00309121
:1001D0006E00821B930B9093700080936F0089E0F8
:1001E000F82E54C0019690937200809371002150B4
:1001F00030403093700020936F00892BC9F5209117
:100200009700309198008091990090919A00909376
:1002100098008093970030939A002093990028C00B
:1002200020917100309172008A819B8128173907D3
:1002300068F1F8948E010E5F1F4FC8010E94C00242
:100240008C899D89892B21F0CE010C960E94C002D9
:1002500078949E8980916C00891710F490936C00BB
:100260009F9DC00111248D589F4FB8010E946202CA
:10027000E0919700F09198008081882339F0058003
:10028000F681E02DC681D781209751F620916F002D
:1002900030917000809171009091720021153105AC
:1002A00009F0A0CF90936E0080936D0090916C0048
:1002B00029E006C0992319F410926C0032C09150C5
:1002C000929FD0011124AD58BF4F8C91882391F398
:1002D00090936C001196ED91FC9112970280F3813E
:1002E000E02D1296FC93EE931197CD010396E8173B
:1002F000F90731F48281938112969C938E93119722
:100300001196ED91FC9112970680F781E02DF09304
:100310006B00E0936A0020813181CF016789F90188
:100320000995DF91CF911F910F91FF9008950F9341
:100330001F93CF93DF93EB01009171001091720036
:10034000080F191F80916A0090916B0002960E941D
:10035000C002E0916A00F0916B00138302838091E8
:10036000710090917200BF016E5F7F4F08171907EF
:1003700028F48091990090919A0004C08091970090
:10038000909198000E948B02209749F060916A003A
:1003900070916B00645F7F4FCE010E948B02DF91F2
:1003A000CF911F910F910895AF92BF92CF92DF929C
:1003B000EF92FF920F931F93CF93DF936C01B62EB2
:1003C000A42E8AE190E00E943B0BEC01009711F40F
:1003D0008FEF59C080916A0090916B00892B21F5B5
:1003E000D0936B00C0936A0083E790E00E944E02B6
:1003F0008CE790E00E944E0225E8E22E20E0F22EEB
:10040000C7010E944E020EE810E0C8010E944E0291
:100410008BE990E00E944E02F0929800E0929700E3
:1004200010939A0000939900EB2CBB2011F0EE245E
:10043000E394198E188EEE8AAF8AFE01C192D19292
:100440008F01CF010E945E02CE010C960E945E02D7
:10045000D987C887DB8BCA8B84E090E08E1991091D
:100460009D878C879E8980916C00891710F49093EA
:100470006C0089E0989FC00111248D589F4FB801EE
:100480000E94620281E0DF91CF911F910F91FF9056
:10049000EF90DF90CF90BF90AF900895FC019C014A
:1004A0002D5F3F4F328321838FEF9FEF94838383B0
:1004B000368325833087278310820895FC011186B7
:1004C00010860895CF93DF93AC01DB01EC01298105
:1004D0003A81F9018281938113969C938E931297AE
:1004E00089819A8115969C938E9314970280F3814B
:1004F000E02D75836483E9017B836A83FA0172834B
:10050000618319965C934E93189780818F5F8083E7
:10051000DF91CF910895CF93DF939C01EB01488148
:1005200059818FEF4F3F580721F4F901A781B0851A
:1005300010C0D901139604C012960D90BC91A02D45
:100540001296ED91FC91139780819181481759077C
:1005500098F71296ED91FC911397FB83EA83D5836C
:10056000C483BD83AC831396DC93CE9312973987F3
:100570002887F90180818F5F8083DF91CF91089573
:10058000CF93DF93DC011296ED91FC9113971496B3
:100590008D919C911597958384831496CD91DC91D0
:1005A0001597FB83EA831896ED91FC911997818149
:1005B00092818A179B0711F4D283C18319961C92EA
:1005C0001E921897808181508083DF91CF9108958A
:1005D000FC010FB6F8940F92828D0F900FBE089514
:1005E000FC01828D0895FC01828D90E0882309F43E
:1005F00091E0892F0895FC01928D20E0838D98175A
:1006000009F421E0822F0895CF93DF93EC01842F2A
:100610004C8D4423A1F18823B1F48C819D8150E05D
:100620000E94B80C8C8D2C813D81280F311D3D839B
:100630002C838A819B812817390708F18881998149
:100640009D838C831CC08E819F8150E00E94B80CDA
:100650008C8D90E044275527481B590B8E819F8134
:10066000840F951F9F838E8328813981821793077A
:1006700030F48A819B81840F951F9F838E838A8D9E
:100680008F5F8A8FDF91CF9108950F931F93CF9340
:10069000DF93EC01FB018A018A8D882361F18C8D47
:1006A0002E813F81280F311D3F832E838A819B81BC
:1006B0002817390720F0888199819F838E838A8D3E
:1006C00081508A8F4C8D6E817F81CF0150E00E94D6
:1006D000B80CF8018081882369F48885882351F05B
:1006E000CE0108960E948400882321F081E0F80161
:1006F000808301C081E0DF91CF911F910F91089518
:100700001F93CF93DF93EC01142F9A8D8B8D981745
:1007100088F4CE0140E00E940403112359F4898932
:10072000882341F0CE0141960E948400482F811118
:1007300041E0142F812FDF91CF911F910895CF9326
:10074000DF93EC01FB01F8948A8D882371F4411545
:10075000510541F06196CA01BE010E94970178944B
:100760008CEF30C0789480E02DC078940000F8942D
:100770008A8D882331F18C8D2E813F81280F311D88
:100780003F832E838A819B812817390720F0888137
:1007900099819F838E838A8D81508A8F4C8D6E8143
:1007A0007F81CF0150E00E94B80C8885882341F0FA
:1007B000CE0108960E948400882311F08BEF01C0BF
:1007C00081E07894DF91CF910895CF93DF93EC018E
:1007D000F8940FB6F8940F928A8D9B8D0F900FBEF0
:1007E000891771F44115510541F02896CA01BE01DF
:1007F0000E94970178948CEF1CC0789480E019C017
:1008000078940000F8948A8D891710F080E010C069
:10081000CE0140E00E9404038989882341F0CE0183
:1008200041960E948400882311F08BEF01C081E083
:100830007894DF91CF9108950F931F938C01FC0161
:10084000808191810E942B0BC8010E942B0B1F916C
:100850000F9108950F931F93CF93DF93EC01FB014A
:100860008A018A8D882381F148815981411551057A
:10087000A9F08C8D2E813F81280F311D3F832E835F
:100880008A819B812817390710F05F834E834C8D36
:100890006E817F81CF0150E00E94B80C8A8D81501B
:1008A0008A8F8D8D8F3F69F48885882361F0CE0112
:1008B00008960E944907882331F081E0F80180837F
:1008C00003C08F5F8D8F81E0DF91CF911F910F91DA
:1008D00008950F931F93CF93DF93EC018A019A8DB4
:1008E0008B8D981710F080E017C0CE01422F0E9428
:1008F00004038E8D8F3F69F48989882361F0CE01CE
:1009000041960E944907882331F081E0F8018083F5
:1009100003C08F5F8E8F81E0DF91CF911F910F9188
:1009200008950F931F93CF93DF93EC010FB6F894C4
:100930000F928C010F5E1F4F0DC08989882369F0CB
:10094000C8010E944907882311F00E9445078E8D37
:1009500081508E8F8E8D181684F38FEF8E8F0F90AF
:100960000FBE0FB6F8940F928E01085F1F4F0DC097
:100970008885882369F0C8010E944907882311F0FF
:100980000E9445078D8D81508D8F8D8D181684F3B3
:100990008FEF8D8F0F900FBEDF91CF911F910F9131
:1009A00008957F928F929F92AF92BF92CF92DF92E3
:1009B000EF92FF920F931F93DF93CF9300D000D05D
:1009C0000F92CDB7DEB78C01962E872E5D834C83B8
:1009D000722E91E1C92ED12CC00ED11E20E07E01D5
:1009E0000894E11CF11C84E0A82EB12CAC0EBD1EB5
:1009F00001C021E00FB6F8940F92F801828D882390
:100A000009F43EC0E680F7804081518141155105CF
:100A1000B1F0848D9701280F311D378326838281A1
:100A200093812817390710F057834683F801448DC6
:100A300066817781892D982D50E00E94B80C77202F
:100A400071F4F801828D8150828F80858823A1F016
:100A5000C80108960E944907813071F40BC0F80163
:100A6000F782E6828189882339F0C6010E9449070E
:100A7000882311F00E945F0C0F900FBE81E04AC0E6
:100A80008C819D81892B19F40F900FBE42C02223C7
:100A900019F4C7010E9400070F900FBE0E94A40620
:100AA0000FB6F8940F92F801858D8F3F09F4158EDB
:100AB000F801868D8F3F09F4168E0F900FBEC70187
:100AC000B5010E940B078823F9F40FB6F8940F9232
:100AD000F801828D0F900FBE882381F46C817D8197
:100AE000C6010E940208C8010E9491040E943B08AE
:100AF000882309F07ECF0E945F0C7BCFC8010E9443
:100B000091040E943B0875CFC8010E9491040E9485
:100B10003B0880E00F900F900F900F900F90CF91B7
:100B2000DF911F910F91FF90EF90DF90CF90BF90DA
:100B3000AF909F908F907F9008957F928F929F9219
:100B4000AF92BF92CF92DF92EF92FF920F931F93DB
:100B5000DF93CF9300D000D00F92CDB7DEB78C01DA
:100B60006B015D834C83722E48E0E42EF12CE80E7D
:100B7000F91E20E05E010894A11CB11C34E0832E14
:100B8000912C8C0E9D1E01C021E00FB6F8940F929F
:100B9000F801928D838D9817A8F4C801B601472DEE
:100BA0000E940403F8018189882341F0C80141961D
:100BB0000E944907813011F40E945F0C0F900FBE14
:100BC00081E04CC08C819D81892B19F40F900FBE60
:100BD00044C0222319F4C5010E9400070F900FBEE4
:100BE0000E94A4060FB6F8940F92F801858D8F3FEE
:100BF00009F4158EF801868D8F3F09F4168E0F903B
:100C00000FBEC501B4010E940B07882309F50FB67A
:100C1000F8940F92F801928D0F900FBEF801838D1A
:100C2000981781F46C817D81C7010E940208C80178
:100C30000E9491040E943B08882309F0A5CF0E94DE
:100C40005F0CA2CFC8010E9491040E943B089CCF78
:100C5000C8010E9491040E943B0880E00F900F9011
:100C60000F900F900F90CF91DF911F910F91FF90F8
:100C7000EF90DF90CF90BF90AF909F908F907F903C
:100C800008958F929F92AF92BF92CF92DF92EF9290
:100C9000FF920F931F93CF93DF93982E862E882376
:100CA00009F442C08FE190E00E943B0B8C01EC0103
:100CB0000097E1F1C92CDD24A82CBB24AC9C700169
:100CC000AD9CF00CBC9CF00C1124C70101960E9455
:100CD0003B0B9C0199838883009719F1E80EF91E5C
:100CE000FB82EA821A8E9D838C830894C108D10806
:100CF000CA9CC001CB9C900DDA9C900D1124280F4A
:100D0000391F3F832E839B8E8C8E8FEF8D8F8E8F1E
:100D1000C80108960E944E02C80141960E944E02E8
:100D200005C0C8010E942B0BC0E0D0E0CE01DF91CE
:100D3000CF911F910F91FF90EF90DF90CF90BF90D8
:100D4000AF909F908F9008958091AA008F5F8093BD
:100D5000AA0008950FB6F8940F922091A800309140
:100D6000A9000F900FBEC90108952091A8003091ED
:100D7000A900C90108958091AD0008958091AA004D
:100D8000882351F081E08093A60008958091AB0004
:100D900081508093AB0001C099E0E091AB00E99FE6
:100DA000F0011124EE54FF4F8081882379F3909154
:100DB000AB0089E0989FD0011124AE54BF4F11962B
:100DC000ED91FC9112970280F381E02D1296FC9335
:100DD000EE931197CD010396E817F90731F482815C
:100DE000938112969C938E9311971196ED91FC919D
:100DF0001297868197819093A5008093A40008950F
:100E0000FC018091A70080838091A8009091A900A7
:100E1000928381830895FC01DB010FB6F8940F9251
:100E20009091A7008081981749F02091A8003091F7
:100E3000A900818192812817390718F58091A800AF
:100E40009091A900218132814D915C911197821B73
:100E5000930B84179507A8F48091A8009091A9009E
:100E6000281B390B240F351F2D933C938091A7002D
:100E700080838091A8009091A9009283818380E073
:100E800001C081E00F900FBE089581E08093A6001D
:100E900008950F931F93CF93DF93FC0180818823E4
:100EA00019F4C0E0D0E005C00580F681E02DC681D0
:100EB000D7818E01045F1F4FC8010E94C00280913C
:100EC000AA008823A1F48E010E5F1F4FC8010E9463
:100ED000C0029E898091AB00891710F49093AB00FB
:100EE00089E0989FC00111248E549F4F02C08CEE60
:100EF00090E0B8010E946202E091A400F091A50088
:100F000020E09E898689981708F021E0822FDF91E2
:100F1000CF911F910F910895FF920F931F93CF933D
:100F2000DF938091AA00882309F061C08091A80016
:100F30009091A90001969093A9008093A8008091B8
:100F4000A8009091A900892BE9F58091E800909183
:100F5000E9002091EA003091EB003093E900209302
:100F6000E8009093EB008093EA008091A7008F5FE8
:100F70008093A70027C02091A8003091A9008A8102
:100F80009B8128173907C0F18E010E5F1F4FC801E2
:100F90000E94C0028C899D89892B21F0CE010C967C
:100FA0000E94C0029E898091AB00891710F4909333
:100FB000AB009F9DC00111248E549F4FB8010E9429
:100FC000620202C089E0F82EE091E800F091E900A9
:100FD0008081882389F0E091E800F091E9000580A4
:100FE000F681E02DC681D781209729F605C0809132
:100FF000AC008F5F8093AC00DF91CF911F910F9178
:10100000FF9008950F931F938B016091A40070913E
:10101000A500645F7F4F0E948B028091A400909195
:10102000A50002960E94C0028091A8009091A9009C
:10103000800F911FE091A400F091A500938382831B
:101040002091A8003091A9008217930728F480917D
:10105000EA009091EB0004C08091E8009091E900D3
:101060006091A4007091A5006E5F7F4F0E948B027B
:101070001F910F910895CF92DF92FF920F931F93CC
:10108000DF93CF930F92CDB7DEB70FB6F8940F92E0
:101090008091AA0081508093AA008091AA008823A1
:1010A00009F05AC08091AD00882309F455C0198217
:1010B00099E0F92E27C0C6010C960E94C002860155
:1010C0000E5F1F4FC8010E94C002D60156969C9128
:1010D0008091AB00891710F49093AB009F9DC001E5
:1010E00011248E549F4FB8010E946202E091A40027
:1010F000F091A500D60156969C918689981710F01C
:10110000B1E0B9838091EC00882349F0E091F100CF
:10111000F091F200C680D780C114D10461F68091AD
:10112000AC00882341F40BC00E948C078091AC0076
:1011300081508093AC008091AC008823A9F7E981AD
:10114000E13021F08091A600813031F41092A600A8
:101150000E945F0C81E001C080E00F900FBE0F90F5
:10116000CF91DF911F910F91FF90DF90CF90089565
:101170000F931F939C010097A1F18091AA008F5FAC
:101180008093AA000091A8001091A900020F131FDC
:101190008091A4009091A50002960E94C002E09167
:1011A000A400F091A500138302838091A800909180
:1011B000A9000817190728F48091EA009091EB0024
:1011C00004C08091E8009091E9006091A4007091C2
:1011D000A5006E5F7F4F0E948B020E943B08882310
:1011E00011F40E945F0C1F910F910895CF93DF932C
:1011F000FC01EB018091AA008F5F8093AA002081FF
:101200003181C20FD31F8091A8009091A90082174D
:10121000930728F4C217D30728F020E00CC0C217A8
:10122000D30740F08091A8009091A90020E08C178E
:101230009D0708F421E0D183C083222329F1809106
:10124000A4009091A50002960E94C002E091A40023
:10125000F091A500D383C2838091A8009091A9004A
:10126000C817D90728F48091EA009091EB0004C0D8
:101270008091E8009091E9006091A4007091A50030
:101280006E5F7F4F0E948B020E943B08882311F4FF
:101290000E945F0CDF91CF910895EF92FF920F9320
:1012A0001F93CF93DF938C010FB6F8940F92809128
:1012B000A4009091A5000817190719F400E010E0A8
:1012C00003C00115110529F4C091A400D091A50017
:1012D00001C0E80122E0E22EF12CEC0EFD1EC70158
:1012E0000E94C0028C899D89892B21F0CE010C9629
:1012F0000E94C00285EF90E0B7010E9462028091D7
:10130000AF008F5F8093AF008091B0008F5F8093BC
:10131000B0000F900FBE8091AE00882321F0012B0A
:1013200011F40E945F0CDF91CF911F910F91FF90FC
:10133000EF900895F8941092AE000E94DF0B08958C
:101340001F93CF93DF938091AF00882391F1809119
:10135000AA008F5F8093AA001091F5000E943B08BD
:10136000112339F10FB6F8940F928091F50088237C
:1013700019F4C0E0D0E006C0E091FA00F091FB0063
:10138000C681D781CE0102960E94C0028091AD0035
:1013900081508093AD008091AF0081508093AF0069
:1013A0000F900FBE8F89988D0E942B0BCE010E944B
:1013B0002B0B0E945F0CC7CF2F923F925F926F92D0
:1013C0007F928F929F92AF92BF92CF92DF92EF92D5
:1013D000FF920F931F93DF93CF9300D000D0CDB730
:1013E000DEB79A8389834B015A011901502E3701C8
:1013F00081E290E00E943B0B8B839C838B819C81DC
:10140000892B89F0C114D10421F4C5010E943B0B42
:101410006C01EB81FC81D08EC78AC114D10429F400
:10142000CF010E942B0B8FEFD5C0C60165EA70E09B
:10143000A5010E94C10C0894A108B108EB81FC81B0
:10144000E788F08CEA0CFB1CCF014996B40148E018
:1014500050E00E94C80CEB81FC8110A2052DF3E046
:10146000F51508F403E0EB81FC81068B42E0C42E05
:10147000D12CCE0EDF1EC6010E945E028B819C81A4
:101480000C960E945E028B819C81FC019187808773
:1014900084E090E0801B910995878487F38BE28B31
:1014A000C70169817A81A1010E94620BEB81FC81F5
:1014B000918380836114710421F0CF01F301918342
:1014C00080830FB6F8940F928091AD008F5F809368
:1014D000AD008091A4009091A500892BB9F5EB8116
:1014E000FC81F093A500E093A4008091AD008130D1
:1014F000F1F582EB90E00E944E028BEB90E00E94AF
:101500004E0284EC90E00E944E028DEC90E00E942E
:101510004E0236EDE32E30E0F32EC7010E944E025C
:101520000FED10E0C8010E944E028CEE90E00E9488
:101530004E0285EF90E00E944E02F092E900E092A8
:10154000E8001093EB000093EA0011C08091AE0018
:10155000882369F4E091A400F091A50086895816CB
:1015600030F08B819C819093A5008093A400EB8147
:10157000FC8196898091B100891710F49093B10095
:101580008091B0008F5F8093B000EB81FC819689E1
:101590008091AB00891710F49093AB00EB81FC8134
:1015A000868929E0829FC00111248E549F4FB60185
:1015B0000E9462020F900FBE8091AE00882349F016
:1015C000E091A400F091A5008689851510F40E9491
:1015D0005F0C81E00F900F900F900F90CF91DF91F3
:1015E0001F910F91FF90EF90DF90CF90BF90AF9041
:1015F0009F908F907F906F905F903F902F90089575
:10160000AF92BF92CF92DF92EF92FF920F9380EA58
:1016100099E064E670E045E550E020E030E000E06D
:10162000EE24FF24CC24DD24AA24BB240E94DC0960
:10163000813049F4F8948093AE001092A900109282
:10164000A8000E94AA0B0F91FF90EF90DF90CF901F
:10165000BF90AF90089508951092FF001092FE0081
:1016600008952CED35E08091FE009091FF00281B3D
:10167000390BC90108950F931F93CF93DF938C010A
:101680000E94A4068091FE009091FF009801280F0F
:10169000391F45E02C3D340758F48217930740F476
:1016A000EC01C050DF4F3093FF002093FE0002C0DA
:1016B000C0E0D0E00E943B08CE01DF91CF911F91A6
:1016C0000F910895FC0191E1908322E2229383E33C
:1016D000829362937293129280E88293129282E0D4
:1016E000829383E0829384E0829385E0829386E014
:1016F000829387E0829388E0829389E0829380E1FD
:101700008293929382E1829383E1829384E1829334
:1017100085E1829386E1829387E1829388E18293D7
:1017200089E1829380E2829381E28293229383E231
:1017300082934293529386E2829387E2829388E275
:10174000829389E2829380E3829381E3829331974B
:10175000CF0108951BBC8CE78ABD8BE08EBD89B795
:10176000806189BFA091A400B091A500CD91CDBFAB
:10177000DD91DEBFFF91EF91DF91CF91BF91AF91EE
:101780009F918F917F916F915F914F913F912F9199
:101790001F910F91FF90EF90DF90CF90BF90AF908F
:1017A0009F908F907F906F905F904F903F902F9081
:1017B0001F900F900FBE0F90089581E00895089537
:1017C0001F920F920FB60F9211242F933F934F93B6
:1017D0005F936F937F938F939F93AF93BF93EF9399
:1017E000FF930E948C07FF91EF91BF91AF919F9162
:1017F0008F917F916F915F914F913F912F910F90BA
:101800000FBE0F901F9018950F920FB6F8940F927D
:101810001F9211242F923F924F925F926F927F926C
:101820008F929F92AF92BF92CF92DF92EF92FF92F0
:101830000F931F932F933F934F935F936F937F93D8
:101840008F939F93AF93BF93CF93DF93EF93FF93C8
:10185000A091A400B091A5000DB60D920EB60D9208
:101860000E948C070E94BE06A091A400B091A50022
:10187000CD91CDBFDD91DEBFFF91EF91DF91CF9193
:10188000BF91AF919F918F917F916F915F914F9198
:101890003F912F911F910F91FF90EF90DF90CF908C
:1018A000BF90AF909F908F907F906F905F904F9080
:1018B0003F902F901F900F900FBE0F9008950F92A2
:1018C0000FB6F8940F921F9211242F923F924F92CD
:1018D0005F926F927F928F929F92AF92BF92CF92C0
:1018E000DF92EF92FF920F931F932F933F934F93AB
:1018F0005F936F937F938F939F93AF93BF93CF9398
:10190000DF93EF93FF93A091A400B091A5000DB6D3
:101910000D920EB60D920E94BE06A091A400B09149
:10192000A500CD91CDBFDD91DEBFFF91EF91DF919D
:10193000CF91BF91AF919F918F917F916F915F9167
:101940004F913F912F911F910F91FF90EF90DF905A
:10195000CF90BF90AF909F908F907F906F905F904F
:101960004F903F902F901F900F900FBE0F900895B3
:10197000FB01DC0102C001900D9241505040D8F7AC
:101980000895DC0101C06D9341505040E0F7089587
:10199000FB01DC014150504048F001900D920020C5
:1019A000C9F701C01D9241505040E0F70895F894E6
:0219B000FFCF67
:0A19B2004200410049444C4500008A
:00000001FF
