:100000000C9472000C9494000C9494000C94940042
:100010000C9494000C9494000C9494000C94940010
:100020000C9494000C9494000C9494000C94940000
:100030000C9494000C9494000C9494000C949400F0
:100040000C9494000C9494000C9494000C949400E0
:100050000C9494000C9494000C9494000C949400D0
:100060000C9494000C9494000C9494000C949400C0
:100070000C9494000C9494000C9494000C949400B0
:100080000C9494000C9494000C9494000C949400A0
:100090000C946B040C9494000C9494000C949400B5
:1000A0000C9494000C9494000C9494000C94940080
:1000B0000C9494000C9494000C9494000C94940070
:1000C0000C9494000C9494000C9494000C94940060
:1000D0000C9494000C9494000C9494000C94940050
:1000E0000C94940011241FBECFEFD1E2DEBFCDBF30
:1000F00000E00CBF12E0A0E0B2E0E4EFF3E100E0CA
:100100000BBF02C007900D92A239B107D9F71BBEF1
:1001100012E0A2E9B2E001C01D92AA3FB107E1F7E7
:100120000E9411040C940A080C940000893049F4D0
:1001300080918000826080938000809180008E7F1B
:100140000EC08A3021F480918000826003C08091CB
:1001500080008D7F809380008091800081608093FB
:10016000800010928B0010928A000895893049F423
:100170008091B00082608093B0008091B0008E7F4B
:100180000EC08A3021F48091B000826003C080915B
:10019000B0008D7F8093B0008091B000816080932B
:1001A000B0001092B4000895893049F48091900015
:1001B000826080939000809190008E7F0EC08A3084
:1001C00021F480919000826003C0809190008D7F27
:1001D00080939000809190008160809390001092B5
:1001E0009900109298000895893049F48091910007
:1001F000826080939100809191008E7F0EC08A3042
:1002000021F480919100826003C0809191008D7FE4
:100210008093910080919100816080939100109271
:100220009B0010929A000895893049F480919200C1
:10023000826080939200809192008E7F0EC08A30FF
:1002400021F480919200826003C0809192008D7FA2
:10025000809392008091920081608093920010922E
:100260009D0010929C000895893049F48091A0006F
:1002700082608093A0008091A0008E7F0EC08A30A3
:1002800021F48091A000826003C08091A0008D7F46
:100290008093A0008091A00081608093A0001092C4
:1002A000A9001092A8000895893049F48091A10016
:1002B00082608093A1008091A1008E7F0EC08A3061
:1002C00021F48091A100826003C08091A1008D7F04
:1002D0008093A1008091A10081608093A100109281
:1002E000AB001092AA000895893049F48091A000D3
:1002F00082608093A0008091A0008E7F0EC08A3023
:1003000021F48091A000826003C08091A0008D7FC5
:100310008093A0008091A00081608093A000109243
:10032000AD001092AC000895E0E8F0E020812E7F4F
:100330002083208122602083E1E8F0E02081286092
:100340002083208120612083909387008093860002
:10035000109289001092880010928B0010928A00EF
:1003600010928D0010928C000895E0E9F0E0208159
:100370002E7F2083208122602083E1E9F0E020812C
:1003800028602083208120612083909397008093B0
:100390009600109299001092980010929B00109273
:1003A0009A0010929D0010929C000895E0EAF0E0FF
:1003B00020812E7F2083208122602083E1EAF0E0EB
:1003C0002081286020832081206120839093A700D2
:1003D0008093A6001092A9001092A8001092AB0082
:1003E0001092AA001092AD001092AC000895E0E8BF
:1003F000F0E080818062808380818F7E8083089599
:10040000E0EBF0E080818062808380818F7E80835A
:100410000895E0E9F0E080818068808380818F7BAF
:1004200080830895E0E9F0E08081806280838081AC
:100430008F7E80830895E0E9F0E08081886080838A
:1004400080818B7F80830895E0EAF0E0808180687E
:10045000808380818F7B80830895E0EAF0E0808153
:100460008062808380818F7E80830895E0EAF0E05F
:1004700080818860808380818B7F80830895E0E81D
:10048000F0E080818F7D808380818F7E80830895DE
:10049000E0EBF0E080818F7D808380818F7E8083A0
:1004A0000895E0E9F0E080818F77808380818F7B01
:1004B00080830895E0E9F0E080818F7D80838081F2
:1004C0008F7E80830895E0E9F0E08081877F8083DC
:1004D00080818B7F80830895E0EAF0E080818F77D0
:1004E000808380818F7B80830895E0EAF0E08081C3
:1004F0008F7D808380818F7E80830895E0EAF0E0A5
:100500008081877F808380818B7F80830895E0E86E
:10051000F0E080818D7F808380818E7F80838081E9
:100520008F7D808380818F7E80830895E0EBF0E073
:1005300080818D7F808380818E7F808380818F7D8D
:10054000808380818F7E80830895E0E9F0E0808160
:100550008D7F808380818E7F808380818F77808371
:1005600080818F7B808380818F7D808380818F7E5F
:1005700080838081877F808380818B7F80830895C3
:10058000E0EAF0E080818D7F808380818E7F8083B0
:1005900080818F77808380818F7B808380818F7D36
:1005A000808380818F7E80838081877F808380812C
:1005B0008B7F8083089590938B0080938A000895A9
:1005C0008093B400089590939900809398000895C3
:1005D00090939B0080939A00089590939D00809340
:1005E0009C0008959093A9008093A800089590938B
:1005F000AB008093AA0008959093AD008093AC0067
:10060000089510BA11BA10920701109208019FEFD5
:1006100091B980E484B997B9589A599A83EF8AB905
:100620008EEF8DB9A59A9D98809301018093040166
:10063000089508952E9A08952E98089522B330E0D3
:1006400085E0369527958A95E1F7209530952170BC
:100650003070C901089597FD10C025E030E040E0FA
:1006600050E00E94C909DA01C901880F991F805022
:100670009E4FFC012081318117C025E030E040E031
:1006800050E00E94C909DA01C901885B9F4FAF4F52
:10069000BF4F880F991F80509E4FFC018081918130
:1006A00022273327281B390BC90108956A5570404A
:1006B0008040904097FD10C025E030E040E050E0E1
:1006C0000E94C909DA01C901880F991F80509E4F05
:1006D000FC012081318117C025E030E040E050E08E
:1006E0000E94C909DA01C901885B9F4FAF4FBF4F14
:1006F000880F991F80509E4FFC0180819181222795
:100700003327281B390BC9010895CF92DF92EF924E
:10071000FF920F931F936B017C018AE5C816D104E9
:10072000E104F104A1F186EAC8168FEFD8068FEF35
:10073000E8068FEFF80659F18EE0C81681E0D8067A
:1007400080E0E80680E0F80611F182EFC8168EEF2F
:10075000D8068FEFE8068FEFF806C9F0C701B6019B
:100760000E9456038C01C701B6010E942B03BC01F5
:10077000C8010E949409CB019B0173E0220F331F33
:100780007A95E1F7880F991F280F391F02C020E0E2
:1007900030E0C9011F910F91FF90EF90DF90CF9053
:1007A0000895AA2797FDA095BA2FBC01CD010E94FC
:1007B000A50828E93EE64AE550E40E94310920E018
:1007C00030E040E85FE30E940D080E947208CB0110
:1007D000089581E090E06EE170E04FEF51E00E94FB
:1007E000140785E090E06EE170E04FEF51E00E9469
:1007F000140789E090E06EE170E04FEF51E00E9455
:1008000014078DE090E06EE170E04FEF51E00E9440
:100810001407089560E472E48FE090E00E94EF0412
:10082000089560E472E48FE090E00E94EF040E947B
:10083000E903FDCFE9ECF0E080818F7E8083808149
:100840008860808380818F7780831092D702109296
:10085000D6020895E9ECF0E08081877F8083808173
:10086000806180838081806880831092F902109279
:10087000F8021092D3021092D2020895E9ECF0E04F
:1008800080818F7E808380818860808380818F7764
:1008900080831092D7021092D6020895982F8091EB
:1008A000C80085FFFCCF9093CE000895282F80913B
:1008B000D6029091D702FC01EE56FD4F208301969F
:1008C0009093D7028093D6028091C80085FFFCCF19
:1008D0002093CE0008951F920F920FB60F920BB681
:1008E0000F9211242F938F939F93EF93FF938091F7
:1008F000F8029091F9022091CE00FC01EE54FD4FD8
:10090000208301969093F9028093F802FF91EF9172
:100910009F918F912F910F900BBE0F900FBE0F9054
:100920001F9018950F931F93DF93CF930F92CDB71E
:10093000DEB78C01198260E01BC04F5F5F4F83E020
:100940004A3E5807F9F089812091F8023091F90266
:10095000FD01E80FF11DE217F30779F331C0809133
:10096000D8028F3F11F06F5F03C089818F5F898349
:10097000898190E0801791072CF440E050E0A62F89
:10098000B0E0E1CF898122E090E007C0E22FF0E003
:10099000E852FD4F8081980F2F5F89812817B0F3AF
:1009A00020E030E0892F90E08F3F910511F421E0A5
:1009B00030E0C9010F90CF91DF911F910F91089501
:1009C000E9818981F0E0E852FD4FAE54BD4FA80F98
:1009D000B11D8C9180838981882339F6C0CF9B011A
:1009E000AC0163E0220F331F441F551F6A95D1F7F6
:1009F00060E074E284EF90E00E94A709C901DA0187
:100A00000197A109B109292F3A2F4B2F552701969C
:100A1000A11DB11D2093CD0081508093CC00E8EC46
:100A2000F0E08081826080831092F9021092F802D7
:100A30001092D3021092D2021092D7021092D602D4
:100A4000E9ECF0E08081877F808380818061808312
:100A50008081806880831092F9021092F8021092CF
:100A6000D3021092D2020895CF93DF93DC01EA0102
:100A70008091C9008F7E8093C9008091C9008860F1
:100A80008093C9008091C9008F778093C90010922C
:100A9000D7021092D6028091D6029091D702FC0123
:100AA000EE56FD4F2FEF208301969093D70280934F
:100AB000D6028091C80085FFFCCF8FEF8093CE00D7
:100AC0002091D6023091D702F901EE56FD4F808376
:100AD0002F5F3F4F3093D7022093D6028091C800FA
:100AE00085FFFCCF8FEF8093CE002A2F8091D60216
:100AF0009091D702FC01EE56FD4FA0830196909392
:100B0000D7028093D6028091C80085FFFCCF209346
:100B1000CE008091D6029091D702FC01EE56FD4F97
:100B200024E0208301969093D7028093D60280918F
:100B3000C80085FFFCCF84E08093CE008091D60270
:100B40009091D702FC01EE56FD4F22E020830196E2
:100B50009093D7028093D6028091C80085FFFCCF86
:100B600082E08093CE00262F8091D6029091D7020A
:100B7000FC01EE56FD4F608301969093D70280935F
:100B8000D6028091C80085FFFCCF2093CE002C2F89
:100B90008091D6029091D702FC01EE56FD4FC083A2
:100BA00001969093D7028093D6028091C80085FF6A
:100BB000FCCF2093CE001696A60FB71FCD018C0F49
:100BC0009D1F60E071E00E94940980959095982F98
:100BD0002091D6023091D702F901EE56FD4F808365
:100BE0002F5F3F4F3093D7022093D6028091C800E9
:100BF00085FFFCCF9093CE008091C900877F8093C2
:100C0000C9008091C90080618093C9008091C900AA
:100C100080688093C9001092F9021092F802109235
:100C2000D3021092D202CE0106960E9492041816A8
:100C300019061CF02FEF3FEF16C08091DC02809365
:100C4000D4021092D502219729F48091DD02282F39
:100C500030E009C09091DE0280E02091DD02AC011D
:100C6000420F511D9A01C901DF91CF910895DC0116
:100C70008091C9008F7E8093C9008091C9008860EF
:100C80008093C9008091C9008F778093C90010922A
:100C9000D7021092D6028091D6029091D702FC0121
:100CA000EE56FD4F2FEF208301969093D70280934D
:100CB000D6028091C80085FFFCCF8FEF8093CE00D5
:100CC0002091D6023091D702F901EE56FD4F808374
:100CD0002F5F3F4F3093D7022093D6028091C800F8
:100CE00085FFFCCF8FEF8093CE002A2F8091D60214
:100CF0009091D702FC01EE56FD4FA0830196909390
:100D0000D7028093D6028091C80085FFFCCF209344
:100D1000CE008091D6029091D702FC01EE56FD4F95
:100D200024E0208301969093D7028093D60280918D
:100D3000C80085FFFCCF84E08093CE008091D6026E
:100D40009091D702FC01EE56FD4F23E020830196DF
:100D50009093D7028093D6028091C80085FFFCCF84
:100D600083E08093CE00262F8091D6029091D70207
:100D7000FC01EE56FD4F608301969093D70280935D
:100D8000D6028091C80085FFFCCF2093CE00242F8F
:100D90008091D6029091D702FC01EE56FD4F408320
:100DA00001969093D7028093D6028091C80085FF68
:100DB000FCCF2093CE001796A60FB71FCD01840F4E
:100DC000911D60E071E00E94940980959095982FA4
:100DD0002091D6023091D702F901EE56FD4F808363
:100DE0002F5F3F4F3093D7022093D6028091C800E7
:100DF00085FFFCCF9093CE008091C900877F8093C0
:100E0000C9008091C90080618093C9008091C900A8
:100E100080688093C9001092F9021092F802109233
:100E2000D3021092D2020895CF93DF93EC01809108
:100E3000C9008F7E8093C9008091C900886080932B
:100E4000C9008091C9008F778093C9001092D702A2
:100E50001092D602A52FB0E08091D6029091D702D1
:100E6000FC01EE56FD4F2FEF208301969093D702A1
:100E70008093D6028091C80085FFFCCF8FEF8093CE
:100E8000CE002091D6023091D702F901EE56FD4FE7
:100E900080832F5F3F4F3093D7022093D6028091FB
:100EA000C80085FFFCCF8FEF8093CE002C2F809160
:100EB000D6029091D702FC01EE56FD4FC0830196F9
:100EC0009093D7028093D6028091C80085FFFCCF13
:100ED0002093CE008091D6029091D702FC01EE566D
:100EE000FD4F25E0208301969093D7028093D60290
:100EF0008091C80085FFFCCF85E08093CE00809173
:100F0000D6029091D702FC01EE56FD4F23E02083DC
:100F100001969093D7028093D6028091C80085FFF6
:100F2000FCCF83E08093CE00262F8091D602909153
:100F3000D702FC01EE56FD4F608301969093D702D5
:100F40008093D6028091C80085FFFCCF2093CE000D
:100F5000242F8091D6029091D702FC01EE56FD4FCE
:100F6000408301969093D7028093D6028091C80067
:100F700085FFFCCF2093CE002A2F8091D60290913E
:100F8000D702FC01EE56FD4FA08301969093D70245
:100F90008093D6028091C80085FFFCCF2093CE00BD
:100FA000CE010896860F971F840F911D8A0F9B1FF5
:100FB000907080959095982F2091D6023091D7020D
:100FC000F901EE56FD4F80832F5F3F4F3093D702DC
:100FD0002093D6028091C80085FFFCCF9093CE006D
:100FE0008091C900877F8093C9008091C90080618A
:100FF0008093C9008091C90080688093C9001092D5
:10100000F9021092F8021092D3021092D202DF91EC
:10101000CF910895F8940C94F8095058BB27AA274B
:101020000ED0E5C0D6D030F0DBD020F031F49F3FB9
:1010300011F41EF4CBC00EF4E095E7FBC1C0E92F1C
:10104000E7D080F3BA17620773078407950718F093
:1010500071F49EF5FFC00EF4E0950B2EBA2FA02D73
:101060000B01B90190010C01CA01A0011124FF2755
:10107000591B99F0593F50F4503E68F11A16F04050
:10108000A22F232F342F4427585FF3CF469537954F
:101090002795A795F0405395C9F77EF41F16BA0B14
:1010A000620B730B840BBAF09150A1F0FF0FBB1FC2
:1010B000661F771F881FC2F70EC0BA0F621F731F0B
:1010C000841F48F4879577956795B795F7959E3F68
:1010D00008F0B3CF9395880F08F09927EE0F9795F6
:1010E0008795089504D06894B111B5C0089598D03B
:1010F00088F09F5790F0B92F9927B751A0F0D1F001
:10110000660F771F881F991F1AF0BA95C9F712C08A
:10111000B13081F09FD0B1E008959CC0672F782F47
:101120008827B85F39F0B93FCCF3869577956795F6
:10113000B395D9F73EF490958095709561957F4F62
:101140008F4F9F4F0895E89409C097FB3EF4909508
:101150008095709561957F4F8F4F9F4F9923A9F090
:10116000F92F96E9BB279395F6958795779567951F
:10117000B795F111F8CFFAF4BB0F11F460FF1BC063
:101180006F5F7F4F8F4F9F4F16C0882311F096E9F6
:1011900011C0772321F09EE8872F762F05C06623A4
:1011A00071F096E8862F70E060E02AF09A95660F5D
:1011B000771F881FDAF7880F9695879597F9089516
:1011C00097F99F6780E870E060E008959FEF80ECFA
:1011D000089500240A94161617061806090608959D
:1011E00000240A9412161306140605060895092E03
:1011F0000394000C11F4882352F0BB0F40F4BF2B72
:1012000011F460FF04C06F5F7F4F8F4F9F4F0895B1
:1012100057FD9058440F551F59F05F3F71F04795A7
:10122000880F97FB991F61F09F3F79F0879508958C
:10123000121613061406551FF2CF4695F1DF08C0AB
:10124000161617061806991FF1CF869571056105C8
:1012500008940895E894BB2766277727CB0197F970
:1012600008950BD0C4CFB5DF28F0BADF18F095236E
:1012700009F0A6CFABCF1124EECFCADFA0F3959F24
:10128000D1F3950F50E0551F629FF001729FBB276D
:10129000F00DB11D639FAA27F00DB11DAA1F649F19
:1012A0006627B00DA11D661F829F2227B00DA11DCC
:1012B000621F739FB00DA11D621F839FA00D611D52
:1012C000221F749F3327A00D611D231F849F600D73
:1012D000211D822F762F6A2F11249F5750408AF0AC
:1012E000E1F088234AF0EE0FFF1FBB1F661F771F38
:1012F000881F91505040A9F79E3F510570F060CF74
:10130000AACF5F3FECF3983EDCF38695779567951F
:10131000B795F795E7959F5FC1F7FE2B880F911D55
:101320009695879597F9089597FB092E07260AD079
:1013300077FD04D049D006D000201AF4709561954D
:101340007F4F0895F6F7909581959F4F0895A1E2FC
:101350001A2EAA1BBB1BFD010DC0AA1FBB1FEE1F2F
:10136000FF1FA217B307E407F50720F0A21BB30B7A
:10137000E40BF50B661F771F881F991F1A9469F7F6
:1013800060957095809590959B01AC01BD01CF0152
:10139000089597FB092E05260ED057FD04D0D7DF00
:1013A0000AD0001C38F450954095309521953F4F58
:1013B0004F4F5F4F0895F6F7909580957095619522
:1013C0007F4F8F4F9F4F0895AA1BBB1B51E107C052
:1013D000AA1FBB1FA617B70710F0A61BB70B881FC5
:1013E000991F5A95A9F780959095BC01CD01089554
:0413F000F894FFCF9F
:1013F40064006400620061005E005B0057005200FC
:101404004D0047004000390032002A0022001A0033
:10141400110009000000F7FFEFFFE6FFDEFFD6FF33
:10142400CEFFC7FFC0FFB9FFB3FFAEFFA9FFA5FF03
:10143400A2FF9FFF9EFF9CFF9CFF9CFF9EFF9FFFC0
:10144400A2FFA5FFA9FFAEFFB3FFB9FFC0FFC7FF0F
:10145400CEFFD6FFDEFFE6FFEFFFF7FF0000090037
:1014640011001A0022002A0032003900400047000F
:101474004D00520057005B005E0061006200640092
:02148400640002
:00000001FF
